{
  "abi": [
    {
      "inputs": [
        {
          "internalType": "address",
          "name": "wrappedNative",
          "type": "address"
        }
      ],
      "stateMutability": "nonpayable",
      "type": "constructor"
    },
    {
      "inputs": [],
      "name": "InsufficientFeeTokenAmount",
      "type": "error"
    },
    {
      "inputs": [],
      "name": "InvalidMsgValue",
      "type": "error"
    },
    {
      "inputs": [],
      "name": "OnlyOffRamp",
      "type": "error"
    },
    {
      "inputs": [
        {
          "internalType": "uint64",
          "name": "destChainSelector",
          "type": "uint64"
        }
      ],
      "name": "UnsupportedDestinationChain",
      "type": "error"
    },
    {
      "anonymous": false,
      "inputs": [
        {
          "indexed": true,
          "internalType": "bytes32",
          "name": "messageId",
          "type": "bytes32"
        },
        {
          "indexed": false,
          "internalType": "bool",
          "name": "success",
          "type": "bool"
        },
        {
          "indexed": false,
          "internalType": "bytes",
          "name": "data",
          "type": "bytes"
        }
      ],
      "name": "MessageExecuted",
      "type": "event"
    },
    {
      "anonymous": false,
      "inputs": [
        {
          "indexed": true,
          "internalType": "uint64",
          "name": "sourceChainSelector",
          "type": "uint64"
        },
        {
          "indexed": false,
          "internalType": "address",
          "name": "offRamp",
          "type": "address"
        }
      ],
      "name": "OffRampAdded",
      "type": "event"
    },
    {
      "anonymous": false,
      "inputs": [
        {
          "indexed": true,
          "internalType": "uint64",
          "name": "sourceChainSelector",
          "type": "uint64"
        },
        {
          "indexed": false,
          "internalType": "address",
          "name": "offRamp",
          "type": "address"
        }
      ],
      "name": "OffRampRemoved",
      "type": "event"
    },
    {
      "anonymous": false,
      "inputs": [
        {
          "indexed": true,
          "internalType": "uint64",
          "name": "destChainSelector",
          "type": "uint64"
        },
        {
          "indexed": false,
          "internalType": "address",
          "name": "onRamp",
          "type": "address"
        }
      ],
      "name": "OnRampSet",
      "type": "event"
    },
    {
      "anonymous": false,
      "inputs": [
        {
          "indexed": true,
          "internalType": "address",
          "name": "from",
          "type": "address"
        },
        {
          "indexed": true,
          "internalType": "address",
          "name": "to",
          "type": "address"
        }
      ],
      "name": "OwnershipTransferRequested",
      "type": "event"
    },
    {
      "anonymous": false,
      "inputs": [
        {
          "indexed": true,
          "internalType": "address",
          "name": "from",
          "type": "address"
        },
        {
          "indexed": true,
          "internalType": "address",
          "name": "to",
          "type": "address"
        }
      ],
      "name": "OwnershipTransferred",
      "type": "event"
    },
    {
      "inputs": [],
      "name": "MAX_RET_BYTES",
      "outputs": [
        {
          "internalType": "uint16",
          "name": "",
          "type": "uint16"
        }
      ],
      "stateMutability": "view",
      "type": "function"
    },
    {
      "inputs": [],
      "name": "acceptOwnership",
      "outputs": [],
      "stateMutability": "nonpayable",
      "type": "function"
    },
    {
      "inputs": [
        {
          "components": [
            {
              "internalType": "uint64",
              "name": "destChainSelector",
              "type": "uint64"
            },
            {
              "internalType": "address",
              "name": "onRamp",
              "type": "address"
            }
          ],
          "internalType": "struct Router.OnRamp[]",
          "name": "onRampUpdates",
          "type": "tuple[]"
        },
        {
          "components": [
            {
              "internalType": "uint64",
              "name": "sourceChainSelector",
              "type": "uint64"
            },
            {
              "internalType": "address",
              "name": "offRamp",
              "type": "address"
            }
          ],
          "internalType": "struct Router.OffRamp[]",
          "name": "offRampRemoves",
          "type": "tuple[]"
        },
        {
          "components": [
            {
              "internalType": "uint64",
              "name": "sourceChainSelector",
              "type": "uint64"
            },
            {
              "internalType": "address",
              "name": "offRamp",
              "type": "address"
            }
          ],
          "internalType": "struct Router.OffRamp[]",
          "name": "offRampAdds",
          "type": "tuple[]"
        }
      ],
      "name": "applyRampUpdates",
      "outputs": [],
      "stateMutability": "nonpayable",
      "type": "function"
    },
    {
      "inputs": [
        {
          "internalType": "uint64",
          "name": "destinationChainSelector",
          "type": "uint64"
        },
        {
          "components": [
            {
              "internalType": "bytes",
              "name": "receiver",
              "type": "bytes"
            },
            {
              "internalType": "bytes",
              "name": "data",
              "type": "bytes"
            },
            {
              "components": [
                {
                  "internalType": "address",
                  "name": "token",
                  "type": "address"
                },
                {
                  "internalType": "uint256",
                  "name": "amount",
                  "type": "uint256"
                }
              ],
              "internalType": "struct Client.EVMTokenAmount[]",
              "name": "tokenAmounts",
              "type": "tuple[]"
            },
            {
              "internalType": "address",
              "name": "feeToken",
              "type": "address"
            },
            {
              "internalType": "bytes",
              "name": "extraArgs",
              "type": "bytes"
            }
          ],
          "internalType": "struct Client.EVM2AnyMessage",
          "name": "message",
          "type": "tuple"
        }
      ],
      "name": "ccipSend",
      "outputs": [
        {
          "internalType": "bytes32",
          "name": "",
          "type": "bytes32"
        }
      ],
      "stateMutability": "payable",
      "type": "function"
    },
    {
      "inputs": [
        {
          "internalType": "uint64",
          "name": "destinationChainSelector",
          "type": "uint64"
        },
        {
          "components": [
            {
              "internalType": "bytes",
              "name": "receiver",
              "type": "bytes"
            },
            {
              "internalType": "bytes",
              "name": "data",
              "type": "bytes"
            },
            {
              "components": [
                {
                  "internalType": "address",
                  "name": "token",
                  "type": "address"
                },
                {
                  "internalType": "uint256",
                  "name": "amount",
                  "type": "uint256"
                }
              ],
              "internalType": "struct Client.EVMTokenAmount[]",
              "name": "tokenAmounts",
              "type": "tuple[]"
            },
            {
              "internalType": "address",
              "name": "feeToken",
              "type": "address"
            },
            {
              "internalType": "bytes",
              "name": "extraArgs",
              "type": "bytes"
            }
          ],
          "internalType": "struct Client.EVM2AnyMessage",
          "name": "message",
          "type": "tuple"
        }
      ],
      "name": "getFee",
      "outputs": [
        {
          "internalType": "uint256",
          "name": "fee",
          "type": "uint256"
        }
      ],
      "stateMutability": "view",
      "type": "function"
    },
    {
      "inputs": [],
      "name": "getOffRamps",
      "outputs": [
        {
          "components": [
            {
              "internalType": "uint64",
              "name": "sourceChainSelector",
              "type": "uint64"
            },
            {
              "internalType": "address",
              "name": "offRamp",
              "type": "address"
            }
          ],
          "internalType": "struct Router.OffRamp[]",
          "name": "",
          "type": "tuple[]"
        }
      ],
      "stateMutability": "view",
      "type": "function"
    },
    {
      "inputs": [
        {
          "internalType": "uint64",
          "name": "destChainSelector",
          "type": "uint64"
        }
      ],
      "name": "getOnRamp",
      "outputs": [
        {
          "internalType": "address",
          "name": "",
          "type": "address"
        }
      ],
      "stateMutability": "view",
      "type": "function"
    },
    {
      "inputs": [
        {
          "internalType": "uint64",
          "name": "chainSelector",
          "type": "uint64"
        }
      ],
      "name": "getSupportedTokens",
      "outputs": [
        {
          "internalType": "address[]",
          "name": "",
          "type": "address[]"
        }
      ],
      "stateMutability": "view",
      "type": "function"
    },
    {
      "inputs": [],
      "name": "getWrappedNative",
      "outputs": [
        {
          "internalType": "address",
          "name": "",
          "type": "address"
        }
      ],
      "stateMutability": "view",
      "type": "function"
    },
    {
      "inputs": [
        {
          "internalType": "uint64",
          "name": "chainSelector",
          "type": "uint64"
        }
      ],
      "name": "isChainSupported",
      "outputs": [
        {
          "internalType": "bool",
          "name": "",
          "type": "bool"
        }
      ],
      "stateMutability": "view",
      "type": "function"
    },
    {
      "inputs": [
        {
          "internalType": "address",
          "name": "offRamp",
          "type": "address"
        }
      ],
      "name": "isOffRamp",
      "outputs": [
        {
          "internalType": "bool",
          "name": "",
          "type": "bool"
        },
        {
          "internalType": "uint64",
          "name": "",
          "type": "uint64"
        }
      ],
      "stateMutability": "view",
      "type": "function"
    },
    {
      "inputs": [],
      "name": "owner",
      "outputs": [
        {
          "internalType": "address",
          "name": "",
          "type": "address"
        }
      ],
      "stateMutability": "view",
      "type": "function"
    },
    {
      "inputs": [
        {
          "internalType": "address",
          "name": "tokenAddress",
          "type": "address"
        },
        {
          "internalType": "address",
          "name": "to",
          "type": "address"
        },
        {
          "internalType": "uint256",
          "name": "amount",
          "type": "uint256"
        }
      ],
      "name": "recoverTokens",
      "outputs": [],
      "stateMutability": "nonpayable",
      "type": "function"
    },
    {
      "inputs": [
        {
          "components": [
            {
              "internalType": "bytes32",
              "name": "messageId",
              "type": "bytes32"
            },
            {
              "internalType": "uint64",
              "name": "sourceChainSelector",
              "type": "uint64"
            },
            {
              "internalType": "bytes",
              "name": "sender",
              "type": "bytes"
            },
            {
              "internalType": "bytes",
              "name": "data",
              "type": "bytes"
            },
            {
              "components": [
                {
                  "internalType": "address",
                  "name": "token",
                  "type": "address"
                },
                {
                  "internalType": "uint256",
                  "name": "amount",
                  "type": "uint256"
                }
              ],
              "internalType": "struct Client.EVMTokenAmount[]",
              "name": "destTokenAmounts",
              "type": "tuple[]"
            }
          ],
          "internalType": "struct Client.Any2EVMMessage",
          "name": "message",
          "type": "tuple"
        },
        {
          "internalType": "uint16",
          "name": "gasForCallExactCheck",
          "type": "uint16"
        },
        {
          "internalType": "uint256",
          "name": "gasLimit",
          "type": "uint256"
        },
        {
          "internalType": "address",
          "name": "receiver",
          "type": "address"
        }
      ],
      "name": "routeMessage",
      "outputs": [
        {
          "internalType": "bool",
          "name": "",
          "type": "bool"
        }
      ],
      "stateMutability": "nonpayable",
      "type": "function"
    },
    {
      "inputs": [
        {
          "internalType": "address",
          "name": "wrappedNative",
          "type": "address"
        }
      ],
      "name": "setWrappedNative",
      "outputs": [],
      "stateMutability": "nonpayable",
      "type": "function"
    },
    {
      "inputs": [
        {
          "internalType": "address",
          "name": "to",
          "type": "address"
        }
      ],
      "name": "transferOwnership",
      "outputs": [],
      "stateMutability": "nonpayable",
      "type": "function"
    },
    {
      "inputs": [],
      "name": "typeAndVersion",
      "outputs": [
        {
          "internalType": "string",
          "name": "",
          "type": "string"
        }
      ],
      "stateMutability": "view",
      "type": "function"
    }
  ],
  "bytecode": {
    "object": "0x60806040523480156200001157600080fd5b50604051620029e6380380620029e6833981016040819052620000349162000193565b33806000816200008b5760405162461bcd60e51b815260206004820152601860248201527f43616e6e6f7420736574206f776e657220746f207a65726f000000000000000060448201526064015b60405180910390fd5b600080546001600160a01b0319166001600160a01b0384811691909117909155811615620000be57620000be81620000e8565b5050600280546001600160a01b0319166001600160a01b03939093169290921790915550620001c5565b336001600160a01b03821603620001425760405162461bcd60e51b815260206004820152601760248201527f43616e6e6f74207472616e7366657220746f2073656c66000000000000000000604482015260640162000082565b600180546001600160a01b0319166001600160a01b0383811691821790925560008054604051929316917fed8889f560326eb138920d842192f0eb3dd22b4f139c87a2c57538e05bae12789190a350565b600060208284031215620001a657600080fd5b81516001600160a01b0381168114620001be57600080fd5b9392505050565b61281180620001d56000396000f3fe60806040526004361061010e5760003560e01c80638da5cb5b116100a5578063a8d87a3b11610074578063e861e90711610059578063e861e907146103cc578063f2fde38b146103f7578063fbca3b741461041757600080fd5b8063a8d87a3b1461035f578063da5fcac8146103ac57600080fd5b80638da5cb5b1461028f57806396f4e9f9146102db578063a40e69c7146102ee578063a48a90581461031057600080fd5b806352cb60ca116100e157806352cb60ca146102105780635f3e849f14610232578063787350e31461025257806379ba50971461027a57600080fd5b8063181f5a77146101135780631d7a74a01461017257806320487ded146101b25780633cf97983146101e0575b600080fd5b34801561011f57600080fd5b5061015c6040518060400160405280600c81526020017f526f7574657220312e302e30000000000000000000000000000000000000000081525081565b6040516101699190611c80565b60405180910390f35b34801561017e57600080fd5b5061019261018d366004611cc5565b610444565b60408051921515835267ffffffffffffffff909116602083015201610169565b3480156101be57600080fd5b506101d26101cd366004611f0e565b610460565b604051908152602001610169565b3480156101ec57600080fd5b506102006101fb36600461200b565b6105b6565b6040519015158152602001610169565b34801561021c57600080fd5b5061023061022b366004611cc5565b610725565b005b34801561023e57600080fd5b5061023061024d366004612083565b610774565b34801561025e57600080fd5b50610267608481565b60405161ffff9091168152602001610169565b34801561028657600080fd5b5061023061087e565b34801561029b57600080fd5b5060005473ffffffffffffffffffffffffffffffffffffffff165b60405173ffffffffffffffffffffffffffffffffffffffff9091168152602001610169565b6101d26102e9366004611f0e565b61097b565b3480156102fa57600080fd5b50610303610e3f565b60405161016991906120c4565b34801561031c57600080fd5b5061020061032b366004612133565b67ffffffffffffffff1660009081526003602052604090205473ffffffffffffffffffffffffffffffffffffffff16151590565b34801561036b57600080fd5b506102b661037a366004612133565b67ffffffffffffffff1660009081526003602052604090205473ffffffffffffffffffffffffffffffffffffffff1690565b3480156103b857600080fd5b506102306103c7366004612193565b610f36565b3480156103d857600080fd5b5060025473ffffffffffffffffffffffffffffffffffffffff166102b6565b34801561040357600080fd5b50610230610412366004611cc5565b611256565b34801561042357600080fd5b50610437610432366004612133565b61126a565b604051610169919061222d565b6000808080610454600486611383565b90969095509350505050565b606081015160009073ffffffffffffffffffffffffffffffffffffffff166104a15760025473ffffffffffffffffffffffffffffffffffffffff1660608301525b67ffffffffffffffff831660009081526003602052604090205473ffffffffffffffffffffffffffffffffffffffff1680610519576040517fae236d9c00000000000000000000000000000000000000000000000000000000815267ffffffffffffffff851660048201526024015b60405180910390fd5b6040517f38724a9500000000000000000000000000000000000000000000000000000000815273ffffffffffffffffffffffffffffffffffffffff8216906338724a959061056b908690600401612364565b602060405180830381865afa158015610588573d6000803e3d6000fd5b505050506040513d601f19601f820116820180604052508101906105ac9190612377565b9150505b92915050565b60006105c86040860160208701612133565b6000806105d6600433611383565b915091508115806105fb57508067ffffffffffffffff168367ffffffffffffffff1614155b15610632576040517fd2316ede00000000000000000000000000000000000000000000000000000000815260040160405180910390fd5b6000806106d68989896385572ffb60e01b8e604051602401610654919061249d565b604080517fffffffffffffffffffffffffffffffffffffffffffffffffffffffffffffffe08184030181529190526020810180517bffffffffffffffffffffffffffffffffffffffffffffffffffffffff167fffffffff00000000000000000000000000000000000000000000000000000000909316929092179091526113b7565b9150915089600001357ffccbc020bf09c1d5d926bf42701a399ec19816c13154d358483303b7a4be2ad083836040516107109291906125a9565b60405180910390a25098975050505050505050565b61072d61141c565b600280547fffffffffffffffffffffffff00000000000000000000000000000000000000001673ffffffffffffffffffffffffffffffffffffffff92909216919091179055565b61077c61141c565b73ffffffffffffffffffffffffffffffffffffffff83166107e05760405173ffffffffffffffffffffffffffffffffffffffff83169082156108fc029083906000818181858888f193505050501580156107da573d6000803e3d6000fd5b50505050565b6040517fa9059cbb00000000000000000000000000000000000000000000000000000000815273ffffffffffffffffffffffffffffffffffffffff83811660048301526024820183905284169063a9059cbb906044016020604051808303816000875af1158015610855573d6000803e3d6000fd5b505050506040513d601f19601f820116820180604052508101906107da91906125c4565b505050565b60015473ffffffffffffffffffffffffffffffffffffffff1633146108ff576040517f08c379a000000000000000000000000000000000000000000000000000000000815260206004820152601660248201527f4d7573742062652070726f706f736564206f776e6572000000000000000000006044820152606401610510565b60008054337fffffffffffffffffffffffff00000000000000000000000000000000000000008083168217845560018054909116905560405173ffffffffffffffffffffffffffffffffffffffff90921692909183917f8be0079c531659141344cd1fd0a4f28419497f9722a3daafe3b4186f6b6457e091a350565b67ffffffffffffffff821660009081526003602052604081205473ffffffffffffffffffffffffffffffffffffffff16806109ee576040517fae236d9c00000000000000000000000000000000000000000000000000000000815267ffffffffffffffff85166004820152602401610510565b606083015160009073ffffffffffffffffffffffffffffffffffffffff16610b7f5760025473ffffffffffffffffffffffffffffffffffffffff90811660608601526040517f38724a95000000000000000000000000000000000000000000000000000000008152908316906338724a9590610a6e908790600401612364565b602060405180830381865afa158015610a8b573d6000803e3d6000fd5b505050506040513d601f19601f82011682018060405250810190610aaf9190612377565b905080341015610aeb576040517f07da6ee600000000000000000000000000000000000000000000000000000000815260040160405180910390fd5b349050836060015173ffffffffffffffffffffffffffffffffffffffff1663d0e30db0826040518263ffffffff1660e01b81526004016000604051808303818588803b158015610b3a57600080fd5b505af1158015610b4e573d6000803e3d6000fd5b505050506060850151610b7a915073ffffffffffffffffffffffffffffffffffffffff1630848461149f565b610c74565b3415610bb7576040517f1841b4e100000000000000000000000000000000000000000000000000000000815260040160405180910390fd5b6040517f38724a9500000000000000000000000000000000000000000000000000000000815273ffffffffffffffffffffffffffffffffffffffff8316906338724a9590610c09908790600401612364565b602060405180830381865afa158015610c26573d6000803e3d6000fd5b505050506040513d601f19601f82011682018060405250810190610c4a9190612377565b6060850151909150610c749073ffffffffffffffffffffffffffffffffffffffff1633848461149f565b60005b846040015151811015610d9c57600085604001518281518110610c9c57610c9c6125e6565b6020908102919091010151516040517f5d86f14100000000000000000000000000000000000000000000000000000000815273ffffffffffffffffffffffffffffffffffffffff8083166004830152919250610d8b91339190871690635d86f14190602401602060405180830381865afa158015610d1e573d6000803e3d6000fd5b505050506040513d601f19601f82011682018060405250810190610d429190612615565b88604001518581518110610d5857610d586125e6565b6020026020010151602001518473ffffffffffffffffffffffffffffffffffffffff1661149f909392919063ffffffff16565b50610d9581612661565b9050610c77565b506040517fa7d3e02f00000000000000000000000000000000000000000000000000000000815273ffffffffffffffffffffffffffffffffffffffff83169063a7d3e02f90610df390879085903390600401612699565b6020604051808303816000875af1158015610e12573d6000803e3d6000fd5b505050506040513d601f19601f82011682018060405250810190610e369190612377565b95945050505050565b60606000610e4d6004611534565b67ffffffffffffffff811115610e6557610e65611cfa565b604051908082528060200260200182016040528015610eaa57816020015b6040805180820190915260008082526020820152815260200190600190039081610e835790505b50905060005b8151811015610f3057600080610ec760048461153f565b9150915060405180604001604052808267ffffffffffffffff1681526020018373ffffffffffffffffffffffffffffffffffffffff16815250848481518110610f1257610f126125e6565b6020026020010181905250505080610f2990612661565b9050610eb0565b50919050565b610f3e61141c565b60005b85811015611022576000878783818110610f5d57610f5d6125e6565b905060400201803603810190610f7391906126d8565b60208181018051835167ffffffffffffffff90811660009081526003855260409081902080547fffffffffffffffffffffffff00000000000000000000000000000000000000001673ffffffffffffffffffffffffffffffffffffffff948516179055855193519051921682529394509216917f1f7d0ec248b80e5c0dde0ee531c4fc8fdb6ce9a2b3d90f560c74acd6a7202f23910160405180910390a25061101b81612661565b9050610f41565b5060005b8381101561111e57611063858583818110611043576110436125e6565b905060400201602001602081019061105b9190611cc5565b60049061154e565b1561110e5784848281811061107a5761107a6125e6565b6110909260206040909202019081019150612133565b67ffffffffffffffff167fa823809efda3ba66c873364eec120fa0923d9fabda73bc97dd5663341e2d9bcb8686848181106110cd576110cd6125e6565b90506040020160200160208101906110e59190611cc5565b60405173ffffffffffffffffffffffffffffffffffffffff909116815260200160405180910390a25b61111781612661565b9050611026565b5060005b8181101561124d5761119283838381811061113f5761113f6125e6565b90506040020160200160208101906111579190611cc5565b848484818110611169576111696125e6565b61117f9260206040909202019081019150612133565b6004919067ffffffffffffffff16611577565b1561123d578282828181106111a9576111a96125e6565b6111bf9260206040909202019081019150612133565b67ffffffffffffffff167fa4bdf64ebdf3316320601a081916a75aa144bcef6c4beeb0e9fb1982cacc6b948484848181106111fc576111fc6125e6565b90506040020160200160208101906112149190611cc5565b60405173ffffffffffffffffffffffffffffffffffffffff909116815260200160405180910390a25b61124681612661565b9050611122565b50505050505050565b61125e61141c565b611267816115a2565b50565b60606112a48267ffffffffffffffff1660009081526003602052604090205473ffffffffffffffffffffffffffffffffffffffff16151590565b6112bc57505060408051600081526020810190915290565b67ffffffffffffffff82166000908152600360205260408082205481517fd3c7c2c7000000000000000000000000000000000000000000000000000000008152915173ffffffffffffffffffffffffffffffffffffffff9091169263d3c7c2c792600480820193918290030181865afa15801561133d573d6000803e3d6000fd5b505050506040513d6000823e601f3d9081017fffffffffffffffffffffffffffffffffffffffffffffffffffffffffffffffe01682016040526105b09190810190612717565b60008080806113a88673ffffffffffffffffffffffffffffffffffffffff8716611697565b909450925050505b9250929050565b600060605a868110156113c957600080fd5b86900360408104810386106113dd57600080fd5b50833b6113e957600080fd5b6000808451602086016000888af191503d6084811115611407575060845b808252806000602084013e5094509492505050565b60005473ffffffffffffffffffffffffffffffffffffffff16331461149d576040517f08c379a000000000000000000000000000000000000000000000000000000000815260206004820152601660248201527f4f6e6c792063616c6c61626c65206279206f776e6572000000000000000000006044820152606401610510565b565b6040805173ffffffffffffffffffffffffffffffffffffffff85811660248301528416604482015260648082018490528251808303909101815260849091019091526020810180517bffffffffffffffffffffffffffffffffffffffffffffffffffffffff167f23b872dd000000000000000000000000000000000000000000000000000000001790526107da9085906116d1565b60006105b0826117dd565b60008080806113a886866117e8565b60006115708373ffffffffffffffffffffffffffffffffffffffff8416611813565b9392505050565b600061159a8473ffffffffffffffffffffffffffffffffffffffff851684611830565b949350505050565b3373ffffffffffffffffffffffffffffffffffffffff821603611621576040517f08c379a000000000000000000000000000000000000000000000000000000000815260206004820152601760248201527f43616e6e6f74207472616e7366657220746f2073656c660000000000000000006044820152606401610510565b600180547fffffffffffffffffffffffff00000000000000000000000000000000000000001673ffffffffffffffffffffffffffffffffffffffff83811691821790925560008054604051929316917fed8889f560326eb138920d842192f0eb3dd22b4f139c87a2c57538e05bae12789190a350565b60008181526002830160205260408120548190806116c6576116b9858561184d565b9250600091506113b09050565b6001925090506113b0565b6000611733826040518060400160405280602081526020017f5361666545524332303a206c6f772d6c6576656c2063616c6c206661696c65648152508573ffffffffffffffffffffffffffffffffffffffff166118599092919063ffffffff16565b805190915015610879578080602001905181019061175191906125c4565b610879576040517f08c379a000000000000000000000000000000000000000000000000000000000815260206004820152602a60248201527f5361666545524332303a204552433230206f7065726174696f6e20646964206e60448201527f6f742073756363656564000000000000000000000000000000000000000000006064820152608401610510565b60006105b082611868565b600080806117f68585611872565b600081815260029690960160205260409095205494959350505050565b60008181526002830160205260408120819055611570838361187e565b6000828152600284016020526040812082905561159a848461188a565b60006115708383611896565b606061159a84846000856118ae565b60006105b0825490565b600061157083836119c7565b600061157083836119f1565b60006115708383611ae4565b60008181526001830160205260408120541515611570565b606082471015611940576040517f08c379a000000000000000000000000000000000000000000000000000000000815260206004820152602660248201527f416464726573733a20696e73756666696369656e742062616c616e636520666f60448201527f722063616c6c00000000000000000000000000000000000000000000000000006064820152608401610510565b6000808673ffffffffffffffffffffffffffffffffffffffff16858760405161196991906127a6565b60006040518083038185875af1925050503d80600081146119a6576040519150601f19603f3d011682016040523d82523d6000602084013e6119ab565b606091505b50915091506119bc87838387611b33565b979650505050505050565b60008260000182815481106119de576119de6125e6565b9060005260206000200154905092915050565b60008181526001830160205260408120548015611ada576000611a156001836127c2565b8554909150600090611a29906001906127c2565b9050818114611a8e576000866000018281548110611a4957611a496125e6565b9060005260206000200154905080876000018481548110611a6c57611a6c6125e6565b6000918252602080832090910192909255918252600188019052604090208390555b8554869080611a9f57611a9f6127d5565b6001900381819060005260206000200160009055905585600101600086815260200190815260200160002060009055600193505050506105b0565b60009150506105b0565b6000818152600183016020526040812054611b2b575081546001818101845560008481526020808220909301849055845484825282860190935260409020919091556105b0565b5060006105b0565b60608315611bc9578251600003611bc25773ffffffffffffffffffffffffffffffffffffffff85163b611bc2576040517f08c379a000000000000000000000000000000000000000000000000000000000815260206004820152601d60248201527f416464726573733a2063616c6c20746f206e6f6e2d636f6e74726163740000006044820152606401610510565b508161159a565b61159a8383815115611bde5781518083602001fd5b806040517f08c379a00000000000000000000000000000000000000000000000000000000081526004016105109190611c80565b60005b83811015611c2d578181015183820152602001611c15565b50506000910152565b60008151808452611c4e816020860160208601611c12565b601f017fffffffffffffffffffffffffffffffffffffffffffffffffffffffffffffffe0169290920160200192915050565b6020815260006115706020830184611c36565b73ffffffffffffffffffffffffffffffffffffffff8116811461126757600080fd5b8035611cc081611c93565b919050565b600060208284031215611cd757600080fd5b813561157081611c93565b803567ffffffffffffffff81168114611cc057600080fd5b7f4e487b7100000000000000000000000000000000000000000000000000000000600052604160045260246000fd5b6040805190810167ffffffffffffffff81118282101715611d4c57611d4c611cfa565b60405290565b60405160a0810167ffffffffffffffff81118282101715611d4c57611d4c611cfa565b604051601f82017fffffffffffffffffffffffffffffffffffffffffffffffffffffffffffffffe016810167ffffffffffffffff81118282101715611dbc57611dbc611cfa565b604052919050565b600082601f830112611dd557600080fd5b813567ffffffffffffffff811115611def57611def611cfa565b611e2060207fffffffffffffffffffffffffffffffffffffffffffffffffffffffffffffffe0601f84011601611d75565b818152846020838601011115611e3557600080fd5b816020850160208301376000918101602001919091529392505050565b600067ffffffffffffffff821115611e6c57611e6c611cfa565b5060051b60200190565b600082601f830112611e8757600080fd5b81356020611e9c611e9783611e52565b611d75565b82815260069290921b84018101918181019086841115611ebb57600080fd5b8286015b84811015611f035760408189031215611ed85760008081fd5b611ee0611d29565b8135611eeb81611c93565b81528185013585820152835291830191604001611ebf565b509695505050505050565b60008060408385031215611f2157600080fd5b611f2a83611ce2565b9150602083013567ffffffffffffffff80821115611f4757600080fd5b9084019060a08287031215611f5b57600080fd5b611f63611d52565b823582811115611f7257600080fd5b611f7e88828601611dc4565b825250602083013582811115611f9357600080fd5b611f9f88828601611dc4565b602083015250604083013582811115611fb757600080fd5b611fc388828601611e76565b604083015250611fd560608401611cb5565b6060820152608083013582811115611fec57600080fd5b611ff888828601611dc4565b6080830152508093505050509250929050565b6000806000806080858703121561202157600080fd5b843567ffffffffffffffff81111561203857600080fd5b850160a0818803121561204a57600080fd5b9350602085013561ffff8116811461206157600080fd5b925060408501359150606085013561207881611c93565b939692955090935050565b60008060006060848603121561209857600080fd5b83356120a381611c93565b925060208401356120b381611c93565b929592945050506040919091013590565b602080825282518282018190526000919060409081850190868401855b82811015612126578151805167ffffffffffffffff16855286015173ffffffffffffffffffffffffffffffffffffffff168685015292840192908501906001016120e1565b5091979650505050505050565b60006020828403121561214557600080fd5b61157082611ce2565b60008083601f84011261216057600080fd5b50813567ffffffffffffffff81111561217857600080fd5b6020830191508360208260061b85010111156113b057600080fd5b600080600080600080606087890312156121ac57600080fd5b863567ffffffffffffffff808211156121c457600080fd5b6121d08a838b0161214e565b909850965060208901359150808211156121e957600080fd5b6121f58a838b0161214e565b9096509450604089013591508082111561220e57600080fd5b5061221b89828a0161214e565b979a9699509497509295939492505050565b6020808252825182820181905260009190848201906040850190845b8181101561227b57835173ffffffffffffffffffffffffffffffffffffffff1683529284019291840191600101612249565b50909695505050505050565b6000815160a0845261229c60a0850182611c36565b9050602080840151858303828701526122b58382611c36565b60408681015188830389830152805180845290850195509092506000918401905b80831015612315578551805173ffffffffffffffffffffffffffffffffffffffff168352850151858301529484019460019290920191908301906122d6565b506060870151945061233f606089018673ffffffffffffffffffffffffffffffffffffffff169052565b6080870151945087810360808901526123588186611c36565b98975050505050505050565b6020815260006115706020830184612287565b60006020828403121561238957600080fd5b5051919050565b60008083357fffffffffffffffffffffffffffffffffffffffffffffffffffffffffffffffe18436030181126123c557600080fd5b830160208101925035905067ffffffffffffffff8111156123e557600080fd5b8036038213156113b057600080fd5b8183528181602085013750600060208284010152600060207fffffffffffffffffffffffffffffffffffffffffffffffffffffffffffffffe0601f840116840101905092915050565b8183526000602080850194508260005b8581101561249257813561246081611c93565b73ffffffffffffffffffffffffffffffffffffffff16875281830135838801526040968701969091019060010161244d565b509495945050505050565b602081528135602082015260006124b660208401611ce2565b67ffffffffffffffff80821660408501526124d46040860186612390565b925060a060608601526124eb60c0860184836123f4565b9250506124fb6060860186612390565b7fffffffffffffffffffffffffffffffffffffffffffffffffffffffffffffffe0808786030160808801526125318583856123f4565b9450608088013592507fffffffffffffffffffffffffffffffffffffffffffffffffffffffffffffffe188360301831261256a57600080fd5b6020928801928301923591508382111561258357600080fd5b8160061b360383131561259557600080fd5b8685030160a08701526119bc84828461243d565b821515815260406020820152600061159a6040830184611c36565b6000602082840312156125d657600080fd5b8151801515811461157057600080fd5b7f4e487b7100000000000000000000000000000000000000000000000000000000600052603260045260246000fd5b60006020828403121561262757600080fd5b815161157081611c93565b7f4e487b7100000000000000000000000000000000000000000000000000000000600052601160045260246000fd5b60007fffffffffffffffffffffffffffffffffffffffffffffffffffffffffffffffff820361269257612692612632565b5060010190565b6060815260006126ac6060830186612287565b905083602083015273ffffffffffffffffffffffffffffffffffffffff83166040830152949350505050565b6000604082840312156126ea57600080fd5b6126f2611d29565b6126fb83611ce2565b8152602083013561270b81611c93565b60208201529392505050565b6000602080838503121561272a57600080fd5b825167ffffffffffffffff81111561274157600080fd5b8301601f8101851361275257600080fd5b8051612760611e9782611e52565b81815260059190911b8201830190838101908783111561277f57600080fd5b928401925b828410156119bc57835161279781611c93565b82529284019290840190612784565b600082516127b8818460208701611c12565b9190910192915050565b818103818111156105b0576105b0612632565b7f4e487b7100000000000000000000000000000000000000000000000000000000600052603160045260246000fdfea164736f6c6343000813000a",
    "linkReferences": {}
  },
  "methodIdentifiers": {
    "MAX_RET_BYTES()": "787350e3",
    "acceptOwnership()": "79ba5097",
    "applyRampUpdates((uint64,address)[],(uint64,address)[],(uint64,address)[])": "da5fcac8",
    "ccipSend(uint64,(bytes,bytes,(address,uint256)[],address,bytes))": "96f4e9f9",
    "getFee(uint64,(bytes,bytes,(address,uint256)[],address,bytes))": "20487ded",
    "getOffRamps()": "a40e69c7",
    "getOnRamp(uint64)": "a8d87a3b",
    "getSupportedTokens(uint64)": "fbca3b74",
    "getWrappedNative()": "e861e907",
    "isChainSupported(uint64)": "a48a9058",
    "isOffRamp(address)": "1d7a74a0",
    "owner()": "8da5cb5b",
    "recoverTokens(address,address,uint256)": "5f3e849f",
    "routeMessage((bytes32,uint64,bytes,bytes,(address,uint256)[]),uint16,uint256,address)": "3cf97983",
    "setWrappedNative(address)": "52cb60ca",
    "transferOwnership(address)": "f2fde38b",
    "typeAndVersion()": "181f5a77"
  },
  "id": 5
}