{
  "abi": [
    {
      "inputs": [
        {
          "internalType": "contract IBurnMintERC20",
          "name": "token",
          "type": "address"
        },
        {
          "components": [
            {
              "internalType": "bool",
              "name": "isEnabled",
              "type": "bool"
            },
            {
              "internalType": "uint128",
              "name": "capacity",
              "type": "uint128"
            },
            {
              "internalType": "uint128",
              "name": "rate",
              "type": "uint128"
            }
          ],
          "internalType": "struct RateLimiter.Config",
          "name": "rateLimiterConfig",
          "type": "tuple"
        },
        {
          "internalType": "address",
          "name": "router",
          "type": "address"
        }
      ],
      "stateMutability": "nonpayable",
      "type": "constructor"
    },
    {
      "inputs": [],
      "name": "BucketOverfilled",
      "type": "error"
    },
    {
      "inputs": [
        {
          "internalType": "uint256",
          "name": "capacity",
          "type": "uint256"
        },
        {
          "internalType": "uint256",
          "name": "requested",
          "type": "uint256"
        }
      ],
      "name": "ConsumingMoreThanMaxCapacity",
      "type": "error"
    },
    {
      "inputs": [
        {
          "internalType": "address",
          "name": "offRamp",
          "type": "address"
        }
      ],
      "name": "InvalidOffRamp",
      "type": "error"
    },
    {
      "inputs": [],
      "name": "NullAddressNotAllowed",
      "type": "error"
    },
    {
      "inputs": [],
      "name": "PermissionsError",
      "type": "error"
    },
    {
      "inputs": [
        {
          "internalType": "uint256",
          "name": "waitInSeconds",
          "type": "uint256"
        }
      ],
      "name": "RateLimitReached",
      "type": "error"
    },
    {
      "anonymous": false,
      "inputs": [
        {
          "indexed": true,
          "internalType": "address",
          "name": "sender",
          "type": "address"
        },
        {
          "indexed": false,
          "internalType": "uint256",
          "name": "amount",
          "type": "uint256"
        }
      ],
      "name": "Burned",
      "type": "event"
    },
    {
      "anonymous": false,
      "inputs": [
        {
          "indexed": true,
          "internalType": "address",
          "name": "sender",
          "type": "address"
        },
        {
          "indexed": false,
          "internalType": "uint256",
          "name": "amount",
          "type": "uint256"
        }
      ],
      "name": "Locked",
      "type": "event"
    },
    {
      "anonymous": false,
      "inputs": [
        {
          "indexed": true,
          "internalType": "address",
          "name": "sender",
          "type": "address"
        },
        {
          "indexed": true,
          "internalType": "address",
          "name": "recipient",
          "type": "address"
        },
        {
          "indexed": false,
          "internalType": "uint256",
          "name": "amount",
          "type": "uint256"
        }
      ],
      "name": "Minted",
      "type": "event"
    },
    {
      "anonymous": false,
      "inputs": [
        {
          "indexed": false,
          "internalType": "address",
          "name": "onRamp",
          "type": "address"
        },
        {
          "indexed": false,
          "internalType": "bool",
          "name": "allowed",
          "type": "bool"
        }
      ],
      "name": "OffRampAllowanceSet",
      "type": "event"
    },
    {
      "anonymous": false,
      "inputs": [
        {
          "indexed": false,
          "internalType": "address",
          "name": "onRamp",
          "type": "address"
        },
        {
          "indexed": false,
          "internalType": "bool",
          "name": "allowed",
          "type": "bool"
        }
      ],
      "name": "OnRampAllowanceSet",
      "type": "event"
    },
    {
      "anonymous": false,
      "inputs": [
        {
          "indexed": true,
          "internalType": "address",
          "name": "from",
          "type": "address"
        },
        {
          "indexed": true,
          "internalType": "address",
          "name": "to",
          "type": "address"
        }
      ],
      "name": "OwnershipTransferRequested",
      "type": "event"
    },
    {
      "anonymous": false,
      "inputs": [
        {
          "indexed": true,
          "internalType": "address",
          "name": "from",
          "type": "address"
        },
        {
          "indexed": true,
          "internalType": "address",
          "name": "to",
          "type": "address"
        }
      ],
      "name": "OwnershipTransferred",
      "type": "event"
    },
    {
      "anonymous": false,
      "inputs": [
        {
          "indexed": false,
          "internalType": "address",
          "name": "account",
          "type": "address"
        }
      ],
      "name": "Paused",
      "type": "event"
    },
    {
      "anonymous": false,
      "inputs": [
        {
          "indexed": true,
          "internalType": "address",
          "name": "sender",
          "type": "address"
        },
        {
          "indexed": true,
          "internalType": "address",
          "name": "recipient",
          "type": "address"
        },
        {
          "indexed": false,
          "internalType": "uint256",
          "name": "amount",
          "type": "uint256"
        }
      ],
      "name": "Released",
      "type": "event"
    },
    {
      "anonymous": false,
      "inputs": [
        {
          "indexed": false,
          "internalType": "address",
          "name": "account",
          "type": "address"
        }
      ],
      "name": "Unpaused",
      "type": "event"
    },
    {
      "inputs": [],
      "name": "acceptOwnership",
      "outputs": [],
      "stateMutability": "nonpayable",
      "type": "function"
    },
    {
      "inputs": [
        {
          "components": [
            {
              "internalType": "address",
              "name": "ramp",
              "type": "address"
            },
            {
              "internalType": "bool",
              "name": "allowed",
              "type": "bool"
            }
          ],
          "internalType": "struct TokenPool.RampUpdate[]",
          "name": "onRamps",
          "type": "tuple[]"
        },
        {
          "components": [
            {
              "internalType": "address",
              "name": "ramp",
              "type": "address"
            },
            {
              "internalType": "bool",
              "name": "allowed",
              "type": "bool"
            }
          ],
          "internalType": "struct TokenPool.RampUpdate[]",
          "name": "offRamps",
          "type": "tuple[]"
        }
      ],
      "name": "applyRampUpdates",
      "outputs": [],
      "stateMutability": "nonpayable",
      "type": "function"
    },
    {
      "inputs": [],
      "name": "currentRateLimiterState",
      "outputs": [
        {
          "components": [
            {
              "internalType": "uint128",
              "name": "tokens",
              "type": "uint128"
            },
            {
              "internalType": "uint32",
              "name": "lastUpdated",
              "type": "uint32"
            },
            {
              "internalType": "bool",
              "name": "isEnabled",
              "type": "bool"
            },
            {
              "internalType": "uint128",
              "name": "capacity",
              "type": "uint128"
            },
            {
              "internalType": "uint128",
              "name": "rate",
              "type": "uint128"
            }
          ],
          "internalType": "struct RateLimiter.TokenBucket",
          "name": "",
          "type": "tuple"
        }
      ],
      "stateMutability": "view",
      "type": "function"
    },
    {
      "inputs": [],
      "name": "getToken",
      "outputs": [
        {
          "internalType": "contract IERC20",
          "name": "token",
          "type": "address"
        }
      ],
      "stateMutability": "view",
      "type": "function"
    },
    {
      "inputs": [
        {
          "internalType": "address",
          "name": "offRamp",
          "type": "address"
        }
      ],
      "name": "isOffRamp",
      "outputs": [
        {
          "internalType": "bool",
          "name": "",
          "type": "bool"
        }
      ],
      "stateMutability": "view",
      "type": "function"
    },
    {
      "inputs": [
        {
          "internalType": "address",
          "name": "onRamp",
          "type": "address"
        }
      ],
      "name": "isOnRamp",
      "outputs": [
        {
          "internalType": "bool",
          "name": "",
          "type": "bool"
        }
      ],
      "stateMutability": "view",
      "type": "function"
    },
    {
      "inputs": [
        {
          "internalType": "address",
          "name": "",
          "type": "address"
        },
        {
          "internalType": "bytes",
          "name": "",
          "type": "bytes"
        },
        {
          "internalType": "uint256",
          "name": "amount",
          "type": "uint256"
        },
        {
          "internalType": "uint64",
          "name": "",
          "type": "uint64"
        },
        {
          "internalType": "bytes",
          "name": "",
          "type": "bytes"
        }
      ],
      "name": "lockOrBurn",
      "outputs": [],
      "stateMutability": "nonpayable",
      "type": "function"
    },
    {
      "inputs": [],
      "name": "owner",
      "outputs": [
        {
          "internalType": "address",
          "name": "",
          "type": "address"
        }
      ],
      "stateMutability": "view",
      "type": "function"
    },
    {
      "inputs": [],
      "name": "pause",
      "outputs": [],
      "stateMutability": "nonpayable",
      "type": "function"
    },
    {
      "inputs": [],
      "name": "paused",
      "outputs": [
        {
          "internalType": "bool",
          "name": "",
          "type": "bool"
        }
      ],
      "stateMutability": "view",
      "type": "function"
    },
    {
      "inputs": [
        {
          "internalType": "bytes",
          "name": "",
          "type": "bytes"
        },
        {
          "internalType": "address",
          "name": "receiver",
          "type": "address"
        },
        {
          "internalType": "uint256",
          "name": "amount",
          "type": "uint256"
        },
        {
          "internalType": "uint64",
          "name": "",
          "type": "uint64"
        },
        {
          "internalType": "bytes",
          "name": "",
          "type": "bytes"
        }
      ],
      "name": "releaseOrMint",
      "outputs": [],
      "stateMutability": "nonpayable",
      "type": "function"
    },
    {
      "inputs": [
        {
          "components": [
            {
              "internalType": "bool",
              "name": "isEnabled",
              "type": "bool"
            },
            {
              "internalType": "uint128",
              "name": "capacity",
              "type": "uint128"
            },
            {
              "internalType": "uint128",
              "name": "rate",
              "type": "uint128"
            }
          ],
          "internalType": "struct RateLimiter.Config",
          "name": "config",
          "type": "tuple"
        }
      ],
      "name": "setRateLimiterConfig",
      "outputs": [],
      "stateMutability": "nonpayable",
      "type": "function"
    },
    {
      "inputs": [
        {
          "internalType": "bytes4",
          "name": "interfaceId",
          "type": "bytes4"
        }
      ],
      "name": "supportsInterface",
      "outputs": [
        {
          "internalType": "bool",
          "name": "",
          "type": "bool"
        }
      ],
      "stateMutability": "pure",
      "type": "function"
    },
    {
      "inputs": [
        {
          "internalType": "address",
          "name": "to",
          "type": "address"
        }
      ],
      "name": "transferOwnership",
      "outputs": [],
      "stateMutability": "nonpayable",
      "type": "function"
    },
    {
      "inputs": [],
      "name": "unpause",
      "outputs": [],
      "stateMutability": "nonpayable",
      "type": "function"
    }
  ],
  "bytecode": {
    "object": "0x60a06040523480156200001157600080fd5b50604051620020bb380380620020bb833981016040819052620000349162000326565b8282818133806000816200008f5760405162461bcd60e51b815260206004820152601860248201527f43616e6e6f7420736574206f776e657220746f207a65726f000000000000000060448201526064015b60405180910390fd5b600080546001600160a01b0319166001600160a01b0384811691909117909155811615620000c257620000c28162000227565b50506001805460ff60a01b19169055506001600160a01b038216620000fa57604051634655efd160e11b815260040160405180910390fd5b6040805160a081018252602083810180516001600160801b039081168085524263ffffffff16938501849052865115158587018190529251821660608601819052968601519091166080948501819052600680546001600160a01b031916909217600160801b9485021760ff60a01b1916600160a01b909302929092179055029092176007556001600160a01b039283169091525163095ea7b360e01b815230600482015260001960248201529083169063095ea7b3906044016020604051808303816000875af1158015620001d4573d6000803e3d6000fd5b505050506040513d601f19601f82011682018060405250810190620001fa9190620003e3565b5050600880546001600160a01b0319166001600160a01b0393909316929092179091555062000408915050565b336001600160a01b03821603620002815760405162461bcd60e51b815260206004820152601760248201527f43616e6e6f74207472616e7366657220746f2073656c66000000000000000000604482015260640162000086565b600180546001600160a01b0319166001600160a01b0383811691821790925560008054604051929316917fed8889f560326eb138920d842192f0eb3dd22b4f139c87a2c57538e05bae12789190a350565b6001600160a01b0381168114620002e857600080fd5b50565b80518015158114620002fc57600080fd5b919050565b80516001600160801b0381168114620002fc57600080fd5b8051620002fc81620002d2565b600080600083850360a08112156200033d57600080fd5b84516200034a81620002d2565b93506060601f19820112156200035f57600080fd5b50604051606081016001600160401b03811182821017156200039157634e487b7160e01b600052604160045260246000fd5b604052620003a260208601620002eb565b8152620003b26040860162000301565b6020820152620003c56060860162000301565b60408201529150620003da6080850162000319565b90509250925092565b600060208284031215620003f657600080fd5b6200040182620002eb565b9392505050565b608051611c896200043260003960008181610137015281816105d501526106fb0152611c896000f3fe608060405234801561001057600080fd5b50600436106100f55760003560e01c806379ba50971161009757806396875445116100665780639687544514610261578063af51911214610274578063c92b283214610287578063f2fde38b1461029a57600080fd5b806379ba5097146102205780638456cb59146102285780638627fad6146102305780638da5cb5b1461024357600080fd5b80633f4ba83a116100d35780633f4ba83a1461017c578063546719cd146101865780635c975abb146101ea5780636f32b8721461020d57600080fd5b806301ffc9a7146100fa5780631d7a74a01461012257806321df0da714610135575b600080fd5b61010d610108366004611605565b6102ad565b60405190151581526020015b60405180910390f35b61010d610130366004611670565b610346565b7f00000000000000000000000000000000000000000000000000000000000000005b60405173ffffffffffffffffffffffffffffffffffffffff9091168152602001610119565b610184610353565b005b61018e610365565b604051610119919081516fffffffffffffffffffffffffffffffff908116825260208084015163ffffffff1690830152604080840151151590830152606080840151821690830152608092830151169181019190915260a00190565b60015474010000000000000000000000000000000000000000900460ff1661010d565b61010d61021b366004611670565b61041a565b610184610427565b610184610529565b61018461023e3660046117d6565b610539565b60005473ffffffffffffffffffffffffffffffffffffffff16610157565b61018461026f3660046118b2565b610685565b610184610282366004611a13565b6107aa565b610184610295366004611a97565b610b4c565b6101846102a8366004611670565b610b62565b60007fffffffff0000000000000000000000000000000000000000000000000000000082167f317fa33400000000000000000000000000000000000000000000000000000000148061034057507fffffffff0000000000000000000000000000000000000000000000000000000082167f01ffc9a700000000000000000000000000000000000000000000000000000000145b92915050565b6000610340600483610b73565b61035b610ba5565b610363610c26565b565b6040805160a0810182526000808252602082018190529181018290526060810182905260808101919091526040805160a0810182526006546fffffffffffffffffffffffffffffffff808216835270010000000000000000000000000000000080830463ffffffff1660208501527401000000000000000000000000000000000000000090920460ff16151593830193909352600754808416606084015204909116608082015261041590610ca3565b905090565b6000610340600283610b73565b60015473ffffffffffffffffffffffffffffffffffffffff1633146104ad576040517f08c379a000000000000000000000000000000000000000000000000000000000815260206004820152601660248201527f4d7573742062652070726f706f736564206f776e65720000000000000000000060448201526064015b60405180910390fd5b60008054337fffffffffffffffffffffffff00000000000000000000000000000000000000008083168217845560018054909116905560405173ffffffffffffffffffffffffffffffffffffffff90921692909183917f8be0079c531659141344cd1fd0a4f28419497f9722a3daafe3b4186f6b6457e091a350565b610531610ba5565b610363610d55565b610541610dc4565b61054a33610346565b610580576040517f5307f5ab00000000000000000000000000000000000000000000000000000000815260040160405180910390fd5b61058983610e49565b6040517f40c10f1900000000000000000000000000000000000000000000000000000000815273ffffffffffffffffffffffffffffffffffffffff8581166004830152602482018590527f000000000000000000000000000000000000000000000000000000000000000016906340c10f1990604401600060405180830381600087803b15801561061957600080fd5b505af115801561062d573d6000803e3d6000fd5b505060405185815273ffffffffffffffffffffffffffffffffffffffff871692503391507f9d228d69b5fdb8d273a2336f8fb8612d039631024ea9bf09c424a9503aa078f09060200160405180910390a35050505050565b61068d610dc4565b6106963361041a565b6106cc576040517f5307f5ab00000000000000000000000000000000000000000000000000000000815260040160405180910390fd5b6040517f42966c68000000000000000000000000000000000000000000000000000000008152600481018590527f000000000000000000000000000000000000000000000000000000000000000073ffffffffffffffffffffffffffffffffffffffff16906342966c6890602401600060405180830381600087803b15801561075457600080fd5b505af1158015610768573d6000803e3d6000fd5b50506040518681523392507f696de425f79f4a40bc6d2122ca50507f0efbeabbff86a84871b7196ab8ea8df7915060200160405180910390a250505050505050565b6107b2610ba5565b60005b82518110156108b35760008382815181106107d2576107d2611b05565b6020026020010151905080602001516107f85780516107f390600290610e54565b610806565b805161080690600290610e76565b156108a2577fbceff8f229c6dfcbf8bdcfb18726b84b0fd249b4803deb3948ff34d90401366284838151811061083e5761083e611b05565b60200260200101516000015185848151811061085c5761085c611b05565b60200260200101516020015160405161089992919073ffffffffffffffffffffffffffffffffffffffff9290921682521515602082015260400190565b60405180910390a15b506108ac81611b63565b90506107b5565b5060005b8151811015610b475760008282815181106108d4576108d4611b05565b6020026020010151905080602001516109975780516108f590600490610e54565b15610991577fd8c3333ded377884ced3869cd0bcb9be54ea664076df1f5d39c468912031364883838151811061092d5761092d611b05565b60200260200101516000015184848151811061094b5761094b611b05565b60200260200101516020015160405161098892919073ffffffffffffffffffffffffffffffffffffffff9290921682521515602082015260400190565b60405180910390a15b50610b37565b60085481516040517f1d7a74a000000000000000000000000000000000000000000000000000000000815273ffffffffffffffffffffffffffffffffffffffff91821660048201526000929190911690631d7a74a0906024016040805180830381865afa158015610a0c573d6000803e3d6000fd5b505050506040513d601f19601f82011682018060405250810190610a309190611b9b565b5090508015610aea578151610a4790600490610e76565b15610ae3577fd8c3333ded377884ced3869cd0bcb9be54ea664076df1f5d39c4689120313648848481518110610a7f57610a7f611b05565b602002602001015160000151858581518110610a9d57610a9d611b05565b602002602001015160200151604051610ada92919073ffffffffffffffffffffffffffffffffffffffff9290921682521515602082015260400190565b60405180910390a15b5050610b37565b81516040517f331a894e00000000000000000000000000000000000000000000000000000000815273ffffffffffffffffffffffffffffffffffffffff90911660048201526024016104a4565b610b4081611b63565b90506108b7565b505050565b610b54610ba5565b610b5f600682610e98565b50565b610b6a610ba5565b610b5f8161107d565b73ffffffffffffffffffffffffffffffffffffffff8116600090815260018301602052604081205415155b9392505050565b60005473ffffffffffffffffffffffffffffffffffffffff163314610363576040517f08c379a000000000000000000000000000000000000000000000000000000000815260206004820152601660248201527f4f6e6c792063616c6c61626c65206279206f776e65720000000000000000000060448201526064016104a4565b610c2e611172565b600180547fffffffffffffffffffffff00ffffffffffffffffffffffffffffffffffffffff1690557f5db9ee0a495bf2e6ff9c91a7834c1ba4fdd244a5e8aa4e537bd38aeae4b073aa335b60405173ffffffffffffffffffffffffffffffffffffffff909116815260200160405180910390a1565b6040805160a081018252600080825260208201819052918101829052606081018290526080810191909152610d3182606001516fffffffffffffffffffffffffffffffff1683600001516fffffffffffffffffffffffffffffffff16846020015163ffffffff1642610d159190611bd5565b85608001516fffffffffffffffffffffffffffffffff166111f6565b6fffffffffffffffffffffffffffffffff1682525063ffffffff4216602082015290565b610d5d610dc4565b600180547fffffffffffffffffffffff00ffffffffffffffffffffffffffffffffffffffff16740100000000000000000000000000000000000000001790557f62e78cea01bee320cd4e420270b5ea74000d11b0c9f74754ebdbfc544b05a258610c793390565b60015474010000000000000000000000000000000000000000900460ff1615610363576040517f08c379a000000000000000000000000000000000000000000000000000000000815260206004820152601060248201527f5061757361626c653a207061757365640000000000000000000000000000000060448201526064016104a4565b610b5f60068261121e565b6000610b9e8373ffffffffffffffffffffffffffffffffffffffff84166114ad565b6000610b9e8373ffffffffffffffffffffffffffffffffffffffff84166115a0565b8154600090610ec190700100000000000000000000000000000000900463ffffffff1642611bd5565b90508015610f635760018301548354610f09916fffffffffffffffffffffffffffffffff808216928116918591700100000000000000000000000000000000909104166111f6565b83546fffffffffffffffffffffffffffffffff919091167fffffffffffffffffffffffff0000000000000000000000000000000000000000909116177001000000000000000000000000000000004263ffffffff16021783555b60208201518354610f89916fffffffffffffffffffffffffffffffff90811691166115ef565b83548351151574010000000000000000000000000000000000000000027fffffffffffffffffffffff00ffffffff000000000000000000000000000000009091166fffffffffffffffffffffffffffffffff92831617178455602083015160408085015183167001000000000000000000000000000000000291909216176001850155517f9ea3374b67bf275e6bb9c8ae68f9cae023e1c528b4b27e092f0bb209d3531c19906110709084908151151581526020808301516fffffffffffffffffffffffffffffffff90811691830191909152604092830151169181019190915260600190565b60405180910390a1505050565b3373ffffffffffffffffffffffffffffffffffffffff8216036110fc576040517f08c379a000000000000000000000000000000000000000000000000000000000815260206004820152601760248201527f43616e6e6f74207472616e7366657220746f2073656c6600000000000000000060448201526064016104a4565b600180547fffffffffffffffffffffffff00000000000000000000000000000000000000001673ffffffffffffffffffffffffffffffffffffffff83811691821790925560008054604051929316917fed8889f560326eb138920d842192f0eb3dd22b4f139c87a2c57538e05bae12789190a350565b60015474010000000000000000000000000000000000000000900460ff16610363576040517f08c379a000000000000000000000000000000000000000000000000000000000815260206004820152601460248201527f5061757361626c653a206e6f742070617573656400000000000000000000000060448201526064016104a4565b6000611215856112068486611be8565b6112109087611bff565b6115ef565b95945050505050565b815474010000000000000000000000000000000000000000900460ff161580611245575080155b1561124e575050565b815460018301546fffffffffffffffffffffffffffffffff8083169291169060009061129490700100000000000000000000000000000000900463ffffffff1642611bd5565b9050801561135457818311156112d6576040517f9725942a00000000000000000000000000000000000000000000000000000000815260040160405180910390fd5b60018501546113109083908590849070010000000000000000000000000000000090046fffffffffffffffffffffffffffffffff166111f6565b85547fffffffffffffffffffffffff00000000ffffffffffffffffffffffffffffffff167001000000000000000000000000000000004263ffffffff160217865592505b83821015611398576040517f48369c4300000000000000000000000000000000000000000000000000000000815260048101839052602481018590526044016104a4565b8383101561142c5760018581015470010000000000000000000000000000000090046fffffffffffffffffffffffffffffffff169081906113d99082611bd5565b6113e38688611bd5565b6113ed9190611bff565b6113f79190611c12565b6040517fdc96cefa0000000000000000000000000000000000000000000000000000000081526004016104a491815260200190565b6114368484611bd5565b85547fffffffffffffffffffffffffffffffff00000000000000000000000000000000166fffffffffffffffffffffffffffffffff82161786556040518581529093507f1871cdf8010e63f2eb8384381a68dfa7416dc571a5517e66e88b2d2d0c0a690a9060200160405180910390a15050505050565b600081815260018301602052604081205480156115965760006114d1600183611bd5565b85549091506000906114e590600190611bd5565b905081811461154a57600086600001828154811061150557611505611b05565b906000526020600020015490508087600001848154811061152857611528611b05565b6000918252602080832090910192909255918252600188019052604090208390555b855486908061155b5761155b611c4d565b600190038181906000526020600020016000905590558560010160008681526020019081526020016000206000905560019350505050610340565b6000915050610340565b60008181526001830160205260408120546115e757508154600181810184556000848152602080822090930184905584548482528286019093526040902091909155610340565b506000610340565b60008183106115fe5781610b9e565b5090919050565b60006020828403121561161757600080fd5b81357fffffffff0000000000000000000000000000000000000000000000000000000081168114610b9e57600080fd5b803573ffffffffffffffffffffffffffffffffffffffff8116811461166b57600080fd5b919050565b60006020828403121561168257600080fd5b610b9e82611647565b7f4e487b7100000000000000000000000000000000000000000000000000000000600052604160045260246000fd5b6040805190810167ffffffffffffffff811182821017156116dd576116dd61168b565b60405290565b604051601f82017fffffffffffffffffffffffffffffffffffffffffffffffffffffffffffffffe016810167ffffffffffffffff8111828210171561172a5761172a61168b565b604052919050565b600082601f83011261174357600080fd5b813567ffffffffffffffff81111561175d5761175d61168b565b61178e60207fffffffffffffffffffffffffffffffffffffffffffffffffffffffffffffffe0601f840116016116e3565b8181528460208386010111156117a357600080fd5b816020850160208301376000918101602001919091529392505050565b67ffffffffffffffff81168114610b5f57600080fd5b600080600080600060a086880312156117ee57600080fd5b853567ffffffffffffffff8082111561180657600080fd5b61181289838a01611732565b965061182060208901611647565b95506040880135945060608801359150611839826117c0565b9092506080870135908082111561184f57600080fd5b5061185c88828901611732565b9150509295509295909350565b60008083601f84011261187b57600080fd5b50813567ffffffffffffffff81111561189357600080fd5b6020830191508360208285010111156118ab57600080fd5b9250929050565b600080600080600080600060a0888a0312156118cd57600080fd5b6118d688611647565b9650602088013567ffffffffffffffff808211156118f357600080fd5b6118ff8b838c01611869565b909850965060408a0135955060608a0135915061191b826117c0565b9093506080890135908082111561193157600080fd5b5061193e8a828b01611869565b989b979a50959850939692959293505050565b8015158114610b5f57600080fd5b600082601f83011261197057600080fd5b8135602067ffffffffffffffff82111561198c5761198c61168b565b61199a818360051b016116e3565b82815260069290921b840181019181810190868411156119b957600080fd5b8286015b84811015611a0857604081890312156119d65760008081fd5b6119de6116ba565b6119e782611647565b8152848201356119f681611951565b818601528352918301916040016119bd565b509695505050505050565b60008060408385031215611a2657600080fd5b823567ffffffffffffffff80821115611a3e57600080fd5b611a4a8683870161195f565b93506020850135915080821115611a6057600080fd5b50611a6d8582860161195f565b9150509250929050565b80356fffffffffffffffffffffffffffffffff8116811461166b57600080fd5b600060608284031215611aa957600080fd5b6040516060810181811067ffffffffffffffff82111715611acc57611acc61168b565b6040528235611ada81611951565b8152611ae860208401611a77565b6020820152611af960408401611a77565b60408201529392505050565b7f4e487b7100000000000000000000000000000000000000000000000000000000600052603260045260246000fd5b7f4e487b7100000000000000000000000000000000000000000000000000000000600052601160045260246000fd5b60007fffffffffffffffffffffffffffffffffffffffffffffffffffffffffffffffff8203611b9457611b94611b34565b5060010190565b60008060408385031215611bae57600080fd5b8251611bb981611951565b6020840151909250611bca816117c0565b809150509250929050565b8181038181111561034057610340611b34565b808202811582820484141761034057610340611b34565b8082018082111561034057610340611b34565b600082611c48577f4e487b7100000000000000000000000000000000000000000000000000000000600052601260045260246000fd5b500490565b7f4e487b7100000000000000000000000000000000000000000000000000000000600052603160045260246000fdfea164736f6c6343000813000a",
    "linkReferences": {}
  },
  "methodIdentifiers": {
    "acceptOwnership()": "79ba5097",
    "applyRampUpdates((address,bool)[],(address,bool)[])": "af519112",
    "currentRateLimiterState()": "546719cd",
    "getToken()": "21df0da7",
    "isOffRamp(address)": "1d7a74a0",
    "isOnRamp(address)": "6f32b872",
    "lockOrBurn(address,bytes,uint256,uint64,bytes)": "96875445",
    "owner()": "8da5cb5b",
    "pause()": "8456cb59",
    "paused()": "5c975abb",
    "releaseOrMint(bytes,address,uint256,uint64,bytes)": "8627fad6",
    "setRateLimiterConfig((bool,uint128,uint128))": "c92b2832",
    "supportsInterface(bytes4)": "01ffc9a7",
    "transferOwnership(address)": "f2fde38b",
    "unpause()": "3f4ba83a"
  },
  "id": 37
}