{
  "abi": [
    {
      "inputs": [
        {
          "internalType": "contract IRouterClient",
          "name": "router",
          "type": "address"
        },
        {
          "internalType": "contract IERC20",
          "name": "feeToken",
          "type": "address"
        }
      ],
      "stateMutability": "nonpayable",
      "type": "constructor"
    },
    {
      "inputs": [
        {
          "internalType": "uint64",
          "name": "chainSelector",
          "type": "uint64"
        }
      ],
      "name": "InvalidChain",
      "type": "error"
    },
    {
      "inputs": [],
      "name": "InvalidConfig",
      "type": "error"
    },
    {
      "inputs": [],
      "name": "OnlyRouter",
      "type": "error"
    },
    {
      "anonymous": false,
      "inputs": [
        {
          "indexed": false,
          "internalType": "bytes32",
          "name": "messageId",
          "type": "bytes32"
        }
      ],
      "name": "MessageReceived",
      "type": "event"
    },
    {
      "anonymous": false,
      "inputs": [
        {
          "indexed": false,
          "internalType": "bytes32",
          "name": "messageId",
          "type": "bytes32"
        }
      ],
      "name": "MessageSent",
      "type": "event"
    },
    {
      "inputs": [
        {
          "components": [
            {
              "internalType": "bytes32",
              "name": "messageId",
              "type": "bytes32"
            },
            {
              "internalType": "uint64",
              "name": "sourceChainSelector",
              "type": "uint64"
            },
            {
              "internalType": "bytes",
              "name": "sender",
              "type": "bytes"
            },
            {
              "internalType": "bytes",
              "name": "data",
              "type": "bytes"
            },
            {
              "components": [
                {
                  "internalType": "address",
                  "name": "token",
                  "type": "address"
                },
                {
                  "internalType": "uint256",
                  "name": "amount",
                  "type": "uint256"
                }
              ],
              "internalType": "struct Client.EVMTokenAmount[]",
              "name": "destTokenAmounts",
              "type": "tuple[]"
            }
          ],
          "internalType": "struct Client.Any2EVMMessage",
          "name": "message",
          "type": "tuple"
        }
      ],
      "name": "ccipReceive",
      "outputs": [],
      "stateMutability": "nonpayable",
      "type": "function"
    },
    {
      "inputs": [
        {
          "internalType": "uint64",
          "name": "chainSelector",
          "type": "uint64"
        }
      ],
      "name": "disableChain",
      "outputs": [],
      "stateMutability": "nonpayable",
      "type": "function"
    },
    {
      "inputs": [
        {
          "internalType": "uint64",
          "name": "chainSelector",
          "type": "uint64"
        },
        {
          "internalType": "bytes",
          "name": "extraArgs",
          "type": "bytes"
        }
      ],
      "name": "enableChain",
      "outputs": [],
      "stateMutability": "nonpayable",
      "type": "function"
    },
    {
      "inputs": [],
      "name": "i_router",
      "outputs": [
        {
          "internalType": "contract IRouterClient",
          "name": "",
          "type": "address"
        }
      ],
      "stateMutability": "view",
      "type": "function"
    },
    {
      "inputs": [
        {
          "internalType": "uint64",
          "name": "",
          "type": "uint64"
        }
      ],
      "name": "s_chains",
      "outputs": [
        {
          "internalType": "bytes",
          "name": "",
          "type": "bytes"
        }
      ],
      "stateMutability": "view",
      "type": "function"
    },
    {
      "inputs": [],
      "name": "s_feeToken",
      "outputs": [
        {
          "internalType": "contract IERC20",
          "name": "",
          "type": "address"
        }
      ],
      "stateMutability": "view",
      "type": "function"
    },
    {
      "inputs": [
        {
          "internalType": "uint64",
          "name": "destChainSelector",
          "type": "uint64"
        },
        {
          "internalType": "bytes",
          "name": "receiver",
          "type": "bytes"
        },
        {
          "internalType": "bytes",
          "name": "data",
          "type": "bytes"
        },
        {
          "components": [
            {
              "internalType": "address",
              "name": "token",
              "type": "address"
            },
            {
              "internalType": "uint256",
              "name": "amount",
              "type": "uint256"
            }
          ],
          "internalType": "struct Client.EVMTokenAmount[]",
          "name": "tokenAmounts",
          "type": "tuple[]"
        }
      ],
      "name": "sendDataAndTokens",
      "outputs": [],
      "stateMutability": "nonpayable",
      "type": "function"
    },
    {
      "inputs": [
        {
          "internalType": "uint64",
          "name": "destChainSelector",
          "type": "uint64"
        },
        {
          "internalType": "bytes",
          "name": "receiver",
          "type": "bytes"
        },
        {
          "internalType": "bytes",
          "name": "data",
          "type": "bytes"
        }
      ],
      "name": "sendDataPayFeeToken",
      "outputs": [],
      "stateMutability": "nonpayable",
      "type": "function"
    },
    {
      "inputs": [
        {
          "internalType": "uint64",
          "name": "destChainSelector",
          "type": "uint64"
        },
        {
          "internalType": "bytes",
          "name": "receiver",
          "type": "bytes"
        },
        {
          "internalType": "bytes",
          "name": "data",
          "type": "bytes"
        }
      ],
      "name": "sendDataPayNative",
      "outputs": [],
      "stateMutability": "nonpayable",
      "type": "function"
    },
    {
      "inputs": [
        {
          "internalType": "uint64",
          "name": "destChainSelector",
          "type": "uint64"
        },
        {
          "internalType": "bytes",
          "name": "receiver",
          "type": "bytes"
        },
        {
          "components": [
            {
              "internalType": "address",
              "name": "token",
              "type": "address"
            },
            {
              "internalType": "uint256",
              "name": "amount",
              "type": "uint256"
            }
          ],
          "internalType": "struct Client.EVMTokenAmount[]",
          "name": "tokenAmounts",
          "type": "tuple[]"
        }
      ],
      "name": "sendTokens",
      "outputs": [],
      "stateMutability": "nonpayable",
      "type": "function"
    },
    {
      "inputs": [
        {
          "internalType": "bytes4",
          "name": "interfaceId",
          "type": "bytes4"
        }
      ],
      "name": "supportsInterface",
      "outputs": [
        {
          "internalType": "bool",
          "name": "",
          "type": "bool"
        }
      ],
      "stateMutability": "pure",
      "type": "function"
    }
  ],
  "bytecode": {
    "object": "0x60a06040523480156200001157600080fd5b5060405162001a4238038062001a428339810160408190526200003491620000e8565b6001600160a01b038281166080819052600080546001600160a01b031916928416928317905560405163095ea7b360e01b81526004810191909152600019602482015263095ea7b3906044016020604051808303816000875af1158015620000a0573d6000803e3d6000fd5b505050506040513d601f19601f82011682018060405250810190620000c6919062000127565b50505062000152565b6001600160a01b0381168114620000e557600080fd5b50565b60008060408385031215620000fc57600080fd5b82516200010981620000cf565b60208401519092506200011c81620000cf565b809150509250929050565b6000602082840312156200013a57600080fd5b815180151581146200014b57600080fd5b9392505050565b6080516118aa620001986000396000818161011001528181610465015281816107b501528181610a9801528181610be001528181610e8d0152610ec901526118aa6000f3fe608060405234801561001057600080fd5b50600436106100c95760003560e01c80635dc5ebdb1161008157806385572ffb1161005b57806385572ffb146101c3578063c0cb2d08146101d6578063ff2deec3146101e957600080fd5b80635dc5ebdb1461017d578063686fab791461019d5780637383c8fb146101b057600080fd5b8063581bdd16116100b2578063581bdd161461010b5780635d8e7f18146101575780635dc02a2c1461016a57600080fd5b806301ffc9a7146100ce57806341eade46146100f6575b600080fd5b6100e16100dc366004611013565b610209565b60405190151581526020015b60405180910390f35b610109610104366004611079565b6102a2565b005b6101327f000000000000000000000000000000000000000000000000000000000000000081565b60405173ffffffffffffffffffffffffffffffffffffffff90911681526020016100ed565b6101096101653660046111c9565b6102c7565b61010961017836600461123d565b610545565b61019061018b366004611079565b61056d565b6040516100ed91906112ef565b6101096101ab3660046113c9565b610607565b6101096101be366004611433565b6108ea565b6101096101d13660046114cc565b610bc8565b6101096101e43660046111c9565b610cea565b6000546101329073ffffffffffffffffffffffffffffffffffffffff1681565b60007fffffffff0000000000000000000000000000000000000000000000000000000082167f85572ffb00000000000000000000000000000000000000000000000000000000148061029c57507fffffffff0000000000000000000000000000000000000000000000000000000082167f01ffc9a700000000000000000000000000000000000000000000000000000000145b92915050565b67ffffffffffffffff811660009081526001602052604081206102c491610fc5565b50565b67ffffffffffffffff8316600090815260016020526040902080548491906102ee90611507565b905060000361033a576040517fd79f2ea400000000000000000000000000000000000000000000000000000000815267ffffffffffffffff821660048201526024015b60405180910390fd5b6040805160008082526020820190925281610377565b60408051808201909152600080825260208201528152602001906001900390816103505790505b506040805160a08101825286815260208082018790528183018490526000805473ffffffffffffffffffffffffffffffffffffffff16606084015267ffffffffffffffff8a168152600190915291822080549394509192909160808301916103de90611507565b80601f016020809104026020016040519081016040528092919081815260200182805461040a90611507565b80156104575780601f1061042c57610100808354040283529160200191610457565b820191906000526020600020905b81548152906001019060200180831161043a57829003601f168201915b5050505050815250905060007f000000000000000000000000000000000000000000000000000000000000000073ffffffffffffffffffffffffffffffffffffffff166396f4e9f988846040518363ffffffff1660e01b81526004016104be92919061155a565b6020604051808303816000875af11580156104dd573d6000803e3d6000fd5b505050506040513d601f19601f82011682018060405250810190610501919061166c565b90507f54791b38f3859327992a1ca0590ad3c0f08feba98d1a4f56ab0dca74d203392a8160405161053491815260200190565b60405180910390a150505050505050565b67ffffffffffffffff8216600090815260016020526040902061056882826116d3565b505050565b6001602052600090815260409020805461058690611507565b80601f01602080910402602001604051908101604052809291908181526020018280546105b290611507565b80156105ff5780601f106105d4576101008083540402835291602001916105ff565b820191906000526020600020905b8154815290600101906020018083116105e257829003601f168201915b505050505081565b67ffffffffffffffff83166000908152600160205260409020805484919061062e90611507565b9050600003610675576040517fd79f2ea400000000000000000000000000000000000000000000000000000000815267ffffffffffffffff82166004820152602401610331565b60005b825181101561088457828181518110610693576106936117ed565b60200260200101516000015173ffffffffffffffffffffffffffffffffffffffff166323b872dd33308685815181106106ce576106ce6117ed565b60209081029190910181015101516040517fffffffff0000000000000000000000000000000000000000000000000000000060e086901b16815273ffffffffffffffffffffffffffffffffffffffff938416600482015292909116602483015260448201526064016020604051808303816000875af1158015610755573d6000803e3d6000fd5b505050506040513d601f19601f82011682018060405250810190610779919061181c565b5082818151811061078c5761078c6117ed565b60200260200101516000015173ffffffffffffffffffffffffffffffffffffffff1663095ea7b37f00000000000000000000000000000000000000000000000000000000000000008584815181106107e6576107e66117ed565b6020026020010151602001516040518363ffffffff1660e01b815260040161083092919073ffffffffffffffffffffffffffffffffffffffff929092168252602082015260400190565b6020604051808303816000875af115801561084f573d6000803e3d6000fd5b505050506040513d601f19601f82011682018060405250810190610873919061181c565b5061087d8161183e565b9050610678565b506040805160a081018252848152606060208083018290528284018690526000805473ffffffffffffffffffffffffffffffffffffffff168484015267ffffffffffffffff8916815260019091529283208054919392916080830191906103de90611507565b67ffffffffffffffff84166000908152600160205260409020805485919061091190611507565b9050600003610958576040517fd79f2ea400000000000000000000000000000000000000000000000000000000815267ffffffffffffffff82166004820152602401610331565b60005b8251811015610b6757828181518110610976576109766117ed565b60200260200101516000015173ffffffffffffffffffffffffffffffffffffffff166323b872dd33308685815181106109b1576109b16117ed565b60209081029190910181015101516040517fffffffff0000000000000000000000000000000000000000000000000000000060e086901b16815273ffffffffffffffffffffffffffffffffffffffff938416600482015292909116602483015260448201526064016020604051808303816000875af1158015610a38573d6000803e3d6000fd5b505050506040513d601f19601f82011682018060405250810190610a5c919061181c565b50828181518110610a6f57610a6f6117ed565b60200260200101516000015173ffffffffffffffffffffffffffffffffffffffff1663095ea7b37f0000000000000000000000000000000000000000000000000000000000000000858481518110610ac957610ac96117ed565b6020026020010151602001516040518363ffffffff1660e01b8152600401610b1392919073ffffffffffffffffffffffffffffffffffffffff929092168252602082015260400190565b6020604051808303816000875af1158015610b32573d6000803e3d6000fd5b505050506040513d601f19601f82011682018060405250810190610b56919061181c565b50610b608161183e565b905061095b565b506040805160a08101825285815260208082018690528183018590526000805473ffffffffffffffffffffffffffffffffffffffff16606084015267ffffffffffffffff89168152600190915291822080546080830191906103de90611507565b3373ffffffffffffffffffffffffffffffffffffffff7f00000000000000000000000000000000000000000000000000000000000000001614610c37576040517f9e41bdd700000000000000000000000000000000000000000000000000000000815260040160405180910390fd5b610c476040820160208301611079565b67ffffffffffffffff811660009081526001602052604090208054610c6b90611507565b9050600003610cb2576040517fd79f2ea400000000000000000000000000000000000000000000000000000000815267ffffffffffffffff82166004820152602401610331565b604051823581527fe29dc34207c78fc0f6048a32f159139c33339c6d6df8b07dcd33f6d699ff23279060200160405180910390a15050565b67ffffffffffffffff831660009081526001602052604090208054849190610d1190611507565b9050600003610d58576040517fd79f2ea400000000000000000000000000000000000000000000000000000000815267ffffffffffffffff82166004820152602401610331565b6040805160008082526020820190925281610d95565b6040805180820190915260008082526020820152815260200190600190039081610d6e5790505b50905060006040518060a00160405280868152602001858152602001838152602001600073ffffffffffffffffffffffffffffffffffffffff168152602001600160008967ffffffffffffffff1667ffffffffffffffff1681526020019081526020016000208054610e0690611507565b80601f0160208091040260200160405190810160405280929190818152602001828054610e3290611507565b8015610e7f5780601f10610e5457610100808354040283529160200191610e7f565b820191906000526020600020905b815481529060010190602001808311610e6257829003601f168201915b5050505050815250905060007f000000000000000000000000000000000000000000000000000000000000000073ffffffffffffffffffffffffffffffffffffffff166396f4e9f97f000000000000000000000000000000000000000000000000000000000000000073ffffffffffffffffffffffffffffffffffffffff166320487ded8a866040518363ffffffff1660e01b8152600401610f2292919061155a565b602060405180830381865afa158015610f3f573d6000803e3d6000fd5b505050506040513d601f19601f82011682018060405250810190610f63919061166c565b89856040518463ffffffff1660e01b8152600401610f8292919061155a565b60206040518083038185885af1158015610fa0573d6000803e3d6000fd5b50505050506040513d601f19601f82011682018060405250810190610501919061166c565b508054610fd190611507565b6000825580601f10610fe1575050565b601f0160209004906000526020600020908101906102c491905b8082111561100f5760008155600101610ffb565b5090565b60006020828403121561102557600080fd5b81357fffffffff000000000000000000000000000000000000000000000000000000008116811461105557600080fd5b9392505050565b803567ffffffffffffffff8116811461107457600080fd5b919050565b60006020828403121561108b57600080fd5b6110558261105c565b7f4e487b7100000000000000000000000000000000000000000000000000000000600052604160045260246000fd5b6040805190810167ffffffffffffffff811182821017156110e6576110e6611094565b60405290565b604051601f82017fffffffffffffffffffffffffffffffffffffffffffffffffffffffffffffffe016810167ffffffffffffffff8111828210171561113357611133611094565b604052919050565b600082601f83011261114c57600080fd5b813567ffffffffffffffff81111561116657611166611094565b61119760207fffffffffffffffffffffffffffffffffffffffffffffffffffffffffffffffe0601f840116016110ec565b8181528460208386010111156111ac57600080fd5b816020850160208301376000918101602001919091529392505050565b6000806000606084860312156111de57600080fd5b6111e78461105c565b9250602084013567ffffffffffffffff8082111561120457600080fd5b6112108783880161113b565b9350604086013591508082111561122657600080fd5b506112338682870161113b565b9150509250925092565b6000806040838503121561125057600080fd5b6112598361105c565b9150602083013567ffffffffffffffff81111561127557600080fd5b6112818582860161113b565b9150509250929050565b6000815180845260005b818110156112b157602081850181015186830182015201611295565b5060006020828601015260207fffffffffffffffffffffffffffffffffffffffffffffffffffffffffffffffe0601f83011685010191505092915050565b602081526000611055602083018461128b565b600082601f83011261131357600080fd5b8135602067ffffffffffffffff82111561132f5761132f611094565b61133d818360051b016110ec565b82815260069290921b8401810191818101908684111561135c57600080fd5b8286015b848110156113be57604081890312156113795760008081fd5b6113816110c3565b813573ffffffffffffffffffffffffffffffffffffffff811681146113a65760008081fd5b81528185013585820152835291830191604001611360565b509695505050505050565b6000806000606084860312156113de57600080fd5b6113e78461105c565b9250602084013567ffffffffffffffff8082111561140457600080fd5b6114108783880161113b565b9350604086013591508082111561142657600080fd5b5061123386828701611302565b6000806000806080858703121561144957600080fd5b6114528561105c565b9350602085013567ffffffffffffffff8082111561146f57600080fd5b61147b8883890161113b565b9450604087013591508082111561149157600080fd5b61149d8883890161113b565b935060608701359150808211156114b357600080fd5b506114c087828801611302565b91505092959194509250565b6000602082840312156114de57600080fd5b813567ffffffffffffffff8111156114f557600080fd5b820160a0818503121561105557600080fd5b600181811c9082168061151b57607f821691505b602082108103611554577f4e487b7100000000000000000000000000000000000000000000000000000000600052602260045260246000fd5b50919050565b6000604067ffffffffffffffff8516835260208181850152845160a08386015261158760e086018261128b565b9050818601517fffffffffffffffffffffffffffffffffffffffffffffffffffffffffffffffc0808784030160608801526115c2838361128b565b88860151888203830160808a01528051808352908601945060009350908501905b80841015611622578451805173ffffffffffffffffffffffffffffffffffffffff168352860151868301529385019360019390930192908601906115e3565b50606089015173ffffffffffffffffffffffffffffffffffffffff1660a08901526080890151888203830160c08a0152955061165e818761128b565b9a9950505050505050505050565b60006020828403121561167e57600080fd5b5051919050565b601f82111561056857600081815260208120601f850160051c810160208610156116ac5750805b601f850160051c820191505b818110156116cb578281556001016116b8565b505050505050565b815167ffffffffffffffff8111156116ed576116ed611094565b611701816116fb8454611507565b84611685565b602080601f831160018114611754576000841561171e5750858301515b7fffffffffffffffffffffffffffffffffffffffffffffffffffffffffffffffff600386901b1c1916600185901b1785556116cb565b6000858152602081207fffffffffffffffffffffffffffffffffffffffffffffffffffffffffffffffe08616915b828110156117a157888601518255948401946001909101908401611782565b50858210156117dd57878501517fffffffffffffffffffffffffffffffffffffffffffffffffffffffffffffffff600388901b60f8161c191681555b5050505050600190811b01905550565b7f4e487b7100000000000000000000000000000000000000000000000000000000600052603260045260246000fd5b60006020828403121561182e57600080fd5b8151801515811461105557600080fd5b60007fffffffffffffffffffffffffffffffffffffffffffffffffffffffffffffffff8203611896577f4e487b7100000000000000000000000000000000000000000000000000000000600052601160045260246000fd5b506001019056fea164736f6c6343000813000a",
    "linkReferences": {}
  },
  "methodIdentifiers": {
    "ccipReceive((bytes32,uint64,bytes,bytes,(address,uint256)[]))": "85572ffb",
    "disableChain(uint64)": "41eade46",
    "enableChain(uint64,bytes)": "5dc02a2c",
    "i_router()": "581bdd16",
    "s_chains(uint64)": "5dc5ebdb",
    "s_feeToken()": "ff2deec3",
    "sendDataAndTokens(uint64,bytes,bytes,(address,uint256)[])": "7383c8fb",
    "sendDataPayFeeToken(uint64,bytes,bytes)": "5d8e7f18",
    "sendDataPayNative(uint64,bytes,bytes)": "c0cb2d08",
    "sendTokens(uint64,bytes,(address,uint256)[])": "686fab79",
    "supportsInterface(bytes4)": "01ffc9a7"
  },
  "id": 7
}