{
  "abi": [
    {
      "inputs": [
        {
          "internalType": "contract IERC20",
          "name": "token",
          "type": "address"
        },
        {
          "components": [
            {
              "internalType": "bool",
              "name": "isEnabled",
              "type": "bool"
            },
            {
              "internalType": "uint128",
              "name": "capacity",
              "type": "uint128"
            },
            {
              "internalType": "uint128",
              "name": "rate",
              "type": "uint128"
            }
          ],
          "internalType": "struct RateLimiter.Config",
          "name": "rateLimiterConfig",
          "type": "tuple"
        }
      ],
      "stateMutability": "nonpayable",
      "type": "constructor"
    },
    {
      "inputs": [],
      "name": "BucketOverfilled",
      "type": "error"
    },
    {
      "inputs": [
        {
          "internalType": "uint256",
          "name": "capacity",
          "type": "uint256"
        },
        {
          "internalType": "uint256",
          "name": "requested",
          "type": "uint256"
        }
      ],
      "name": "ConsumingMoreThanMaxCapacity",
      "type": "error"
    },
    {
      "inputs": [],
      "name": "InsufficientLiquidity",
      "type": "error"
    },
    {
      "inputs": [],
      "name": "NullAddressNotAllowed",
      "type": "error"
    },
    {
      "inputs": [],
      "name": "PermissionsError",
      "type": "error"
    },
    {
      "inputs": [
        {
          "internalType": "uint256",
          "name": "waitInSeconds",
          "type": "uint256"
        }
      ],
      "name": "RateLimitReached",
      "type": "error"
    },
    {
      "inputs": [],
      "name": "WithdrawalTooHigh",
      "type": "error"
    },
    {
      "anonymous": false,
      "inputs": [
        {
          "indexed": true,
          "internalType": "address",
          "name": "sender",
          "type": "address"
        },
        {
          "indexed": false,
          "internalType": "uint256",
          "name": "amount",
          "type": "uint256"
        }
      ],
      "name": "Burned",
      "type": "event"
    },
    {
      "anonymous": false,
      "inputs": [
        {
          "indexed": true,
          "internalType": "address",
          "name": "provider",
          "type": "address"
        },
        {
          "indexed": true,
          "internalType": "uint256",
          "name": "amount",
          "type": "uint256"
        }
      ],
      "name": "LiquidityAdded",
      "type": "event"
    },
    {
      "anonymous": false,
      "inputs": [
        {
          "indexed": true,
          "internalType": "address",
          "name": "provider",
          "type": "address"
        },
        {
          "indexed": true,
          "internalType": "uint256",
          "name": "amount",
          "type": "uint256"
        }
      ],
      "name": "LiquidityRemoved",
      "type": "event"
    },
    {
      "anonymous": false,
      "inputs": [
        {
          "indexed": true,
          "internalType": "address",
          "name": "sender",
          "type": "address"
        },
        {
          "indexed": false,
          "internalType": "uint256",
          "name": "amount",
          "type": "uint256"
        }
      ],
      "name": "Locked",
      "type": "event"
    },
    {
      "anonymous": false,
      "inputs": [
        {
          "indexed": true,
          "internalType": "address",
          "name": "sender",
          "type": "address"
        },
        {
          "indexed": true,
          "internalType": "address",
          "name": "recipient",
          "type": "address"
        },
        {
          "indexed": false,
          "internalType": "uint256",
          "name": "amount",
          "type": "uint256"
        }
      ],
      "name": "Minted",
      "type": "event"
    },
    {
      "anonymous": false,
      "inputs": [
        {
          "indexed": false,
          "internalType": "address",
          "name": "onRamp",
          "type": "address"
        },
        {
          "indexed": false,
          "internalType": "bool",
          "name": "allowed",
          "type": "bool"
        }
      ],
      "name": "OffRampAllowanceSet",
      "type": "event"
    },
    {
      "anonymous": false,
      "inputs": [
        {
          "indexed": false,
          "internalType": "address",
          "name": "onRamp",
          "type": "address"
        },
        {
          "indexed": false,
          "internalType": "bool",
          "name": "allowed",
          "type": "bool"
        }
      ],
      "name": "OnRampAllowanceSet",
      "type": "event"
    },
    {
      "anonymous": false,
      "inputs": [
        {
          "indexed": true,
          "internalType": "address",
          "name": "from",
          "type": "address"
        },
        {
          "indexed": true,
          "internalType": "address",
          "name": "to",
          "type": "address"
        }
      ],
      "name": "OwnershipTransferRequested",
      "type": "event"
    },
    {
      "anonymous": false,
      "inputs": [
        {
          "indexed": true,
          "internalType": "address",
          "name": "from",
          "type": "address"
        },
        {
          "indexed": true,
          "internalType": "address",
          "name": "to",
          "type": "address"
        }
      ],
      "name": "OwnershipTransferred",
      "type": "event"
    },
    {
      "anonymous": false,
      "inputs": [
        {
          "indexed": false,
          "internalType": "address",
          "name": "account",
          "type": "address"
        }
      ],
      "name": "Paused",
      "type": "event"
    },
    {
      "anonymous": false,
      "inputs": [
        {
          "indexed": true,
          "internalType": "address",
          "name": "sender",
          "type": "address"
        },
        {
          "indexed": true,
          "internalType": "address",
          "name": "recipient",
          "type": "address"
        },
        {
          "indexed": false,
          "internalType": "uint256",
          "name": "amount",
          "type": "uint256"
        }
      ],
      "name": "Released",
      "type": "event"
    },
    {
      "anonymous": false,
      "inputs": [
        {
          "indexed": false,
          "internalType": "address",
          "name": "account",
          "type": "address"
        }
      ],
      "name": "Unpaused",
      "type": "event"
    },
    {
      "inputs": [],
      "name": "acceptOwnership",
      "outputs": [],
      "stateMutability": "nonpayable",
      "type": "function"
    },
    {
      "inputs": [
        {
          "internalType": "uint256",
          "name": "amount",
          "type": "uint256"
        }
      ],
      "name": "addLiquidity",
      "outputs": [],
      "stateMutability": "nonpayable",
      "type": "function"
    },
    {
      "inputs": [
        {
          "components": [
            {
              "internalType": "address",
              "name": "ramp",
              "type": "address"
            },
            {
              "internalType": "bool",
              "name": "allowed",
              "type": "bool"
            }
          ],
          "internalType": "struct TokenPool.RampUpdate[]",
          "name": "onRamps",
          "type": "tuple[]"
        },
        {
          "components": [
            {
              "internalType": "address",
              "name": "ramp",
              "type": "address"
            },
            {
              "internalType": "bool",
              "name": "allowed",
              "type": "bool"
            }
          ],
          "internalType": "struct TokenPool.RampUpdate[]",
          "name": "offRamps",
          "type": "tuple[]"
        }
      ],
      "name": "applyRampUpdates",
      "outputs": [],
      "stateMutability": "nonpayable",
      "type": "function"
    },
    {
      "inputs": [],
      "name": "currentRateLimiterState",
      "outputs": [
        {
          "components": [
            {
              "internalType": "uint128",
              "name": "tokens",
              "type": "uint128"
            },
            {
              "internalType": "uint32",
              "name": "lastUpdated",
              "type": "uint32"
            },
            {
              "internalType": "bool",
              "name": "isEnabled",
              "type": "bool"
            },
            {
              "internalType": "uint128",
              "name": "capacity",
              "type": "uint128"
            },
            {
              "internalType": "uint128",
              "name": "rate",
              "type": "uint128"
            }
          ],
          "internalType": "struct RateLimiter.TokenBucket",
          "name": "",
          "type": "tuple"
        }
      ],
      "stateMutability": "view",
      "type": "function"
    },
    {
      "inputs": [
        {
          "internalType": "address",
          "name": "provider",
          "type": "address"
        }
      ],
      "name": "getProvidedLiquidity",
      "outputs": [
        {
          "internalType": "uint256",
          "name": "",
          "type": "uint256"
        }
      ],
      "stateMutability": "view",
      "type": "function"
    },
    {
      "inputs": [],
      "name": "getToken",
      "outputs": [
        {
          "internalType": "contract IERC20",
          "name": "token",
          "type": "address"
        }
      ],
      "stateMutability": "view",
      "type": "function"
    },
    {
      "inputs": [
        {
          "internalType": "address",
          "name": "offRamp",
          "type": "address"
        }
      ],
      "name": "isOffRamp",
      "outputs": [
        {
          "internalType": "bool",
          "name": "",
          "type": "bool"
        }
      ],
      "stateMutability": "view",
      "type": "function"
    },
    {
      "inputs": [
        {
          "internalType": "address",
          "name": "onRamp",
          "type": "address"
        }
      ],
      "name": "isOnRamp",
      "outputs": [
        {
          "internalType": "bool",
          "name": "",
          "type": "bool"
        }
      ],
      "stateMutability": "view",
      "type": "function"
    },
    {
      "inputs": [
        {
          "internalType": "address",
          "name": "",
          "type": "address"
        },
        {
          "internalType": "bytes",
          "name": "",
          "type": "bytes"
        },
        {
          "internalType": "uint256",
          "name": "amount",
          "type": "uint256"
        },
        {
          "internalType": "uint64",
          "name": "",
          "type": "uint64"
        },
        {
          "internalType": "bytes",
          "name": "",
          "type": "bytes"
        }
      ],
      "name": "lockOrBurn",
      "outputs": [],
      "stateMutability": "nonpayable",
      "type": "function"
    },
    {
      "inputs": [],
      "name": "owner",
      "outputs": [
        {
          "internalType": "address",
          "name": "",
          "type": "address"
        }
      ],
      "stateMutability": "view",
      "type": "function"
    },
    {
      "inputs": [],
      "name": "pause",
      "outputs": [],
      "stateMutability": "nonpayable",
      "type": "function"
    },
    {
      "inputs": [],
      "name": "paused",
      "outputs": [
        {
          "internalType": "bool",
          "name": "",
          "type": "bool"
        }
      ],
      "stateMutability": "view",
      "type": "function"
    },
    {
      "inputs": [
        {
          "internalType": "bytes",
          "name": "",
          "type": "bytes"
        },
        {
          "internalType": "address",
          "name": "receiver",
          "type": "address"
        },
        {
          "internalType": "uint256",
          "name": "amount",
          "type": "uint256"
        },
        {
          "internalType": "uint64",
          "name": "",
          "type": "uint64"
        },
        {
          "internalType": "bytes",
          "name": "",
          "type": "bytes"
        }
      ],
      "name": "releaseOrMint",
      "outputs": [],
      "stateMutability": "nonpayable",
      "type": "function"
    },
    {
      "inputs": [
        {
          "internalType": "uint256",
          "name": "amount",
          "type": "uint256"
        }
      ],
      "name": "removeLiquidity",
      "outputs": [],
      "stateMutability": "nonpayable",
      "type": "function"
    },
    {
      "inputs": [
        {
          "components": [
            {
              "internalType": "bool",
              "name": "isEnabled",
              "type": "bool"
            },
            {
              "internalType": "uint128",
              "name": "capacity",
              "type": "uint128"
            },
            {
              "internalType": "uint128",
              "name": "rate",
              "type": "uint128"
            }
          ],
          "internalType": "struct RateLimiter.Config",
          "name": "config",
          "type": "tuple"
        }
      ],
      "name": "setRateLimiterConfig",
      "outputs": [],
      "stateMutability": "nonpayable",
      "type": "function"
    },
    {
      "inputs": [
        {
          "internalType": "bytes4",
          "name": "interfaceId",
          "type": "bytes4"
        }
      ],
      "name": "supportsInterface",
      "outputs": [
        {
          "internalType": "bool",
          "name": "",
          "type": "bool"
        }
      ],
      "stateMutability": "pure",
      "type": "function"
    },
    {
      "inputs": [
        {
          "internalType": "address",
          "name": "to",
          "type": "address"
        }
      ],
      "name": "transferOwnership",
      "outputs": [],
      "stateMutability": "nonpayable",
      "type": "function"
    },
    {
      "inputs": [],
      "name": "unpause",
      "outputs": [],
      "stateMutability": "nonpayable",
      "type": "function"
    }
  ],
  "bytecode": {
    "object": "0x60a06040523480156200001157600080fd5b50604051620024a6380380620024a683398101604081905262000034916200025f565b818133806000816200008d5760405162461bcd60e51b815260206004820152601860248201527f43616e6e6f7420736574206f776e657220746f207a65726f000000000000000060448201526064015b60405180910390fd5b600080546001600160a01b0319166001600160a01b0384811691909117909155811615620000c057620000c08162000197565b50506001805460ff60a01b19169055506001600160a01b038216620000f857604051634655efd160e11b815260040160405180910390fd5b6040805160a081018252602083810180516001600160801b039081168085524263ffffffff169385018490528651151585870181905292518216606086018190529690950151166080938401819052600680546001600160a01b031916909517600160801b9384021760ff60a01b1916600160a01b909202919091179093559091029091176007556001600160a01b03919091169052506200031d9050565b336001600160a01b03821603620001f15760405162461bcd60e51b815260206004820152601760248201527f43616e6e6f74207472616e7366657220746f2073656c66000000000000000000604482015260640162000084565b600180546001600160a01b0319166001600160a01b0383811691821790925560008054604051929316917fed8889f560326eb138920d842192f0eb3dd22b4f139c87a2c57538e05bae12789190a350565b80516001600160801b03811681146200025a57600080fd5b919050565b60008082840360808112156200027457600080fd5b83516001600160a01b03811681146200028c57600080fd5b92506060601f1982011215620002a157600080fd5b50604051606081016001600160401b0381118282101715620002d357634e487b7160e01b600052604160045260246000fd5b60405260208401518015158114620002ea57600080fd5b8152620002fa6040850162000242565b60208201526200030d6060850162000242565b6040820152809150509250929050565b60805161215162000355600039600081816101780152818161042a015281816106e40152818161085d015261092f01526121516000f3fe608060405234801561001057600080fd5b50600436106101365760003560e01c806379ba5097116100b25780639687544511610081578063af51911211610066578063af5191121461031f578063c92b283214610332578063f2fde38b1461034557600080fd5b806396875445146102f95780639c8f9f231461030c57600080fd5b806379ba5097146102b85780638456cb59146102c05780638627fad6146102c85780638da5cb5b146102db57600080fd5b806351c6590a1161010957806356dd1e81116100ee57806356dd1e811461023e5780635c975abb146102825780636f32b872146102a557600080fd5b806351c6590a146101c7578063546719cd146101da57600080fd5b806301ffc9a71461013b5780631d7a74a01461016357806321df0da7146101765780633f4ba83a146101bd575b600080fd5b61014e610149366004611a2a565b610358565b60405190151581526020015b60405180910390f35b61014e610171366004611a95565b6103f1565b7f00000000000000000000000000000000000000000000000000000000000000005b60405173ffffffffffffffffffffffffffffffffffffffff909116815260200161015a565b6101c56103fe565b005b6101c56101d5366004611ab0565b610410565b6101e26104a6565b60405161015a919081516fffffffffffffffffffffffffffffffff908116825260208084015163ffffffff1690830152604080840151151590830152606080840151821690830152608092830151169181019190915260a00190565b61027461024c366004611a95565b73ffffffffffffffffffffffffffffffffffffffff1660009081526008602052604090205490565b60405190815260200161015a565b60015474010000000000000000000000000000000000000000900460ff1661014e565b61014e6102b3366004611a95565b61055b565b6101c5610568565b6101c561066a565b6101c56102d6366004611c16565b61067a565b60005473ffffffffffffffffffffffffffffffffffffffff16610198565b6101c5610307366004611cee565b61075f565b6101c561031a366004611ab0565b6107e4565b6101c561032d366004611e4e565b6109aa565b6101c5610340366004611ed2565b610bba565b6101c5610353366004611a95565b610bd0565b60007fffffffff0000000000000000000000000000000000000000000000000000000082167f317fa3340000000000000000000000000000000000000000000000000000000014806103eb57507fffffffff0000000000000000000000000000000000000000000000000000000082167f01ffc9a700000000000000000000000000000000000000000000000000000000145b92915050565b60006103eb600483610be1565b610406610c13565b61040e610c94565b565b61045273ffffffffffffffffffffffffffffffffffffffff7f000000000000000000000000000000000000000000000000000000000000000016333084610d11565b3360009081526008602052604081208054839290610471908490611f6f565b9091555050604051819033907fc17cea59c2955cb181b03393209566960365771dbba9dc3d510180e7cb31208890600090a350565b6040805160a0810182526000808252602082018190529181018290526060810182905260808101919091526040805160a0810182526006546fffffffffffffffffffffffffffffffff808216835270010000000000000000000000000000000080830463ffffffff1660208501527401000000000000000000000000000000000000000090920460ff16151593830193909352600754808416606084015204909116608082015261055690610df3565b905090565b60006103eb600283610be1565b60015473ffffffffffffffffffffffffffffffffffffffff1633146105ee576040517f08c379a000000000000000000000000000000000000000000000000000000000815260206004820152601660248201527f4d7573742062652070726f706f736564206f776e65720000000000000000000060448201526064015b60405180910390fd5b60008054337fffffffffffffffffffffffff00000000000000000000000000000000000000008083168217845560018054909116905560405173ffffffffffffffffffffffffffffffffffffffff90921692909183917f8be0079c531659141344cd1fd0a4f28419497f9722a3daafe3b4186f6b6457e091a350565b610672610c13565b61040e610ea5565b610682610f14565b61068b336103f1565b6106c1576040517f5307f5ab00000000000000000000000000000000000000000000000000000000815260040160405180910390fd5b6106ca83610f99565b61070b73ffffffffffffffffffffffffffffffffffffffff7f0000000000000000000000000000000000000000000000000000000000000000168585610fa4565b60405183815273ffffffffffffffffffffffffffffffffffffffff85169033907f2d87480f50083e2b2759522a8fdda59802650a8055e609a7772cf70c07748f529060200160405180910390a35050505050565b610767610f14565b6107703361055b565b6107a6576040517f5307f5ab00000000000000000000000000000000000000000000000000000000815260040160405180910390fd5b60405184815233907f9f1ec8c880f76798e7b793325d625e9b60e4082a553c98f42b6cda368dd600089060200160405180910390a250505050505050565b3360009081526008602052604090205481111561082d576040517f6982012000000000000000000000000000000000000000000000000000000000815260040160405180910390fd5b6040517f70a0823100000000000000000000000000000000000000000000000000000000815230600482015281907f000000000000000000000000000000000000000000000000000000000000000073ffffffffffffffffffffffffffffffffffffffff16906370a0823190602401602060405180830381865afa1580156108b9573d6000803e3d6000fd5b505050506040513d601f19601f820116820180604052508101906108dd9190611f82565b1015610915576040517fbb55fd2700000000000000000000000000000000000000000000000000000000815260040160405180910390fd5b61095673ffffffffffffffffffffffffffffffffffffffff7f0000000000000000000000000000000000000000000000000000000000000000163383610fa4565b3360009081526008602052604081208054839290610975908490611f9b565b9091555050604051819033907fc2c3f06e49b9f15e7b4af9055e183b0d73362e033ad82a07dec9bf984017171990600090a350565b6109b2610c13565b60005b8251811015610ab35760008382815181106109d2576109d2611fae565b6020026020010151905080602001516109f85780516109f390600290610ffa565b610a06565b8051610a069060029061101c565b15610aa2577fbceff8f229c6dfcbf8bdcfb18726b84b0fd249b4803deb3948ff34d904013662848381518110610a3e57610a3e611fae565b602002602001015160000151858481518110610a5c57610a5c611fae565b602002602001015160200151604051610a9992919073ffffffffffffffffffffffffffffffffffffffff9290921682521515602082015260400190565b60405180910390a15b50610aac81611fdd565b90506109b5565b5060005b8151811015610bb5576000828281518110610ad457610ad4611fae565b602002602001015190508060200151610afa578051610af590600490610ffa565b610b08565b8051610b089060049061101c565b15610ba4577fd8c3333ded377884ced3869cd0bcb9be54ea664076df1f5d39c4689120313648838381518110610b4057610b40611fae565b602002602001015160000151848481518110610b5e57610b5e611fae565b602002602001015160200151604051610b9b92919073ffffffffffffffffffffffffffffffffffffffff9290921682521515602082015260400190565b60405180910390a15b50610bae81611fdd565b9050610ab7565b505050565b610bc2610c13565b610bcd60068261103e565b50565b610bd8610c13565b610bcd81611223565b73ffffffffffffffffffffffffffffffffffffffff8116600090815260018301602052604081205415155b9392505050565b60005473ffffffffffffffffffffffffffffffffffffffff16331461040e576040517f08c379a000000000000000000000000000000000000000000000000000000000815260206004820152601660248201527f4f6e6c792063616c6c61626c65206279206f776e65720000000000000000000060448201526064016105e5565b610c9c611318565b600180547fffffffffffffffffffffff00ffffffffffffffffffffffffffffffffffffffff1690557f5db9ee0a495bf2e6ff9c91a7834c1ba4fdd244a5e8aa4e537bd38aeae4b073aa335b60405173ffffffffffffffffffffffffffffffffffffffff909116815260200160405180910390a1565b60405173ffffffffffffffffffffffffffffffffffffffff80851660248301528316604482015260648101829052610ded9085907f23b872dd00000000000000000000000000000000000000000000000000000000906084015b604080517fffffffffffffffffffffffffffffffffffffffffffffffffffffffffffffffe08184030181529190526020810180517bffffffffffffffffffffffffffffffffffffffffffffffffffffffff167fffffffff000000000000000000000000000000000000000000000000000000009093169290921790915261139c565b50505050565b6040805160a081018252600080825260208201819052918101829052606081018290526080810191909152610e8182606001516fffffffffffffffffffffffffffffffff1683600001516fffffffffffffffffffffffffffffffff16846020015163ffffffff1642610e659190611f9b565b85608001516fffffffffffffffffffffffffffffffff166114a8565b6fffffffffffffffffffffffffffffffff1682525063ffffffff4216602082015290565b610ead610f14565b600180547fffffffffffffffffffffff00ffffffffffffffffffffffffffffffffffffffff16740100000000000000000000000000000000000000001790557f62e78cea01bee320cd4e420270b5ea74000d11b0c9f74754ebdbfc544b05a258610ce73390565b60015474010000000000000000000000000000000000000000900460ff161561040e576040517f08c379a000000000000000000000000000000000000000000000000000000000815260206004820152601060248201527f5061757361626c653a207061757365640000000000000000000000000000000060448201526064016105e5565b610bcd6006826114d2565b60405173ffffffffffffffffffffffffffffffffffffffff8316602482015260448101829052610bb59084907fa9059cbb0000000000000000000000000000000000000000000000000000000090606401610d6b565b6000610c0c8373ffffffffffffffffffffffffffffffffffffffff8416611761565b6000610c0c8373ffffffffffffffffffffffffffffffffffffffff8416611854565b815460009061106790700100000000000000000000000000000000900463ffffffff1642611f9b565b9050801561110957600183015483546110af916fffffffffffffffffffffffffffffffff808216928116918591700100000000000000000000000000000000909104166114a8565b83546fffffffffffffffffffffffffffffffff919091167fffffffffffffffffffffffff0000000000000000000000000000000000000000909116177001000000000000000000000000000000004263ffffffff16021783555b6020820151835461112f916fffffffffffffffffffffffffffffffff90811691166118a3565b83548351151574010000000000000000000000000000000000000000027fffffffffffffffffffffff00ffffffff000000000000000000000000000000009091166fffffffffffffffffffffffffffffffff92831617178455602083015160408085015183167001000000000000000000000000000000000291909216176001850155517f9ea3374b67bf275e6bb9c8ae68f9cae023e1c528b4b27e092f0bb209d3531c19906112169084908151151581526020808301516fffffffffffffffffffffffffffffffff90811691830191909152604092830151169181019190915260600190565b60405180910390a1505050565b3373ffffffffffffffffffffffffffffffffffffffff8216036112a2576040517f08c379a000000000000000000000000000000000000000000000000000000000815260206004820152601760248201527f43616e6e6f74207472616e7366657220746f2073656c6600000000000000000060448201526064016105e5565b600180547fffffffffffffffffffffffff00000000000000000000000000000000000000001673ffffffffffffffffffffffffffffffffffffffff83811691821790925560008054604051929316917fed8889f560326eb138920d842192f0eb3dd22b4f139c87a2c57538e05bae12789190a350565b60015474010000000000000000000000000000000000000000900460ff1661040e576040517f08c379a000000000000000000000000000000000000000000000000000000000815260206004820152601460248201527f5061757361626c653a206e6f742070617573656400000000000000000000000060448201526064016105e5565b60006113fe826040518060400160405280602081526020017f5361666545524332303a206c6f772d6c6576656c2063616c6c206661696c65648152508573ffffffffffffffffffffffffffffffffffffffff166118b99092919063ffffffff16565b805190915015610bb5578080602001905181019061141c9190612015565b610bb5576040517f08c379a000000000000000000000000000000000000000000000000000000000815260206004820152602a60248201527f5361666545524332303a204552433230206f7065726174696f6e20646964206e60448201527f6f7420737563636565640000000000000000000000000000000000000000000060648201526084016105e5565b60006114c7856114b88486612032565b6114c29087611f6f565b6118a3565b90505b949350505050565b815474010000000000000000000000000000000000000000900460ff1615806114f9575080155b15611502575050565b815460018301546fffffffffffffffffffffffffffffffff8083169291169060009061154890700100000000000000000000000000000000900463ffffffff1642611f9b565b90508015611608578183111561158a576040517f9725942a00000000000000000000000000000000000000000000000000000000815260040160405180910390fd5b60018501546115c49083908590849070010000000000000000000000000000000090046fffffffffffffffffffffffffffffffff166114a8565b85547fffffffffffffffffffffffff00000000ffffffffffffffffffffffffffffffff167001000000000000000000000000000000004263ffffffff160217865592505b8382101561164c576040517f48369c4300000000000000000000000000000000000000000000000000000000815260048101839052602481018590526044016105e5565b838310156116e05760018581015470010000000000000000000000000000000090046fffffffffffffffffffffffffffffffff1690819061168d9082611f9b565b6116978688611f9b565b6116a19190611f6f565b6116ab9190612049565b6040517fdc96cefa0000000000000000000000000000000000000000000000000000000081526004016105e591815260200190565b6116ea8484611f9b565b85547fffffffffffffffffffffffffffffffff00000000000000000000000000000000166fffffffffffffffffffffffffffffffff82161786556040518581529093507f1871cdf8010e63f2eb8384381a68dfa7416dc571a5517e66e88b2d2d0c0a690a9060200160405180910390a15050505050565b6000818152600183016020526040812054801561184a576000611785600183611f9b565b855490915060009061179990600190611f9b565b90508181146117fe5760008660000182815481106117b9576117b9611fae565b90600052602060002001549050808760000184815481106117dc576117dc611fae565b6000918252602080832090910192909255918252600188019052604090208390555b855486908061180f5761180f612084565b6001900381819060005260206000200160009055905585600101600086815260200190815260200160002060009055600193505050506103eb565b60009150506103eb565b600081815260018301602052604081205461189b575081546001818101845560008481526020808220909301849055845484825282860190935260409020919091556103eb565b5060006103eb565b60008183106118b25781610c0c565b5090919050565b60606114ca8484600085856000808673ffffffffffffffffffffffffffffffffffffffff1685876040516118ed91906120d7565b60006040518083038185875af1925050503d806000811461192a576040519150601f19603f3d011682016040523d82523d6000602084013e61192f565b606091505b50915091506119408783838761194b565b979650505050505050565b606083156119e15782516000036119da5773ffffffffffffffffffffffffffffffffffffffff85163b6119da576040517f08c379a000000000000000000000000000000000000000000000000000000000815260206004820152601d60248201527f416464726573733a2063616c6c20746f206e6f6e2d636f6e747261637400000060448201526064016105e5565b50816114ca565b6114ca83838151156119f65781518083602001fd5b806040517f08c379a00000000000000000000000000000000000000000000000000000000081526004016105e591906120f3565b600060208284031215611a3c57600080fd5b81357fffffffff0000000000000000000000000000000000000000000000000000000081168114610c0c57600080fd5b803573ffffffffffffffffffffffffffffffffffffffff81168114611a9057600080fd5b919050565b600060208284031215611aa757600080fd5b610c0c82611a6c565b600060208284031215611ac257600080fd5b5035919050565b7f4e487b7100000000000000000000000000000000000000000000000000000000600052604160045260246000fd5b6040805190810167ffffffffffffffff81118282101715611b1b57611b1b611ac9565b60405290565b604051601f82017fffffffffffffffffffffffffffffffffffffffffffffffffffffffffffffffe016810167ffffffffffffffff81118282101715611b6857611b68611ac9565b604052919050565b600082601f830112611b8157600080fd5b813567ffffffffffffffff811115611b9b57611b9b611ac9565b611bcc60207fffffffffffffffffffffffffffffffffffffffffffffffffffffffffffffffe0601f84011601611b21565b818152846020838601011115611be157600080fd5b816020850160208301376000918101602001919091529392505050565b803567ffffffffffffffff81168114611a9057600080fd5b600080600080600060a08688031215611c2e57600080fd5b853567ffffffffffffffff80821115611c4657600080fd5b611c5289838a01611b70565b9650611c6060208901611a6c565b955060408801359450611c7560608901611bfe565b93506080880135915080821115611c8b57600080fd5b50611c9888828901611b70565b9150509295509295909350565b60008083601f840112611cb757600080fd5b50813567ffffffffffffffff811115611ccf57600080fd5b602083019150836020828501011115611ce757600080fd5b9250929050565b600080600080600080600060a0888a031215611d0957600080fd5b611d1288611a6c565b9650602088013567ffffffffffffffff80821115611d2f57600080fd5b611d3b8b838c01611ca5565b909850965060408a01359550869150611d5660608b01611bfe565b945060808a0135915080821115611d6c57600080fd5b50611d798a828b01611ca5565b989b979a50959850939692959293505050565b8015158114610bcd57600080fd5b600082601f830112611dab57600080fd5b8135602067ffffffffffffffff821115611dc757611dc7611ac9565b611dd5818360051b01611b21565b82815260069290921b84018101918181019086841115611df457600080fd5b8286015b84811015611e435760408189031215611e115760008081fd5b611e19611af8565b611e2282611a6c565b815284820135611e3181611d8c565b81860152835291830191604001611df8565b509695505050505050565b60008060408385031215611e6157600080fd5b823567ffffffffffffffff80821115611e7957600080fd5b611e8586838701611d9a565b93506020850135915080821115611e9b57600080fd5b50611ea885828601611d9a565b9150509250929050565b80356fffffffffffffffffffffffffffffffff81168114611a9057600080fd5b600060608284031215611ee457600080fd5b6040516060810181811067ffffffffffffffff82111715611f0757611f07611ac9565b6040528235611f1581611d8c565b8152611f2360208401611eb2565b6020820152611f3460408401611eb2565b60408201529392505050565b7f4e487b7100000000000000000000000000000000000000000000000000000000600052601160045260246000fd5b808201808211156103eb576103eb611f40565b600060208284031215611f9457600080fd5b5051919050565b818103818111156103eb576103eb611f40565b7f4e487b7100000000000000000000000000000000000000000000000000000000600052603260045260246000fd5b60007fffffffffffffffffffffffffffffffffffffffffffffffffffffffffffffffff820361200e5761200e611f40565b5060010190565b60006020828403121561202757600080fd5b8151610c0c81611d8c565b80820281158282048414176103eb576103eb611f40565b60008261207f577f4e487b7100000000000000000000000000000000000000000000000000000000600052601260045260246000fd5b500490565b7f4e487b7100000000000000000000000000000000000000000000000000000000600052603160045260246000fd5b60005b838110156120ce5781810151838201526020016120b6565b50506000910152565b600082516120e98184602087016120b3565b9190910192915050565b60208152600082518060208401526121128160408501602087016120b3565b601f017fffffffffffffffffffffffffffffffffffffffffffffffffffffffffffffffe016919091016040019291505056fea164736f6c6343000813000a",
    "linkReferences": {}
  },
  "methodIdentifiers": {
    "acceptOwnership()": "79ba5097",
    "addLiquidity(uint256)": "51c6590a",
    "applyRampUpdates((address,bool)[],(address,bool)[])": "af519112",
    "currentRateLimiterState()": "546719cd",
    "getProvidedLiquidity(address)": "56dd1e81",
    "getToken()": "21df0da7",
    "isOffRamp(address)": "1d7a74a0",
    "isOnRamp(address)": "6f32b872",
    "lockOrBurn(address,bytes,uint256,uint64,bytes)": "96875445",
    "owner()": "8da5cb5b",
    "pause()": "8456cb59",
    "paused()": "5c975abb",
    "releaseOrMint(bytes,address,uint256,uint64,bytes)": "8627fad6",
    "removeLiquidity(uint256)": "9c8f9f23",
    "setRateLimiterConfig((bool,uint128,uint128))": "c92b2832",
    "supportsInterface(bytes4)": "01ffc9a7",
    "transferOwnership(address)": "f2fde38b",
    "unpause()": "3f4ba83a"
  },
  "id": 36
}