{
  "abi": [
    {
      "inputs": [
        {
          "components": [
            {
              "internalType": "bool",
              "name": "isEnabled",
              "type": "bool"
            },
            {
              "internalType": "uint128",
              "name": "capacity",
              "type": "uint128"
            },
            {
              "internalType": "uint128",
              "name": "rate",
              "type": "uint128"
            }
          ],
          "internalType": "struct RateLimiter.Config",
          "name": "config",
          "type": "tuple"
        }
      ],
      "stateMutability": "nonpayable",
      "type": "constructor"
    },
    {
      "inputs": [],
      "name": "OnlyCallableByAdminOrOwner",
      "type": "error"
    },
    {
      "inputs": [
        {
          "internalType": "address",
          "name": "token",
          "type": "address"
        }
      ],
      "name": "PriceNotFoundForToken",
      "type": "error"
    },
    {
      "anonymous": false,
      "inputs": [
        {
          "indexed": false,
          "internalType": "address",
          "name": "newAdmin",
          "type": "address"
        }
      ],
      "name": "AdminSet",
      "type": "event"
    },
    {
      "anonymous": false,
      "inputs": [
        {
          "indexed": true,
          "internalType": "address",
          "name": "from",
          "type": "address"
        },
        {
          "indexed": true,
          "internalType": "address",
          "name": "to",
          "type": "address"
        }
      ],
      "name": "OwnershipTransferRequested",
      "type": "event"
    },
    {
      "anonymous": false,
      "inputs": [
        {
          "indexed": true,
          "internalType": "address",
          "name": "from",
          "type": "address"
        },
        {
          "indexed": true,
          "internalType": "address",
          "name": "to",
          "type": "address"
        }
      ],
      "name": "OwnershipTransferred",
      "type": "event"
    },
    {
      "inputs": [],
      "name": "acceptOwnership",
      "outputs": [],
      "stateMutability": "nonpayable",
      "type": "function"
    },
    {
      "inputs": [],
      "name": "currentRateLimiterState",
      "outputs": [
        {
          "components": [
            {
              "internalType": "uint128",
              "name": "tokens",
              "type": "uint128"
            },
            {
              "internalType": "uint32",
              "name": "lastUpdated",
              "type": "uint32"
            },
            {
              "internalType": "bool",
              "name": "isEnabled",
              "type": "bool"
            },
            {
              "internalType": "uint128",
              "name": "capacity",
              "type": "uint128"
            },
            {
              "internalType": "uint128",
              "name": "rate",
              "type": "uint128"
            }
          ],
          "internalType": "struct RateLimiter.TokenBucket",
          "name": "",
          "type": "tuple"
        }
      ],
      "stateMutability": "view",
      "type": "function"
    },
    {
      "inputs": [],
      "name": "getTokenLimitAdmin",
      "outputs": [
        {
          "internalType": "address",
          "name": "",
          "type": "address"
        }
      ],
      "stateMutability": "view",
      "type": "function"
    },
    {
      "inputs": [],
      "name": "owner",
      "outputs": [
        {
          "internalType": "address",
          "name": "",
          "type": "address"
        }
      ],
      "stateMutability": "view",
      "type": "function"
    },
    {
      "inputs": [
        {
          "internalType": "address",
          "name": "newAdmin",
          "type": "address"
        }
      ],
      "name": "setAdmin",
      "outputs": [],
      "stateMutability": "nonpayable",
      "type": "function"
    },
    {
      "inputs": [
        {
          "components": [
            {
              "internalType": "bool",
              "name": "isEnabled",
              "type": "bool"
            },
            {
              "internalType": "uint128",
              "name": "capacity",
              "type": "uint128"
            },
            {
              "internalType": "uint128",
              "name": "rate",
              "type": "uint128"
            }
          ],
          "internalType": "struct RateLimiter.Config",
          "name": "config",
          "type": "tuple"
        }
      ],
      "name": "setRateLimiterConfig",
      "outputs": [],
      "stateMutability": "nonpayable",
      "type": "function"
    },
    {
      "inputs": [
        {
          "internalType": "address",
          "name": "to",
          "type": "address"
        }
      ],
      "name": "transferOwnership",
      "outputs": [],
      "stateMutability": "nonpayable",
      "type": "function"
    }
  ],
  "bytecode": {
    "object": "0x608060405234801561001057600080fd5b50604051610d26380380610d2683398101604081905261002f91610205565b33806000816100855760405162461bcd60e51b815260206004820152601860248201527f43616e6e6f7420736574206f776e657220746f207a65726f000000000000000060448201526064015b60405180910390fd5b600080546001600160a01b0319166001600160a01b03848116919091179091558116156100b5576100b581610140565b50506040805160a081018252602084810180516001600160801b039081168085524263ffffffff169385018490528751151585870181905292518216606086018190529790950151166080909301839052600380546001600160a01b031916909417600160801b9283021760ff60a01b1916600160a01b909102179092550290911760045550610285565b336001600160a01b038216036101985760405162461bcd60e51b815260206004820152601760248201527f43616e6e6f74207472616e7366657220746f2073656c66000000000000000000604482015260640161007c565b600180546001600160a01b0319166001600160a01b0383811691821790925560008054604051929316917fed8889f560326eb138920d842192f0eb3dd22b4f139c87a2c57538e05bae12789190a350565b80516001600160801b038116811461020057600080fd5b919050565b60006060828403121561021757600080fd5b604051606081016001600160401b038111828210171561024757634e487b7160e01b600052604160045260246000fd5b6040528251801515811461025a57600080fd5b8152610268602084016101e9565b6020820152610279604084016101e9565b60408201529392505050565b610a92806102946000396000f3fe608060405234801561001057600080fd5b506004361061007d5760003560e01c806379ba50971161005b57806379ba5097146101435780638da5cb5b1461014b578063c92b283214610169578063f2fde38b1461017c57600080fd5b8063546719cd14610082578063599f6431146100ef578063704b6c021461012e575b600080fd5b61008a61018f565b6040516100e6919081516fffffffffffffffffffffffffffffffff908116825260208084015163ffffffff1690830152604080840151151590830152606080840151821690830152608092830151169181019190915260a00190565b60405180910390f35b60025473ffffffffffffffffffffffffffffffffffffffff165b60405173ffffffffffffffffffffffffffffffffffffffff90911681526020016100e6565b61014161013c36600461091d565b610244565b005b610141610334565b60005473ffffffffffffffffffffffffffffffffffffffff16610109565b61014161017736600461097f565b610436565b61014161018a36600461091d565b6104bb565b6040805160a0810182526000808252602082018190529181018290526060810182905260808101919091526040805160a0810182526003546fffffffffffffffffffffffffffffffff808216835270010000000000000000000000000000000080830463ffffffff1660208501527401000000000000000000000000000000000000000090920460ff16151593830193909352600454808416606084015204909116608082015261023f906104cc565b905090565b60005473ffffffffffffffffffffffffffffffffffffffff163314801590610284575060025473ffffffffffffffffffffffffffffffffffffffff163314155b156102bb576040517ff6cd562000000000000000000000000000000000000000000000000000000000815260040160405180910390fd5b600280547fffffffffffffffffffffffff00000000000000000000000000000000000000001673ffffffffffffffffffffffffffffffffffffffff83169081179091556040519081527f8fe72c3e0020beb3234e76ae6676fa576fbfcae600af1c4fea44784cf0db329c9060200160405180910390a150565b60015473ffffffffffffffffffffffffffffffffffffffff1633146103ba576040517f08c379a000000000000000000000000000000000000000000000000000000000815260206004820152601660248201527f4d7573742062652070726f706f736564206f776e65720000000000000000000060448201526064015b60405180910390fd5b60008054337fffffffffffffffffffffffff00000000000000000000000000000000000000008083168217845560018054909116905560405173ffffffffffffffffffffffffffffffffffffffff90921692909183917f8be0079c531659141344cd1fd0a4f28419497f9722a3daafe3b4186f6b6457e091a350565b60005473ffffffffffffffffffffffffffffffffffffffff163314801590610476575060025473ffffffffffffffffffffffffffffffffffffffff163314155b156104ad576040517ff6cd562000000000000000000000000000000000000000000000000000000000815260040160405180910390fd5b6104b860038261057e565b50565b6104c3610763565b6104b8816107e6565b6040805160a08101825260008082526020820181905291810182905260608101829052608081019190915261055a82606001516fffffffffffffffffffffffffffffffff1683600001516fffffffffffffffffffffffffffffffff16846020015163ffffffff164261053e9190610a48565b85608001516fffffffffffffffffffffffffffffffff166108db565b6fffffffffffffffffffffffffffffffff1682525063ffffffff4216602082015290565b81546000906105a790700100000000000000000000000000000000900463ffffffff1642610a48565b9050801561064957600183015483546105ef916fffffffffffffffffffffffffffffffff808216928116918591700100000000000000000000000000000000909104166108db565b83546fffffffffffffffffffffffffffffffff919091167fffffffffffffffffffffffff0000000000000000000000000000000000000000909116177001000000000000000000000000000000004263ffffffff16021783555b6020820151835461066f916fffffffffffffffffffffffffffffffff9081169116610903565b83548351151574010000000000000000000000000000000000000000027fffffffffffffffffffffff00ffffffff000000000000000000000000000000009091166fffffffffffffffffffffffffffffffff92831617178455602083015160408085015183167001000000000000000000000000000000000291909216176001850155517f9ea3374b67bf275e6bb9c8ae68f9cae023e1c528b4b27e092f0bb209d3531c19906107569084908151151581526020808301516fffffffffffffffffffffffffffffffff90811691830191909152604092830151169181019190915260600190565b60405180910390a1505050565b60005473ffffffffffffffffffffffffffffffffffffffff1633146107e4576040517f08c379a000000000000000000000000000000000000000000000000000000000815260206004820152601660248201527f4f6e6c792063616c6c61626c65206279206f776e65720000000000000000000060448201526064016103b1565b565b3373ffffffffffffffffffffffffffffffffffffffff821603610865576040517f08c379a000000000000000000000000000000000000000000000000000000000815260206004820152601760248201527f43616e6e6f74207472616e7366657220746f2073656c6600000000000000000060448201526064016103b1565b600180547fffffffffffffffffffffffff00000000000000000000000000000000000000001673ffffffffffffffffffffffffffffffffffffffff83811691821790925560008054604051929316917fed8889f560326eb138920d842192f0eb3dd22b4f139c87a2c57538e05bae12789190a350565b60006108fa856108eb8486610a5b565b6108f59087610a72565b610903565b95945050505050565b60008183106109125781610914565b825b90505b92915050565b60006020828403121561092f57600080fd5b813573ffffffffffffffffffffffffffffffffffffffff8116811461095357600080fd5b9392505050565b80356fffffffffffffffffffffffffffffffff8116811461097a57600080fd5b919050565b60006060828403121561099157600080fd5b6040516060810181811067ffffffffffffffff821117156109db577f4e487b7100000000000000000000000000000000000000000000000000000000600052604160045260246000fd5b604052823580151581146109ee57600080fd5b81526109fc6020840161095a565b6020820152610a0d6040840161095a565b60408201529392505050565b7f4e487b7100000000000000000000000000000000000000000000000000000000600052601160045260246000fd5b8181038181111561091757610917610a19565b808202811582820484141761091757610917610a19565b8082018082111561091757610917610a1956fea164736f6c6343000813000a",
    "linkReferences": {}
  },
  "methodIdentifiers": {
    "acceptOwnership()": "79ba5097",
    "currentRateLimiterState()": "546719cd",
    "getTokenLimitAdmin()": "599f6431",
    "owner()": "8da5cb5b",
    "setAdmin(address)": "704b6c02",
    "setRateLimiterConfig((bool,uint128,uint128))": "c92b2832",
    "transferOwnership(address)": "f2fde38b"
  },
  "id": 1
}