{
  "abi": [
    {
      "inputs": [
        {
          "components": [
            {
              "internalType": "address",
              "name": "commitStore",
              "type": "address"
            },
            {
              "internalType": "uint64",
              "name": "chainSelector",
              "type": "uint64"
            },
            {
              "internalType": "uint64",
              "name": "sourceChainSelector",
              "type": "uint64"
            },
            {
              "internalType": "address",
              "name": "onRamp",
              "type": "address"
            },
            {
              "internalType": "address",
              "name": "prevOffRamp",
              "type": "address"
            }
          ],
          "internalType": "struct EVM2EVMOffRamp.StaticConfig",
          "name": "staticConfig",
          "type": "tuple"
        },
        {
          "internalType": "contract IERC20[]",
          "name": "sourceTokens",
          "type": "address[]"
        },
        {
          "internalType": "contract IPool[]",
          "name": "pools",
          "type": "address[]"
        },
        {
          "components": [
            {
              "internalType": "bool",
              "name": "isEnabled",
              "type": "bool"
            },
            {
              "internalType": "uint128",
              "name": "capacity",
              "type": "uint128"
            },
            {
              "internalType": "uint128",
              "name": "rate",
              "type": "uint128"
            }
          ],
          "internalType": "struct RateLimiter.Config",
          "name": "rateLimiterConfig",
          "type": "tuple"
        }
      ],
      "stateMutability": "nonpayable",
      "type": "constructor"
    },
    {
      "inputs": [
        {
          "internalType": "uint64",
          "name": "sequenceNumber",
          "type": "uint64"
        }
      ],
      "name": "AlreadyAttempted",
      "type": "error"
    },
    {
      "inputs": [
        {
          "internalType": "uint64",
          "name": "sequenceNumber",
          "type": "uint64"
        }
      ],
      "name": "AlreadyExecuted",
      "type": "error"
    },
    {
      "inputs": [],
      "name": "BadARMSignal",
      "type": "error"
    },
    {
      "inputs": [],
      "name": "BucketOverfilled",
      "type": "error"
    },
    {
      "inputs": [],
      "name": "CanOnlySelfCall",
      "type": "error"
    },
    {
      "inputs": [],
      "name": "CommitStoreAlreadyInUse",
      "type": "error"
    },
    {
      "inputs": [
        {
          "internalType": "bytes32",
          "name": "expected",
          "type": "bytes32"
        },
        {
          "internalType": "bytes32",
          "name": "actual",
          "type": "bytes32"
        }
      ],
      "name": "ConfigDigestMismatch",
      "type": "error"
    },
    {
      "inputs": [
        {
          "internalType": "uint256",
          "name": "capacity",
          "type": "uint256"
        },
        {
          "internalType": "uint256",
          "name": "requested",
          "type": "uint256"
        }
      ],
      "name": "ConsumingMoreThanMaxCapacity",
      "type": "error"
    },
    {
      "inputs": [],
      "name": "EmptyReport",
      "type": "error"
    },
    {
      "inputs": [
        {
          "internalType": "bytes",
          "name": "error",
          "type": "bytes"
        }
      ],
      "name": "ExecutionError",
      "type": "error"
    },
    {
      "inputs": [
        {
          "internalType": "string",
          "name": "message",
          "type": "string"
        }
      ],
      "name": "InvalidConfig",
      "type": "error"
    },
    {
      "inputs": [],
      "name": "InvalidMessageId",
      "type": "error"
    },
    {
      "inputs": [
        {
          "internalType": "uint64",
          "name": "sequenceNumber",
          "type": "uint64"
        },
        {
          "internalType": "enum Internal.MessageExecutionState",
          "name": "newState",
          "type": "uint8"
        }
      ],
      "name": "InvalidNewState",
      "type": "error"
    },
    {
      "inputs": [
        {
          "components": [
            {
              "internalType": "uint32",
              "name": "permissionLessExecutionThresholdSeconds",
              "type": "uint32"
            },
            {
              "internalType": "address",
              "name": "router",
              "type": "address"
            },
            {
              "internalType": "address",
              "name": "priceRegistry",
              "type": "address"
            },
            {
              "internalType": "address",
              "name": "ARM",
              "type": "address"
            },
            {
              "internalType": "uint16",
              "name": "maxTokensLength",
              "type": "uint16"
            },
            {
              "internalType": "uint32",
              "name": "maxDataSize",
              "type": "uint32"
            }
          ],
          "internalType": "struct EVM2EVMOffRamp.DynamicConfig",
          "name": "config",
          "type": "tuple"
        }
      ],
      "name": "InvalidOffRampConfig",
      "type": "error"
    },
    {
      "inputs": [
        {
          "internalType": "uint64",
          "name": "sourceChainSelector",
          "type": "uint64"
        }
      ],
      "name": "InvalidSourceChain",
      "type": "error"
    },
    {
      "inputs": [],
      "name": "InvalidTokenPoolConfig",
      "type": "error"
    },
    {
      "inputs": [],
      "name": "ManualExecutionNotYetEnabled",
      "type": "error"
    },
    {
      "inputs": [
        {
          "internalType": "uint256",
          "name": "maxSize",
          "type": "uint256"
        },
        {
          "internalType": "uint256",
          "name": "actualSize",
          "type": "uint256"
        }
      ],
      "name": "MessageTooLarge",
      "type": "error"
    },
    {
      "inputs": [],
      "name": "OnlyCallableByAdminOrOwner",
      "type": "error"
    },
    {
      "inputs": [],
      "name": "PoolAlreadyAdded",
      "type": "error"
    },
    {
      "inputs": [],
      "name": "PoolDoesNotExist",
      "type": "error"
    },
    {
      "inputs": [
        {
          "internalType": "address",
          "name": "token",
          "type": "address"
        }
      ],
      "name": "PriceNotFoundForToken",
      "type": "error"
    },
    {
      "inputs": [
        {
          "internalType": "uint256",
          "name": "waitInSeconds",
          "type": "uint256"
        }
      ],
      "name": "RateLimitReached",
      "type": "error"
    },
    {
      "inputs": [],
      "name": "ReceiverError",
      "type": "error"
    },
    {
      "inputs": [],
      "name": "RootNotCommitted",
      "type": "error"
    },
    {
      "inputs": [
        {
          "internalType": "uint64",
          "name": "sequenceNumber",
          "type": "uint64"
        }
      ],
      "name": "TokenDataMismatch",
      "type": "error"
    },
    {
      "inputs": [],
      "name": "TokenPoolMismatch",
      "type": "error"
    },
    {
      "inputs": [],
      "name": "UnauthorizedTransmitter",
      "type": "error"
    },
    {
      "inputs": [],
      "name": "UnexpectedTokenData",
      "type": "error"
    },
    {
      "inputs": [
        {
          "internalType": "uint64",
          "name": "sequenceNumber",
          "type": "uint64"
        }
      ],
      "name": "UnsupportedNumberOfTokens",
      "type": "error"
    },
    {
      "inputs": [
        {
          "internalType": "contract IERC20",
          "name": "token",
          "type": "address"
        }
      ],
      "name": "UnsupportedToken",
      "type": "error"
    },
    {
      "inputs": [
        {
          "internalType": "uint256",
          "name": "expected",
          "type": "uint256"
        },
        {
          "internalType": "uint256",
          "name": "actual",
          "type": "uint256"
        }
      ],
      "name": "WrongMessageLength",
      "type": "error"
    },
    {
      "inputs": [],
      "name": "ZeroAddressNotAllowed",
      "type": "error"
    },
    {
      "anonymous": false,
      "inputs": [
        {
          "indexed": false,
          "internalType": "address",
          "name": "newAdmin",
          "type": "address"
        }
      ],
      "name": "AdminSet",
      "type": "event"
    },
    {
      "anonymous": false,
      "inputs": [
        {
          "components": [
            {
              "internalType": "address",
              "name": "commitStore",
              "type": "address"
            },
            {
              "internalType": "uint64",
              "name": "chainSelector",
              "type": "uint64"
            },
            {
              "internalType": "uint64",
              "name": "sourceChainSelector",
              "type": "uint64"
            },
            {
              "internalType": "address",
              "name": "onRamp",
              "type": "address"
            },
            {
              "internalType": "address",
              "name": "prevOffRamp",
              "type": "address"
            }
          ],
          "indexed": false,
          "internalType": "struct EVM2EVMOffRamp.StaticConfig",
          "name": "staticConfig",
          "type": "tuple"
        },
        {
          "components": [
            {
              "internalType": "uint32",
              "name": "permissionLessExecutionThresholdSeconds",
              "type": "uint32"
            },
            {
              "internalType": "address",
              "name": "router",
              "type": "address"
            },
            {
              "internalType": "address",
              "name": "priceRegistry",
              "type": "address"
            },
            {
              "internalType": "address",
              "name": "ARM",
              "type": "address"
            },
            {
              "internalType": "uint16",
              "name": "maxTokensLength",
              "type": "uint16"
            },
            {
              "internalType": "uint32",
              "name": "maxDataSize",
              "type": "uint32"
            }
          ],
          "indexed": false,
          "internalType": "struct EVM2EVMOffRamp.DynamicConfig",
          "name": "dynamicConfig",
          "type": "tuple"
        }
      ],
      "name": "ConfigSet",
      "type": "event"
    },
    {
      "anonymous": false,
      "inputs": [
        {
          "indexed": false,
          "internalType": "uint32",
          "name": "previousConfigBlockNumber",
          "type": "uint32"
        },
        {
          "indexed": false,
          "internalType": "bytes32",
          "name": "configDigest",
          "type": "bytes32"
        },
        {
          "indexed": false,
          "internalType": "uint64",
          "name": "configCount",
          "type": "uint64"
        },
        {
          "indexed": false,
          "internalType": "address[]",
          "name": "signers",
          "type": "address[]"
        },
        {
          "indexed": false,
          "internalType": "address[]",
          "name": "transmitters",
          "type": "address[]"
        },
        {
          "indexed": false,
          "internalType": "uint8",
          "name": "f",
          "type": "uint8"
        },
        {
          "indexed": false,
          "internalType": "bytes",
          "name": "onchainConfig",
          "type": "bytes"
        },
        {
          "indexed": false,
          "internalType": "uint64",
          "name": "offchainConfigVersion",
          "type": "uint64"
        },
        {
          "indexed": false,
          "internalType": "bytes",
          "name": "offchainConfig",
          "type": "bytes"
        }
      ],
      "name": "ConfigSet",
      "type": "event"
    },
    {
      "anonymous": false,
      "inputs": [
        {
          "indexed": true,
          "internalType": "uint64",
          "name": "sequenceNumber",
          "type": "uint64"
        },
        {
          "indexed": true,
          "internalType": "bytes32",
          "name": "messageId",
          "type": "bytes32"
        },
        {
          "indexed": false,
          "internalType": "enum Internal.MessageExecutionState",
          "name": "state",
          "type": "uint8"
        }
      ],
      "name": "ExecutionStateChanged",
      "type": "event"
    },
    {
      "anonymous": false,
      "inputs": [
        {
          "indexed": true,
          "internalType": "address",
          "name": "from",
          "type": "address"
        },
        {
          "indexed": true,
          "internalType": "address",
          "name": "to",
          "type": "address"
        }
      ],
      "name": "OwnershipTransferRequested",
      "type": "event"
    },
    {
      "anonymous": false,
      "inputs": [
        {
          "indexed": true,
          "internalType": "address",
          "name": "from",
          "type": "address"
        },
        {
          "indexed": true,
          "internalType": "address",
          "name": "to",
          "type": "address"
        }
      ],
      "name": "OwnershipTransferred",
      "type": "event"
    },
    {
      "anonymous": false,
      "inputs": [
        {
          "indexed": false,
          "internalType": "address",
          "name": "token",
          "type": "address"
        },
        {
          "indexed": false,
          "internalType": "address",
          "name": "pool",
          "type": "address"
        }
      ],
      "name": "PoolAdded",
      "type": "event"
    },
    {
      "anonymous": false,
      "inputs": [
        {
          "indexed": false,
          "internalType": "address",
          "name": "token",
          "type": "address"
        },
        {
          "indexed": false,
          "internalType": "address",
          "name": "pool",
          "type": "address"
        }
      ],
      "name": "PoolRemoved",
      "type": "event"
    },
    {
      "anonymous": false,
      "inputs": [
        {
          "indexed": true,
          "internalType": "uint64",
          "name": "nonce",
          "type": "uint64"
        },
        {
          "indexed": true,
          "internalType": "address",
          "name": "sender",
          "type": "address"
        }
      ],
      "name": "SkippedIncorrectNonce",
      "type": "event"
    },
    {
      "anonymous": false,
      "inputs": [
        {
          "indexed": true,
          "internalType": "uint64",
          "name": "nonce",
          "type": "uint64"
        },
        {
          "indexed": true,
          "internalType": "address",
          "name": "sender",
          "type": "address"
        }
      ],
      "name": "SkippedSenderWithPreviousRampMessageInflight",
      "type": "event"
    },
    {
      "anonymous": false,
      "inputs": [
        {
          "indexed": false,
          "internalType": "bytes32",
          "name": "configDigest",
          "type": "bytes32"
        },
        {
          "indexed": false,
          "internalType": "uint32",
          "name": "epoch",
          "type": "uint32"
        }
      ],
      "name": "Transmitted",
      "type": "event"
    },
    {
      "inputs": [],
      "name": "acceptOwnership",
      "outputs": [],
      "stateMutability": "nonpayable",
      "type": "function"
    },
    {
      "inputs": [
        {
          "components": [
            {
              "internalType": "address",
              "name": "token",
              "type": "address"
            },
            {
              "internalType": "address",
              "name": "pool",
              "type": "address"
            }
          ],
          "internalType": "struct Internal.PoolUpdate[]",
          "name": "removes",
          "type": "tuple[]"
        },
        {
          "components": [
            {
              "internalType": "address",
              "name": "token",
              "type": "address"
            },
            {
              "internalType": "address",
              "name": "pool",
              "type": "address"
            }
          ],
          "internalType": "struct Internal.PoolUpdate[]",
          "name": "adds",
          "type": "tuple[]"
        }
      ],
      "name": "applyPoolUpdates",
      "outputs": [],
      "stateMutability": "nonpayable",
      "type": "function"
    },
    {
      "inputs": [
        {
          "components": [
            {
              "internalType": "bytes32",
              "name": "messageId",
              "type": "bytes32"
            },
            {
              "internalType": "uint64",
              "name": "sourceChainSelector",
              "type": "uint64"
            },
            {
              "internalType": "bytes",
              "name": "sender",
              "type": "bytes"
            },
            {
              "internalType": "bytes",
              "name": "data",
              "type": "bytes"
            },
            {
              "components": [
                {
                  "internalType": "address",
                  "name": "token",
                  "type": "address"
                },
                {
                  "internalType": "uint256",
                  "name": "amount",
                  "type": "uint256"
                }
              ],
              "internalType": "struct Client.EVMTokenAmount[]",
              "name": "destTokenAmounts",
              "type": "tuple[]"
            }
          ],
          "internalType": "struct Client.Any2EVMMessage",
          "name": "",
          "type": "tuple"
        }
      ],
      "name": "ccipReceive",
      "outputs": [],
      "stateMutability": "pure",
      "type": "function"
    },
    {
      "inputs": [],
      "name": "currentRateLimiterState",
      "outputs": [
        {
          "components": [
            {
              "internalType": "uint128",
              "name": "tokens",
              "type": "uint128"
            },
            {
              "internalType": "uint32",
              "name": "lastUpdated",
              "type": "uint32"
            },
            {
              "internalType": "bool",
              "name": "isEnabled",
              "type": "bool"
            },
            {
              "internalType": "uint128",
              "name": "capacity",
              "type": "uint128"
            },
            {
              "internalType": "uint128",
              "name": "rate",
              "type": "uint128"
            }
          ],
          "internalType": "struct RateLimiter.TokenBucket",
          "name": "",
          "type": "tuple"
        }
      ],
      "stateMutability": "view",
      "type": "function"
    },
    {
      "inputs": [
        {
          "components": [
            {
              "internalType": "uint64",
              "name": "sourceChainSelector",
              "type": "uint64"
            },
            {
              "internalType": "uint64",
              "name": "sequenceNumber",
              "type": "uint64"
            },
            {
              "internalType": "uint256",
              "name": "feeTokenAmount",
              "type": "uint256"
            },
            {
              "internalType": "address",
              "name": "sender",
              "type": "address"
            },
            {
              "internalType": "uint64",
              "name": "nonce",
              "type": "uint64"
            },
            {
              "internalType": "uint256",
              "name": "gasLimit",
              "type": "uint256"
            },
            {
              "internalType": "bool",
              "name": "strict",
              "type": "bool"
            },
            {
              "internalType": "address",
              "name": "receiver",
              "type": "address"
            },
            {
              "internalType": "bytes",
              "name": "data",
              "type": "bytes"
            },
            {
              "components": [
                {
                  "internalType": "address",
                  "name": "token",
                  "type": "address"
                },
                {
                  "internalType": "uint256",
                  "name": "amount",
                  "type": "uint256"
                }
              ],
              "internalType": "struct Client.EVMTokenAmount[]",
              "name": "tokenAmounts",
              "type": "tuple[]"
            },
            {
              "internalType": "address",
              "name": "feeToken",
              "type": "address"
            },
            {
              "internalType": "bytes32",
              "name": "messageId",
              "type": "bytes32"
            }
          ],
          "internalType": "struct Internal.EVM2EVMMessage",
          "name": "message",
          "type": "tuple"
        },
        {
          "internalType": "bytes[]",
          "name": "offchainTokenData",
          "type": "bytes[]"
        },
        {
          "internalType": "bool",
          "name": "manualExecution",
          "type": "bool"
        }
      ],
      "name": "executeSingleMessage",
      "outputs": [],
      "stateMutability": "nonpayable",
      "type": "function"
    },
    {
      "inputs": [
        {
          "internalType": "contract IERC20",
          "name": "sourceToken",
          "type": "address"
        }
      ],
      "name": "getDestinationToken",
      "outputs": [
        {
          "internalType": "contract IERC20",
          "name": "",
          "type": "address"
        }
      ],
      "stateMutability": "view",
      "type": "function"
    },
    {
      "inputs": [],
      "name": "getDestinationTokens",
      "outputs": [
        {
          "internalType": "contract IERC20[]",
          "name": "destTokens",
          "type": "address[]"
        }
      ],
      "stateMutability": "view",
      "type": "function"
    },
    {
      "inputs": [],
      "name": "getDynamicConfig",
      "outputs": [
        {
          "components": [
            {
              "internalType": "uint32",
              "name": "permissionLessExecutionThresholdSeconds",
              "type": "uint32"
            },
            {
              "internalType": "address",
              "name": "router",
              "type": "address"
            },
            {
              "internalType": "address",
              "name": "priceRegistry",
              "type": "address"
            },
            {
              "internalType": "address",
              "name": "ARM",
              "type": "address"
            },
            {
              "internalType": "uint16",
              "name": "maxTokensLength",
              "type": "uint16"
            },
            {
              "internalType": "uint32",
              "name": "maxDataSize",
              "type": "uint32"
            }
          ],
          "internalType": "struct EVM2EVMOffRamp.DynamicConfig",
          "name": "",
          "type": "tuple"
        }
      ],
      "stateMutability": "view",
      "type": "function"
    },
    {
      "inputs": [
        {
          "internalType": "uint64",
          "name": "sequenceNumber",
          "type": "uint64"
        }
      ],
      "name": "getExecutionState",
      "outputs": [
        {
          "internalType": "enum Internal.MessageExecutionState",
          "name": "",
          "type": "uint8"
        }
      ],
      "stateMutability": "view",
      "type": "function"
    },
    {
      "inputs": [
        {
          "internalType": "contract IERC20",
          "name": "destToken",
          "type": "address"
        }
      ],
      "name": "getPoolByDestToken",
      "outputs": [
        {
          "internalType": "contract IPool",
          "name": "",
          "type": "address"
        }
      ],
      "stateMutability": "view",
      "type": "function"
    },
    {
      "inputs": [
        {
          "internalType": "contract IERC20",
          "name": "sourceToken",
          "type": "address"
        }
      ],
      "name": "getPoolBySourceToken",
      "outputs": [
        {
          "internalType": "contract IPool",
          "name": "",
          "type": "address"
        }
      ],
      "stateMutability": "view",
      "type": "function"
    },
    {
      "inputs": [
        {
          "internalType": "address",
          "name": "sender",
          "type": "address"
        }
      ],
      "name": "getSenderNonce",
      "outputs": [
        {
          "internalType": "uint64",
          "name": "nonce",
          "type": "uint64"
        }
      ],
      "stateMutability": "view",
      "type": "function"
    },
    {
      "inputs": [],
      "name": "getStaticConfig",
      "outputs": [
        {
          "components": [
            {
              "internalType": "address",
              "name": "commitStore",
              "type": "address"
            },
            {
              "internalType": "uint64",
              "name": "chainSelector",
              "type": "uint64"
            },
            {
              "internalType": "uint64",
              "name": "sourceChainSelector",
              "type": "uint64"
            },
            {
              "internalType": "address",
              "name": "onRamp",
              "type": "address"
            },
            {
              "internalType": "address",
              "name": "prevOffRamp",
              "type": "address"
            }
          ],
          "internalType": "struct EVM2EVMOffRamp.StaticConfig",
          "name": "",
          "type": "tuple"
        }
      ],
      "stateMutability": "view",
      "type": "function"
    },
    {
      "inputs": [],
      "name": "getSupportedTokens",
      "outputs": [
        {
          "internalType": "contract IERC20[]",
          "name": "sourceTokens",
          "type": "address[]"
        }
      ],
      "stateMutability": "view",
      "type": "function"
    },
    {
      "inputs": [],
      "name": "getTokenLimitAdmin",
      "outputs": [
        {
          "internalType": "address",
          "name": "",
          "type": "address"
        }
      ],
      "stateMutability": "view",
      "type": "function"
    },
    {
      "inputs": [],
      "name": "getTransmitters",
      "outputs": [
        {
          "internalType": "address[]",
          "name": "",
          "type": "address[]"
        }
      ],
      "stateMutability": "view",
      "type": "function"
    },
    {
      "inputs": [],
      "name": "isARMHealthy",
      "outputs": [
        {
          "internalType": "bool",
          "name": "",
          "type": "bool"
        }
      ],
      "stateMutability": "view",
      "type": "function"
    },
    {
      "inputs": [],
      "name": "latestConfigDetails",
      "outputs": [
        {
          "internalType": "uint32",
          "name": "configCount",
          "type": "uint32"
        },
        {
          "internalType": "uint32",
          "name": "blockNumber",
          "type": "uint32"
        },
        {
          "internalType": "bytes32",
          "name": "configDigest",
          "type": "bytes32"
        }
      ],
      "stateMutability": "view",
      "type": "function"
    },
    {
      "inputs": [],
      "name": "latestConfigDigestAndEpoch",
      "outputs": [
        {
          "internalType": "bool",
          "name": "scanLogs",
          "type": "bool"
        },
        {
          "internalType": "bytes32",
          "name": "configDigest",
          "type": "bytes32"
        },
        {
          "internalType": "uint32",
          "name": "epoch",
          "type": "uint32"
        }
      ],
      "stateMutability": "view",
      "type": "function"
    },
    {
      "inputs": [
        {
          "components": [
            {
              "internalType": "uint64[]",
              "name": "sequenceNumbers",
              "type": "uint64[]"
            },
            {
              "internalType": "bytes[]",
              "name": "encodedMessages",
              "type": "bytes[]"
            },
            {
              "internalType": "bytes[][]",
              "name": "offchainTokenData",
              "type": "bytes[][]"
            },
            {
              "internalType": "bytes32[]",
              "name": "proofs",
              "type": "bytes32[]"
            },
            {
              "internalType": "uint256",
              "name": "proofFlagBits",
              "type": "uint256"
            }
          ],
          "internalType": "struct Internal.ExecutionReport",
          "name": "report",
          "type": "tuple"
        }
      ],
      "name": "manuallyExecute",
      "outputs": [],
      "stateMutability": "nonpayable",
      "type": "function"
    },
    {
      "inputs": [],
      "name": "owner",
      "outputs": [
        {
          "internalType": "address",
          "name": "",
          "type": "address"
        }
      ],
      "stateMutability": "view",
      "type": "function"
    },
    {
      "inputs": [
        {
          "internalType": "address",
          "name": "newAdmin",
          "type": "address"
        }
      ],
      "name": "setAdmin",
      "outputs": [],
      "stateMutability": "nonpayable",
      "type": "function"
    },
    {
      "inputs": [
        {
          "internalType": "address[]",
          "name": "signers",
          "type": "address[]"
        },
        {
          "internalType": "address[]",
          "name": "transmitters",
          "type": "address[]"
        },
        {
          "internalType": "uint8",
          "name": "f",
          "type": "uint8"
        },
        {
          "internalType": "bytes",
          "name": "onchainConfig",
          "type": "bytes"
        },
        {
          "internalType": "uint64",
          "name": "offchainConfigVersion",
          "type": "uint64"
        },
        {
          "internalType": "bytes",
          "name": "offchainConfig",
          "type": "bytes"
        }
      ],
      "name": "setOCR2Config",
      "outputs": [],
      "stateMutability": "nonpayable",
      "type": "function"
    },
    {
      "inputs": [
        {
          "components": [
            {
              "internalType": "bool",
              "name": "isEnabled",
              "type": "bool"
            },
            {
              "internalType": "uint128",
              "name": "capacity",
              "type": "uint128"
            },
            {
              "internalType": "uint128",
              "name": "rate",
              "type": "uint128"
            }
          ],
          "internalType": "struct RateLimiter.Config",
          "name": "config",
          "type": "tuple"
        }
      ],
      "name": "setRateLimiterConfig",
      "outputs": [],
      "stateMutability": "nonpayable",
      "type": "function"
    },
    {
      "inputs": [
        {
          "internalType": "address",
          "name": "to",
          "type": "address"
        }
      ],
      "name": "transferOwnership",
      "outputs": [],
      "stateMutability": "nonpayable",
      "type": "function"
    },
    {
      "inputs": [
        {
          "internalType": "bytes32[3]",
          "name": "reportContext",
          "type": "bytes32[3]"
        },
        {
          "internalType": "bytes",
          "name": "report",
          "type": "bytes"
        },
        {
          "internalType": "bytes32[]",
          "name": "rs",
          "type": "bytes32[]"
        },
        {
          "internalType": "bytes32[]",
          "name": "ss",
          "type": "bytes32[]"
        },
        {
          "internalType": "bytes32",
          "name": "",
          "type": "bytes32"
        }
      ],
      "name": "transmit",
      "outputs": [],
      "stateMutability": "nonpayable",
      "type": "function"
    },
    {
      "inputs": [],
      "name": "typeAndVersion",
      "outputs": [
        {
          "internalType": "string",
          "name": "",
          "type": "string"
        }
      ],
      "stateMutability": "view",
      "type": "function"
    }
  ],
  "bytecode": {
    "object": "0x6101406040523480156200001257600080fd5b50604051620065ed380380620065ed83398101604081905262000035916200087c565b8033806000816200008d5760405162461bcd60e51b815260206004820152601860248201527f43616e6e6f7420736574206f776e657220746f207a65726f000000000000000060448201526064015b60405180910390fd5b600080546001600160a01b0319166001600160a01b0384811691909117909155811615620000c057620000c08162000464565b50506040805160a081018252602084810180516001600160801b039081168085524263ffffffff169385018490528751151585870181905292518216606086018190529790950151166080909301839052600380546001600160a01b031916909417600160801b9283021760ff60a01b1916600160a01b9091021790925502909117600455508151835114620001685760405162d8548360e71b815260040160405180910390fd5b60608401516001600160a01b031615806200018b575083516001600160a01b0316155b15620001aa576040516342bcdf7f60e11b815260040160405180910390fd5b83600001516001600160a01b0316634120fccd6040518163ffffffff1660e01b8152600401602060405180830381865afa158015620001ed573d6000803e3d6000fd5b505050506040513d601f19601f820116820180604052508101906200021391906200097d565b6001600160401b03166001146200023d57604051636fc2a20760e11b815260040160405180910390fd5b83516001600160a01b03908116608090815260408601516001600160401b0390811660a05260208701511660c0526060860151821660e0528501511661012052620002a87fbdd59ac4dd1d82276c9a9c5d2656546346b9dcdb1f9b4204aed4ec15c23d7d3a6200050f565b6101005260005b8351811015620004595762000309848281518110620002d257620002d26200099b565b6020026020010151848381518110620002ef57620002ef6200099b565b6020026020010151600d6200057560201b9092919060201c565b50620003be8382815181106200032357620003236200099b565b60200260200101516001600160a01b03166321df0da76040518163ffffffff1660e01b8152600401602060405180830381865afa15801562000369573d6000803e3d6000fd5b505050506040513d601f19601f820116820180604052508101906200038f9190620009b1565b848381518110620003a457620003a46200099b565b602002602001015160106200057560201b9092919060201c565b507f95f865c2808f8b2a85eea2611db7843150ee7835ef1403f9755918a97d76933c848281518110620003f557620003f56200099b565b60200260200101518483815181106200041257620004126200099b565b60200260200101516040516200043e9291906001600160a01b0392831681529116602082015260400190565b60405180910390a16200045181620009d8565b9050620002af565b505050505062000a00565b336001600160a01b03821603620004be5760405162461bcd60e51b815260206004820152601760248201527f43616e6e6f74207472616e7366657220746f2073656c66000000000000000000604482015260640162000084565b600180546001600160a01b0319166001600160a01b0383811691821790925560008054604051929316917fed8889f560326eb138920d842192f0eb3dd22b4f139c87a2c57538e05bae12789190a350565b60008160a05160c05160e0516040516020016200055894939291909384526001600160401b039283166020850152911660408301526001600160a01b0316606082015260800190565b604051602081830303815290604052805190602001209050919050565b60006200058d846001600160a01b0385168462000595565b949350505050565b60006200058d84846001600160a01b038516600082815260028401602052604081208290556200058d84846000620005ce8383620005d7565b90505b92915050565b60008181526001830160205260408120546200062057508154600181810184556000848152602080822090930184905584548482528286019093526040902091909155620005d1565b506000620005d1565b634e487b7160e01b600052604160045260246000fd5b60405160a081016001600160401b038111828210171562000664576200066462000629565b60405290565b604051601f8201601f191681016001600160401b038111828210171562000695576200069562000629565b604052919050565b6001600160a01b0381168114620006b357600080fd5b50565b80516001600160401b0381168114620006ce57600080fd5b919050565b60006001600160401b03821115620006ef57620006ef62000629565b5060051b60200190565b600082601f8301126200070b57600080fd5b81516020620007246200071e83620006d3565b6200066a565b82815260059290921b840181019181810190868411156200074457600080fd5b8286015b848110156200076c5780516200075e816200069d565b835291830191830162000748565b509695505050505050565b600082601f8301126200078957600080fd5b815160206200079c6200071e83620006d3565b82815260059290921b84018101918181019086841115620007bc57600080fd5b8286015b848110156200076c578051620007d6816200069d565b8352918301918301620007c0565b80516001600160801b0381168114620006ce57600080fd5b6000606082840312156200080f57600080fd5b604051606081016001600160401b038111828210171562000834576200083462000629565b8060405250809150825180151581146200084d57600080fd5b81526200085d60208401620007e4565b60208201526200087060408401620007e4565b60408201525092915050565b6000806000808486036101408112156200089557600080fd5b60a0811215620008a457600080fd5b50620008af6200063f565b8551620008bc816200069d565b8152620008cc60208701620006b6565b6020820152620008df60408701620006b6565b60408201526060860151620008f4816200069d565b6060820152608086015162000909816200069d565b608082015260a08601519094506001600160401b03808211156200092c57600080fd5b6200093a88838901620006f9565b945060c08701519150808211156200095157600080fd5b50620009608782880162000777565b925050620009728660e08701620007fc565b905092959194509250565b6000602082840312156200099057600080fd5b620005ce82620006b6565b634e487b7160e01b600052603260045260246000fd5b600060208284031215620009c457600080fd5b8151620009d1816200069d565b9392505050565b600060018201620009f957634e487b7160e01b600052601160045260246000fd5b5060010190565b60805160a05160c05160e0516101005161012051615b4962000aa4600039600081816102d1015281816116e10152818161176301528181611f0f01528181612b350152612bbc015260006127a40152600081816102950152611ee80152600081816102350152611e9601526000818161026501528181611ec00152818161218001526137a20152600081816101f901528181611e6801526128b80152615b496000f3fe608060405234801561001057600080fd5b50600436106101b95760003560e01c80637437ff9f116100f9578063afcb95d711610097578063c92b283211610071578063c92b283214610698578063d3c7c2c7146106ab578063d7e2bb50146106b3578063f2fde38b146106c657600080fd5b8063afcb95d714610652578063b1dc65a414610672578063b4069b311461068557600080fd5b806385572ffb116100d357806385572ffb146105e7578063856c8247146105f55780638da5cb5b146106215780638fa4f53b1461063f57600080fd5b80637437ff9f146104d357806379ba5097146105af57806381ff7048146105b757600080fd5b80634a11d44a116101665780635d86f141116101405780635d86f14114610483578063666cab8d14610496578063681fba16146104ab578063704b6c02146104c057600080fd5b80634a11d44a146103cd578063546719cd146103e0578063599f64311461044457600080fd5b8063181f5a7711610197578063181f5a771461035c5780631ef38174146103a55780633a87ac53146103ba57600080fd5b806306285c69146101be5780630a6cd30d14610324578063142a98fc1461033c575b600080fd5b61030e6040805160a0810182526000808252602082018190529181018290526060810182905260808101919091526040518060a001604052807f000000000000000000000000000000000000000000000000000000000000000073ffffffffffffffffffffffffffffffffffffffff1681526020017f000000000000000000000000000000000000000000000000000000000000000067ffffffffffffffff1681526020017f000000000000000000000000000000000000000000000000000000000000000067ffffffffffffffff1681526020017f000000000000000000000000000000000000000000000000000000000000000073ffffffffffffffffffffffffffffffffffffffff1681526020017f000000000000000000000000000000000000000000000000000000000000000073ffffffffffffffffffffffffffffffffffffffff16815250905090565b60405161031b91906141c8565b60405180910390f35b61032c6106d9565b604051901515815260200161031b565b61034f61034a366004614253565b610773565b60405161031b91906142da565b6103986040518060400160405280601481526020017f45564d3245564d4f666652616d7020312e302e3000000000000000000000000081525081565b60405161031b9190614356565b6103b86103b33660046145c4565b6107ee565b005b6103b86103c83660046146d6565b610bec565b6103b86103db366004614863565b610ffc565b6103e8611273565b60405161031b919081516fffffffffffffffffffffffffffffffff908116825260208084015163ffffffff1690830152604080840151151590830152606080840151821690830152608092830151169181019190915260a00190565b60025473ffffffffffffffffffffffffffffffffffffffff165b60405173ffffffffffffffffffffffffffffffffffffffff909116815260200161031b565b61045e6104913660046149c8565b611328565b61049e611391565b60405161031b9190614a36565b6104b3611400565b60405161031b9190614a49565b6103b86104ce3660046149c8565b6114b9565b6105a26040805160c081018252600080825260208201819052918101829052606081018290526080810182905260a0810191909152506040805160c081018252600a5463ffffffff808216835273ffffffffffffffffffffffffffffffffffffffff64010000000090920482166020840152600b54821693830193909352600c54908116606083015261ffff740100000000000000000000000000000000000000008204166080830152760100000000000000000000000000000000000000000000900490911660a082015290565b60405161031b9190614aa3565b6103b86115a9565b6007546005546040805163ffffffff8085168252640100000000909404909316602084015282015260600161031b565b6103b86101b9366004614b2a565b6106086106033660046149c8565b6116a6565b60405167ffffffffffffffff909116815260200161031b565b60005473ffffffffffffffffffffffffffffffffffffffff1661045e565b6103b861064d366004614b2a565b6117ce565b60408051600181526000602082018190529181019190915260600161031b565b6103b8610680366004614ba4565b6117e4565b61045e6106933660046149c8565b6119f4565b6103b86106a6366004614ca9565b611ab5565b6104b3611b37565b61045e6106c13660046149c8565b611bec565b6103b86106d43660046149c8565b611bfb565b600c54604080517f397796f7000000000000000000000000000000000000000000000000000000008152905160009273ffffffffffffffffffffffffffffffffffffffff169163397796f79160048083019260209291908290030181865afa158015610749573d6000803e3d6000fd5b505050506040513d601f19601f8201168201806040525081019061076d9190614d22565b15905090565b600061078160016004614d6e565b600261078e608085614db0565b67ffffffffffffffff166107a29190614dd7565b601460006107b1608087614dee565b67ffffffffffffffff1667ffffffffffffffff16815260200190815260200160002054901c1660038111156107e8576107e8614270565b92915050565b8360ff1680600003610861576040517f89a6198900000000000000000000000000000000000000000000000000000000815260206004820152601260248201527f66206d75737420626520706f736974697665000000000000000000000000000060448201526064015b60405180910390fd5b610869611c0c565b61087284611c8f565b60095460005b818110156108fe57600860006009838154811061089757610897614e15565b600091825260208083209091015473ffffffffffffffffffffffffffffffffffffffff168352820192909252604001902080547fffffffffffffffffffffffffffffffffffffffffffffffffffffffffffff00001690556108f781614e44565b9050610878565b50865160005b81811015610aad57600089828151811061092057610920614e15565b602002602001015190506000600281111561093d5761093d614270565b73ffffffffffffffffffffffffffffffffffffffff8216600090815260086020526040902054610100900460ff16600281111561097c5761097c614270565b146109e3576040517f89a6198900000000000000000000000000000000000000000000000000000000815260206004820152601c60248201527f7265706561746564207472616e736d69747465722061646472657373000000006044820152606401610858565b6040805180820190915260ff83168152602081016002905273ffffffffffffffffffffffffffffffffffffffff821660009081526008602090815260409091208251815460ff9091167fffffffffffffffffffffffffffffffffffffffffffffffffffffffffffffff0082168117835592840151919283917fffffffffffffffffffffffffffffffffffffffffffffffffffffffffffff00001617610100836002811115610a9357610a93614270565b02179055509050505080610aa690614e44565b9050610904565b508751610ac19060099060208b0190614132565b506006805460ff838116610100027fffffffffffffffffffffffffffffffffffffffffffffffffffffffffffff0000909216908a161717905560078054610b47914691309190600090610b199063ffffffff16614e7c565b91906101000a81548163ffffffff021916908363ffffffff160217905563ffffffff168c8c8c8c8c8c611f72565b6005819055600780544363ffffffff9081166401000000009081027fffffffffffffffffffffffffffffffffffffffffffffffff00000000ffffffff841681179094556040519083048216947f1591690b8638f5fb2dbec82ac741805ac5da8b45dc5263f4875b0496fdce4e0594610bd89487949293918316921691909117908f908f908f908f908f908f90614e9f565b60405180910390a150505050505050505050565b610bf4611c0c565b60005b83811015610df3576000858583818110610c1357610c13614e15565b610c2992602060409092020190810191506149c8565b90506000868684818110610c3f57610c3f614e15565b9050604002016020016020810190610c5791906149c8565b9050610c64600d8361201d565b610c9a576040517f9c8787c000000000000000000000000000000000000000000000000000000000815260040160405180910390fd5b73ffffffffffffffffffffffffffffffffffffffff8116610cbc600d8461203f565b73ffffffffffffffffffffffffffffffffffffffff1614610d09576040517f6cc7b99800000000000000000000000000000000000000000000000000000000815260040160405180910390fd5b610d14600d83612061565b50610d8f8173ffffffffffffffffffffffffffffffffffffffff166321df0da76040518163ffffffff1660e01b8152600401602060405180830381865afa158015610d63573d6000803e3d6000fd5b505050506040513d601f19601f82011682018060405250810190610d879190614f35565b601090612061565b506040805173ffffffffffffffffffffffffffffffffffffffff8085168252831660208201527f987eb3c2f78454541205f72f34839b434c306c9eaf4922efd7c0c3060fdb2e4c910160405180910390a1505080610dec90614e44565b9050610bf7565b5060005b81811015610ff5576000838383818110610e1357610e13614e15565b610e2992602060409092020190810191506149c8565b90506000848484818110610e3f57610e3f614e15565b9050604002016020016020810190610e5791906149c8565b905073ffffffffffffffffffffffffffffffffffffffff82161580610e90575073ffffffffffffffffffffffffffffffffffffffff8116155b15610ec7576040517f6c2a418000000000000000000000000000000000000000000000000000000000815260040160405180910390fd5b610ed2600d8361201d565b15610f09576040517f3caf458500000000000000000000000000000000000000000000000000000000815260040160405180910390fd5b610f15600d8383612083565b50610f918173ffffffffffffffffffffffffffffffffffffffff166321df0da76040518163ffffffff1660e01b8152600401602060405180830381865afa158015610f64573d6000803e3d6000fd5b505050506040513d601f19601f82011682018060405250810190610f889190614f35565b60109083612083565b506040805173ffffffffffffffffffffffffffffffffffffffff8085168252831660208201527f95f865c2808f8b2a85eea2611db7843150ee7835ef1403f9755918a97d76933c910160405180910390a1505080610fee90614e44565b9050610df7565b5050505050565b333014611035576040517f371a732800000000000000000000000000000000000000000000000000000000815260040160405180910390fd5b6040805160008082526020820190925281611072565b604080518082019091526000808252602082015281526020019060019003908161104b5790505b5061012085015151909150156110d15761012084015160608501516040805173ffffffffffffffffffffffffffffffffffffffff90921660208301526110ce9291016040516020818303038152906040528660e00151866120a6565b90505b60e084015173ffffffffffffffffffffffffffffffffffffffff163b158061113b575060e08401516111399073ffffffffffffffffffffffffffffffffffffffff167f85572ffb00000000000000000000000000000000000000000000000000000000612330565b155b156111465750505050565b60a084015182156111a257610100850151516040906113889061116a906010614dd7565b6111749190614f52565b61117f906002614dd7565b5a61118a9190614d6e565b61119590603e614dd7565b61119f9190614f65565b90505b600a54640100000000900473ffffffffffffffffffffffffffffffffffffffff16633cf979836111d2878561234c565b611388848960e001516040518563ffffffff1660e01b81526004016111fa9493929190614fca565b6020604051808303816000875af1158015611219573d6000803e3d6000fd5b505050506040513d601f19601f8201168201806040525081019061123d9190614d22565b610ff5576040517fee4f4da800000000000000000000000000000000000000000000000000000000815260040160405180910390fd5b6040805160a0810182526000808252602082018190529181018290526060810182905260808101919091526040805160a0810182526003546fffffffffffffffffffffffffffffffff808216835270010000000000000000000000000000000080830463ffffffff1660208501527401000000000000000000000000000000000000000090920460ff161515938301939093526004548084166060840152049091166080820152611323906123fc565b905090565b60008080611337600d856124ae565b915091508161138a576040517fbf16aab600000000000000000000000000000000000000000000000000000000815273ffffffffffffffffffffffffffffffffffffffff85166004820152602401610858565b9392505050565b606060098054806020026020016040519081016040528092919081815260200182805480156113f657602002820191906000526020600020905b815473ffffffffffffffffffffffffffffffffffffffff1681526001909101906020018083116113cb575b5050505050905090565b606061140c60106124dd565b67ffffffffffffffff81111561142457611424614369565b60405190808252806020026020018201604052801561144d578160200160208202803683370190505b50905060005b81518110156114b55760006114696010836124e8565b5090508083838151811061147f5761147f614e15565b73ffffffffffffffffffffffffffffffffffffffff90921660209283029190910190910152506114ae81614e44565b9050611453565b5090565b60005473ffffffffffffffffffffffffffffffffffffffff1633148015906114f9575060025473ffffffffffffffffffffffffffffffffffffffff163314155b15611530576040517ff6cd562000000000000000000000000000000000000000000000000000000000815260040160405180910390fd5b600280547fffffffffffffffffffffffff00000000000000000000000000000000000000001673ffffffffffffffffffffffffffffffffffffffff83169081179091556040519081527f8fe72c3e0020beb3234e76ae6676fa576fbfcae600af1c4fea44784cf0db329c9060200160405180910390a150565b60015473ffffffffffffffffffffffffffffffffffffffff16331461162a576040517f08c379a000000000000000000000000000000000000000000000000000000000815260206004820152601660248201527f4d7573742062652070726f706f736564206f776e6572000000000000000000006044820152606401610858565b60008054337fffffffffffffffffffffffff00000000000000000000000000000000000000008083168217845560018054909116905560405173ffffffffffffffffffffffffffffffffffffffff90921692909183917f8be0079c531659141344cd1fd0a4f28419497f9722a3daafe3b4186f6b6457e091a350565b73ffffffffffffffffffffffffffffffffffffffff811660009081526013602052604081205467ffffffffffffffff168015801561171957507f000000000000000000000000000000000000000000000000000000000000000073ffffffffffffffffffffffffffffffffffffffff1615155b156107e8576040517f856c824700000000000000000000000000000000000000000000000000000000815273ffffffffffffffffffffffffffffffffffffffff84811660048301527f0000000000000000000000000000000000000000000000000000000000000000169063856c824790602401602060405180830381865afa1580156117aa573d6000803e3d6000fd5b505050506040513d601f19601f8201168201806040525081019061138a91906150a7565b6117e16117da826152c6565b6001612504565b50565b6117ee8787612ff5565b600554883590808214611837576040517f93df584c0000000000000000000000000000000000000000000000000000000081526004810182905260248101839052604401610858565b6040805183815260208c81013560081c63ffffffff16908201527fb04e63db38c49950639fa09d29872f21f5d49d614f3a969d8adf3d4b52e41a62910160405180910390a13360009081526008602090815260408083208151808301909252805460ff808216845292939192918401916101009091041660028111156118bf576118bf614270565b60028111156118d0576118d0614270565b90525090506002816020015160028111156118ed576118ed614270565b14801561193457506009816000015160ff168154811061190f5761190f614e15565b60009182526020909120015473ffffffffffffffffffffffffffffffffffffffff1633145b61196a576040517fda0f08e800000000000000000000000000000000000000000000000000000000815260040160405180910390fd5b506000611978856020614dd7565b611983886020614dd7565b61198f8b610144614f52565b6119999190614f52565b6119a39190614f52565b90503681146119e7576040517f8e1192e100000000000000000000000000000000000000000000000000000000815260048101829052366024820152604401610858565b5050505050505050505050565b60008080611a03600d856124ae565b9150915081611a3e576040517f9c8787c000000000000000000000000000000000000000000000000000000000815260040160405180910390fd5b8073ffffffffffffffffffffffffffffffffffffffff166321df0da76040518163ffffffff1660e01b8152600401602060405180830381865afa158015611a89573d6000803e3d6000fd5b505050506040513d601f19601f82011682018060405250810190611aad9190614f35565b949350505050565b60005473ffffffffffffffffffffffffffffffffffffffff163314801590611af5575060025473ffffffffffffffffffffffffffffffffffffffff163314155b15611b2c576040517ff6cd562000000000000000000000000000000000000000000000000000000000815260040160405180910390fd5b6117e160038261300f565b6060611b43600d6124dd565b67ffffffffffffffff811115611b5b57611b5b614369565b604051908082528060200260200182016040528015611b84578160200160208202803683370190505b50905060005b81518110156114b5576000611ba0600d836124e8565b50905080838381518110611bb657611bb6614e15565b73ffffffffffffffffffffffffffffffffffffffff9092166020928302919091019091015250611be581614e44565b9050611b8a565b600080806113376010856124ae565b611c03611c0c565b6117e1816131f4565b60005473ffffffffffffffffffffffffffffffffffffffff163314611c8d576040517f08c379a000000000000000000000000000000000000000000000000000000000815260206004820152601660248201527f4f6e6c792063616c6c61626c65206279206f776e6572000000000000000000006044820152606401610858565b565b600081806020019051810190611ca591906152f1565b602081015190915073ffffffffffffffffffffffffffffffffffffffff161580611ce75750606081015173ffffffffffffffffffffffffffffffffffffffff16155b15611d2057806040517f9c1779a70000000000000000000000000000000000000000000000000000000081526004016108589190614aa3565b8051600a805460208085015173ffffffffffffffffffffffffffffffffffffffff908116640100000000027fffffffffffffffff00000000000000000000000000000000000000000000000090931663ffffffff9586161792909217909255604080850151600b80549184167fffffffffffffffffffffffff0000000000000000000000000000000000000000909216919091179055606080860151600c80546080808a015160a0808c0151909a16760100000000000000000000000000000000000000000000027fffffffffffff00000000ffffffffffffffffffffffffffffffffffffffffffff61ffff90921674010000000000000000000000000000000000000000027fffffffffffffffffffff00000000000000000000000000000000000000000000909416958916959095179290921791909116929092179055825195860183527f00000000000000000000000000000000000000000000000000000000000000008416865267ffffffffffffffff7f00000000000000000000000000000000000000000000000000000000000000008116958701959095527f0000000000000000000000000000000000000000000000000000000000000000909416858301527f00000000000000000000000000000000000000000000000000000000000000008316908501527f000000000000000000000000000000000000000000000000000000000000000090911691830191909152517fccb0480fd9368458c55b5c2e24b62249e1f5eabb55ec2e42d37965a3ae1eaf8791611f6691849061539f565b60405180910390a15050565b6000808a8a8a8a8a8a8a8a8a604051602001611f9699989796959493929190615470565b604080517fffffffffffffffffffffffffffffffffffffffffffffffffffffffffffffffe081840301815291905280516020909101207dffffffffffffffffffffffffffffffffffffffffffffffffffffffffffff167e01000000000000000000000000000000000000000000000000000000000000179150509998505050505050505050565b600061138a8373ffffffffffffffffffffffffffffffffffffffff84166132e9565b600061138a8373ffffffffffffffffffffffffffffffffffffffff84166132f5565b600061138a8373ffffffffffffffffffffffffffffffffffffffff8416613301565b6000611aad8473ffffffffffffffffffffffffffffffffffffffff85168461330d565b60606000855167ffffffffffffffff8111156120c4576120c4614369565b60405190808252806020026020018201604052801561210957816020015b60408051808201909152600080825260208201528152602001906001900390816120e25790505b50905060005b865181101561230257600061214088838151811061212f5761212f614e15565b602002602001015160000151611328565b90508073ffffffffffffffffffffffffffffffffffffffff16638627fad688888b868151811061217257612172614e15565b6020026020010151602001517f00000000000000000000000000000000000000000000000000000000000000008a88815181106121b1576121b1614e15565b60200260200101516040518663ffffffff1660e01b81526004016121d9959493929190615505565b600060405180830381600087803b1580156121f357600080fd5b505af1158015612207573d6000803e3d6000fd5b505050508073ffffffffffffffffffffffffffffffffffffffff166321df0da76040518163ffffffff1660e01b8152600401602060405180830381865afa158015612256573d6000803e3d6000fd5b505050506040513d601f19601f8201168201806040525081019061227a9190614f35565b83838151811061228c5761228c614e15565b602090810291909101015173ffffffffffffffffffffffffffffffffffffffff909116905287518890839081106122c5576122c5614e15565b6020026020010151602001518383815181106122e3576122e3614e15565b6020908102919091018101510152506122fb81614e44565b905061210f565b50600b5461232790829073ffffffffffffffffffffffffffffffffffffffff16613330565b95945050505050565b600061233b8361350e565b801561138a575061138a8383613572565b6040805160a08101825260008082526020820152606091810182905281810182905260808101919091526040518060a001604052808461016001518152602001846000015167ffffffffffffffff16815260200184606001516040516020016123d1919073ffffffffffffffffffffffffffffffffffffffff91909116815260200190565b6040516020818303038152906040528152602001846101000151815260200183815250905092915050565b6040805160a08101825260008082526020820181905291810182905260608101829052608081019190915261248a82606001516fffffffffffffffffffffffffffffffff1683600001516fffffffffffffffffffffffffffffffff16846020015163ffffffff164261246e9190614d6e565b85608001516fffffffffffffffffffffffffffffffff16613641565b6fffffffffffffffffffffffffffffffff1682525063ffffffff4216602082015290565b6000806124d18473ffffffffffffffffffffffffffffffffffffffff8516613660565b915091505b9250929050565b60006107e88261366f565b60008080806124f7868661367a565b9097909650945050505050565b600c54604080517f397796f7000000000000000000000000000000000000000000000000000000008152905173ffffffffffffffffffffffffffffffffffffffff9092169163397796f7916004808201926020929091908290030181865afa158015612574573d6000803e3d6000fd5b505050506040513d601f19601f820116820180604052508101906125989190614d22565b156125cf576040517fc148371500000000000000000000000000000000000000000000000000000000815260040160405180910390fd5b602082015151600081900361260f576040517ebf199700000000000000000000000000000000000000000000000000000000815260040160405180910390fd5b826040015151811461264d576040517f57e0e08300000000000000000000000000000000000000000000000000000000815260040160405180910390fd5b60008167ffffffffffffffff81111561266857612668614369565b604051908082528060200260200182016040528015612691578160200160208202803683370190505b50905060008267ffffffffffffffff8111156126af576126af614369565b60405190808252806020026020018201604052801561275b57816020015b60408051610180810182526000808252602080830182905292820181905260608083018290526080830182905260a0830182905260c0830182905260e083018290526101008301819052610120830152610140820181905261016082015282527fffffffffffffffffffffffffffffffffffffffffffffffffffffffffffffffff9092019101816126cd5790505b50905060005b8381101561286d5760008660200151828151811061278157612781614e15565b602002602001015180602001905181019061279c9190615635565b90506127c8817f0000000000000000000000000000000000000000000000000000000000000000613689565b8483815181106127da576127da614e15565b6020026020010181815250508061016001518483815181106127fe576127fe614e15565b60200260200101511461283d576040517f7185cf6b00000000000000000000000000000000000000000000000000000000815260040160405180910390fd5b8083838151811061285057612850614e15565b6020026020010181905250508061286690614e44565b9050612761565b50606085015160808601516040517f3204887500000000000000000000000000000000000000000000000000000000815260009273ffffffffffffffffffffffffffffffffffffffff7f000000000000000000000000000000000000000000000000000000000000000016926332048875926128ef9288929091600401615798565b6020604051808303816000875af115801561290e573d6000803e3d6000fd5b505050506040513d601f19601f8201168201806040525081019061293291906157ce565b90508060000361296e576040517fea75680100000000000000000000000000000000000000000000000000000000815260040160405180910390fd5b60005b84811015612fec57600083828151811061298d5761298d614e15565b6020026020010151905060006129a68260200151610773565b905060008160038111156129bc576129bc614270565b14806129d9575060038160038111156129d7576129d7614270565b145b612a215760208201516040517f50a6e05200000000000000000000000000000000000000000000000000000000815267ffffffffffffffff9091166004820152602401610858565b8715612a9957600a5460009063ffffffff16612a3d8642614d6e565b1190508080612a5d57506003826003811115612a5b57612a5b614270565b145b612a93576040517f6358b0d000000000000000000000000000000000000000000000000000000000815260040160405180910390fd5b50612af6565b6000816003811115612aad57612aad614270565b14612af65760208201516040517f67d9ba0f00000000000000000000000000000000000000000000000000000000815267ffffffffffffffff9091166004820152602401610858565b606082015173ffffffffffffffffffffffffffffffffffffffff1660009081526013602052604090205467ffffffffffffffff1680158015612b6d57507f000000000000000000000000000000000000000000000000000000000000000073ffffffffffffffffffffffffffffffffffffffff1615155b15612d0f5760608301516040517f856c824700000000000000000000000000000000000000000000000000000000815273ffffffffffffffffffffffffffffffffffffffff91821660048201527f00000000000000000000000000000000000000000000000000000000000000009091169063856c824790602401602060405180830381865afa158015612c05573d6000803e3d6000fd5b505050506040513d601f19601f82011682018060405250810190612c2991906150a7565b608084015190915067ffffffffffffffff16612c468260016157e7565b67ffffffffffffffff1614612cb357826060015173ffffffffffffffffffffffffffffffffffffffff16836080015167ffffffffffffffff167fe44a20935573a783dd0d5991c92d7b6a0eb3173566530364db3ec10e9a990b5d60405160405180910390a3505050612fdc565b606083015173ffffffffffffffffffffffffffffffffffffffff16600090815260136020526040902080547fffffffffffffffffffffffffffffffffffffffffffffffff00000000000000001667ffffffffffffffff83161790555b6000826003811115612d2357612d23614270565b03612daf57608083015167ffffffffffffffff16612d428260016157e7565b67ffffffffffffffff1614612daf57826060015173ffffffffffffffffffffffffffffffffffffffff16836080015167ffffffffffffffff167fd32ddb11d71e3d63411d37b09f9a8b28664f1cb1338bfd1413c173b0ebf4123760405160405180910390a3505050612fdc565b60008a604001518581518110612dc757612dc7614e15565b60200260200101519050612ddc8482516137a0565b612deb84602001516001613976565b6000612df885838d613a20565b9050612e08856020015182613976565b6003816003811115612e1c57612e1c614270565b14158015612e3c57506002816003811115612e3957612e39614270565b14155b15612e7b578460200151816040517f9e261603000000000000000000000000000000000000000000000000000000008152600401610858929190615808565b8460c0015115612f0a576002816003811115612e9957612e99614270565b03612f0557606085015173ffffffffffffffffffffffffffffffffffffffff166000908152601360205260408120805467ffffffffffffffff1691612edd83615826565b91906101000a81548167ffffffffffffffff021916908367ffffffffffffffff160217905550505b612f8a565b6000846003811115612f1e57612f1e614270565b03612f8a57606085015173ffffffffffffffffffffffffffffffffffffffff166000908152601360205260408120805467ffffffffffffffff1691612f6283615826565b91906101000a81548167ffffffffffffffff021916908367ffffffffffffffff160217905550505b846101600151856020015167ffffffffffffffff167f5e04b4755a4460aa6de4f3a906c4324a025c7449c02b52f5466659b5bfdfba5f83604051612fce91906142da565b60405180910390a350505050505b612fe581614e44565b9050612971565b50505050505050565b61300b61300482840184615843565b6000612504565b5050565b815460009061303890700100000000000000000000000000000000900463ffffffff1642614d6e565b905080156130da5760018301548354613080916fffffffffffffffffffffffffffffffff80821692811691859170010000000000000000000000000000000090910416613641565b83546fffffffffffffffffffffffffffffffff919091167fffffffffffffffffffffffff0000000000000000000000000000000000000000909116177001000000000000000000000000000000004263ffffffff16021783555b60208201518354613100916fffffffffffffffffffffffffffffffff9081169116613b5b565b83548351151574010000000000000000000000000000000000000000027fffffffffffffffffffffff00ffffffff000000000000000000000000000000009091166fffffffffffffffffffffffffffffffff92831617178455602083015160408085015183167001000000000000000000000000000000000291909216176001850155517f9ea3374b67bf275e6bb9c8ae68f9cae023e1c528b4b27e092f0bb209d3531c19906131e79084908151151581526020808301516fffffffffffffffffffffffffffffffff90811691830191909152604092830151169181019190915260600190565b60405180910390a1505050565b3373ffffffffffffffffffffffffffffffffffffffff821603613273576040517f08c379a000000000000000000000000000000000000000000000000000000000815260206004820152601760248201527f43616e6e6f74207472616e7366657220746f2073656c660000000000000000006044820152606401610858565b600180547fffffffffffffffffffffffff00000000000000000000000000000000000000001673ffffffffffffffffffffffffffffffffffffffff83811691821790925560008054604051929316917fed8889f560326eb138920d842192f0eb3dd22b4f139c87a2c57538e05bae12789190a350565b600061138a8383613b71565b600061138a8383613b7d565b600061138a8383613c07565b6000611aad848473ffffffffffffffffffffffffffffffffffffffff8516613c24565b81516000805b828110156134fc5760008473ffffffffffffffffffffffffffffffffffffffff1663d02641a087848151811061336e5761336e614e15565b6020908102919091010151516040517fffffffff0000000000000000000000000000000000000000000000000000000060e084901b16815273ffffffffffffffffffffffffffffffffffffffff90911660048201526024016040805180830381865afa1580156133e2573d6000803e3d6000fd5b505050506040513d601f19601f820116820180604052508101906134069190615878565b51905077ffffffffffffffffffffffffffffffffffffffffffffffff81166000036134945785828151811061343d5761343d614e15565b6020908102919091010151516040517f9a655f7b00000000000000000000000000000000000000000000000000000000815273ffffffffffffffffffffffffffffffffffffffff9091166004820152602401610858565b6134de8683815181106134a9576134a9614e15565b6020026020010151602001518277ffffffffffffffffffffffffffffffffffffffffffffffff16613c4190919063ffffffff16565b6134e89084614f52565b925050806134f590614e44565b9050613336565b50613508600382613c7a565b50505050565b600061353a827f01ffc9a700000000000000000000000000000000000000000000000000000000613572565b80156107e8575061356b827fffffffff00000000000000000000000000000000000000000000000000000000613572565b1592915050565b604080517fffffffff000000000000000000000000000000000000000000000000000000008316602480830191909152825180830390910181526044909101909152602080820180517bffffffffffffffffffffffffffffffffffffffffffffffffffffffff167f01ffc9a700000000000000000000000000000000000000000000000000000000178152825160009392849283928392918391908a617530fa92503d9150600051905082801561362a575060208210155b80156136365750600081115b979650505050505050565b6000612327856136518486614dd7565b61365b9087614f52565b613b5b565b60008080806124f78686613f09565b60006107e882613f43565b60008080806124f78686613f4e565b60008060001b828460200151856080015186606001518760e00151886101000151805190602001208961012001516040516020016136c791906158d6565b604051602081830303815290604052805190602001208a60a001518b60c001518c61014001518d604001516040516020016137829c9b9a999897969594939291909b8c5260208c019a909a5267ffffffffffffffff98891660408c01529690971660608a015273ffffffffffffffffffffffffffffffffffffffff94851660808a015292841660a089015260c088019190915260e0870152610100860152911515610120850152166101408301526101608201526101800190565b60405160208183030381529060405280519060200120905092915050565b7f000000000000000000000000000000000000000000000000000000000000000067ffffffffffffffff16826000015167ffffffffffffffff16146138205781516040517f1279ec8a00000000000000000000000000000000000000000000000000000000815267ffffffffffffffff9091166004820152602401610858565b600c54610120830151517401000000000000000000000000000000000000000090910461ffff1610156138915760208201516040517f099d3f7200000000000000000000000000000000000000000000000000000000815267ffffffffffffffff9091166004820152602401610858565b8082610120015151146138e25760208201516040517f8808f8e700000000000000000000000000000000000000000000000000000000815267ffffffffffffffff9091166004820152602401610858565b600c546101008301515176010000000000000000000000000000000000000000000090910463ffffffff16101561300b57600c54610100830151516040517f8693378900000000000000000000000000000000000000000000000000000000815276010000000000000000000000000000000000000000000090920463ffffffff1660048301526024820152604401610858565b60006002613985608085614db0565b67ffffffffffffffff166139999190614dd7565b905060006014816139ab608087614dee565b67ffffffffffffffff1681526020810191909152604001600020549050816139d560016004614d6e565b901b1916818360038111156139ec576139ec614270565b901b1780601460006139ff608088614dee565b67ffffffffffffffff16815260208101919091526040016000205550505050565b6040517f4a11d44a0000000000000000000000000000000000000000000000000000000081526000903090634a11d44a90613a639087908790879060040161593e565b600060405180830381600087803b158015613a7d57600080fd5b505af1925050508015613a8e575060015b613b51573d808015613abc576040519150601f19603f3d011682016040523d82523d6000602084013e613ac1565b606091505b50613acb81615abd565b7fffffffff00000000000000000000000000000000000000000000000000000000167fee4f4da80000000000000000000000000000000000000000000000000000000003613b1d57600391505061138a565b806040517fcf19edfd0000000000000000000000000000000000000000000000000000000081526004016108589190614356565b5060029392505050565b6000818310613b6a578161138a565b5090919050565b600061138a8383613f79565b600081815260028301602052604081205480151580613ba15750613ba18484613b71565b61138a576040517f08c379a000000000000000000000000000000000000000000000000000000000815260206004820152601e60248201527f456e756d657261626c654d61703a206e6f6e6578697374656e74206b657900006044820152606401610858565b6000818152600283016020526040812081905561138a8383613f91565b60008281526002840160205260408120829055611aad8484613f9d565b6000670de0b6b3a7640000613c708377ffffffffffffffffffffffffffffffffffffffffffffffff8616614dd7565b61138a9190614f65565b815474010000000000000000000000000000000000000000900460ff161580613ca1575080155b15613caa575050565b815460018301546fffffffffffffffffffffffffffffffff80831692911690600090613cf090700100000000000000000000000000000000900463ffffffff1642614d6e565b90508015613db05781831115613d32576040517f9725942a00000000000000000000000000000000000000000000000000000000815260040160405180910390fd5b6001850154613d6c9083908590849070010000000000000000000000000000000090046fffffffffffffffffffffffffffffffff16613641565b85547fffffffffffffffffffffffff00000000ffffffffffffffffffffffffffffffff167001000000000000000000000000000000004263ffffffff160217865592505b83821015613df4576040517f48369c430000000000000000000000000000000000000000000000000000000081526004810183905260248101859052604401610858565b83831015613e885760018581015470010000000000000000000000000000000090046fffffffffffffffffffffffffffffffff16908190613e359082614d6e565b613e3f8688614d6e565b613e499190614f52565b613e539190614f65565b6040517fdc96cefa00000000000000000000000000000000000000000000000000000000815260040161085891815260200190565b613e928484614d6e565b85547fffffffffffffffffffffffffffffffff00000000000000000000000000000000166fffffffffffffffffffffffffffffffff82161786556040518581529093507f1871cdf8010e63f2eb8384381a68dfa7416dc571a5517e66e88b2d2d0c0a690a9060200160405180910390a15050505050565b6000818152600283016020526040812054819080613f3857613f2b8585613b71565b9250600091506124d69050565b6001925090506124d6565b60006107e882613fa9565b60008080613f5c8585613fb3565b600081815260029690960160205260409095205494959350505050565b6000818152600183016020526040812054151561138a565b600061138a8383613fbf565b600061138a83836140b9565b60006107e8825490565b600061138a8383614108565b600081815260018301602052604081205480156140a8576000613fe3600183614d6e565b8554909150600090613ff790600190614d6e565b905081811461405c57600086600001828154811061401757614017614e15565b906000526020600020015490508087600001848154811061403a5761403a614e15565b6000918252602080832090910192909255918252600188019052604090208390555b855486908061406d5761406d615b0d565b6001900381819060005260206000200160009055905585600101600086815260200190815260200160002060009055600193505050506107e8565b60009150506107e8565b5092915050565b6000818152600183016020526040812054614100575081546001818101845560008481526020808220909301849055845484825282860190935260409020919091556107e8565b5060006107e8565b600082600001828154811061411f5761411f614e15565b9060005260206000200154905092915050565b8280548282559060005260206000209081019282156141ac579160200282015b828111156141ac57825182547fffffffffffffffffffffffff00000000000000000000000000000000000000001673ffffffffffffffffffffffffffffffffffffffff909116178255602090920191600190910190614152565b506114b59291505b808211156114b557600081556001016141b4565b60a081016107e8828473ffffffffffffffffffffffffffffffffffffffff808251168352602082015167ffffffffffffffff80821660208601528060408501511660408601525050806060830151166060840152806080830151166080840152505050565b67ffffffffffffffff811681146117e157600080fd5b803561424e8161422d565b919050565b60006020828403121561426557600080fd5b813561138a8161422d565b7f4e487b7100000000000000000000000000000000000000000000000000000000600052602160045260246000fd5b600481106142d6577f4e487b7100000000000000000000000000000000000000000000000000000000600052602160045260246000fd5b9052565b602081016107e8828461429f565b60005b838110156143035781810151838201526020016142eb565b50506000910152565b600081518084526143248160208601602086016142e8565b601f017fffffffffffffffffffffffffffffffffffffffffffffffffffffffffffffffe0169290920160200192915050565b60208152600061138a602083018461430c565b7f4e487b7100000000000000000000000000000000000000000000000000000000600052604160045260246000fd5b6040805190810167ffffffffffffffff811182821017156143bb576143bb614369565b60405290565b604051610180810167ffffffffffffffff811182821017156143bb576143bb614369565b60405160a0810167ffffffffffffffff811182821017156143bb576143bb614369565b604051601f82017fffffffffffffffffffffffffffffffffffffffffffffffffffffffffffffffe016810167ffffffffffffffff8111828210171561444f5761444f614369565b604052919050565b600067ffffffffffffffff82111561447157614471614369565b5060051b60200190565b73ffffffffffffffffffffffffffffffffffffffff811681146117e157600080fd5b803561424e8161447b565b600082601f8301126144b957600080fd5b813560206144ce6144c983614457565b614408565b82815260059290921b840181019181810190868411156144ed57600080fd5b8286015b848110156145115780356145048161447b565b83529183019183016144f1565b509695505050505050565b803560ff8116811461424e57600080fd5b600067ffffffffffffffff82111561454757614547614369565b50601f017fffffffffffffffffffffffffffffffffffffffffffffffffffffffffffffffe01660200190565b600082601f83011261458457600080fd5b81356145926144c98261452d565b8181528460208386010111156145a757600080fd5b816020850160208301376000918101602001919091529392505050565b60008060008060008060c087890312156145dd57600080fd5b863567ffffffffffffffff808211156145f557600080fd5b6146018a838b016144a8565b9750602089013591508082111561461757600080fd5b6146238a838b016144a8565b965061463160408a0161451c565b9550606089013591508082111561464757600080fd5b6146538a838b01614573565b945061466160808a01614243565b935060a089013591508082111561467757600080fd5b5061468489828a01614573565b9150509295509295509295565b60008083601f8401126146a357600080fd5b50813567ffffffffffffffff8111156146bb57600080fd5b6020830191508360208260061b85010111156124d657600080fd5b600080600080604085870312156146ec57600080fd5b843567ffffffffffffffff8082111561470457600080fd5b61471088838901614691565b9096509450602087013591508082111561472957600080fd5b5061473687828801614691565b95989497509550505050565b80151581146117e157600080fd5b803561424e81614742565b600082601f83011261476c57600080fd5b8135602061477c6144c983614457565b82815260069290921b8401810191818101908684111561479b57600080fd5b8286015b8481101561451157604081890312156147b85760008081fd5b6147c0614398565b81356147cb8161447b565b8152818501358582015283529183019160400161479f565b600082601f8301126147f457600080fd5b813560206148046144c983614457565b82815260059290921b8401810191818101908684111561482357600080fd5b8286015b8481101561451157803567ffffffffffffffff8111156148475760008081fd5b6148558986838b0101614573565b845250918301918301614827565b60008060006060848603121561487857600080fd5b833567ffffffffffffffff8082111561489057600080fd5b9085019061018082880312156148a557600080fd5b6148ad6143c1565b6148b683614243565b81526148c460208401614243565b6020820152604083013560408201526148df6060840161449d565b60608201526148f060808401614243565b608082015260a083013560a082015261490b60c08401614750565b60c082015261491c60e0840161449d565b60e0820152610100808401358381111561493557600080fd5b6149418a828701614573565b828401525050610120808401358381111561495b57600080fd5b6149678a82870161475b565b82840152505061014061497b81850161449d565b908201526101609283013592810192909252909350602085013590808211156149a357600080fd5b506149b0868287016147e3565b9250506149bf60408501614750565b90509250925092565b6000602082840312156149da57600080fd5b813561138a8161447b565b600081518084526020808501945080840160005b83811015614a2b57815173ffffffffffffffffffffffffffffffffffffffff16875295820195908201906001016149f9565b509495945050505050565b60208152600061138a60208301846149e5565b6020808252825182820181905260009190848201906040850190845b81811015614a9757835173ffffffffffffffffffffffffffffffffffffffff1683529284019291840191600101614a65565b50909695505050505050565b60c081016107e8828463ffffffff808251168352602082015173ffffffffffffffffffffffffffffffffffffffff8082166020860152806040850151166040860152806060850151166060860152505061ffff60808301511660808401528060a08301511660a0840152505050565b600060a08284031215614b2457600080fd5b50919050565b600060208284031215614b3c57600080fd5b813567ffffffffffffffff811115614b5357600080fd5b611aad84828501614b12565b60008083601f840112614b7157600080fd5b50813567ffffffffffffffff811115614b8957600080fd5b6020830191508360208260051b85010111156124d657600080fd5b60008060008060008060008060e0898b031215614bc057600080fd5b606089018a811115614bd157600080fd5b8998503567ffffffffffffffff80821115614beb57600080fd5b818b0191508b601f830112614bff57600080fd5b813581811115614c0e57600080fd5b8c6020828501011115614c2057600080fd5b6020830199508098505060808b0135915080821115614c3e57600080fd5b614c4a8c838d01614b5f565b909750955060a08b0135915080821115614c6357600080fd5b50614c708b828c01614b5f565b999c989b50969995989497949560c00135949350505050565b80356fffffffffffffffffffffffffffffffff8116811461424e57600080fd5b600060608284031215614cbb57600080fd5b6040516060810181811067ffffffffffffffff82111715614cde57614cde614369565b6040528235614cec81614742565b8152614cfa60208401614c89565b6020820152614d0b60408401614c89565b60408201529392505050565b805161424e81614742565b600060208284031215614d3457600080fd5b815161138a81614742565b7f4e487b7100000000000000000000000000000000000000000000000000000000600052601160045260246000fd5b818103818111156107e8576107e8614d3f565b7f4e487b7100000000000000000000000000000000000000000000000000000000600052601260045260246000fd5b600067ffffffffffffffff80841680614dcb57614dcb614d81565b92169190910692915050565b80820281158282048414176107e8576107e8614d3f565b600067ffffffffffffffff80841680614e0957614e09614d81565b92169190910492915050565b7f4e487b7100000000000000000000000000000000000000000000000000000000600052603260045260246000fd5b60007fffffffffffffffffffffffffffffffffffffffffffffffffffffffffffffffff8203614e7557614e75614d3f565b5060010190565b600063ffffffff808316818103614e9557614e95614d3f565b6001019392505050565b600061012063ffffffff808d1684528b6020850152808b16604085015250806060840152614ecf8184018a6149e5565b90508281036080840152614ee381896149e5565b905060ff871660a084015282810360c0840152614f00818761430c565b905067ffffffffffffffff851660e0840152828103610100840152614f25818561430c565b9c9b505050505050505050505050565b600060208284031215614f4757600080fd5b815161138a8161447b565b808201808211156107e8576107e8614d3f565b600082614f7457614f74614d81565b500490565b600081518084526020808501945080840160005b83811015614a2b578151805173ffffffffffffffffffffffffffffffffffffffff1688528301518388015260409096019590820190600101614f8d565b608081528451608082015267ffffffffffffffff60208601511660a08201526000604086015160a060c084015261500561012084018261430c565b905060608701517fffffffffffffffffffffffffffffffffffffffffffffffffffffffffffffff80808584030160e0860152615041838361430c565b9250608089015191508085840301610100860152506150608282614f79565b92505050615074602083018661ffff169052565b836040830152612327606083018473ffffffffffffffffffffffffffffffffffffffff169052565b805161424e8161422d565b6000602082840312156150b957600080fd5b815161138a8161422d565b600082601f8301126150d557600080fd5b813560206150e56144c983614457565b82815260059290921b8401810191818101908684111561510457600080fd5b8286015b8481101561451157803561511b8161422d565b8352918301918301615108565b600082601f83011261513957600080fd5b813560206151496144c983614457565b82815260059290921b8401810191818101908684111561516857600080fd5b8286015b8481101561451157803567ffffffffffffffff81111561518c5760008081fd5b61519a8986838b01016147e3565b84525091830191830161516c565b600082601f8301126151b957600080fd5b813560206151c96144c983614457565b82815260059290921b840181019181810190868411156151e857600080fd5b8286015b8481101561451157803583529183019183016151ec565b600060a0828403121561521557600080fd5b61521d6143e5565b9050813567ffffffffffffffff8082111561523757600080fd5b615243858386016150c4565b8352602084013591508082111561525957600080fd5b615265858386016147e3565b6020840152604084013591508082111561527e57600080fd5b61528a85838601615128565b604084015260608401359150808211156152a357600080fd5b506152b0848285016151a8565b6060830152506080820135608082015292915050565b60006107e83683615203565b805163ffffffff8116811461424e57600080fd5b805161424e8161447b565b600060c0828403121561530357600080fd5b60405160c0810181811067ffffffffffffffff8211171561532657615326614369565b604052615332836152d2565b815260208301516153428161447b565b602082015260408301516153558161447b565b604082015260608301516153688161447b565b6060820152608083015161ffff8116811461538257600080fd5b608082015261539360a084016152d2565b60a08201529392505050565b6101608101615405828573ffffffffffffffffffffffffffffffffffffffff808251168352602082015167ffffffffffffffff80821660208601528060408501511660408601525050806060830151166060840152806080830151166080840152505050565b825163ffffffff90811660a084810191909152602085015173ffffffffffffffffffffffffffffffffffffffff90811660c08601526040860151811660e0860152606086015116610100850152608085015161ffff166101208501528401511661014083015261138a565b60006101208b835273ffffffffffffffffffffffffffffffffffffffff8b16602084015267ffffffffffffffff808b1660408501528160608501526154b78285018b6149e5565b915083820360808501526154cb828a6149e5565b915060ff881660a085015283820360c08501526154e8828861430c565b90861660e08501528381036101008501529050614f25818561430c565b60a08152600061551860a083018861430c565b73ffffffffffffffffffffffffffffffffffffffff8716602084015285604084015267ffffffffffffffff85166060840152828103608084015261555c818561430c565b98975050505050505050565b600082601f83011261557957600080fd5b81516155876144c98261452d565b81815284602083860101111561559c57600080fd5b611aad8260208301602087016142e8565b600082601f8301126155be57600080fd5b815160206155ce6144c983614457565b82815260069290921b840181019181810190868411156155ed57600080fd5b8286015b84811015614511576040818903121561560a5760008081fd5b615612614398565b815161561d8161447b565b815281850151858201528352918301916040016155f1565b60006020828403121561564757600080fd5b815167ffffffffffffffff8082111561565f57600080fd5b90830190610180828603121561567457600080fd5b61567c6143c1565b6156858361509c565b81526156936020840161509c565b6020820152604083015160408201526156ae606084016152e6565b60608201526156bf6080840161509c565b608082015260a083015160a08201526156da60c08401614d17565b60c08201526156eb60e084016152e6565b60e0820152610100808401518381111561570457600080fd5b61571088828701615568565b828401525050610120808401518381111561572a57600080fd5b615736888287016155ad565b828401525050610140915061574c8284016152e6565b9181019190915261016091820151918101919091529392505050565b600081518084526020808501945080840160005b83811015614a2b5781518752958201959082019060010161577c565b6060815260006157ab6060830186615768565b82810360208401526157bd8186615768565b915050826040830152949350505050565b6000602082840312156157e057600080fd5b5051919050565b67ffffffffffffffff8181168382160190808211156140b2576140b2614d3f565b67ffffffffffffffff831681526040810161138a602083018461429f565b600067ffffffffffffffff808316818103614e9557614e95614d3f565b60006020828403121561585557600080fd5b813567ffffffffffffffff81111561586c57600080fd5b611aad84828501615203565b60006040828403121561588a57600080fd5b615892614398565b825177ffffffffffffffffffffffffffffffffffffffffffffffff811681146158ba57600080fd5b815260208301516158ca8161422d565b60208201529392505050565b60208152600061138a6020830184614f79565b600081518084526020808501808196508360051b8101915082860160005b8581101561593157828403895261591f84835161430c565b98850198935090840190600101615907565b5091979650505050505050565b6060815261595960608201855167ffffffffffffffff169052565b60006020850151615976608084018267ffffffffffffffff169052565b50604085015160a0830152606085015173ffffffffffffffffffffffffffffffffffffffff811660c084015250608085015167ffffffffffffffff811660e08401525060a0850151610100818185015260c087015191506101206159dd8186018415159052565b60e08801519250610140615a088187018573ffffffffffffffffffffffffffffffffffffffff169052565b82890151935061018092506101608381880152615a296101e088018661430c565b928a01518784037fffffffffffffffffffffffffffffffffffffffffffffffffffffffffffffffa00185890152929450615a638584614f79565b9450818a01519350615a8e6101a088018573ffffffffffffffffffffffffffffffffffffffff169052565b8901516101c08701525050508281036020840152615aac81866158e9565b915050611aad604083018415159052565b6000815160208301517fffffffff0000000000000000000000000000000000000000000000000000000080821693506004831015615b055780818460040360031b1b83161693505b505050919050565b7f4e487b7100000000000000000000000000000000000000000000000000000000600052603160045260246000fdfea164736f6c6343000813000a",
    "linkReferences": {}
  },
  "methodIdentifiers": {
    "acceptOwnership()": "79ba5097",
    "applyPoolUpdates((address,address)[],(address,address)[])": "3a87ac53",
    "ccipReceive((bytes32,uint64,bytes,bytes,(address,uint256)[]))": "85572ffb",
    "currentRateLimiterState()": "546719cd",
    "executeSingleMessage((uint64,uint64,uint256,address,uint64,uint256,bool,address,bytes,(address,uint256)[],address,bytes32),bytes[],bool)": "4a11d44a",
    "getDestinationToken(address)": "b4069b31",
    "getDestinationTokens()": "681fba16",
    "getDynamicConfig()": "7437ff9f",
    "getExecutionState(uint64)": "142a98fc",
    "getPoolByDestToken(address)": "d7e2bb50",
    "getPoolBySourceToken(address)": "5d86f141",
    "getSenderNonce(address)": "856c8247",
    "getStaticConfig()": "06285c69",
    "getSupportedTokens()": "d3c7c2c7",
    "getTokenLimitAdmin()": "599f6431",
    "getTransmitters()": "666cab8d",
    "isARMHealthy()": "0a6cd30d",
    "latestConfigDetails()": "81ff7048",
    "latestConfigDigestAndEpoch()": "afcb95d7",
    "manuallyExecute((uint64[],bytes[],bytes[][],bytes32[],uint256))": "8fa4f53b",
    "owner()": "8da5cb5b",
    "setAdmin(address)": "704b6c02",
    "setOCR2Config(address[],address[],uint8,bytes,uint64,bytes)": "1ef38174",
    "setRateLimiterConfig((bool,uint128,uint128))": "c92b2832",
    "transferOwnership(address)": "f2fde38b",
    "transmit(bytes32[3],bytes,bytes32[],bytes32[],bytes32)": "b1dc65a4",
    "typeAndVersion()": "181f5a77"
  },
  "id": 33
}