{
  "abi": [
    {
      "inputs": [
        {
          "components": [
            {
              "internalType": "address",
              "name": "linkToken",
              "type": "address"
            },
            {
              "internalType": "uint64",
              "name": "chainSelector",
              "type": "uint64"
            },
            {
              "internalType": "uint64",
              "name": "destChainSelector",
              "type": "uint64"
            },
            {
              "internalType": "uint64",
              "name": "defaultTxGasLimit",
              "type": "uint64"
            },
            {
              "internalType": "address",
              "name": "prevOnRamp",
              "type": "address"
            }
          ],
          "internalType": "struct EVM2EVMOnRamp.StaticConfig",
          "name": "staticConfig",
          "type": "tuple"
        },
        {
          "components": [
            {
              "internalType": "address",
              "name": "router",
              "type": "address"
            },
            {
              "internalType": "address",
              "name": "priceRegistry",
              "type": "address"
            },
            {
              "internalType": "uint32",
              "name": "maxDataSize",
              "type": "uint32"
            },
            {
              "internalType": "uint64",
              "name": "maxGasLimit",
              "type": "uint64"
            },
            {
              "internalType": "uint16",
              "name": "maxTokensLength",
              "type": "uint16"
            },
            {
              "internalType": "address",
              "name": "ARM",
              "type": "address"
            }
          ],
          "internalType": "struct EVM2EVMOnRamp.DynamicConfig",
          "name": "dynamicConfig",
          "type": "tuple"
        },
        {
          "components": [
            {
              "internalType": "address",
              "name": "token",
              "type": "address"
            },
            {
              "internalType": "address",
              "name": "pool",
              "type": "address"
            }
          ],
          "internalType": "struct EVM2EVMOnRamp.TokenAndPool[]",
          "name": "tokensAndPools",
          "type": "tuple[]"
        },
        {
          "internalType": "address[]",
          "name": "allowlist",
          "type": "address[]"
        },
        {
          "components": [
            {
              "internalType": "bool",
              "name": "isEnabled",
              "type": "bool"
            },
            {
              "internalType": "uint128",
              "name": "capacity",
              "type": "uint128"
            },
            {
              "internalType": "uint128",
              "name": "rate",
              "type": "uint128"
            }
          ],
          "internalType": "struct RateLimiter.Config",
          "name": "rateLimiterConfig",
          "type": "tuple"
        },
        {
          "components": [
            {
              "internalType": "address",
              "name": "token",
              "type": "address"
            },
            {
              "internalType": "uint64",
              "name": "multiplier",
              "type": "uint64"
            },
            {
              "internalType": "uint96",
              "name": "networkFeeAmountUSD",
              "type": "uint96"
            },
            {
              "internalType": "uint32",
              "name": "destGasOverhead",
              "type": "uint32"
            }
          ],
          "internalType": "struct EVM2EVMOnRamp.FeeTokenConfigArgs[]",
          "name": "feeTokenConfigs",
          "type": "tuple[]"
        },
        {
          "components": [
            {
              "internalType": "address",
              "name": "token",
              "type": "address"
            },
            {
              "internalType": "uint32",
              "name": "minFee",
              "type": "uint32"
            },
            {
              "internalType": "uint32",
              "name": "maxFee",
              "type": "uint32"
            },
            {
              "internalType": "uint16",
              "name": "ratio",
              "type": "uint16"
            }
          ],
          "internalType": "struct EVM2EVMOnRamp.TokenTransferFeeConfigArgs[]",
          "name": "tokenTransferFeeConfigArgs",
          "type": "tuple[]"
        },
        {
          "components": [
            {
              "internalType": "address",
              "name": "nop",
              "type": "address"
            },
            {
              "internalType": "uint16",
              "name": "weight",
              "type": "uint16"
            }
          ],
          "internalType": "struct EVM2EVMOnRamp.NopAndWeight[]",
          "name": "nopsAndWeights",
          "type": "tuple[]"
        }
      ],
      "stateMutability": "nonpayable",
      "type": "constructor"
    },
    {
      "inputs": [],
      "name": "BadARMSignal",
      "type": "error"
    },
    {
      "inputs": [],
      "name": "BucketOverfilled",
      "type": "error"
    },
    {
      "inputs": [
        {
          "internalType": "uint256",
          "name": "capacity",
          "type": "uint256"
        },
        {
          "internalType": "uint256",
          "name": "requested",
          "type": "uint256"
        }
      ],
      "name": "ConsumingMoreThanMaxCapacity",
      "type": "error"
    },
    {
      "inputs": [],
      "name": "InsufficientBalance",
      "type": "error"
    },
    {
      "inputs": [
        {
          "internalType": "bytes",
          "name": "encodedAddress",
          "type": "bytes"
        }
      ],
      "name": "InvalidAddress",
      "type": "error"
    },
    {
      "inputs": [],
      "name": "InvalidConfig",
      "type": "error"
    },
    {
      "inputs": [],
      "name": "InvalidExtraArgsTag",
      "type": "error"
    },
    {
      "inputs": [
        {
          "internalType": "address",
          "name": "token",
          "type": "address"
        }
      ],
      "name": "InvalidFeeToken",
      "type": "error"
    },
    {
      "inputs": [],
      "name": "InvalidTokenPoolConfig",
      "type": "error"
    },
    {
      "inputs": [
        {
          "internalType": "address",
          "name": "addr",
          "type": "address"
        }
      ],
      "name": "InvalidWithdrawalAddress",
      "type": "error"
    },
    {
      "inputs": [],
      "name": "LinkBalanceNotSettled",
      "type": "error"
    },
    {
      "inputs": [],
      "name": "MessageGasLimitTooHigh",
      "type": "error"
    },
    {
      "inputs": [
        {
          "internalType": "uint256",
          "name": "maxSize",
          "type": "uint256"
        },
        {
          "internalType": "uint256",
          "name": "actualSize",
          "type": "uint256"
        }
      ],
      "name": "MessageTooLarge",
      "type": "error"
    },
    {
      "inputs": [],
      "name": "MustBeCalledByRouter",
      "type": "error"
    },
    {
      "inputs": [],
      "name": "NoFeesToPay",
      "type": "error"
    },
    {
      "inputs": [],
      "name": "NoNopsToPay",
      "type": "error"
    },
    {
      "inputs": [],
      "name": "OnlyCallableByAdminOrOwner",
      "type": "error"
    },
    {
      "inputs": [],
      "name": "OnlyCallableByOwnerOrFeeAdmin",
      "type": "error"
    },
    {
      "inputs": [],
      "name": "OnlyCallableByOwnerOrFeeAdminOrNop",
      "type": "error"
    },
    {
      "inputs": [],
      "name": "PausedError",
      "type": "error"
    },
    {
      "inputs": [],
      "name": "PoolAlreadyAdded",
      "type": "error"
    },
    {
      "inputs": [
        {
          "internalType": "address",
          "name": "token",
          "type": "address"
        }
      ],
      "name": "PoolDoesNotExist",
      "type": "error"
    },
    {
      "inputs": [
        {
          "internalType": "address",
          "name": "token",
          "type": "address"
        }
      ],
      "name": "PriceNotFoundForToken",
      "type": "error"
    },
    {
      "inputs": [
        {
          "internalType": "uint256",
          "name": "waitInSeconds",
          "type": "uint256"
        }
      ],
      "name": "RateLimitReached",
      "type": "error"
    },
    {
      "inputs": [],
      "name": "RouterMustSetOriginalSender",
      "type": "error"
    },
    {
      "inputs": [
        {
          "internalType": "address",
          "name": "sender",
          "type": "address"
        }
      ],
      "name": "SenderNotAllowed",
      "type": "error"
    },
    {
      "inputs": [],
      "name": "TokenPoolMismatch",
      "type": "error"
    },
    {
      "inputs": [],
      "name": "TooManyNops",
      "type": "error"
    },
    {
      "inputs": [],
      "name": "UnsupportedNumberOfTokens",
      "type": "error"
    },
    {
      "inputs": [
        {
          "internalType": "contract IERC20",
          "name": "token",
          "type": "address"
        }
      ],
      "name": "UnsupportedToken",
      "type": "error"
    },
    {
      "anonymous": false,
      "inputs": [
        {
          "indexed": false,
          "internalType": "address",
          "name": "newAdmin",
          "type": "address"
        }
      ],
      "name": "AdminSet",
      "type": "event"
    },
    {
      "anonymous": false,
      "inputs": [
        {
          "indexed": false,
          "internalType": "address",
          "name": "sender",
          "type": "address"
        }
      ],
      "name": "AllowListAdd",
      "type": "event"
    },
    {
      "anonymous": false,
      "inputs": [
        {
          "indexed": false,
          "internalType": "bool",
          "name": "enabled",
          "type": "bool"
        }
      ],
      "name": "AllowListEnabledSet",
      "type": "event"
    },
    {
      "anonymous": false,
      "inputs": [
        {
          "indexed": false,
          "internalType": "address",
          "name": "sender",
          "type": "address"
        }
      ],
      "name": "AllowListRemove",
      "type": "event"
    },
    {
      "anonymous": false,
      "inputs": [
        {
          "components": [
            {
              "internalType": "uint64",
              "name": "sourceChainSelector",
              "type": "uint64"
            },
            {
              "internalType": "uint64",
              "name": "sequenceNumber",
              "type": "uint64"
            },
            {
              "internalType": "uint256",
              "name": "feeTokenAmount",
              "type": "uint256"
            },
            {
              "internalType": "address",
              "name": "sender",
              "type": "address"
            },
            {
              "internalType": "uint64",
              "name": "nonce",
              "type": "uint64"
            },
            {
              "internalType": "uint256",
              "name": "gasLimit",
              "type": "uint256"
            },
            {
              "internalType": "bool",
              "name": "strict",
              "type": "bool"
            },
            {
              "internalType": "address",
              "name": "receiver",
              "type": "address"
            },
            {
              "internalType": "bytes",
              "name": "data",
              "type": "bytes"
            },
            {
              "components": [
                {
                  "internalType": "address",
                  "name": "token",
                  "type": "address"
                },
                {
                  "internalType": "uint256",
                  "name": "amount",
                  "type": "uint256"
                }
              ],
              "internalType": "struct Client.EVMTokenAmount[]",
              "name": "tokenAmounts",
              "type": "tuple[]"
            },
            {
              "internalType": "address",
              "name": "feeToken",
              "type": "address"
            },
            {
              "internalType": "bytes32",
              "name": "messageId",
              "type": "bytes32"
            }
          ],
          "indexed": false,
          "internalType": "struct Internal.EVM2EVMMessage",
          "name": "message",
          "type": "tuple"
        }
      ],
      "name": "CCIPSendRequested",
      "type": "event"
    },
    {
      "anonymous": false,
      "inputs": [
        {
          "components": [
            {
              "internalType": "address",
              "name": "linkToken",
              "type": "address"
            },
            {
              "internalType": "uint64",
              "name": "chainSelector",
              "type": "uint64"
            },
            {
              "internalType": "uint64",
              "name": "destChainSelector",
              "type": "uint64"
            },
            {
              "internalType": "uint64",
              "name": "defaultTxGasLimit",
              "type": "uint64"
            },
            {
              "internalType": "address",
              "name": "prevOnRamp",
              "type": "address"
            }
          ],
          "indexed": false,
          "internalType": "struct EVM2EVMOnRamp.StaticConfig",
          "name": "staticConfig",
          "type": "tuple"
        },
        {
          "components": [
            {
              "internalType": "address",
              "name": "router",
              "type": "address"
            },
            {
              "internalType": "address",
              "name": "priceRegistry",
              "type": "address"
            },
            {
              "internalType": "uint32",
              "name": "maxDataSize",
              "type": "uint32"
            },
            {
              "internalType": "uint64",
              "name": "maxGasLimit",
              "type": "uint64"
            },
            {
              "internalType": "uint16",
              "name": "maxTokensLength",
              "type": "uint16"
            },
            {
              "internalType": "address",
              "name": "ARM",
              "type": "address"
            }
          ],
          "indexed": false,
          "internalType": "struct EVM2EVMOnRamp.DynamicConfig",
          "name": "dynamicConfig",
          "type": "tuple"
        }
      ],
      "name": "ConfigSet",
      "type": "event"
    },
    {
      "anonymous": false,
      "inputs": [
        {
          "components": [
            {
              "internalType": "address",
              "name": "token",
              "type": "address"
            },
            {
              "internalType": "uint64",
              "name": "multiplier",
              "type": "uint64"
            },
            {
              "internalType": "uint96",
              "name": "networkFeeAmountUSD",
              "type": "uint96"
            },
            {
              "internalType": "uint32",
              "name": "destGasOverhead",
              "type": "uint32"
            }
          ],
          "indexed": false,
          "internalType": "struct EVM2EVMOnRamp.FeeTokenConfigArgs[]",
          "name": "feeConfig",
          "type": "tuple[]"
        }
      ],
      "name": "FeeConfigSet",
      "type": "event"
    },
    {
      "anonymous": false,
      "inputs": [
        {
          "indexed": true,
          "internalType": "address",
          "name": "nop",
          "type": "address"
        },
        {
          "indexed": false,
          "internalType": "uint256",
          "name": "amount",
          "type": "uint256"
        }
      ],
      "name": "NopPaid",
      "type": "event"
    },
    {
      "anonymous": false,
      "inputs": [
        {
          "indexed": false,
          "internalType": "uint256",
          "name": "nopWeightsTotal",
          "type": "uint256"
        },
        {
          "components": [
            {
              "internalType": "address",
              "name": "nop",
              "type": "address"
            },
            {
              "internalType": "uint16",
              "name": "weight",
              "type": "uint16"
            }
          ],
          "indexed": false,
          "internalType": "struct EVM2EVMOnRamp.NopAndWeight[]",
          "name": "nopsAndWeights",
          "type": "tuple[]"
        }
      ],
      "name": "NopsSet",
      "type": "event"
    },
    {
      "anonymous": false,
      "inputs": [
        {
          "indexed": true,
          "internalType": "address",
          "name": "from",
          "type": "address"
        },
        {
          "indexed": true,
          "internalType": "address",
          "name": "to",
          "type": "address"
        }
      ],
      "name": "OwnershipTransferRequested",
      "type": "event"
    },
    {
      "anonymous": false,
      "inputs": [
        {
          "indexed": true,
          "internalType": "address",
          "name": "from",
          "type": "address"
        },
        {
          "indexed": true,
          "internalType": "address",
          "name": "to",
          "type": "address"
        }
      ],
      "name": "OwnershipTransferred",
      "type": "event"
    },
    {
      "anonymous": false,
      "inputs": [
        {
          "indexed": false,
          "internalType": "address",
          "name": "account",
          "type": "address"
        }
      ],
      "name": "Paused",
      "type": "event"
    },
    {
      "anonymous": false,
      "inputs": [
        {
          "indexed": false,
          "internalType": "address",
          "name": "token",
          "type": "address"
        },
        {
          "indexed": false,
          "internalType": "address",
          "name": "pool",
          "type": "address"
        }
      ],
      "name": "PoolAdded",
      "type": "event"
    },
    {
      "anonymous": false,
      "inputs": [
        {
          "indexed": false,
          "internalType": "address",
          "name": "token",
          "type": "address"
        },
        {
          "indexed": false,
          "internalType": "address",
          "name": "pool",
          "type": "address"
        }
      ],
      "name": "PoolRemoved",
      "type": "event"
    },
    {
      "anonymous": false,
      "inputs": [
        {
          "components": [
            {
              "internalType": "address",
              "name": "token",
              "type": "address"
            },
            {
              "internalType": "uint32",
              "name": "minFee",
              "type": "uint32"
            },
            {
              "internalType": "uint32",
              "name": "maxFee",
              "type": "uint32"
            },
            {
              "internalType": "uint16",
              "name": "ratio",
              "type": "uint16"
            }
          ],
          "indexed": false,
          "internalType": "struct EVM2EVMOnRamp.TokenTransferFeeConfigArgs[]",
          "name": "transferFeeConfig",
          "type": "tuple[]"
        }
      ],
      "name": "TokenTransferFeeConfigSet",
      "type": "event"
    },
    {
      "anonymous": false,
      "inputs": [
        {
          "indexed": false,
          "internalType": "address",
          "name": "account",
          "type": "address"
        }
      ],
      "name": "Unpaused",
      "type": "event"
    },
    {
      "inputs": [],
      "name": "acceptOwnership",
      "outputs": [],
      "stateMutability": "nonpayable",
      "type": "function"
    },
    {
      "inputs": [
        {
          "internalType": "address[]",
          "name": "removes",
          "type": "address[]"
        },
        {
          "internalType": "address[]",
          "name": "adds",
          "type": "address[]"
        }
      ],
      "name": "applyAllowListUpdates",
      "outputs": [],
      "stateMutability": "nonpayable",
      "type": "function"
    },
    {
      "inputs": [
        {
          "components": [
            {
              "internalType": "address",
              "name": "token",
              "type": "address"
            },
            {
              "internalType": "address",
              "name": "pool",
              "type": "address"
            }
          ],
          "internalType": "struct Internal.PoolUpdate[]",
          "name": "removes",
          "type": "tuple[]"
        },
        {
          "components": [
            {
              "internalType": "address",
              "name": "token",
              "type": "address"
            },
            {
              "internalType": "address",
              "name": "pool",
              "type": "address"
            }
          ],
          "internalType": "struct Internal.PoolUpdate[]",
          "name": "adds",
          "type": "tuple[]"
        }
      ],
      "name": "applyPoolUpdates",
      "outputs": [],
      "stateMutability": "nonpayable",
      "type": "function"
    },
    {
      "inputs": [],
      "name": "currentRateLimiterState",
      "outputs": [
        {
          "components": [
            {
              "internalType": "uint128",
              "name": "tokens",
              "type": "uint128"
            },
            {
              "internalType": "uint32",
              "name": "lastUpdated",
              "type": "uint32"
            },
            {
              "internalType": "bool",
              "name": "isEnabled",
              "type": "bool"
            },
            {
              "internalType": "uint128",
              "name": "capacity",
              "type": "uint128"
            },
            {
              "internalType": "uint128",
              "name": "rate",
              "type": "uint128"
            }
          ],
          "internalType": "struct RateLimiter.TokenBucket",
          "name": "",
          "type": "tuple"
        }
      ],
      "stateMutability": "view",
      "type": "function"
    },
    {
      "inputs": [
        {
          "components": [
            {
              "internalType": "bytes",
              "name": "receiver",
              "type": "bytes"
            },
            {
              "internalType": "bytes",
              "name": "data",
              "type": "bytes"
            },
            {
              "components": [
                {
                  "internalType": "address",
                  "name": "token",
                  "type": "address"
                },
                {
                  "internalType": "uint256",
                  "name": "amount",
                  "type": "uint256"
                }
              ],
              "internalType": "struct Client.EVMTokenAmount[]",
              "name": "tokenAmounts",
              "type": "tuple[]"
            },
            {
              "internalType": "address",
              "name": "feeToken",
              "type": "address"
            },
            {
              "internalType": "bytes",
              "name": "extraArgs",
              "type": "bytes"
            }
          ],
          "internalType": "struct Client.EVM2AnyMessage",
          "name": "message",
          "type": "tuple"
        },
        {
          "internalType": "uint256",
          "name": "feeTokenAmount",
          "type": "uint256"
        },
        {
          "internalType": "address",
          "name": "originalSender",
          "type": "address"
        }
      ],
      "name": "forwardFromRouter",
      "outputs": [
        {
          "internalType": "bytes32",
          "name": "",
          "type": "bytes32"
        }
      ],
      "stateMutability": "nonpayable",
      "type": "function"
    },
    {
      "inputs": [],
      "name": "getAllowList",
      "outputs": [
        {
          "internalType": "address[]",
          "name": "",
          "type": "address[]"
        }
      ],
      "stateMutability": "view",
      "type": "function"
    },
    {
      "inputs": [],
      "name": "getAllowListEnabled",
      "outputs": [
        {
          "internalType": "bool",
          "name": "",
          "type": "bool"
        }
      ],
      "stateMutability": "view",
      "type": "function"
    },
    {
      "inputs": [],
      "name": "getDynamicConfig",
      "outputs": [
        {
          "components": [
            {
              "internalType": "address",
              "name": "router",
              "type": "address"
            },
            {
              "internalType": "address",
              "name": "priceRegistry",
              "type": "address"
            },
            {
              "internalType": "uint32",
              "name": "maxDataSize",
              "type": "uint32"
            },
            {
              "internalType": "uint64",
              "name": "maxGasLimit",
              "type": "uint64"
            },
            {
              "internalType": "uint16",
              "name": "maxTokensLength",
              "type": "uint16"
            },
            {
              "internalType": "address",
              "name": "ARM",
              "type": "address"
            }
          ],
          "internalType": "struct EVM2EVMOnRamp.DynamicConfig",
          "name": "dynamicConfig",
          "type": "tuple"
        }
      ],
      "stateMutability": "view",
      "type": "function"
    },
    {
      "inputs": [],
      "name": "getExpectedNextSequenceNumber",
      "outputs": [
        {
          "internalType": "uint64",
          "name": "",
          "type": "uint64"
        }
      ],
      "stateMutability": "view",
      "type": "function"
    },
    {
      "inputs": [
        {
          "components": [
            {
              "internalType": "bytes",
              "name": "receiver",
              "type": "bytes"
            },
            {
              "internalType": "bytes",
              "name": "data",
              "type": "bytes"
            },
            {
              "components": [
                {
                  "internalType": "address",
                  "name": "token",
                  "type": "address"
                },
                {
                  "internalType": "uint256",
                  "name": "amount",
                  "type": "uint256"
                }
              ],
              "internalType": "struct Client.EVMTokenAmount[]",
              "name": "tokenAmounts",
              "type": "tuple[]"
            },
            {
              "internalType": "address",
              "name": "feeToken",
              "type": "address"
            },
            {
              "internalType": "bytes",
              "name": "extraArgs",
              "type": "bytes"
            }
          ],
          "internalType": "struct Client.EVM2AnyMessage",
          "name": "message",
          "type": "tuple"
        }
      ],
      "name": "getFee",
      "outputs": [
        {
          "internalType": "uint256",
          "name": "",
          "type": "uint256"
        }
      ],
      "stateMutability": "view",
      "type": "function"
    },
    {
      "inputs": [
        {
          "internalType": "address",
          "name": "token",
          "type": "address"
        }
      ],
      "name": "getFeeTokenConfig",
      "outputs": [
        {
          "components": [
            {
              "internalType": "uint96",
              "name": "networkFeeAmountUSD",
              "type": "uint96"
            },
            {
              "internalType": "uint64",
              "name": "multiplier",
              "type": "uint64"
            },
            {
              "internalType": "uint32",
              "name": "destGasOverhead",
              "type": "uint32"
            }
          ],
          "internalType": "struct EVM2EVMOnRamp.FeeTokenConfig",
          "name": "feeTokenConfig",
          "type": "tuple"
        }
      ],
      "stateMutability": "view",
      "type": "function"
    },
    {
      "inputs": [],
      "name": "getNopFeesJuels",
      "outputs": [
        {
          "internalType": "uint96",
          "name": "",
          "type": "uint96"
        }
      ],
      "stateMutability": "view",
      "type": "function"
    },
    {
      "inputs": [],
      "name": "getNops",
      "outputs": [
        {
          "components": [
            {
              "internalType": "address",
              "name": "nop",
              "type": "address"
            },
            {
              "internalType": "uint16",
              "name": "weight",
              "type": "uint16"
            }
          ],
          "internalType": "struct EVM2EVMOnRamp.NopAndWeight[]",
          "name": "nopsAndWeights",
          "type": "tuple[]"
        },
        {
          "internalType": "uint256",
          "name": "weightsTotal",
          "type": "uint256"
        }
      ],
      "stateMutability": "view",
      "type": "function"
    },
    {
      "inputs": [
        {
          "internalType": "contract IERC20",
          "name": "sourceToken",
          "type": "address"
        }
      ],
      "name": "getPoolBySourceToken",
      "outputs": [
        {
          "internalType": "contract IPool",
          "name": "",
          "type": "address"
        }
      ],
      "stateMutability": "view",
      "type": "function"
    },
    {
      "inputs": [
        {
          "internalType": "address",
          "name": "sender",
          "type": "address"
        }
      ],
      "name": "getSenderNonce",
      "outputs": [
        {
          "internalType": "uint64",
          "name": "",
          "type": "uint64"
        }
      ],
      "stateMutability": "view",
      "type": "function"
    },
    {
      "inputs": [],
      "name": "getStaticConfig",
      "outputs": [
        {
          "components": [
            {
              "internalType": "address",
              "name": "linkToken",
              "type": "address"
            },
            {
              "internalType": "uint64",
              "name": "chainSelector",
              "type": "uint64"
            },
            {
              "internalType": "uint64",
              "name": "destChainSelector",
              "type": "uint64"
            },
            {
              "internalType": "uint64",
              "name": "defaultTxGasLimit",
              "type": "uint64"
            },
            {
              "internalType": "address",
              "name": "prevOnRamp",
              "type": "address"
            }
          ],
          "internalType": "struct EVM2EVMOnRamp.StaticConfig",
          "name": "",
          "type": "tuple"
        }
      ],
      "stateMutability": "view",
      "type": "function"
    },
    {
      "inputs": [],
      "name": "getSupportedTokens",
      "outputs": [
        {
          "internalType": "address[]",
          "name": "",
          "type": "address[]"
        }
      ],
      "stateMutability": "view",
      "type": "function"
    },
    {
      "inputs": [],
      "name": "getTokenLimitAdmin",
      "outputs": [
        {
          "internalType": "address",
          "name": "",
          "type": "address"
        }
      ],
      "stateMutability": "view",
      "type": "function"
    },
    {
      "inputs": [
        {
          "internalType": "address",
          "name": "token",
          "type": "address"
        }
      ],
      "name": "getTokenTransferFeeConfig",
      "outputs": [
        {
          "components": [
            {
              "internalType": "uint32",
              "name": "minFee",
              "type": "uint32"
            },
            {
              "internalType": "uint32",
              "name": "maxFee",
              "type": "uint32"
            },
            {
              "internalType": "uint16",
              "name": "ratio",
              "type": "uint16"
            }
          ],
          "internalType": "struct EVM2EVMOnRamp.TokenTransferFeeConfig",
          "name": "tokenTransferFeeConfig",
          "type": "tuple"
        }
      ],
      "stateMutability": "view",
      "type": "function"
    },
    {
      "inputs": [],
      "name": "isARMHealthy",
      "outputs": [
        {
          "internalType": "bool",
          "name": "",
          "type": "bool"
        }
      ],
      "stateMutability": "view",
      "type": "function"
    },
    {
      "inputs": [],
      "name": "linkAvailableForPayment",
      "outputs": [
        {
          "internalType": "int256",
          "name": "",
          "type": "int256"
        }
      ],
      "stateMutability": "view",
      "type": "function"
    },
    {
      "inputs": [],
      "name": "owner",
      "outputs": [
        {
          "internalType": "address",
          "name": "",
          "type": "address"
        }
      ],
      "stateMutability": "view",
      "type": "function"
    },
    {
      "inputs": [],
      "name": "pause",
      "outputs": [],
      "stateMutability": "nonpayable",
      "type": "function"
    },
    {
      "inputs": [],
      "name": "paused",
      "outputs": [
        {
          "internalType": "bool",
          "name": "",
          "type": "bool"
        }
      ],
      "stateMutability": "view",
      "type": "function"
    },
    {
      "inputs": [],
      "name": "payNops",
      "outputs": [],
      "stateMutability": "nonpayable",
      "type": "function"
    },
    {
      "inputs": [
        {
          "internalType": "address",
          "name": "newAdmin",
          "type": "address"
        }
      ],
      "name": "setAdmin",
      "outputs": [],
      "stateMutability": "nonpayable",
      "type": "function"
    },
    {
      "inputs": [
        {
          "internalType": "bool",
          "name": "enabled",
          "type": "bool"
        }
      ],
      "name": "setAllowListEnabled",
      "outputs": [],
      "stateMutability": "nonpayable",
      "type": "function"
    },
    {
      "inputs": [
        {
          "components": [
            {
              "internalType": "address",
              "name": "router",
              "type": "address"
            },
            {
              "internalType": "address",
              "name": "priceRegistry",
              "type": "address"
            },
            {
              "internalType": "uint32",
              "name": "maxDataSize",
              "type": "uint32"
            },
            {
              "internalType": "uint64",
              "name": "maxGasLimit",
              "type": "uint64"
            },
            {
              "internalType": "uint16",
              "name": "maxTokensLength",
              "type": "uint16"
            },
            {
              "internalType": "address",
              "name": "ARM",
              "type": "address"
            }
          ],
          "internalType": "struct EVM2EVMOnRamp.DynamicConfig",
          "name": "dynamicConfig",
          "type": "tuple"
        }
      ],
      "name": "setDynamicConfig",
      "outputs": [],
      "stateMutability": "nonpayable",
      "type": "function"
    },
    {
      "inputs": [
        {
          "components": [
            {
              "internalType": "address",
              "name": "token",
              "type": "address"
            },
            {
              "internalType": "uint64",
              "name": "multiplier",
              "type": "uint64"
            },
            {
              "internalType": "uint96",
              "name": "networkFeeAmountUSD",
              "type": "uint96"
            },
            {
              "internalType": "uint32",
              "name": "destGasOverhead",
              "type": "uint32"
            }
          ],
          "internalType": "struct EVM2EVMOnRamp.FeeTokenConfigArgs[]",
          "name": "feeTokenConfigs",
          "type": "tuple[]"
        }
      ],
      "name": "setFeeTokenConfig",
      "outputs": [],
      "stateMutability": "nonpayable",
      "type": "function"
    },
    {
      "inputs": [
        {
          "components": [
            {
              "internalType": "address",
              "name": "nop",
              "type": "address"
            },
            {
              "internalType": "uint16",
              "name": "weight",
              "type": "uint16"
            }
          ],
          "internalType": "struct EVM2EVMOnRamp.NopAndWeight[]",
          "name": "nopsAndWeights",
          "type": "tuple[]"
        }
      ],
      "name": "setNops",
      "outputs": [],
      "stateMutability": "nonpayable",
      "type": "function"
    },
    {
      "inputs": [
        {
          "components": [
            {
              "internalType": "bool",
              "name": "isEnabled",
              "type": "bool"
            },
            {
              "internalType": "uint128",
              "name": "capacity",
              "type": "uint128"
            },
            {
              "internalType": "uint128",
              "name": "rate",
              "type": "uint128"
            }
          ],
          "internalType": "struct RateLimiter.Config",
          "name": "config",
          "type": "tuple"
        }
      ],
      "name": "setRateLimiterConfig",
      "outputs": [],
      "stateMutability": "nonpayable",
      "type": "function"
    },
    {
      "inputs": [
        {
          "components": [
            {
              "internalType": "address",
              "name": "token",
              "type": "address"
            },
            {
              "internalType": "uint32",
              "name": "minFee",
              "type": "uint32"
            },
            {
              "internalType": "uint32",
              "name": "maxFee",
              "type": "uint32"
            },
            {
              "internalType": "uint16",
              "name": "ratio",
              "type": "uint16"
            }
          ],
          "internalType": "struct EVM2EVMOnRamp.TokenTransferFeeConfigArgs[]",
          "name": "tokenTransferFeeConfigArgs",
          "type": "tuple[]"
        }
      ],
      "name": "setTokenTransferFeeConfig",
      "outputs": [],
      "stateMutability": "nonpayable",
      "type": "function"
    },
    {
      "inputs": [
        {
          "internalType": "address",
          "name": "to",
          "type": "address"
        }
      ],
      "name": "transferOwnership",
      "outputs": [],
      "stateMutability": "nonpayable",
      "type": "function"
    },
    {
      "inputs": [],
      "name": "typeAndVersion",
      "outputs": [
        {
          "internalType": "string",
          "name": "",
          "type": "string"
        }
      ],
      "stateMutability": "view",
      "type": "function"
    },
    {
      "inputs": [],
      "name": "unpause",
      "outputs": [],
      "stateMutability": "nonpayable",
      "type": "function"
    },
    {
      "inputs": [
        {
          "internalType": "address",
          "name": "feeToken",
          "type": "address"
        },
        {
          "internalType": "address",
          "name": "to",
          "type": "address"
        }
      ],
      "name": "withdrawNonLinkFees",
      "outputs": [],
      "stateMutability": "nonpayable",
      "type": "function"
    }
  ],
  "bytecode": {
    "object": "0x6101406040526013805460ff60c01b191690553480156200001f57600080fd5b50604051620080b0380380620080b0833981016040819052620000429162001c4c565b8333806000816200009a5760405162461bcd60e51b815260206004820152601860248201527f43616e6e6f7420736574206f776e657220746f207a65726f000000000000000060448201526064015b60405180910390fd5b600080546001600160a01b0319166001600160a01b0384811691909117909155811615620000cd57620000cd816200049f565b50506040805160a081018252602084810180516001600160801b039081168085524263ffffffff169385018490528751151585870181905292518216606086018190529790950151166080909301839052600380546001600160a01b031916909417600160801b9283021760ff60a01b1916600160a01b90910217909255029091176004555087516001600160a01b0316158062000176575060208801516001600160401b0316155b806200018d575060408801516001600160401b0316155b80620001a4575060608801516001600160401b0316155b15620001c3576040516306b7c75960e31b815260040160405180910390fd5b6020808901516040808b015181517fbdd59ac4dd1d82276c9a9c5d2656546346b9dcdb1f9b4204aed4ec15c23d7d3a948101949094526001600160401b039283169184019190915216606082015230608082015260a00160408051601f19818403018152918152815160209283012060809081528a516001600160a01b0390811660c052928b01516001600160401b0390811660e052918b015182166101005260608b015190911660a052890151166101205262000281876200054a565b6200028c836200075c565b6200029782620008e6565b620002a28162000a61565b60005b86518110156200043d5760006001600160a01b0316878281518110620002cf57620002cf62001d6f565b6020026020010151600001516001600160a01b0316148062000323575060006001600160a01b03168782815181106200030c576200030c62001d6f565b6020026020010151602001516001600160a01b0316145b1562000342576040516306b7c75960e31b815260040160405180910390fd5b6200039a8782815181106200035b576200035b62001d6f565b6020026020010151600001518883815181106200037c576200037c62001d6f565b602002602001015160200151600b62000c1760201b9092919060201c565b507f95f865c2808f8b2a85eea2611db7843150ee7835ef1403f9755918a97d76933c878281518110620003d157620003d162001d6f565b602002602001015160000151888381518110620003f257620003f262001d6f565b602002602001015160200151604051620004229291906001600160a01b0392831681529116602082015260400190565b60405180910390a1620004358162001d9b565b9050620002a5565b5084511562000491576013805460ff60c81b1916600160c81b179055620004918560006040519080825280602002602001820160405280156200048a578160200160208202803683370190505b5062000c37565b50505050505050506200209a565b336001600160a01b03821603620004f95760405162461bcd60e51b815260206004820152601760248201527f43616e6e6f74207472616e7366657220746f2073656c66000000000000000000604482015260640162000091565b600180546001600160a01b0319166001600160a01b0383811691821790925560008054604051929316917fed8889f560326eb138920d842192f0eb3dd22b4f139c87a2c57538e05bae12789190a350565b80516001600160a01b031615806200056d575060208101516001600160a01b0316155b8062000584575060a08101516001600160a01b0316155b15620005a3576040516306b7c75960e31b815260040160405180910390fd5b8051600580546001600160a01b039283166001600160a01b0319909116179055602080830151600680546040808701516060808901516001600160401b03908116600160c01b026001600160c01b0363ffffffff909416600160a01b026001600160c01b0319909616978a16979097179490941791909116949094179092556080808701516007805460a0808b01518a1662010000026001600160b01b031990921661ffff909416939093171790558351808201855260c0518816815260e051841696810196909652610100518316868501525190911692840192909252610120519093169082015290517fced31ba37c0c40b4dee89af78c1d148dd7e9513db4d38b140df50b6ddd0dba8e916200075191849082516001600160a01b0390811682526020808501516001600160401b03908116828501526040808701518216818601526060808801518316818701526080978801518516888701528651851660a08088019190915293870151851660c08701529086015163ffffffff1660e0860152850151166101008401529383015161ffff166101208301529190920151166101408201526101600190565b60405180910390a150565b60005b8151811015620008b457604051806060016040528083838151811062000789576200078962001d6f565b6020026020010151604001516001600160601b03168152602001838381518110620007b857620007b862001d6f565b6020026020010151602001516001600160401b03168152602001838381518110620007e757620007e762001d6f565b60200260200101516060015163ffffffff168152506010600084848151811062000815576200081562001d6f565b602090810291909101810151516001600160a01b031682528181019290925260409081016000208351815493850151949092015163ffffffff16600160a01b0263ffffffff60a01b196001600160401b039095166c01000000000000000000000000026001600160a01b03199094166001600160601b03909316929092179290921792909216919091179055620008ac8162001d9b565b90506200075f565b507f1026720e82621bb6d100957028cafff5ccf24add051c05d1bd65fa1d71e0fae68160405162000751919062001db7565b805160005b8181101562000a2357604051806060016040528084838151811062000914576200091462001d6f565b60200260200101516020015163ffffffff16815260200184838151811062000940576200094062001d6f565b60200260200101516040015163ffffffff1681526020018483815181106200096c576200096c62001d6f565b60200260200101516060015161ffff168152506011600085848151811062000998576200099862001d6f565b602090810291909101810151516001600160a01b031682528181019290925260409081016000208351815493850151949092015161ffff16680100000000000000000261ffff60401b1963ffffffff958616640100000000026001600160401b03199095169590931694909417929092171691909117905562000a1b8162001d9b565b9050620008eb565b507fcb0c5f472d325cf0c56953fc81870ddd80d0d3c9a3fbfe777002d75f380dfb818260405162000a55919062001e3e565b60405180910390a15050565b6013546c01000000000000000000000000900463ffffffff161580159062000aaa575060135463ffffffff6c010000000000000000000000008204166001600160601b03909116115b1562000aba5762000aba62000d87565b8051604081111562000adf57604051635ad0867d60e11b815260040160405180910390fd5b6008600081818181818162000af58282620015c0565b50505050505050506000805b8281101562000bae5762000b6684828151811062000b235762000b2362001d6f565b60200260200101516000015185838151811062000b445762000b4462001d6f565b60200260200101516020015161ffff16600862000f9360201b9092919060201c565b5083818151811062000b7c5762000b7c62001d6f565b60200260200101516020015161ffff168262000b99919062001ead565b915062000ba68162001d9b565b905062000b01565b506013805463ffffffff60601b19166c0100000000000000000000000063ffffffff8416021790556040517f8c337bff38141c507abd25c547606bdde78fe8c12e941ab613f3a565fea6cd249062000c0a908390869062001ecd565b60405180910390a1505050565b600062000c2f846001600160a01b0385168462000fab565b949350505050565b60005b825181101562000ccc57600083828151811062000c5b5762000c5b62001d6f565b6020908102919091010151905062000c75600e8262000fc3565b1562000cb8576040516001600160a01b03821681527f800671136ab6cfee9fbe5ed1fb7ca417811aca3cf864800d127b927adedf75669060200160405180910390a15b5062000cc48162001d9b565b905062000c3a565b5060005b815181101562000d8257600082828151811062000cf15762000cf162001d6f565b6020026020010151905060006001600160a01b0316816001600160a01b03160362000d1d575062000d6f565b62000d2a600e8262000fe3565b1562000d6d576040516001600160a01b03821681527f2640d4d76caf8bf478aabfa982fa4e1c4eb71a37f93cd15e80dbc657911546d89060200160405180910390a15b505b62000d7a8162001d9b565b905062000cd0565b505050565b6000546001600160a01b0316331480159062000dae57506002546001600160a01b03163314155b801562000dc5575062000dc360083362000ffa565b155b1562000de4576040516363baed9960e01b815260040160405180910390fd5b6013546c01000000000000000000000000900463ffffffff16600081900362000e205760405163990e30bf60e01b815260040160405180910390fd5b6013546001600160601b031663ffffffff821681101562000e54576040516311a1ee3b60e31b815260040160405180910390fd5b600062000e6062001011565b121562000e8057604051631e9acf1760e31b815260040160405180910390fd5b80600062000e8f60086200109f565b905060005b8181101562000f6d5760008062000ead600884620010ac565b9092509050600063ffffffff881662000ed0836001600160601b038a1662001f3a565b62000edc919062001f54565b905062000eea818762001f77565b60c05190965062000f0f906001600160a01b0316846001600160601b038416620010ca565b6040516001600160601b03821681526001600160a01b038416907f55fdec2aab60a41fa5abb106670eb1006f5aeaee1ba7afea2bc89b5b3ec7678f9060200160405180910390a25050508062000f659062001d9b565b905062000e94565b5050601380546001600160601b0319166001600160601b03929092169190911790555050565b600062000c2f846001600160a01b0385168462001122565b600062000c2f84846001600160a01b03851662001122565b600062000fda836001600160a01b03841662001141565b90505b92915050565b600062000fda836001600160a01b0384166200124c565b600062000fda836001600160a01b0384166200129e565b60135460c0516040516370a0823160e01b81523060048201526000926001600160601b0316916001600160a01b0316906370a0823190602401602060405180830381865afa15801562001068573d6000803e3d6000fd5b505050506040513d601f19601f820116820180604052508101906200108e919062001f9a565b6200109a919062001fb4565b905090565b600062000fdd82620012ac565b6000808080620010bd8686620012b9565b9097909650945050505050565b604080516001600160a01b038416602482015260448082018490528251808303909101815260649091019091526020810180516001600160e01b0390811663a9059cbb60e01b1790915262000d82918591620012e616565b6000828152600284016020526040812082905562000c2f8484620013b7565b600081815260018301602052604081205480156200123a5760006200116860018362001fd7565b85549091506000906200117e9060019062001fd7565b9050818114620011ea576000866000018281548110620011a257620011a262001d6f565b9060005260206000200154905080876000018481548110620011c857620011c862001d6f565b6000918252602080832090910192909255918252600188019052604090208390555b8554869080620011fe57620011fe62001fed565b60019003818190600052602060002001600090559055856001016000868152602001908152602001600020600090556001935050505062000fdd565b600091505062000fdd565b5092915050565b6000818152600183016020526040812054620012955750815460018181018455600084815260208082209093018490558454848252828601909352604090209190915562000fdd565b50600062000fdd565b600062000fda8383620013c5565b600062000fdd82620013de565b60008080620012c98585620013e9565b600081815260029690960160205260409095205494959350505050565b6040805180820190915260208082527f5361666545524332303a206c6f772d6c6576656c2063616c6c206661696c65649082015260009062001335906001600160a01b038516908490620013f7565b80519091501562000d82578080602001905181019062001356919062002003565b62000d825760405162461bcd60e51b815260206004820152602a60248201527f5361666545524332303a204552433230206f7065726174696f6e20646964206e6044820152691bdd081cdd58d8d9595960b21b606482015260840162000091565b600062000fda83836200124c565b6000818152600183016020526040812054151562000fda565b600062000fdd825490565b600062000fda838362001408565b606062000c2f848460008562001435565b600082600001828154811062001422576200142262001d6f565b9060005260206000200154905092915050565b606082471015620014985760405162461bcd60e51b815260206004820152602660248201527f416464726573733a20696e73756666696369656e742062616c616e636520666f6044820152651c8818d85b1b60d21b606482015260840162000091565b600080866001600160a01b03168587604051620014b6919062002047565b60006040518083038185875af1925050503d8060008114620014f5576040519150601f19603f3d011682016040523d82523d6000602084013e620014fa565b606091505b5090925090506200150e8783838762001519565b979650505050505050565b606083156200158d57825160000362001585576001600160a01b0385163b620015855760405162461bcd60e51b815260206004820152601d60248201527f416464726573733a2063616c6c20746f206e6f6e2d636f6e7472616374000000604482015260640162000091565b508162000c2f565b62000c2f8383815115620015a45781518083602001fd5b8060405162461bcd60e51b815260040162000091919062002065565b5080546000825590600052602060002090810190620015e09190620015e3565b50565b5b80821115620015fa5760008155600101620015e4565b5090565b634e487b7160e01b600052604160045260246000fd5b604080519081016001600160401b0381118282101715620016395762001639620015fe565b60405290565b604051608081016001600160401b0381118282101715620016395762001639620015fe565b604051601f8201601f191681016001600160401b03811182821017156200168f576200168f620015fe565b604052919050565b80516001600160a01b0381168114620016af57600080fd5b919050565b80516001600160401b0381168114620016af57600080fd5b600060a08284031215620016df57600080fd5b60405160a081016001600160401b0381118282101715620017045762001704620015fe565b604052905080620017158362001697565b81526200172560208401620016b4565b60208201526200173860408401620016b4565b60408201526200174b60608401620016b4565b60608201526200175e6080840162001697565b60808201525092915050565b805163ffffffff81168114620016af57600080fd5b805161ffff81168114620016af57600080fd5b600060c08284031215620017a557600080fd5b60405160c081016001600160401b0381118282101715620017ca57620017ca620015fe565b604052905080620017db8362001697565b8152620017eb6020840162001697565b6020820152620017fe604084016200176a565b60408201526200181160608401620016b4565b606082015262001824608084016200177f565b60808201526200183760a0840162001697565b60a08201525092915050565b60006001600160401b038211156200185f576200185f620015fe565b5060051b60200190565b600082601f8301126200187b57600080fd5b81516020620018946200188e8362001843565b62001664565b82815260069290921b84018101918181019086841115620018b457600080fd5b8286015b848110156200190a5760408189031215620018d35760008081fd5b620018dd62001614565b620018e88262001697565b8152620018f785830162001697565b81860152835291830191604001620018b8565b509695505050505050565b600082601f8301126200192757600080fd5b815160206200193a6200188e8362001843565b82815260059290921b840181019181810190868411156200195a57600080fd5b8286015b848110156200190a57620019728162001697565b83529183019183016200195e565b80518015158114620016af57600080fd5b80516001600160801b0381168114620016af57600080fd5b600060608284031215620019bc57600080fd5b604051606081016001600160401b0381118282101715620019e157620019e1620015fe565b604052905080620019f28362001980565b815262001a026020840162001991565b602082015262001a156040840162001991565b60408201525092915050565b600082601f83011262001a3357600080fd5b8151602062001a466200188e8362001843565b82815260079290921b8401810191818101908684111562001a6657600080fd5b8286015b848110156200190a576080818903121562001a855760008081fd5b62001a8f6200163f565b62001a9a8262001697565b815262001aa9858301620016b4565b818601526040828101516001600160601b038116811462001aca5760008081fd5b90820152606062001add8382016200176a565b9082015283529183019160800162001a6a565b600082601f83011262001b0257600080fd5b8151602062001b156200188e8362001843565b82815260079290921b8401810191818101908684111562001b3557600080fd5b8286015b848110156200190a576080818903121562001b545760008081fd5b62001b5e6200163f565b62001b698262001697565b815262001b788583016200176a565b85820152604062001b8b8184016200176a565b90820152606062001b9e8382016200177f565b9082015283529183019160800162001b39565b600082601f83011262001bc357600080fd5b8151602062001bd66200188e8362001843565b82815260069290921b8401810191818101908684111562001bf657600080fd5b8286015b848110156200190a576040818903121562001c155760008081fd5b62001c1f62001614565b62001c2a8262001697565b815262001c398583016200177f565b8186015283529183019160400162001bfa565b600080600080600080600080610260898b03121562001c6a57600080fd5b62001c768a8a620016cc565b975062001c878a60a08b0162001792565b6101608a01519097506001600160401b038082111562001ca657600080fd5b62001cb48c838d0162001869565b97506101808b015191508082111562001ccc57600080fd5b62001cda8c838d0162001915565b965062001cec8c6101a08d01620019a9565b95506102008b015191508082111562001d0457600080fd5b62001d128c838d0162001a21565b94506102208b015191508082111562001d2a57600080fd5b62001d388c838d0162001af0565b93506102408b015191508082111562001d5057600080fd5b5062001d5f8b828c0162001bb1565b9150509295985092959890939650565b634e487b7160e01b600052603260045260246000fd5b634e487b7160e01b600052601160045260246000fd5b60006001820162001db05762001db062001d85565b5060010190565b602080825282518282018190526000919060409081850190868401855b8281101562001e3157815180516001600160a01b03168552868101516001600160401b031687860152858101516001600160601b03168686015260609081015163ffffffff16908501526080909301929085019060010162001dd4565b5091979650505050505050565b602080825282518282018190526000919060409081850190868401855b8281101562001e3157815180516001600160a01b031685528681015163ffffffff9081168887015286820151168686015260609081015161ffff16908501526080909301929085019060010162001e5b565b63ffffffff81811683821601908082111562001245576200124562001d85565b6000604080830163ffffffff8616845260208281860152818651808452606087019150828801935060005b8181101562001f2c57845180516001600160a01b0316845284015161ffff1684840152938301939185019160010162001ef8565b509098975050505050505050565b808202811582820484141762000fdd5762000fdd62001d85565b60008262001f7257634e487b7160e01b600052601260045260246000fd5b500490565b6001600160601b0382811682821603908082111562001245576200124562001d85565b60006020828403121562001fad57600080fd5b5051919050565b818103600083128015838313168383128216171562001245576200124562001d85565b8181038181111562000fdd5762000fdd62001d85565b634e487b7160e01b600052603160045260246000fd5b6000602082840312156200201657600080fd5b62000fda8262001980565b60005b838110156200203e57818101518382015260200162002024565b50506000910152565b600082516200205b81846020870162002021565b9190910192915050565b60208152600082518060208401526200208681604085016020870162002021565b601f01601f19169190910160400192915050565b60805160a05160c05160e0516101005161012051615f486200216860003960008181610368015281816118150152818161189701528181611e6801528181611eea01526132a301526000818161030801528181610aa5015281816122be01526132540152600081816102d801528181611fc2015261322a01526000818161029c015281816111af01528181611c5401528181611d740152818161284b0152818161320501526133ed01526000818161033801528181612974015261327b015260006121cb0152615f486000f3fe608060405234801561001057600080fd5b506004361061025c5760003560e01c8063704b6c0211610145578063a7d3e02f116100bd578063d3c7c2c71161008c578063efeadb6d11610071578063efeadb6d14610952578063eff7cc4814610965578063f2fde38b1461096d57600080fd5b8063d3c7c2c714610922578063e0351e131461092a57600080fd5b8063a7d3e02f146108de578063b06d41bc146108f1578063c92b283214610907578063d09dc3391461091a57600080fd5b80638456cb59116101145780638da5cb5b116100f95780638da5cb5b146107bd5780639a113c36146107db578063a7cd63b7146108c957600080fd5b80638456cb59146107a2578063856c8247146107aa57600080fd5b8063704b6c02146106905780637437ff9f146106a357806376f6ae761461078757806379ba50971461079a57600080fd5b80634120fccd116101d857806354c8a4f3116101a75780635c975abb1161018c5780635c975abb146106435780635d86f1411461066a5780635ebbd9f81461067d57600080fd5b806354c8a4f3146105f1578063599f64311461060457600080fd5b80634120fccd14610539578063546719cd1461055a578063549e946f146105be57806354b71468146105d157600080fd5b806338724a951161022f5780633a87ac53116102145780633a87ac531461050b5780633b1a14031461051e5780633f4ba83a1461053157600080fd5b806338724a95146104d55780633913d5a3146104f657600080fd5b806306285c69146102615780630a6cd30d146103bb5780631772047e146103d3578063181f5a771461048c575b600080fd5b6103a56040805160a0810182526000808252602082018190529181018290526060810182905260808101919091526040518060a001604052807f000000000000000000000000000000000000000000000000000000000000000073ffffffffffffffffffffffffffffffffffffffff1681526020017f000000000000000000000000000000000000000000000000000000000000000067ffffffffffffffff1681526020017f000000000000000000000000000000000000000000000000000000000000000067ffffffffffffffff1681526020017f000000000000000000000000000000000000000000000000000000000000000067ffffffffffffffff1681526020017f000000000000000000000000000000000000000000000000000000000000000073ffffffffffffffffffffffffffffffffffffffff16815250905090565b6040516103b29190614c3a565b60405180910390f35b6103c3610980565b60405190151581526020016103b2565b61045b6103e1366004614cc1565b60408051606080820183526000808352602080840182905292840181905273ffffffffffffffffffffffffffffffffffffffff9490941684526011825292829020825193840183525463ffffffff80821685526401000000008204169184019190915268010000000000000000900461ffff169082015290565b60408051825163ffffffff9081168252602080850151909116908201529181015161ffff16908201526060016103b2565b6104c86040518060400160405280601381526020017f45564d3245564d4f6e52616d7020312e302e300000000000000000000000000081525081565b6040516103b29190614d4c565b6104e86104e3366004614d71565b610a1c565b6040519081526020016103b2565b610509610504366004614ec3565b610c87565b005b610509610519366004615001565b610d0a565b61050961052c36600461507f565b61104a565b61050961105b565b6105416110c1565b60405167ffffffffffffffff90911681526020016103b2565b6105626110f5565b6040516103b2919081516fffffffffffffffffffffffffffffffff908116825260208084015163ffffffff1690830152604080840151151590830152606080840151821690830152608092830151169181019190915260a00190565b6105096105cc366004615126565b6111a5565b6013546040516bffffffffffffffffffffffff90911681526020016103b2565b6105096105ff3660046151a4565b6113a7565b60025473ffffffffffffffffffffffffffffffffffffffff165b60405173ffffffffffffffffffffffffffffffffffffffff90911681526020016103b2565b6013547801000000000000000000000000000000000000000000000000900460ff166103c3565b61061e610678366004614cc1565b611422565b61050961068b366004615204565b61148e565b61050961069e366004614cc1565b61150e565b61077a6040805160c081018252600080825260208201819052918101829052606081018290526080810182905260a0810191909152506040805160c08101825260055473ffffffffffffffffffffffffffffffffffffffff9081168252600654808216602084015274010000000000000000000000000000000000000000810463ffffffff1693830193909352780100000000000000000000000000000000000000000000000090920467ffffffffffffffff16606082015260075461ffff8116608083015262010000900490911660a082015290565b6040516103b291906152e2565b610509610795366004615355565b6115ff565b610509611662565b61050961175f565b6105416107b8366004614cc1565b6117da565b60005473ffffffffffffffffffffffffffffffffffffffff1661061e565b6108896107e9366004614cc1565b60408051606080820183526000808352602080840182905292840181905273ffffffffffffffffffffffffffffffffffffffff949094168452601082529282902082519384018352546bffffffffffffffffffffffff811684526c01000000000000000000000000810467ffffffffffffffff169184019190915274010000000000000000000000000000000000000000900463ffffffff169082015290565b6040805182516bffffffffffffffffffffffff16815260208084015167ffffffffffffffff16908201529181015163ffffffff16908201526060016103b2565b6108d1611909565b6040516103b29190615397565b6104e86108ec3660046153f1565b6119c7565b6108f9612371565b6040516103b29291906154ac565b6105096109153660046154fc565b612482565b6104e8612504565b6108d161250e565b601354790100000000000000000000000000000000000000000000000000900460ff166103c3565b61050961096036600461556a565b6125d3565b610509612659565b61050961097b366004614cc1565b612930565b6000600560020160029054906101000a900473ffffffffffffffffffffffffffffffffffffffff1673ffffffffffffffffffffffffffffffffffffffff1663397796f76040518163ffffffff1660e01b8152600401602060405180830381865afa1580156109f2573d6000803e3d6000fd5b505050506040513d601f19601f82011682018060405250810190610a169190615587565b15905090565b6006546000908190819073ffffffffffffffffffffffffffffffffffffffff1663b10096c0610a516080870160608801614cc1565b6040517fffffffff0000000000000000000000000000000000000000000000000000000060e084901b16815273ffffffffffffffffffffffffffffffffffffffff909116600482015267ffffffffffffffff7f00000000000000000000000000000000000000000000000000000000000000001660248201526044016040805180830381865afa158015610ae9573d6000803e3d6000fd5b505050506040513d601f19601f82011682018060405250810190610b0d91906155cc565b90925090506000601081610b276080880160608901614cc1565b73ffffffffffffffffffffffffffffffffffffffff16815260208082019290925260409081016000908120825160608101845290546bffffffffffffffffffffffff81168083526c01000000000000000000000000820467ffffffffffffffff169583018690527401000000000000000000000000000000000000000090910463ffffffff1693820184905290945090929091670de0b6b3a76400009190610bda610bd560808c018c6155ff565b612941565b51610be59190615693565b610bef91906156a6565b610bf991906156bd565b610c1d9077ffffffffffffffffffffffffffffffffffffffffffffffff86166156a6565b610c279190615693565b9050610c4f610c3c6080880160608901614cc1565b85610c4a60408a018a6156f8565b612a4d565b610c7377ffffffffffffffffffffffffffffffffffffffffffffffff861683612d14565b610c7d9190615693565b9695505050505050565b60005473ffffffffffffffffffffffffffffffffffffffff163314801590610cc7575060025473ffffffffffffffffffffffffffffffffffffffff163314155b15610cfe576040517fdf938f4200000000000000000000000000000000000000000000000000000000815260040160405180910390fd5b610d0781612d4d565b50565b610d12612f1f565b60005b83811015610eb8576000858583818110610d3157610d31615760565b610d479260206040909202019081019150614cc1565b90506000868684818110610d5d57610d5d615760565b9050604002016020016020810190610d759190614cc1565b9050610d82600b83612fa2565b610dd5576040517f73913ebd00000000000000000000000000000000000000000000000000000000815273ffffffffffffffffffffffffffffffffffffffff831660048201526024015b60405180910390fd5b73ffffffffffffffffffffffffffffffffffffffff8116610df7600b84612fc4565b73ffffffffffffffffffffffffffffffffffffffff1614610e44576040517f6cc7b99800000000000000000000000000000000000000000000000000000000815260040160405180910390fd5b610e4f600b83612fe6565b15610ea5576040805173ffffffffffffffffffffffffffffffffffffffff8085168252831660208201527f987eb3c2f78454541205f72f34839b434c306c9eaf4922efd7c0c3060fdb2e4c910160405180910390a15b505080610eb19061578f565b9050610d15565b5060005b81811015611043576000838383818110610ed857610ed8615760565b610eee9260206040909202019081019150614cc1565b90506000848484818110610f0457610f04615760565b9050604002016020016020810190610f1c9190614cc1565b905073ffffffffffffffffffffffffffffffffffffffff82161580610f55575073ffffffffffffffffffffffffffffffffffffffff8116155b15610f8c576040517f6c2a418000000000000000000000000000000000000000000000000000000000815260040160405180910390fd5b610f97600b83612fa2565b15610fce576040517f3caf458500000000000000000000000000000000000000000000000000000000815260040160405180910390fd5b610fda600b8383613008565b15611030576040805173ffffffffffffffffffffffffffffffffffffffff8085168252831660208201527f95f865c2808f8b2a85eea2611db7843150ee7835ef1403f9755918a97d76933c910160405180910390a15b50508061103c9061578f565b9050610ebc565b5050505050565b611052612f1f565b610d078161302b565b611063612f1f565b601380547fffffffffffffff00ffffffffffffffffffffffffffffffffffffffffffffffff1690556040513381527f5db9ee0a495bf2e6ff9c91a7834c1ba4fdd244a5e8aa4e537bd38aeae4b073aa906020015b60405180910390a1565b6013546000906110f090700100000000000000000000000000000000900467ffffffffffffffff1660016157c7565b905090565b6040805160a0810182526000808252602082018190529181018290526060810182905260808101919091526040805160a0810182526003546fffffffffffffffffffffffffffffffff808216835270010000000000000000000000000000000080830463ffffffff1660208501527401000000000000000000000000000000000000000090920460ff1615159383019390935260045480841660608401520490911660808201526110f0906132f8565b6111ad612f1f565b7f000000000000000000000000000000000000000000000000000000000000000073ffffffffffffffffffffffffffffffffffffffff168273ffffffffffffffffffffffffffffffffffffffff160361124a576040517feddf07f500000000000000000000000000000000000000000000000000000000815273ffffffffffffffffffffffffffffffffffffffff83166004820152602401610dcc565b73ffffffffffffffffffffffffffffffffffffffff81166112af576040517f21680a0400000000000000000000000000000000000000000000000000000000815273ffffffffffffffffffffffffffffffffffffffff82166004820152602401610dcc565b60006112b96133aa565b12156112f1576040517f02075e0000000000000000000000000000000000000000000000000000000000815260040160405180910390fd5b6040517f70a082310000000000000000000000000000000000000000000000000000000081523060048201526113a390829073ffffffffffffffffffffffffffffffffffffffff8516906370a0823190602401602060405180830381865afa158015611361573d6000803e3d6000fd5b505050506040513d601f19601f8201168201806040525081019061138591906157e8565b73ffffffffffffffffffffffffffffffffffffffff85169190613477565b5050565b6113af612f1f565b61141c8484808060200260200160405190810160405280939291908181526020018383602002808284376000920191909152505060408051602080880282810182019093528782529093508792508691829185019084908082843760009201919091525061350992505050565b50505050565b600061142f600b83612fa2565b61147d576040517fbf16aab600000000000000000000000000000000000000000000000000000000815273ffffffffffffffffffffffffffffffffffffffff83166004820152602401610dcc565b611488600b83612fc4565b92915050565b60005473ffffffffffffffffffffffffffffffffffffffff1633148015906114ce575060025473ffffffffffffffffffffffffffffffffffffffff163314155b15611505576040517fdf938f4200000000000000000000000000000000000000000000000000000000815260040160405180910390fd5b610d0781613678565b60005473ffffffffffffffffffffffffffffffffffffffff16331480159061154e575060025473ffffffffffffffffffffffffffffffffffffffff163314155b15611585576040517ff6cd562000000000000000000000000000000000000000000000000000000000815260040160405180910390fd5b600280547fffffffffffffffffffffffff00000000000000000000000000000000000000001673ffffffffffffffffffffffffffffffffffffffff83169081179091556040519081527f8fe72c3e0020beb3234e76ae6676fa576fbfcae600af1c4fea44784cf0db329c906020015b60405180910390a150565b611607612f1f565b6113a38282808060200260200160405190810160405280939291908181526020016000905b828210156116585761164960408302860136819003810190615801565b8152602001906001019061162c565b5050505050613820565b60015473ffffffffffffffffffffffffffffffffffffffff1633146116e3576040517f08c379a000000000000000000000000000000000000000000000000000000000815260206004820152601660248201527f4d7573742062652070726f706f736564206f776e6572000000000000000000006044820152606401610dcc565b60008054337fffffffffffffffffffffffff00000000000000000000000000000000000000008083168217845560018054909116905560405173ffffffffffffffffffffffffffffffffffffffff90921692909183917f8be0079c531659141344cd1fd0a4f28419497f9722a3daafe3b4186f6b6457e091a350565b611767612f1f565b601380547fffffffffffffff00ffffffffffffffffffffffffffffffffffffffffffffffff1678010000000000000000000000000000000000000000000000001790556040513381527f62e78cea01bee320cd4e420270b5ea74000d11b0c9f74754ebdbfc544b05a258906020016110b7565b73ffffffffffffffffffffffffffffffffffffffff811660009081526012602052604081205467ffffffffffffffff168015801561184d57507f000000000000000000000000000000000000000000000000000000000000000073ffffffffffffffffffffffffffffffffffffffff1615155b15611488576040517f856c824700000000000000000000000000000000000000000000000000000000815273ffffffffffffffffffffffffffffffffffffffff84811660048301527f0000000000000000000000000000000000000000000000000000000000000000169063856c824790602401602060405180830381865afa1580156118de573d6000803e3d6000fd5b505050506040513d601f19601f820116820180604052508101906119029190615840565b9392505050565b60606000611917600e6139f2565b67ffffffffffffffff81111561192f5761192f614da6565b604051908082528060200260200182016040528015611958578160200160208202803683370190505b50905060005b611968600e6139f2565b8110156119c15761197a600e826139fc565b82828151811061198c5761198c615760565b73ffffffffffffffffffffffffffffffffffffffff909216602092830291909101909101526119ba8161578f565b905061195e565b50919050565b6013546000907801000000000000000000000000000000000000000000000000900460ff1615611a23576040517feced32bc00000000000000000000000000000000000000000000000000000000815260040160405180910390fd5b600560020160029054906101000a900473ffffffffffffffffffffffffffffffffffffffff1673ffffffffffffffffffffffffffffffffffffffff1663397796f76040518163ffffffff1660e01b8152600401602060405180830381865afa158015611a93573d6000803e3d6000fd5b505050506040513d601f19601f82011682018060405250810190611ab79190615587565b15611aee576040517fc148371500000000000000000000000000000000000000000000000000000000815260040160405180910390fd5b6000611b00610bd560808701876155ff565b9050611b2a611b1260208701876155ff565b8351909150611b2460408901896156f8565b87613a08565b611bab611b3a60408701876156f8565b808060200260200160405190810160405280939291908181526020016000905b82821015611b8657611b776040830286013681900381019061585d565b81526020019060010190611b5a565b505060065473ffffffffffffffffffffffffffffffffffffffff169250613c52915050565b611bb585806155ff565b9050602014611bfc57611bc885806155ff565b6040517f370d875f000000000000000000000000000000000000000000000000000000008152600401610dcc9291906158e0565b6000611c0886806155ff565b810190611c1591906158f4565b905073ffffffffffffffffffffffffffffffffffffffff811115611c3d57611bc886806155ff565b73ffffffffffffffffffffffffffffffffffffffff7f000000000000000000000000000000000000000000000000000000000000000016611c846080880160608901614cc1565b73ffffffffffffffffffffffffffffffffffffffff1603611cf55760138054869190600090611cc29084906bffffffffffffffffffffffff1661590d565b92506101000a8154816bffffffffffffffffffffffff02191690836bffffffffffffffffffffffff160217905550611e2e565b60065473ffffffffffffffffffffffffffffffffffffffff166241e5be611d226080890160608a01614cc1565b60405160e083901b7fffffffff0000000000000000000000000000000000000000000000000000000016815273ffffffffffffffffffffffffffffffffffffffff9182166004820152602481018990527f00000000000000000000000000000000000000000000000000000000000000009091166044820152606401602060405180830381865afa158015611dbb573d6000803e3d6000fd5b505050506040513d601f19601f82011682018060405250810190611ddf91906157e8565b60138054600090611dff9084906bffffffffffffffffffffffff1661590d565b92506101000a8154816bffffffffffffffffffffffff02191690836bffffffffffffffffffffffff1602179055505b73ffffffffffffffffffffffffffffffffffffffff841660009081526012602052604090205467ffffffffffffffff16158015611ea057507f000000000000000000000000000000000000000000000000000000000000000073ffffffffffffffffffffffffffffffffffffffff1615155b15611fb2576040517f856c824700000000000000000000000000000000000000000000000000000000815273ffffffffffffffffffffffffffffffffffffffff85811660048301527f0000000000000000000000000000000000000000000000000000000000000000169063856c824790602401602060405180830381865afa158015611f31573d6000803e3d6000fd5b505050506040513d601f19601f82011682018060405250810190611f559190615840565b73ffffffffffffffffffffffffffffffffffffffff8516600090815260126020526040902080547fffffffffffffffffffffffffffffffffffffffffffffffff00000000000000001667ffffffffffffffff929092169190911790555b60006040518061018001604052807f000000000000000000000000000000000000000000000000000000000000000067ffffffffffffffff1681526020016013601081819054906101000a900467ffffffffffffffff1661201290615932565b825467ffffffffffffffff9182166101009390930a8381029083021990911617909255825260208083018a905273ffffffffffffffffffffffffffffffffffffffff89166040808501829052600091825260129092529081208054606090940193909261207f9116615932565b91906101000a81548167ffffffffffffffff021916908367ffffffffffffffff160217905567ffffffffffffffff168152602001846000015181526020018460200151151581526020018373ffffffffffffffffffffffffffffffffffffffff1681526020018880602001906120f591906155ff565b8080601f01602080910402602001604051908101604052809392919081815260200183838082843760009201919091525050509082525060200161213c60408a018a6156f8565b808060200260200160405190810160405280939291908181526020016000905b82821015612188576121796040830286013681900381019061585d565b8152602001906001019061215c565b50505091835250506020016121a360808a0160608b01614cc1565b73ffffffffffffffffffffffffffffffffffffffff168152600060209091015290506121ef817f0000000000000000000000000000000000000000000000000000000000000000613e2a565b61016082015260005b61220560408901896156f8565b905081101561232a57600061221d60408a018a6156f8565b8381811061222d5761222d615760565b905060400201803603810190612243919061585d565b90506122528160000151611422565b73ffffffffffffffffffffffffffffffffffffffff166396875445886122788c806155ff565b60208087015160408051928301815260008352517fffffffff0000000000000000000000000000000000000000000000000000000060e088901b1681526122e6959493927f000000000000000000000000000000000000000000000000000000000000000091600401615959565b600060405180830381600087803b15801561230057600080fd5b505af1158015612314573d6000803e3d6000fd5b5050505050806123239061578f565b90506121f8565b507faffc45517195d6499808c643bd4a7b0ffeedf95bea5852840d7bfcf63f59e8218160405161235a9190615a0f565b60405180910390a161016001519695505050505050565b60606000806123806008613f41565b90508067ffffffffffffffff81111561239b5761239b614da6565b6040519080825280602002602001820160405280156123e057816020015b60408051808201909152600080825260208201528152602001906001900390816123b95790505b50925060005b8181101561245f576000806123fc600884613f4c565b9150915060405180604001604052808373ffffffffffffffffffffffffffffffffffffffff1681526020018261ffff1681525086848151811061244157612441615760565b60200260200101819052505050806124589061578f565b90506123e6565b505060135491926c0100000000000000000000000090920463ffffffff16919050565b60005473ffffffffffffffffffffffffffffffffffffffff1633148015906124c2575060025473ffffffffffffffffffffffffffffffffffffffff163314155b156124f9576040517ff6cd562000000000000000000000000000000000000000000000000000000000815260040160405180910390fd5b610d07600382613f6a565b60006110f06133aa565b6060600061251c600b614142565b67ffffffffffffffff81111561253457612534614da6565b60405190808252806020026020018201604052801561255d578160200160208202803683370190505b50905060005b81518110156119c157612577600b8261414d565b5082828151811061258a5761258a615760565b602002602001018173ffffffffffffffffffffffffffffffffffffffff1673ffffffffffffffffffffffffffffffffffffffff1681525050806125cc9061578f565b9050612563565b6125db612f1f565b60138054821515790100000000000000000000000000000000000000000000000000027fffffffffffff00ffffffffffffffffffffffffffffffffffffffffffffffffff9091161790556040517fccf4daf6ab6430389f26b970595dab82a5881ad454770907e415ede27c8df032906115f490831515815260200190565b60005473ffffffffffffffffffffffffffffffffffffffff163314801590612699575060025473ffffffffffffffffffffffffffffffffffffffff163314155b80156126ad57506126ab60083361415c565b155b156126e4576040517f63baed9900000000000000000000000000000000000000000000000000000000815260040160405180910390fd5b6013546c01000000000000000000000000900463ffffffff166000819003612738576040517f990e30bf00000000000000000000000000000000000000000000000000000000815260040160405180910390fd5b6013546bffffffffffffffffffffffff1663ffffffff8216811015612789576040517f8d0f71d800000000000000000000000000000000000000000000000000000000815260040160405180910390fd5b60006127936133aa565b12156127cb576040517ff4d678b800000000000000000000000000000000000000000000000000000000815260040160405180910390fd5b8060006127d86008613f41565b905060005b818110156128ed576000806127f3600884613f4c565b9092509050600063ffffffff8816612819836bffffffffffffffffffffffff8a166156a6565b61282391906156bd565b905061282f8187615b73565b955061288073ffffffffffffffffffffffffffffffffffffffff7f000000000000000000000000000000000000000000000000000000000000000016846bffffffffffffffffffffffff8416613477565b6040516bffffffffffffffffffffffff8216815273ffffffffffffffffffffffffffffffffffffffff8416907f55fdec2aab60a41fa5abb106670eb1006f5aeaee1ba7afea2bc89b5b3ec7678f9060200160405180910390a2505050806128e69061578f565b90506127dd565b5050601380547fffffffffffffffffffffffffffffffffffffffff000000000000000000000000166bffffffffffffffffffffffff929092169190911790555050565b612938612f1f565b610d078161417e565b604080518082019091526000808252602082015260008290036129a257506040805180820190915267ffffffffffffffff7f000000000000000000000000000000000000000000000000000000000000000016815260006020820152611488565b7f97a657c9000000000000000000000000000000000000000000000000000000006129d1600460008587615b98565b6129da91615bc2565b7fffffffff000000000000000000000000000000000000000000000000000000001614612a33576040517f5247fdce00000000000000000000000000000000000000000000000000000000815260040160405180910390fd5b612a408260048186615b98565b8101906119029190615c0a565b600081808203612a61576000915050612d0c565b60005b81811015612d09576000858583818110612a8057612a80615760565b905060400201803603810190612a96919061585d565b805173ffffffffffffffffffffffffffffffffffffffff1660009081526011602090815260408083208151606081018352905463ffffffff8082168352640100000000820416938201939093526801000000000000000090920461ffff169082018190529293509115612c1a578251899073ffffffffffffffffffffffffffffffffffffffff8c8116911614612bbe5760065484516040517f4ab35b0b00000000000000000000000000000000000000000000000000000000815273ffffffffffffffffffffffffffffffffffffffff9182166004820152911690634ab35b0b90602401602060405180830381865afa158015612b97573d6000803e3d6000fd5b505050506040513d601f19601f82011682018060405250810190612bbb9190615c36565b90505b6000612bf185602001518377ffffffffffffffffffffffffffffffffffffffffffffffff1661427390919063ffffffff16565b9050620186a0846040015161ffff1682612c0b91906156a6565b612c1591906156bd565b925050505b8151600090612c369063ffffffff16662386f26fc100006156a6565b90506000836020015163ffffffff16662386f26fc10000612c5791906156a6565b905081831015612c9657612c8577ffffffffffffffffffffffffffffffffffffffffffffffff8c1683612d14565b612c8f9089615693565b9750612cf3565b80831115612cc257612c8577ffffffffffffffffffffffffffffffffffffffffffffffff8c1682612d14565b612ce677ffffffffffffffffffffffffffffffffffffffffffffffff8c1684612d14565b612cf09089615693565b97505b505050505080612d029061578f565b9050612a64565b50505b949350505050565b600077ffffffffffffffffffffffffffffffffffffffffffffffff8316612d4383670de0b6b3a76400006156a6565b61190291906156bd565b60005b8151811015612eef576040518060600160405280838381518110612d7657612d76615760565b6020026020010151604001516bffffffffffffffffffffffff168152602001838381518110612da757612da7615760565b60200260200101516020015167ffffffffffffffff168152602001838381518110612dd457612dd4615760565b60200260200101516060015163ffffffff1681525060106000848481518110612dff57612dff615760565b6020908102919091018101515173ffffffffffffffffffffffffffffffffffffffff1682528181019290925260409081016000208351815493850151949092015163ffffffff1674010000000000000000000000000000000000000000027fffffffffffffffff00000000ffffffffffffffffffffffffffffffffffffffff67ffffffffffffffff9095166c01000000000000000000000000027fffffffffffffffffffffffff00000000000000000000000000000000000000009094166bffffffffffffffffffffffff909316929092179290921792909216919091179055612ee88161578f565b9050612d50565b507f1026720e82621bb6d100957028cafff5ccf24add051c05d1bd65fa1d71e0fae6816040516115f49190615c51565b60005473ffffffffffffffffffffffffffffffffffffffff163314612fa0576040517f08c379a000000000000000000000000000000000000000000000000000000000815260206004820152601660248201527f4f6e6c792063616c6c61626c65206279206f776e6572000000000000000000006044820152606401610dcc565b565b60006119028373ffffffffffffffffffffffffffffffffffffffff84166142a2565b60006119028373ffffffffffffffffffffffffffffffffffffffff84166142ae565b60006119028373ffffffffffffffffffffffffffffffffffffffff84166142ba565b6000612d0c8473ffffffffffffffffffffffffffffffffffffffff8516846142c6565b805173ffffffffffffffffffffffffffffffffffffffff1615806130675750602081015173ffffffffffffffffffffffffffffffffffffffff16155b8061308a575060a081015173ffffffffffffffffffffffffffffffffffffffff16155b156130c1576040517f35be3ac800000000000000000000000000000000000000000000000000000000815260040160405180910390fd5b8051600580547fffffffffffffffffffffffff00000000000000000000000000000000000000001673ffffffffffffffffffffffffffffffffffffffff928316179055602080830151600680546040808701516060808901519588167fffffffffffffffff000000000000000000000000000000000000000000000000909416939093177401000000000000000000000000000000000000000063ffffffff909216919091021777ffffffffffffffffffffffffffffffffffffffffffffffff16780100000000000000000000000000000000000000000000000067ffffffffffffffff95861602179092556080808701516007805460a0808b015161ffff9094167fffffffffffffffffffff000000000000000000000000000000000000000000009092169190911762010000938a1693909302929092179055835190810184527f0000000000000000000000000000000000000000000000000000000000000000871681527f00000000000000000000000000000000000000000000000000000000000000008516958101959095527f00000000000000000000000000000000000000000000000000000000000000008416858401527f0000000000000000000000000000000000000000000000000000000000000000909316908401527f00000000000000000000000000000000000000000000000000000000000000009093169082015290517fced31ba37c0c40b4dee89af78c1d148dd7e9513db4d38b140df50b6ddd0dba8e916115f4918490615ce9565b6040805160a08101825260008082526020820181905291810182905260608101829052608081019190915261338682606001516fffffffffffffffffffffffffffffffff1683600001516fffffffffffffffffffffffffffffffff16846020015163ffffffff164261336a9190615dc1565b85608001516fffffffffffffffffffffffffffffffff166142e9565b6fffffffffffffffffffffffffffffffff1682525063ffffffff4216602082015290565b6013546040517f70a082310000000000000000000000000000000000000000000000000000000081523060048201526000916bffffffffffffffffffffffff16907f000000000000000000000000000000000000000000000000000000000000000073ffffffffffffffffffffffffffffffffffffffff16906370a0823190602401602060405180830381865afa158015613449573d6000803e3d6000fd5b505050506040513d601f19601f8201168201806040525081019061346d91906157e8565b6110f09190615dd4565b6040805173ffffffffffffffffffffffffffffffffffffffff8416602482015260448082018490528251808303909101815260649091019091526020810180517bffffffffffffffffffffffffffffffffffffffffffffffffffffffff167fa9059cbb00000000000000000000000000000000000000000000000000000000179052613504908490614311565b505050565b60005b82518110156135a757600083828151811061352957613529615760565b6020026020010151905061354781600e61441d90919063ffffffff16565b156135965760405173ffffffffffffffffffffffffffffffffffffffff821681527f800671136ab6cfee9fbe5ed1fb7ca417811aca3cf864800d127b927adedf75669060200160405180910390a15b506135a08161578f565b905061350c565b5060005b81518110156135045760008282815181106135c8576135c8615760565b60200260200101519050600073ffffffffffffffffffffffffffffffffffffffff168173ffffffffffffffffffffffffffffffffffffffff160361360c5750613668565b613617600e8261443f565b156136665760405173ffffffffffffffffffffffffffffffffffffffff821681527f2640d4d76caf8bf478aabfa982fa4e1c4eb71a37f93cd15e80dbc657911546d89060200160405180910390a15b505b6136718161578f565b90506135ab565b805160005b818110156137e45760405180606001604052808483815181106136a2576136a2615760565b60200260200101516020015163ffffffff1681526020018483815181106136cb576136cb615760565b60200260200101516040015163ffffffff1681526020018483815181106136f4576136f4615760565b60200260200101516060015161ffff168152506011600085848151811061371d5761371d615760565b6020908102919091018101515173ffffffffffffffffffffffffffffffffffffffff1682528181019290925260409081016000208351815493850151949092015161ffff1668010000000000000000027fffffffffffffffffffffffffffffffffffffffffffff0000ffffffffffffffff63ffffffff958616640100000000027fffffffffffffffffffffffffffffffffffffffffffffffff0000000000000000909516959093169490941792909217169190911790556137dd8161578f565b905061367d565b507fcb0c5f472d325cf0c56953fc81870ddd80d0d3c9a3fbfe777002d75f380dfb81826040516138149190615df4565b60405180910390a15050565b6013546c01000000000000000000000000900463ffffffff161580159061386d575060135463ffffffff6c010000000000000000000000008204166bffffffffffffffffffffffff909116115b1561387a5761387a612659565b805160408111156138b7576040517fb5a10cfa00000000000000000000000000000000000000000000000000000000815260040160405180910390fd5b600860008181818181816138cb8282614c08565b50505050505050506000805b82811015613973576139338482815181106138f4576138f4615760565b60200260200101516000015185838151811061391257613912615760565b60200260200101516020015161ffff1660086144619092919063ffffffff16565b5083818151811061394657613946615760565b60200260200101516020015161ffff16826139619190615e6e565b915061396c8161578f565b90506138d7565b50601380547fffffffffffffffffffffffffffffffff00000000ffffffffffffffffffffffff166c0100000000000000000000000063ffffffff8416021790556040517f8c337bff38141c507abd25c547606bdde78fe8c12e941ab613f3a565fea6cd24906139e59083908690615e8b565b60405180910390a1505050565b6000611488825490565b60006119028383614484565b60055473ffffffffffffffffffffffffffffffffffffffff163314613a59576040517f1c0a352900000000000000000000000000000000000000000000000000000000815260040160405180910390fd5b73ffffffffffffffffffffffffffffffffffffffff8116613aa6576040517fa4ec747900000000000000000000000000000000000000000000000000000000815260040160405180910390fd5b60065474010000000000000000000000000000000000000000900463ffffffff16851115613b2a576006546040517f869337890000000000000000000000000000000000000000000000000000000081527401000000000000000000000000000000000000000090910463ffffffff16600482015260248101869052604401610dcc565b6006547801000000000000000000000000000000000000000000000000900467ffffffffffffffff16841115613b8c576040517f4c4fc93a00000000000000000000000000000000000000000000000000000000815260040160405180910390fd5b60075461ffff16821115613bcc576040517f4c056b6a00000000000000000000000000000000000000000000000000000000815260040160405180910390fd5b601354790100000000000000000000000000000000000000000000000000900460ff168015613c035750613c01600e826144ae565b155b15611043576040517fd0d2597600000000000000000000000000000000000000000000000000000000815273ffffffffffffffffffffffffffffffffffffffff82166004820152602401610dcc565b81516000805b82811015613e1e5760008473ffffffffffffffffffffffffffffffffffffffff1663d02641a0878481518110613c9057613c90615760565b6020908102919091010151516040517fffffffff0000000000000000000000000000000000000000000000000000000060e084901b16815273ffffffffffffffffffffffffffffffffffffffff90911660048201526024016040805180830381865afa158015613d04573d6000803e3d6000fd5b505050506040513d601f19601f82011682018060405250810190613d289190615eaa565b51905077ffffffffffffffffffffffffffffffffffffffffffffffff8116600003613db657858281518110613d5f57613d5f615760565b6020908102919091010151516040517f9a655f7b00000000000000000000000000000000000000000000000000000000815273ffffffffffffffffffffffffffffffffffffffff9091166004820152602401610dcc565b613e00868381518110613dcb57613dcb615760565b6020026020010151602001518277ffffffffffffffffffffffffffffffffffffffffffffffff1661427390919063ffffffff16565b613e0a9084615693565b92505080613e179061578f565b9050613c58565b5061141c6003826144dd565b60008060001b828460200151856080015186606001518760e0015188610100015180519060200120896101200151604051602001613e689190615edd565b604051602081830303815290604052805190602001208a60a001518b60c001518c61014001518d60400151604051602001613f239c9b9a999897969594939291909b8c5260208c019a909a5267ffffffffffffffff98891660408c01529690971660608a015273ffffffffffffffffffffffffffffffffffffffff94851660808a015292841660a089015260c088019190915260e0870152610100860152911515610120850152166101408301526101608201526101800190565b60405160208183030381529060405280519060200120905092915050565b60006114888261476c565b6000808080613f5b8686614777565b909450925050505b9250929050565b8154600090613f9390700100000000000000000000000000000000900463ffffffff1642615dc1565b905080156140355760018301548354613fdb916fffffffffffffffffffffffffffffffff808216928116918591700100000000000000000000000000000000909104166142e9565b83546fffffffffffffffffffffffffffffffff919091167fffffffffffffffffffffffff0000000000000000000000000000000000000000909116177001000000000000000000000000000000004263ffffffff16021783555b6020820151835461405b916fffffffffffffffffffffffffffffffff90811691166147a2565b83548351151574010000000000000000000000000000000000000000027fffffffffffffffffffffff00ffffffff000000000000000000000000000000009091166fffffffffffffffffffffffffffffffff92831617178455602083015160408085015183167001000000000000000000000000000000000291909216176001850155517f9ea3374b67bf275e6bb9c8ae68f9cae023e1c528b4b27e092f0bb209d3531c19906139e59084908151151581526020808301516fffffffffffffffffffffffffffffffff90811691830191909152604092830151169181019190915260600190565b600061148882613f41565b6000808080613f5b8686613f4c565b60006119028373ffffffffffffffffffffffffffffffffffffffff84166147b8565b3373ffffffffffffffffffffffffffffffffffffffff8216036141fd576040517f08c379a000000000000000000000000000000000000000000000000000000000815260206004820152601760248201527f43616e6e6f74207472616e7366657220746f2073656c660000000000000000006044820152606401610dcc565b600180547fffffffffffffffffffffffff00000000000000000000000000000000000000001673ffffffffffffffffffffffffffffffffffffffff83811691821790925560008054604051929316917fed8889f560326eb138920d842192f0eb3dd22b4f139c87a2c57538e05bae12789190a350565b6000670de0b6b3a7640000612d438377ffffffffffffffffffffffffffffffffffffffffffffffff86166156a6565b600061190283836147b8565b600061190283836147c4565b6000611902838361484e565b6000612d0c848473ffffffffffffffffffffffffffffffffffffffff851661486b565b6000614308856142f984866156a6565b6143039087615693565b6147a2565b95945050505050565b6000614373826040518060400160405280602081526020017f5361666545524332303a206c6f772d6c6576656c2063616c6c206661696c65648152508573ffffffffffffffffffffffffffffffffffffffff166148889092919063ffffffff16565b80519091501561350457808060200190518101906143919190615587565b613504576040517f08c379a000000000000000000000000000000000000000000000000000000000815260206004820152602a60248201527f5361666545524332303a204552433230206f7065726174696f6e20646964206e60448201527f6f742073756363656564000000000000000000000000000000000000000000006064820152608401610dcc565b60006119028373ffffffffffffffffffffffffffffffffffffffff8416614897565b60006119028373ffffffffffffffffffffffffffffffffffffffff8416614991565b6000612d0c8473ffffffffffffffffffffffffffffffffffffffff85168461486b565b600082600001828154811061449b5761449b615760565b9060005260206000200154905092915050565b73ffffffffffffffffffffffffffffffffffffffff811660009081526001830160205260408120541515611902565b815474010000000000000000000000000000000000000000900460ff161580614504575080155b1561450d575050565b815460018301546fffffffffffffffffffffffffffffffff8083169291169060009061455390700100000000000000000000000000000000900463ffffffff1642615dc1565b905080156146135781831115614595576040517f9725942a00000000000000000000000000000000000000000000000000000000815260040160405180910390fd5b60018501546145cf9083908590849070010000000000000000000000000000000090046fffffffffffffffffffffffffffffffff166142e9565b85547fffffffffffffffffffffffff00000000ffffffffffffffffffffffffffffffff167001000000000000000000000000000000004263ffffffff160217865592505b83821015614657576040517f48369c430000000000000000000000000000000000000000000000000000000081526004810183905260248101859052604401610dcc565b838310156146eb5760018581015470010000000000000000000000000000000090046fffffffffffffffffffffffffffffffff169081906146989082615dc1565b6146a28688615dc1565b6146ac9190615693565b6146b691906156bd565b6040517fdc96cefa000000000000000000000000000000000000000000000000000000008152600401610dcc91815260200190565b6146f58484615dc1565b85547fffffffffffffffffffffffffffffffff00000000000000000000000000000000166fffffffffffffffffffffffffffffffff82161786556040518581529093507f1871cdf8010e63f2eb8384381a68dfa7416dc571a5517e66e88b2d2d0c0a690a9060200160405180910390a15050505050565b6000611488826139f2565b6000808061478585856139fc565b600081815260029690960160205260409095205494959350505050565b60008183106147b15781611902565b5090919050565b600061190283836149e0565b6000818152600283016020526040812054801515806147e857506147e884846147b8565b611902576040517f08c379a000000000000000000000000000000000000000000000000000000000815260206004820152601e60248201527f456e756d657261626c654d61703a206e6f6e6578697374656e74206b657900006044820152606401610dcc565b6000818152600283016020526040812081905561190283836149f8565b60008281526002840160205260408120829055612d0c8484614a04565b6060612d0c8484600085614a10565b600081815260018301602052604081205480156149805760006148bb600183615dc1565b85549091506000906148cf90600190615dc1565b90508181146149345760008660000182815481106148ef576148ef615760565b906000526020600020015490508087600001848154811061491257614912615760565b6000918252602080832090910192909255918252600188019052604090208390555b855486908061494557614945615ef0565b600190038181906000526020600020016000905590558560010160008681526020019081526020016000206000905560019350505050611488565b6000915050611488565b5092915050565b60008181526001830160205260408120546149d857508154600181810184556000848152602080822090930184905584548482528286019093526040902091909155611488565b506000611488565b60008181526001830160205260408120541515611902565b60006119028383614897565b60006119028383614991565b606082471015614aa2576040517f08c379a000000000000000000000000000000000000000000000000000000000815260206004820152602660248201527f416464726573733a20696e73756666696369656e742062616c616e636520666f60448201527f722063616c6c00000000000000000000000000000000000000000000000000006064820152608401610dcc565b6000808673ffffffffffffffffffffffffffffffffffffffff168587604051614acb9190615f1f565b60006040518083038185875af1925050503d8060008114614b08576040519150601f19603f3d011682016040523d82523d6000602084013e614b0d565b606091505b5091509150614b1e87838387614b29565b979650505050505050565b60608315614bbf578251600003614bb85773ffffffffffffffffffffffffffffffffffffffff85163b614bb8576040517f08c379a000000000000000000000000000000000000000000000000000000000815260206004820152601d60248201527f416464726573733a2063616c6c20746f206e6f6e2d636f6e74726163740000006044820152606401610dcc565b5081612d0c565b612d0c8383815115614bd45781518083602001fd5b806040517f08c379a0000000000000000000000000000000000000000000000000000000008152600401610dcc9190614d4c565b5080546000825590600052602060002090810190610d0791905b80821115614c365760008155600101614c22565b5090565b60a08101611488828473ffffffffffffffffffffffffffffffffffffffff808251168352602082015167ffffffffffffffff80821660208601528060408501511660408601528060608501511660608601525050806080830151166080840152505050565b73ffffffffffffffffffffffffffffffffffffffff81168114610d0757600080fd5b600060208284031215614cd357600080fd5b813561190281614c9f565b60005b83811015614cf9578181015183820152602001614ce1565b50506000910152565b60008151808452614d1a816020860160208601614cde565b601f017fffffffffffffffffffffffffffffffffffffffffffffffffffffffffffffffe0169290920160200192915050565b6020815260006119026020830184614d02565b600060a082840312156119c157600080fd5b600060208284031215614d8357600080fd5b813567ffffffffffffffff811115614d9a57600080fd5b612d0c84828501614d5f565b7f4e487b7100000000000000000000000000000000000000000000000000000000600052604160045260246000fd5b6040516080810167ffffffffffffffff81118282101715614df857614df8614da6565b60405290565b6040805190810167ffffffffffffffff81118282101715614df857614df8614da6565b604051601f82017fffffffffffffffffffffffffffffffffffffffffffffffffffffffffffffffe016810167ffffffffffffffff81118282101715614e6857614e68614da6565b604052919050565b600067ffffffffffffffff821115614e8a57614e8a614da6565b5060051b60200190565b67ffffffffffffffff81168114610d0757600080fd5b803563ffffffff81168114614ebe57600080fd5b919050565b60006020808385031215614ed657600080fd5b823567ffffffffffffffff811115614eed57600080fd5b8301601f81018513614efe57600080fd5b8035614f11614f0c82614e70565b614e21565b81815260079190911b82018301908381019087831115614f3057600080fd5b928401925b82841015614b1e5760808489031215614f4e5760008081fd5b614f56614dd5565b8435614f6181614c9f565b815284860135614f7081614e94565b818701526040858101356bffffffffffffffffffffffff81168114614f955760008081fd5b908201526060614fa6868201614eaa565b9082015282526080939093019290840190614f35565b60008083601f840112614fce57600080fd5b50813567ffffffffffffffff811115614fe657600080fd5b6020830191508360208260061b8501011115613f6357600080fd5b6000806000806040858703121561501757600080fd5b843567ffffffffffffffff8082111561502f57600080fd5b61503b88838901614fbc565b9096509450602087013591508082111561505457600080fd5b5061506187828801614fbc565b95989497509550505050565b803561ffff81168114614ebe57600080fd5b600060c0828403121561509157600080fd5b60405160c0810181811067ffffffffffffffff821117156150b4576150b4614da6565b60405282356150c281614c9f565b815260208301356150d281614c9f565b60208201526150e360408401614eaa565b604082015260608301356150f681614e94565b60608201526151076080840161506d565b608082015260a083013561511a81614c9f565b60a08201529392505050565b6000806040838503121561513957600080fd5b823561514481614c9f565b9150602083013561515481614c9f565b809150509250929050565b60008083601f84011261517157600080fd5b50813567ffffffffffffffff81111561518957600080fd5b6020830191508360208260051b8501011115613f6357600080fd5b600080600080604085870312156151ba57600080fd5b843567ffffffffffffffff808211156151d257600080fd5b6151de8883890161515f565b909650945060208701359150808211156151f757600080fd5b506150618782880161515f565b6000602080838503121561521757600080fd5b823567ffffffffffffffff81111561522e57600080fd5b8301601f8101851361523f57600080fd5b803561524d614f0c82614e70565b81815260079190911b8201830190838101908783111561526c57600080fd5b928401925b82841015614b1e576080848903121561528a5760008081fd5b615292614dd5565b843561529d81614c9f565b81526152aa858701614eaa565b8682015260406152bb818701614eaa565b9082015260606152cc86820161506d565b9082015282526080939093019290840190615271565b60c08101611488828473ffffffffffffffffffffffffffffffffffffffff80825116835280602083015116602084015263ffffffff604083015116604084015267ffffffffffffffff606083015116606084015261ffff60808301511660808401528060a08301511660a0840152505050565b6000806020838503121561536857600080fd5b823567ffffffffffffffff81111561537f57600080fd5b61538b85828601614fbc565b90969095509350505050565b6020808252825182820181905260009190848201906040850190845b818110156153e557835173ffffffffffffffffffffffffffffffffffffffff16835292840192918401916001016153b3565b50909695505050505050565b60008060006060848603121561540657600080fd5b833567ffffffffffffffff81111561541d57600080fd5b61542986828701614d5f565b93505060208401359150604084013561544181614c9f565b809150509250925092565b600081518084526020808501945080840160005b838110156154a1578151805173ffffffffffffffffffffffffffffffffffffffff16885283015161ffff168388015260409096019590820190600101615460565b509495945050505050565b6040815260006154bf604083018561544c565b90508260208301529392505050565b8015158114610d0757600080fd5b80356fffffffffffffffffffffffffffffffff81168114614ebe57600080fd5b60006060828403121561550e57600080fd5b6040516060810181811067ffffffffffffffff8211171561553157615531614da6565b604052823561553f816154ce565b815261554d602084016154dc565b602082015261555e604084016154dc565b60408201529392505050565b60006020828403121561557c57600080fd5b8135611902816154ce565b60006020828403121561559957600080fd5b8151611902816154ce565b805177ffffffffffffffffffffffffffffffffffffffffffffffff81168114614ebe57600080fd5b600080604083850312156155df57600080fd5b6155e8836155a4565b91506155f6602084016155a4565b90509250929050565b60008083357fffffffffffffffffffffffffffffffffffffffffffffffffffffffffffffffe184360301811261563457600080fd5b83018035915067ffffffffffffffff82111561564f57600080fd5b602001915036819003821315613f6357600080fd5b7f4e487b7100000000000000000000000000000000000000000000000000000000600052601160045260246000fd5b8082018082111561148857611488615664565b808202811582820484141761148857611488615664565b6000826156f3577f4e487b7100000000000000000000000000000000000000000000000000000000600052601260045260246000fd5b500490565b60008083357fffffffffffffffffffffffffffffffffffffffffffffffffffffffffffffffe184360301811261572d57600080fd5b83018035915067ffffffffffffffff82111561574857600080fd5b6020019150600681901b3603821315613f6357600080fd5b7f4e487b7100000000000000000000000000000000000000000000000000000000600052603260045260246000fd5b60007fffffffffffffffffffffffffffffffffffffffffffffffffffffffffffffffff82036157c0576157c0615664565b5060010190565b67ffffffffffffffff81811683821601908082111561498a5761498a615664565b6000602082840312156157fa57600080fd5b5051919050565b60006040828403121561581357600080fd5b61581b614dfe565b823561582681614c9f565b81526158346020840161506d565b60208201529392505050565b60006020828403121561585257600080fd5b815161190281614e94565b60006040828403121561586f57600080fd5b615877614dfe565b823561588281614c9f565b81526020928301359281019290925250919050565b8183528181602085013750600060208284010152600060207fffffffffffffffffffffffffffffffffffffffffffffffffffffffffffffffe0601f840116840101905092915050565b602081526000612d0c602083018486615897565b60006020828403121561590657600080fd5b5035919050565b6bffffffffffffffffffffffff81811683821601908082111561498a5761498a615664565b600067ffffffffffffffff80831681810361594f5761594f615664565b6001019392505050565b73ffffffffffffffffffffffffffffffffffffffff8716815260a06020820152600061598960a083018789615897565b85604084015267ffffffffffffffff8516606084015282810360808401526159b18185614d02565b9998505050505050505050565b600081518084526020808501945080840160005b838110156154a1578151805173ffffffffffffffffffffffffffffffffffffffff16885283015183880152604090960195908201906001016159d2565b60208152615a2a60208201835167ffffffffffffffff169052565b60006020830151615a47604084018267ffffffffffffffff169052565b50604083015160608301526060830151615a79608084018273ffffffffffffffffffffffffffffffffffffffff169052565b50608083015167ffffffffffffffff811660a08401525060a083015160c083015260c0830151615aad60e084018215159052565b5060e0830151610100615ad78185018373ffffffffffffffffffffffffffffffffffffffff169052565b808501519150506101806101208181860152615af76101a0860184614d02565b92508086015190506101407fffffffffffffffffffffffffffffffffffffffffffffffffffffffffffffffe08685030181870152615b3584836159be565b935080870151915050610160615b628187018373ffffffffffffffffffffffffffffffffffffffff169052565b959095015193019290925250919050565b6bffffffffffffffffffffffff82811682821603908082111561498a5761498a615664565b60008085851115615ba857600080fd5b83861115615bb557600080fd5b5050820193919092039150565b7fffffffff000000000000000000000000000000000000000000000000000000008135818116916004851015615c025780818660040360031b1b83161692505b505092915050565b600060408284031215615c1c57600080fd5b615c24614dfe565b823581526020830135615834816154ce565b600060208284031215615c4857600080fd5b611902826155a4565b602080825282518282018190526000919060409081850190868401855b82811015615cdc578151805173ffffffffffffffffffffffffffffffffffffffff1685528681015167ffffffffffffffff1687860152858101516bffffffffffffffffffffffff168686015260609081015163ffffffff169085015260809093019290850190600101615c6e565b5091979650505050505050565b6101608101615d4f828573ffffffffffffffffffffffffffffffffffffffff808251168352602082015167ffffffffffffffff80821660208601528060408501511660408601528060608501511660608601525050806080830151166080840152505050565b825173ffffffffffffffffffffffffffffffffffffffff90811660a0848101919091526020850151821660c0850152604085015163ffffffff1660e0850152606085015167ffffffffffffffff16610100850152608085015161ffff1661012085015284015116610140830152611902565b8181038181111561148857611488615664565b818103600083128015838313168383128216171561498a5761498a615664565b602080825282518282018190526000919060409081850190868401855b82811015615cdc578151805173ffffffffffffffffffffffffffffffffffffffff1685528681015163ffffffff9081168887015286820151168686015260609081015161ffff169085015260809093019290850190600101615e11565b63ffffffff81811683821601908082111561498a5761498a615664565b63ffffffff83168152604060208201526000612d0c604083018461544c565b600060408284031215615ebc57600080fd5b615ec4614dfe565b615ecd836155a4565b8152602083015161583481614e94565b60208152600061190260208301846159be565b7f4e487b7100000000000000000000000000000000000000000000000000000000600052603160045260246000fd5b60008251615f31818460208701614cde565b919091019291505056fea164736f6c6343000813000a",
    "linkReferences": {}
  },
  "methodIdentifiers": {
    "acceptOwnership()": "79ba5097",
    "applyAllowListUpdates(address[],address[])": "54c8a4f3",
    "applyPoolUpdates((address,address)[],(address,address)[])": "3a87ac53",
    "currentRateLimiterState()": "546719cd",
    "forwardFromRouter((bytes,bytes,(address,uint256)[],address,bytes),uint256,address)": "a7d3e02f",
    "getAllowList()": "a7cd63b7",
    "getAllowListEnabled()": "e0351e13",
    "getDynamicConfig()": "7437ff9f",
    "getExpectedNextSequenceNumber()": "4120fccd",
    "getFee((bytes,bytes,(address,uint256)[],address,bytes))": "38724a95",
    "getFeeTokenConfig(address)": "9a113c36",
    "getNopFeesJuels()": "54b71468",
    "getNops()": "b06d41bc",
    "getPoolBySourceToken(address)": "5d86f141",
    "getSenderNonce(address)": "856c8247",
    "getStaticConfig()": "06285c69",
    "getSupportedTokens()": "d3c7c2c7",
    "getTokenLimitAdmin()": "599f6431",
    "getTokenTransferFeeConfig(address)": "1772047e",
    "isARMHealthy()": "0a6cd30d",
    "linkAvailableForPayment()": "d09dc339",
    "owner()": "8da5cb5b",
    "pause()": "8456cb59",
    "paused()": "5c975abb",
    "payNops()": "eff7cc48",
    "setAdmin(address)": "704b6c02",
    "setAllowListEnabled(bool)": "efeadb6d",
    "setDynamicConfig((address,address,uint32,uint64,uint16,address))": "3b1a1403",
    "setFeeTokenConfig((address,uint64,uint96,uint32)[])": "3913d5a3",
    "setNops((address,uint16)[])": "76f6ae76",
    "setRateLimiterConfig((bool,uint128,uint128))": "c92b2832",
    "setTokenTransferFeeConfig((address,uint32,uint32,uint16)[])": "5ebbd9f8",
    "transferOwnership(address)": "f2fde38b",
    "typeAndVersion()": "181f5a77",
    "unpause()": "3f4ba83a",
    "withdrawNonLinkFees(address,address)": "549e946f"
  },
  "id": 34
}