{
  "abi": [
    {
      "inputs": [
        {
          "internalType": "contract IBurnMintERC20",
          "name": "token",
          "type": "address"
        },
        {
          "components": [
            {
              "internalType": "bool",
              "name": "isEnabled",
              "type": "bool"
            },
            {
              "internalType": "uint128",
              "name": "capacity",
              "type": "uint128"
            },
            {
              "internalType": "uint128",
              "name": "rate",
              "type": "uint128"
            }
          ],
          "internalType": "struct RateLimiter.Config",
          "name": "rateLimiterConfig",
          "type": "tuple"
        }
      ],
      "stateMutability": "nonpayable",
      "type": "constructor"
    },
    {
      "inputs": [],
      "name": "BucketOverfilled",
      "type": "error"
    },
    {
      "inputs": [
        {
          "internalType": "uint256",
          "name": "capacity",
          "type": "uint256"
        },
        {
          "internalType": "uint256",
          "name": "requested",
          "type": "uint256"
        }
      ],
      "name": "ConsumingMoreThanMaxCapacity",
      "type": "error"
    },
    {
      "inputs": [],
      "name": "NullAddressNotAllowed",
      "type": "error"
    },
    {
      "inputs": [],
      "name": "PermissionsError",
      "type": "error"
    },
    {
      "inputs": [
        {
          "internalType": "uint256",
          "name": "waitInSeconds",
          "type": "uint256"
        }
      ],
      "name": "RateLimitReached",
      "type": "error"
    },
    {
      "anonymous": false,
      "inputs": [
        {
          "indexed": true,
          "internalType": "address",
          "name": "sender",
          "type": "address"
        },
        {
          "indexed": false,
          "internalType": "uint256",
          "name": "amount",
          "type": "uint256"
        }
      ],
      "name": "Burned",
      "type": "event"
    },
    {
      "anonymous": false,
      "inputs": [
        {
          "indexed": true,
          "internalType": "address",
          "name": "sender",
          "type": "address"
        },
        {
          "indexed": false,
          "internalType": "uint256",
          "name": "amount",
          "type": "uint256"
        }
      ],
      "name": "Locked",
      "type": "event"
    },
    {
      "anonymous": false,
      "inputs": [
        {
          "indexed": true,
          "internalType": "address",
          "name": "sender",
          "type": "address"
        },
        {
          "indexed": true,
          "internalType": "address",
          "name": "recipient",
          "type": "address"
        },
        {
          "indexed": false,
          "internalType": "uint256",
          "name": "amount",
          "type": "uint256"
        }
      ],
      "name": "Minted",
      "type": "event"
    },
    {
      "anonymous": false,
      "inputs": [
        {
          "indexed": false,
          "internalType": "address",
          "name": "onRamp",
          "type": "address"
        },
        {
          "indexed": false,
          "internalType": "bool",
          "name": "allowed",
          "type": "bool"
        }
      ],
      "name": "OffRampAllowanceSet",
      "type": "event"
    },
    {
      "anonymous": false,
      "inputs": [
        {
          "indexed": false,
          "internalType": "address",
          "name": "onRamp",
          "type": "address"
        },
        {
          "indexed": false,
          "internalType": "bool",
          "name": "allowed",
          "type": "bool"
        }
      ],
      "name": "OnRampAllowanceSet",
      "type": "event"
    },
    {
      "anonymous": false,
      "inputs": [
        {
          "indexed": true,
          "internalType": "address",
          "name": "from",
          "type": "address"
        },
        {
          "indexed": true,
          "internalType": "address",
          "name": "to",
          "type": "address"
        }
      ],
      "name": "OwnershipTransferRequested",
      "type": "event"
    },
    {
      "anonymous": false,
      "inputs": [
        {
          "indexed": true,
          "internalType": "address",
          "name": "from",
          "type": "address"
        },
        {
          "indexed": true,
          "internalType": "address",
          "name": "to",
          "type": "address"
        }
      ],
      "name": "OwnershipTransferred",
      "type": "event"
    },
    {
      "anonymous": false,
      "inputs": [
        {
          "indexed": false,
          "internalType": "address",
          "name": "account",
          "type": "address"
        }
      ],
      "name": "Paused",
      "type": "event"
    },
    {
      "anonymous": false,
      "inputs": [
        {
          "indexed": true,
          "internalType": "address",
          "name": "sender",
          "type": "address"
        },
        {
          "indexed": true,
          "internalType": "address",
          "name": "recipient",
          "type": "address"
        },
        {
          "indexed": false,
          "internalType": "uint256",
          "name": "amount",
          "type": "uint256"
        }
      ],
      "name": "Released",
      "type": "event"
    },
    {
      "anonymous": false,
      "inputs": [
        {
          "indexed": false,
          "internalType": "address",
          "name": "account",
          "type": "address"
        }
      ],
      "name": "Unpaused",
      "type": "event"
    },
    {
      "inputs": [],
      "name": "acceptOwnership",
      "outputs": [],
      "stateMutability": "nonpayable",
      "type": "function"
    },
    {
      "inputs": [
        {
          "components": [
            {
              "internalType": "address",
              "name": "ramp",
              "type": "address"
            },
            {
              "internalType": "bool",
              "name": "allowed",
              "type": "bool"
            }
          ],
          "internalType": "struct TokenPool.RampUpdate[]",
          "name": "onRamps",
          "type": "tuple[]"
        },
        {
          "components": [
            {
              "internalType": "address",
              "name": "ramp",
              "type": "address"
            },
            {
              "internalType": "bool",
              "name": "allowed",
              "type": "bool"
            }
          ],
          "internalType": "struct TokenPool.RampUpdate[]",
          "name": "offRamps",
          "type": "tuple[]"
        }
      ],
      "name": "applyRampUpdates",
      "outputs": [],
      "stateMutability": "nonpayable",
      "type": "function"
    },
    {
      "inputs": [],
      "name": "currentRateLimiterState",
      "outputs": [
        {
          "components": [
            {
              "internalType": "uint128",
              "name": "tokens",
              "type": "uint128"
            },
            {
              "internalType": "uint32",
              "name": "lastUpdated",
              "type": "uint32"
            },
            {
              "internalType": "bool",
              "name": "isEnabled",
              "type": "bool"
            },
            {
              "internalType": "uint128",
              "name": "capacity",
              "type": "uint128"
            },
            {
              "internalType": "uint128",
              "name": "rate",
              "type": "uint128"
            }
          ],
          "internalType": "struct RateLimiter.TokenBucket",
          "name": "",
          "type": "tuple"
        }
      ],
      "stateMutability": "view",
      "type": "function"
    },
    {
      "inputs": [],
      "name": "getToken",
      "outputs": [
        {
          "internalType": "contract IERC20",
          "name": "token",
          "type": "address"
        }
      ],
      "stateMutability": "view",
      "type": "function"
    },
    {
      "inputs": [
        {
          "internalType": "address",
          "name": "offRamp",
          "type": "address"
        }
      ],
      "name": "isOffRamp",
      "outputs": [
        {
          "internalType": "bool",
          "name": "",
          "type": "bool"
        }
      ],
      "stateMutability": "view",
      "type": "function"
    },
    {
      "inputs": [
        {
          "internalType": "address",
          "name": "onRamp",
          "type": "address"
        }
      ],
      "name": "isOnRamp",
      "outputs": [
        {
          "internalType": "bool",
          "name": "",
          "type": "bool"
        }
      ],
      "stateMutability": "view",
      "type": "function"
    },
    {
      "inputs": [
        {
          "internalType": "address",
          "name": "",
          "type": "address"
        },
        {
          "internalType": "bytes",
          "name": "",
          "type": "bytes"
        },
        {
          "internalType": "uint256",
          "name": "amount",
          "type": "uint256"
        },
        {
          "internalType": "uint64",
          "name": "",
          "type": "uint64"
        },
        {
          "internalType": "bytes",
          "name": "",
          "type": "bytes"
        }
      ],
      "name": "lockOrBurn",
      "outputs": [],
      "stateMutability": "nonpayable",
      "type": "function"
    },
    {
      "inputs": [],
      "name": "owner",
      "outputs": [
        {
          "internalType": "address",
          "name": "",
          "type": "address"
        }
      ],
      "stateMutability": "view",
      "type": "function"
    },
    {
      "inputs": [],
      "name": "pause",
      "outputs": [],
      "stateMutability": "nonpayable",
      "type": "function"
    },
    {
      "inputs": [],
      "name": "paused",
      "outputs": [
        {
          "internalType": "bool",
          "name": "",
          "type": "bool"
        }
      ],
      "stateMutability": "view",
      "type": "function"
    },
    {
      "inputs": [
        {
          "internalType": "bytes",
          "name": "",
          "type": "bytes"
        },
        {
          "internalType": "address",
          "name": "receiver",
          "type": "address"
        },
        {
          "internalType": "uint256",
          "name": "amount",
          "type": "uint256"
        },
        {
          "internalType": "uint64",
          "name": "",
          "type": "uint64"
        },
        {
          "internalType": "bytes",
          "name": "",
          "type": "bytes"
        }
      ],
      "name": "releaseOrMint",
      "outputs": [],
      "stateMutability": "nonpayable",
      "type": "function"
    },
    {
      "inputs": [
        {
          "components": [
            {
              "internalType": "bool",
              "name": "isEnabled",
              "type": "bool"
            },
            {
              "internalType": "uint128",
              "name": "capacity",
              "type": "uint128"
            },
            {
              "internalType": "uint128",
              "name": "rate",
              "type": "uint128"
            }
          ],
          "internalType": "struct RateLimiter.Config",
          "name": "config",
          "type": "tuple"
        }
      ],
      "name": "setRateLimiterConfig",
      "outputs": [],
      "stateMutability": "nonpayable",
      "type": "function"
    },
    {
      "inputs": [
        {
          "internalType": "bytes4",
          "name": "interfaceId",
          "type": "bytes4"
        }
      ],
      "name": "supportsInterface",
      "outputs": [
        {
          "internalType": "bool",
          "name": "",
          "type": "bool"
        }
      ],
      "stateMutability": "pure",
      "type": "function"
    },
    {
      "inputs": [
        {
          "internalType": "address",
          "name": "to",
          "type": "address"
        }
      ],
      "name": "transferOwnership",
      "outputs": [],
      "stateMutability": "nonpayable",
      "type": "function"
    },
    {
      "inputs": [],
      "name": "unpause",
      "outputs": [],
      "stateMutability": "nonpayable",
      "type": "function"
    }
  ],
  "bytecode": {
    "object": "0x60a06040523480156200001157600080fd5b5060405162001e9938038062001e998339810160408190526200003491620002da565b818133806000816200008d5760405162461bcd60e51b815260206004820152601860248201527f43616e6e6f7420736574206f776e657220746f207a65726f000000000000000060448201526064015b60405180910390fd5b600080546001600160a01b0319166001600160a01b0384811691909117909155811615620000c057620000c08162000201565b50506001805460ff60a01b19169055506001600160a01b038216620000f857604051634655efd160e11b815260040160405180910390fd5b6040805160a081018252602083810180516001600160801b039081168085524263ffffffff16938501849052865115158587018190529251821660608601819052968601519091166080948501819052600680546001600160a01b031916909217600160801b9485021760ff60a01b1916600160a01b909302929092179055029092176007556001600160a01b039283169091525163095ea7b360e01b815230600482015260001960248201529083169063095ea7b3906044016020604051808303816000875af1158015620001d2573d6000803e3d6000fd5b505050506040513d601f19601f82011682018060405250810190620001f8919062000392565b505050620003b7565b336001600160a01b038216036200025b5760405162461bcd60e51b815260206004820152601760248201527f43616e6e6f74207472616e7366657220746f2073656c66000000000000000000604482015260640162000084565b600180546001600160a01b0319166001600160a01b0383811691821790925560008054604051929316917fed8889f560326eb138920d842192f0eb3dd22b4f139c87a2c57538e05bae12789190a350565b80518015158114620002bd57600080fd5b919050565b80516001600160801b0381168114620002bd57600080fd5b6000808284036080811215620002ef57600080fd5b83516001600160a01b03811681146200030757600080fd5b92506060601f19820112156200031c57600080fd5b50604051606081016001600160401b03811182821017156200034e57634e487b7160e01b600052604160045260246000fd5b6040526200035f60208501620002ac565b81526200036f60408501620002c2565b60208201526200038260608501620002c2565b6040820152809150509250929050565b600060208284031215620003a557600080fd5b620003b082620002ac565b9392505050565b608051611ab8620003e160003960008181610137015281816105d501526106fb0152611ab86000f3fe608060405234801561001057600080fd5b50600436106100f55760003560e01c806379ba50971161009757806396875445116100665780639687544514610261578063af51911214610274578063c92b283214610287578063f2fde38b1461029a57600080fd5b806379ba5097146102205780638456cb59146102285780638627fad6146102305780638da5cb5b1461024357600080fd5b80633f4ba83a116100d35780633f4ba83a1461017c578063546719cd146101865780635c975abb146101ea5780636f32b8721461020d57600080fd5b806301ffc9a7146100fa5780631d7a74a01461012257806321df0da714610135575b600080fd5b61010d610108366004611473565b6102ad565b60405190151581526020015b60405180910390f35b61010d6101303660046114de565b610346565b7f00000000000000000000000000000000000000000000000000000000000000005b60405173ffffffffffffffffffffffffffffffffffffffff9091168152602001610119565b610184610353565b005b61018e610365565b604051610119919081516fffffffffffffffffffffffffffffffff908116825260208084015163ffffffff1690830152604080840151151590830152606080840151821690830152608092830151169181019190915260a00190565b60015474010000000000000000000000000000000000000000900460ff1661010d565b61010d61021b3660046114de565b61041a565b610184610427565b610184610529565b61018461023e366004611646565b610539565b60005473ffffffffffffffffffffffffffffffffffffffff16610157565b61018461026f36600461171e565b610685565b61018461028236600461187e565b6107aa565b610184610295366004611902565b6109ba565b6101846102a83660046114de565b6109d0565b60007fffffffff0000000000000000000000000000000000000000000000000000000082167f317fa33400000000000000000000000000000000000000000000000000000000148061034057507fffffffff0000000000000000000000000000000000000000000000000000000082167f01ffc9a700000000000000000000000000000000000000000000000000000000145b92915050565b60006103406004836109e1565b61035b610a13565b610363610a94565b565b6040805160a0810182526000808252602082018190529181018290526060810182905260808101919091526040805160a0810182526006546fffffffffffffffffffffffffffffffff808216835270010000000000000000000000000000000080830463ffffffff1660208501527401000000000000000000000000000000000000000090920460ff16151593830193909352600754808416606084015204909116608082015261041590610b11565b905090565b60006103406002836109e1565b60015473ffffffffffffffffffffffffffffffffffffffff1633146104ad576040517f08c379a000000000000000000000000000000000000000000000000000000000815260206004820152601660248201527f4d7573742062652070726f706f736564206f776e65720000000000000000000060448201526064015b60405180910390fd5b60008054337fffffffffffffffffffffffff00000000000000000000000000000000000000008083168217845560018054909116905560405173ffffffffffffffffffffffffffffffffffffffff90921692909183917f8be0079c531659141344cd1fd0a4f28419497f9722a3daafe3b4186f6b6457e091a350565b610531610a13565b610363610bc3565b610541610c32565b61054a33610346565b610580576040517f5307f5ab00000000000000000000000000000000000000000000000000000000815260040160405180910390fd5b61058983610cb7565b6040517f40c10f1900000000000000000000000000000000000000000000000000000000815273ffffffffffffffffffffffffffffffffffffffff8581166004830152602482018590527f000000000000000000000000000000000000000000000000000000000000000016906340c10f1990604401600060405180830381600087803b15801561061957600080fd5b505af115801561062d573d6000803e3d6000fd5b505060405185815273ffffffffffffffffffffffffffffffffffffffff871692503391507f9d228d69b5fdb8d273a2336f8fb8612d039631024ea9bf09c424a9503aa078f09060200160405180910390a35050505050565b61068d610c32565b6106963361041a565b6106cc576040517f5307f5ab00000000000000000000000000000000000000000000000000000000815260040160405180910390fd5b6040517f42966c68000000000000000000000000000000000000000000000000000000008152600481018590527f000000000000000000000000000000000000000000000000000000000000000073ffffffffffffffffffffffffffffffffffffffff16906342966c6890602401600060405180830381600087803b15801561075457600080fd5b505af1158015610768573d6000803e3d6000fd5b50506040518681523392507f696de425f79f4a40bc6d2122ca50507f0efbeabbff86a84871b7196ab8ea8df7915060200160405180910390a250505050505050565b6107b2610a13565b60005b82518110156108b35760008382815181106107d2576107d261196e565b6020026020010151905080602001516107f85780516107f390600290610cc2565b610806565b805161080690600290610ce4565b156108a2577fbceff8f229c6dfcbf8bdcfb18726b84b0fd249b4803deb3948ff34d90401366284838151811061083e5761083e61196e565b60200260200101516000015185848151811061085c5761085c61196e565b60200260200101516020015160405161089992919073ffffffffffffffffffffffffffffffffffffffff9290921682521515602082015260400190565b60405180910390a15b506108ac816119cc565b90506107b5565b5060005b81518110156109b55760008282815181106108d4576108d461196e565b6020026020010151905080602001516108fa5780516108f590600490610cc2565b610908565b805161090890600490610ce4565b156109a4577fd8c3333ded377884ced3869cd0bcb9be54ea664076df1f5d39c46891203136488383815181106109405761094061196e565b60200260200101516000015184848151811061095e5761095e61196e565b60200260200101516020015160405161099b92919073ffffffffffffffffffffffffffffffffffffffff9290921682521515602082015260400190565b60405180910390a15b506109ae816119cc565b90506108b7565b505050565b6109c2610a13565b6109cd600682610d06565b50565b6109d8610a13565b6109cd81610eeb565b73ffffffffffffffffffffffffffffffffffffffff8116600090815260018301602052604081205415155b9392505050565b60005473ffffffffffffffffffffffffffffffffffffffff163314610363576040517f08c379a000000000000000000000000000000000000000000000000000000000815260206004820152601660248201527f4f6e6c792063616c6c61626c65206279206f776e65720000000000000000000060448201526064016104a4565b610a9c610fe0565b600180547fffffffffffffffffffffff00ffffffffffffffffffffffffffffffffffffffff1690557f5db9ee0a495bf2e6ff9c91a7834c1ba4fdd244a5e8aa4e537bd38aeae4b073aa335b60405173ffffffffffffffffffffffffffffffffffffffff909116815260200160405180910390a1565b6040805160a081018252600080825260208201819052918101829052606081018290526080810191909152610b9f82606001516fffffffffffffffffffffffffffffffff1683600001516fffffffffffffffffffffffffffffffff16846020015163ffffffff1642610b839190611a04565b85608001516fffffffffffffffffffffffffffffffff16611064565b6fffffffffffffffffffffffffffffffff1682525063ffffffff4216602082015290565b610bcb610c32565b600180547fffffffffffffffffffffff00ffffffffffffffffffffffffffffffffffffffff16740100000000000000000000000000000000000000001790557f62e78cea01bee320cd4e420270b5ea74000d11b0c9f74754ebdbfc544b05a258610ae73390565b60015474010000000000000000000000000000000000000000900460ff1615610363576040517f08c379a000000000000000000000000000000000000000000000000000000000815260206004820152601060248201527f5061757361626c653a207061757365640000000000000000000000000000000060448201526064016104a4565b6109cd60068261108c565b6000610a0c8373ffffffffffffffffffffffffffffffffffffffff841661131b565b6000610a0c8373ffffffffffffffffffffffffffffffffffffffff841661140e565b8154600090610d2f90700100000000000000000000000000000000900463ffffffff1642611a04565b90508015610dd15760018301548354610d77916fffffffffffffffffffffffffffffffff80821692811691859170010000000000000000000000000000000090910416611064565b83546fffffffffffffffffffffffffffffffff919091167fffffffffffffffffffffffff0000000000000000000000000000000000000000909116177001000000000000000000000000000000004263ffffffff16021783555b60208201518354610df7916fffffffffffffffffffffffffffffffff908116911661145d565b83548351151574010000000000000000000000000000000000000000027fffffffffffffffffffffff00ffffffff000000000000000000000000000000009091166fffffffffffffffffffffffffffffffff92831617178455602083015160408085015183167001000000000000000000000000000000000291909216176001850155517f9ea3374b67bf275e6bb9c8ae68f9cae023e1c528b4b27e092f0bb209d3531c1990610ede9084908151151581526020808301516fffffffffffffffffffffffffffffffff90811691830191909152604092830151169181019190915260600190565b60405180910390a1505050565b3373ffffffffffffffffffffffffffffffffffffffff821603610f6a576040517f08c379a000000000000000000000000000000000000000000000000000000000815260206004820152601760248201527f43616e6e6f74207472616e7366657220746f2073656c6600000000000000000060448201526064016104a4565b600180547fffffffffffffffffffffffff00000000000000000000000000000000000000001673ffffffffffffffffffffffffffffffffffffffff83811691821790925560008054604051929316917fed8889f560326eb138920d842192f0eb3dd22b4f139c87a2c57538e05bae12789190a350565b60015474010000000000000000000000000000000000000000900460ff16610363576040517f08c379a000000000000000000000000000000000000000000000000000000000815260206004820152601460248201527f5061757361626c653a206e6f742070617573656400000000000000000000000060448201526064016104a4565b6000611083856110748486611a17565b61107e9087611a2e565b61145d565b95945050505050565b815474010000000000000000000000000000000000000000900460ff1615806110b3575080155b156110bc575050565b815460018301546fffffffffffffffffffffffffffffffff8083169291169060009061110290700100000000000000000000000000000000900463ffffffff1642611a04565b905080156111c25781831115611144576040517f9725942a00000000000000000000000000000000000000000000000000000000815260040160405180910390fd5b600185015461117e9083908590849070010000000000000000000000000000000090046fffffffffffffffffffffffffffffffff16611064565b85547fffffffffffffffffffffffff00000000ffffffffffffffffffffffffffffffff167001000000000000000000000000000000004263ffffffff160217865592505b83821015611206576040517f48369c4300000000000000000000000000000000000000000000000000000000815260048101839052602481018590526044016104a4565b8383101561129a5760018581015470010000000000000000000000000000000090046fffffffffffffffffffffffffffffffff169081906112479082611a04565b6112518688611a04565b61125b9190611a2e565b6112659190611a41565b6040517fdc96cefa0000000000000000000000000000000000000000000000000000000081526004016104a491815260200190565b6112a48484611a04565b85547fffffffffffffffffffffffffffffffff00000000000000000000000000000000166fffffffffffffffffffffffffffffffff82161786556040518581529093507f1871cdf8010e63f2eb8384381a68dfa7416dc571a5517e66e88b2d2d0c0a690a9060200160405180910390a15050505050565b6000818152600183016020526040812054801561140457600061133f600183611a04565b855490915060009061135390600190611a04565b90508181146113b85760008660000182815481106113735761137361196e565b90600052602060002001549050808760000184815481106113965761139661196e565b6000918252602080832090910192909255918252600188019052604090208390555b85548690806113c9576113c9611a7c565b600190038181906000526020600020016000905590558560010160008681526020019081526020016000206000905560019350505050610340565b6000915050610340565b600081815260018301602052604081205461145557508154600181810184556000848152602080822090930184905584548482528286019093526040902091909155610340565b506000610340565b600081831061146c5781610a0c565b5090919050565b60006020828403121561148557600080fd5b81357fffffffff0000000000000000000000000000000000000000000000000000000081168114610a0c57600080fd5b803573ffffffffffffffffffffffffffffffffffffffff811681146114d957600080fd5b919050565b6000602082840312156114f057600080fd5b610a0c826114b5565b7f4e487b7100000000000000000000000000000000000000000000000000000000600052604160045260246000fd5b6040805190810167ffffffffffffffff8111828210171561154b5761154b6114f9565b60405290565b604051601f82017fffffffffffffffffffffffffffffffffffffffffffffffffffffffffffffffe016810167ffffffffffffffff81118282101715611598576115986114f9565b604052919050565b600082601f8301126115b157600080fd5b813567ffffffffffffffff8111156115cb576115cb6114f9565b6115fc60207fffffffffffffffffffffffffffffffffffffffffffffffffffffffffffffffe0601f84011601611551565b81815284602083860101111561161157600080fd5b816020850160208301376000918101602001919091529392505050565b803567ffffffffffffffff811681146114d957600080fd5b600080600080600060a0868803121561165e57600080fd5b853567ffffffffffffffff8082111561167657600080fd5b61168289838a016115a0565b9650611690602089016114b5565b9550604088013594506116a56060890161162e565b935060808801359150808211156116bb57600080fd5b506116c8888289016115a0565b9150509295509295909350565b60008083601f8401126116e757600080fd5b50813567ffffffffffffffff8111156116ff57600080fd5b60208301915083602082850101111561171757600080fd5b9250929050565b600080600080600080600060a0888a03121561173957600080fd5b611742886114b5565b9650602088013567ffffffffffffffff8082111561175f57600080fd5b61176b8b838c016116d5565b909850965060408a0135955086915061178660608b0161162e565b945060808a013591508082111561179c57600080fd5b506117a98a828b016116d5565b989b979a50959850939692959293505050565b803580151581146114d957600080fd5b600082601f8301126117dd57600080fd5b8135602067ffffffffffffffff8211156117f9576117f96114f9565b611807818360051b01611551565b82815260069290921b8401810191818101908684111561182657600080fd5b8286015b8481101561187357604081890312156118435760008081fd5b61184b611528565b611854826114b5565b81526118618583016117bc565b8186015283529183019160400161182a565b509695505050505050565b6000806040838503121561189157600080fd5b823567ffffffffffffffff808211156118a957600080fd5b6118b5868387016117cc565b935060208501359150808211156118cb57600080fd5b506118d8858286016117cc565b9150509250929050565b80356fffffffffffffffffffffffffffffffff811681146114d957600080fd5b60006060828403121561191457600080fd5b6040516060810181811067ffffffffffffffff82111715611937576119376114f9565b604052611943836117bc565b8152611951602084016118e2565b6020820152611962604084016118e2565b60408201529392505050565b7f4e487b7100000000000000000000000000000000000000000000000000000000600052603260045260246000fd5b7f4e487b7100000000000000000000000000000000000000000000000000000000600052601160045260246000fd5b60007fffffffffffffffffffffffffffffffffffffffffffffffffffffffffffffffff82036119fd576119fd61199d565b5060010190565b818103818111156103405761034061199d565b80820281158282048414176103405761034061199d565b808201808211156103405761034061199d565b600082611a77577f4e487b7100000000000000000000000000000000000000000000000000000000600052601260045260246000fd5b500490565b7f4e487b7100000000000000000000000000000000000000000000000000000000600052603160045260246000fdfea164736f6c6343000813000a",
    "linkReferences": {}
  },
  "methodIdentifiers": {
    "acceptOwnership()": "79ba5097",
    "applyRampUpdates((address,bool)[],(address,bool)[])": "af519112",
    "currentRateLimiterState()": "546719cd",
    "getToken()": "21df0da7",
    "isOffRamp(address)": "1d7a74a0",
    "isOnRamp(address)": "6f32b872",
    "lockOrBurn(address,bytes,uint256,uint64,bytes)": "96875445",
    "owner()": "8da5cb5b",
    "pause()": "8456cb59",
    "paused()": "5c975abb",
    "releaseOrMint(bytes,address,uint256,uint64,bytes)": "8627fad6",
    "setRateLimiterConfig((bool,uint128,uint128))": "c92b2832",
    "supportsInterface(bytes4)": "01ffc9a7",
    "transferOwnership(address)": "f2fde38b",
    "unpause()": "3f4ba83a"
  },
  "id": 35
}