{
  "abi": [
    {
      "inputs": [
        {
          "components": [
            {
              "components": [
                {
                  "internalType": "address",
                  "name": "sourceToken",
                  "type": "address"
                },
                {
                  "internalType": "uint192",
                  "name": "usdPerToken",
                  "type": "uint192"
                }
              ],
              "internalType": "struct Internal.TokenPriceUpdate[]",
              "name": "tokenPriceUpdates",
              "type": "tuple[]"
            },
            {
              "internalType": "uint64",
              "name": "destChainSelector",
              "type": "uint64"
            },
            {
              "internalType": "uint192",
              "name": "usdPerUnitGas",
              "type": "uint192"
            }
          ],
          "internalType": "struct Internal.PriceUpdates",
          "name": "priceUpdates",
          "type": "tuple"
        },
        {
          "internalType": "address[]",
          "name": "priceUpdaters",
          "type": "address[]"
        },
        {
          "internalType": "address[]",
          "name": "feeTokens",
          "type": "address[]"
        },
        {
          "internalType": "uint32",
          "name": "stalenessThreshold",
          "type": "uint32"
        }
      ],
      "stateMutability": "nonpayable",
      "type": "constructor"
    },
    {
      "inputs": [
        {
          "internalType": "uint64",
          "name": "chain",
          "type": "uint64"
        }
      ],
      "name": "ChainNotSupported",
      "type": "error"
    },
    {
      "inputs": [],
      "name": "InvalidStalenessThreshold",
      "type": "error"
    },
    {
      "inputs": [
        {
          "internalType": "address",
          "name": "token",
          "type": "address"
        }
      ],
      "name": "NotAFeeToken",
      "type": "error"
    },
    {
      "inputs": [],
      "name": "OnlyCallableByUpdaterOrOwner",
      "type": "error"
    },
    {
      "inputs": [
        {
          "internalType": "uint64",
          "name": "destChainSelector",
          "type": "uint64"
        },
        {
          "internalType": "uint256",
          "name": "threshold",
          "type": "uint256"
        },
        {
          "internalType": "uint256",
          "name": "timePassed",
          "type": "uint256"
        }
      ],
      "name": "StaleGasPrice",
      "type": "error"
    },
    {
      "inputs": [
        {
          "internalType": "address",
          "name": "token",
          "type": "address"
        },
        {
          "internalType": "uint256",
          "name": "threshold",
          "type": "uint256"
        },
        {
          "internalType": "uint256",
          "name": "timePassed",
          "type": "uint256"
        }
      ],
      "name": "StaleTokenPrice",
      "type": "error"
    },
    {
      "inputs": [
        {
          "internalType": "address",
          "name": "token",
          "type": "address"
        }
      ],
      "name": "TokenNotSupported",
      "type": "error"
    },
    {
      "anonymous": false,
      "inputs": [
        {
          "indexed": true,
          "internalType": "address",
          "name": "feeToken",
          "type": "address"
        }
      ],
      "name": "FeeTokenAdded",
      "type": "event"
    },
    {
      "anonymous": false,
      "inputs": [
        {
          "indexed": true,
          "internalType": "address",
          "name": "feeToken",
          "type": "address"
        }
      ],
      "name": "FeeTokenRemoved",
      "type": "event"
    },
    {
      "anonymous": false,
      "inputs": [
        {
          "indexed": true,
          "internalType": "address",
          "name": "from",
          "type": "address"
        },
        {
          "indexed": true,
          "internalType": "address",
          "name": "to",
          "type": "address"
        }
      ],
      "name": "OwnershipTransferRequested",
      "type": "event"
    },
    {
      "anonymous": false,
      "inputs": [
        {
          "indexed": true,
          "internalType": "address",
          "name": "from",
          "type": "address"
        },
        {
          "indexed": true,
          "internalType": "address",
          "name": "to",
          "type": "address"
        }
      ],
      "name": "OwnershipTransferred",
      "type": "event"
    },
    {
      "anonymous": false,
      "inputs": [
        {
          "indexed": true,
          "internalType": "address",
          "name": "priceUpdater",
          "type": "address"
        }
      ],
      "name": "PriceUpdaterRemoved",
      "type": "event"
    },
    {
      "anonymous": false,
      "inputs": [
        {
          "indexed": true,
          "internalType": "address",
          "name": "priceUpdater",
          "type": "address"
        }
      ],
      "name": "PriceUpdaterSet",
      "type": "event"
    },
    {
      "anonymous": false,
      "inputs": [
        {
          "indexed": true,
          "internalType": "address",
          "name": "token",
          "type": "address"
        },
        {
          "indexed": false,
          "internalType": "uint256",
          "name": "value",
          "type": "uint256"
        },
        {
          "indexed": false,
          "internalType": "uint256",
          "name": "timestamp",
          "type": "uint256"
        }
      ],
      "name": "UsdPerTokenUpdated",
      "type": "event"
    },
    {
      "anonymous": false,
      "inputs": [
        {
          "indexed": true,
          "internalType": "uint64",
          "name": "destChain",
          "type": "uint64"
        },
        {
          "indexed": false,
          "internalType": "uint256",
          "name": "value",
          "type": "uint256"
        },
        {
          "indexed": false,
          "internalType": "uint256",
          "name": "timestamp",
          "type": "uint256"
        }
      ],
      "name": "UsdPerUnitGasUpdated",
      "type": "event"
    },
    {
      "inputs": [],
      "name": "acceptOwnership",
      "outputs": [],
      "stateMutability": "nonpayable",
      "type": "function"
    },
    {
      "inputs": [
        {
          "internalType": "address[]",
          "name": "feeTokensToAdd",
          "type": "address[]"
        },
        {
          "internalType": "address[]",
          "name": "feeTokensToRemove",
          "type": "address[]"
        }
      ],
      "name": "applyFeeTokensUpdates",
      "outputs": [],
      "stateMutability": "nonpayable",
      "type": "function"
    },
    {
      "inputs": [
        {
          "internalType": "address[]",
          "name": "priceUpdatersToAdd",
          "type": "address[]"
        },
        {
          "internalType": "address[]",
          "name": "priceUpdatersToRemove",
          "type": "address[]"
        }
      ],
      "name": "applyPriceUpdatersUpdates",
      "outputs": [],
      "stateMutability": "nonpayable",
      "type": "function"
    },
    {
      "inputs": [
        {
          "internalType": "address",
          "name": "fromToken",
          "type": "address"
        },
        {
          "internalType": "uint256",
          "name": "fromTokenAmount",
          "type": "uint256"
        },
        {
          "internalType": "address",
          "name": "toToken",
          "type": "address"
        }
      ],
      "name": "convertTokenAmount",
      "outputs": [
        {
          "internalType": "uint256",
          "name": "",
          "type": "uint256"
        }
      ],
      "stateMutability": "view",
      "type": "function"
    },
    {
      "inputs": [
        {
          "internalType": "uint64",
          "name": "destChainSelector",
          "type": "uint64"
        }
      ],
      "name": "getDestinationChainGasPrice",
      "outputs": [
        {
          "components": [
            {
              "internalType": "uint192",
              "name": "value",
              "type": "uint192"
            },
            {
              "internalType": "uint64",
              "name": "timestamp",
              "type": "uint64"
            }
          ],
          "internalType": "struct Internal.TimestampedUint192Value",
          "name": "",
          "type": "tuple"
        }
      ],
      "stateMutability": "view",
      "type": "function"
    },
    {
      "inputs": [
        {
          "internalType": "address",
          "name": "feeToken",
          "type": "address"
        },
        {
          "internalType": "uint64",
          "name": "destChainSelector",
          "type": "uint64"
        }
      ],
      "name": "getFeeTokenAndGasPrices",
      "outputs": [
        {
          "internalType": "uint192",
          "name": "feeTokenPrice",
          "type": "uint192"
        },
        {
          "internalType": "uint192",
          "name": "gasPriceValue",
          "type": "uint192"
        }
      ],
      "stateMutability": "view",
      "type": "function"
    },
    {
      "inputs": [],
      "name": "getFeeTokens",
      "outputs": [
        {
          "internalType": "address[]",
          "name": "feeTokens",
          "type": "address[]"
        }
      ],
      "stateMutability": "view",
      "type": "function"
    },
    {
      "inputs": [],
      "name": "getPriceUpdaters",
      "outputs": [
        {
          "internalType": "address[]",
          "name": "priceUpdaters",
          "type": "address[]"
        }
      ],
      "stateMutability": "view",
      "type": "function"
    },
    {
      "inputs": [],
      "name": "getStalenessThreshold",
      "outputs": [
        {
          "internalType": "uint128",
          "name": "",
          "type": "uint128"
        }
      ],
      "stateMutability": "view",
      "type": "function"
    },
    {
      "inputs": [
        {
          "internalType": "address",
          "name": "token",
          "type": "address"
        }
      ],
      "name": "getTokenPrice",
      "outputs": [
        {
          "components": [
            {
              "internalType": "uint192",
              "name": "value",
              "type": "uint192"
            },
            {
              "internalType": "uint64",
              "name": "timestamp",
              "type": "uint64"
            }
          ],
          "internalType": "struct Internal.TimestampedUint192Value",
          "name": "",
          "type": "tuple"
        }
      ],
      "stateMutability": "view",
      "type": "function"
    },
    {
      "inputs": [
        {
          "internalType": "address[]",
          "name": "tokens",
          "type": "address[]"
        }
      ],
      "name": "getTokenPrices",
      "outputs": [
        {
          "components": [
            {
              "internalType": "uint192",
              "name": "value",
              "type": "uint192"
            },
            {
              "internalType": "uint64",
              "name": "timestamp",
              "type": "uint64"
            }
          ],
          "internalType": "struct Internal.TimestampedUint192Value[]",
          "name": "",
          "type": "tuple[]"
        }
      ],
      "stateMutability": "view",
      "type": "function"
    },
    {
      "inputs": [
        {
          "internalType": "address",
          "name": "token",
          "type": "address"
        }
      ],
      "name": "getValidatedTokenPrice",
      "outputs": [
        {
          "internalType": "uint192",
          "name": "",
          "type": "uint192"
        }
      ],
      "stateMutability": "view",
      "type": "function"
    },
    {
      "inputs": [],
      "name": "owner",
      "outputs": [
        {
          "internalType": "address",
          "name": "",
          "type": "address"
        }
      ],
      "stateMutability": "view",
      "type": "function"
    },
    {
      "inputs": [
        {
          "internalType": "address",
          "name": "to",
          "type": "address"
        }
      ],
      "name": "transferOwnership",
      "outputs": [],
      "stateMutability": "nonpayable",
      "type": "function"
    },
    {
      "inputs": [
        {
          "components": [
            {
              "components": [
                {
                  "internalType": "address",
                  "name": "sourceToken",
                  "type": "address"
                },
                {
                  "internalType": "uint192",
                  "name": "usdPerToken",
                  "type": "uint192"
                }
              ],
              "internalType": "struct Internal.TokenPriceUpdate[]",
              "name": "tokenPriceUpdates",
              "type": "tuple[]"
            },
            {
              "internalType": "uint64",
              "name": "destChainSelector",
              "type": "uint64"
            },
            {
              "internalType": "uint192",
              "name": "usdPerUnitGas",
              "type": "uint192"
            }
          ],
          "internalType": "struct Internal.PriceUpdates",
          "name": "priceUpdates",
          "type": "tuple"
        }
      ],
      "name": "updatePrices",
      "outputs": [],
      "stateMutability": "nonpayable",
      "type": "function"
    }
  ],
  "bytecode": {
    "object": "0x60a06040523480156200001157600080fd5b506040516200264d3803806200264d83398101604081905262000034916200097b565b33806000816200008b5760405162461bcd60e51b815260206004820152601860248201527f43616e6e6f7420736574206f776e657220746f207a65726f000000000000000060448201526064015b60405180910390fd5b600080546001600160a01b0319166001600160a01b0384811691909117909155811615620000be57620000be8162000145565b505050620000d284620001f060201b60201c565b604080516000815260208101909152620000ee9084906200039e565b6040805160008152602081019091526200010a908390620004fa565b8063ffffffff166000036200013257604051631151410960e11b815260040160405180910390fd5b63ffffffff166080525062000b7d915050565b336001600160a01b038216036200019f5760405162461bcd60e51b815260206004820152601760248201527f43616e6e6f74207472616e7366657220746f2073656c66000000000000000000604482015260640162000082565b600180546001600160a01b0319166001600160a01b0383811691821790925560008054604051929316917fed8889f560326eb138920d842192f0eb3dd22b4f139c87a2c57538e05bae12789190a350565b80515160005b81811015620002ee576000836000015182815181106200021a576200021a62000b09565b60209081029190910181015160408051808201825282840180516001600160c01b0390811683526001600160401b034281811685890190815287516001600160a01b0390811660009081526003909a529887902095519051909216600160c01b029190921617909255835190519251939550909316927f52f50aa6d1a95a4595361ecf953d095f125d442e4673716dede699e049de148a92620002d29291906001600160c01b03929092168252602082015260400190565b60405180910390a250620002e68162000b35565b9050620001f6565b5060208201516001600160401b0316156200039a5760408051808201825283820180516001600160c01b0390811683526001600160401b03428181166020808701918252808a0180518516600090815260028352899020975192518516600160c01b0292861692909217909655519351865193168352938201939093529116917fdd84a3fa9ef9409f550d54d6affec7e9c480c878c6ab27b78912a03e1b371c6e910160405180910390a25b5050565b60005b82518110156200044957620003dd838281518110620003c457620003c462000b09565b602002602001015160046200065160201b90919060201c565b156200043657828181518110620003f857620003f862000b09565b60200260200101516001600160a01b03167f34a02290b7920078c19f58e94b78c77eb9cc10195b20676e19bd3b82085893b860405160405180910390a25b620004418162000b35565b9050620003a1565b5060005b8151811015620004f5576200048982828151811062000470576200047062000b09565b602002602001015160046200067160201b90919060201c565b15620004e257818181518110620004a457620004a462000b09565b60200260200101516001600160a01b03167fff7dbb85c77ca68ca1f894d6498570e3d5095cd19466f07ee8d222b337e4068c60405160405180910390a25b620004ed8162000b35565b90506200044d565b505050565b60005b8251811015620005a5576200053983828151811062000520576200052062000b09565b602002602001015160066200065160201b90919060201c565b15620005925782818151811062000554576200055462000b09565b60200260200101516001600160a01b03167fdf1b1bd32a69711488d71554706bb130b1fc63a5fa1a2cd85e8440f84065ba2360405160405180910390a25b6200059d8162000b35565b9050620004fd565b5060005b8151811015620004f557620005e5828281518110620005cc57620005cc62000b09565b602002602001015160066200067160201b90919060201c565b156200063e5781818151811062000600576200060062000b09565b60200260200101516001600160a01b03167f1795838dc8ab2ffc5f431a1729a6afa0b587f982f7b2be0b9d7187a1ef547f9160405160405180910390a25b620006498162000b35565b9050620005a9565b600062000668836001600160a01b03841662000688565b90505b92915050565b600062000668836001600160a01b038416620006da565b6000818152600183016020526040812054620006d1575081546001818101845560008481526020808220909301849055845484825282860190935260409020919091556200066b565b5060006200066b565b60008181526001830160205260408120548015620007d35760006200070160018362000b51565b8554909150600090620007179060019062000b51565b9050818114620007835760008660000182815481106200073b576200073b62000b09565b906000526020600020015490508087600001848154811062000761576200076162000b09565b6000918252602080832090910192909255918252600188019052604090208390555b855486908062000797576200079762000b67565b6001900381819060005260206000200160009055905585600101600086815260200190815260200160002060009055600193505050506200066b565b60009150506200066b565b634e487b7160e01b600052604160045260246000fd5b604051606081016001600160401b0381118282101715620008195762000819620007de565b60405290565b604080519081016001600160401b0381118282101715620008195762000819620007de565b604051601f8201601f191681016001600160401b03811182821017156200086f576200086f620007de565b604052919050565b60006001600160401b03821115620008935762000893620007de565b5060051b60200190565b80516001600160a01b0381168114620008b557600080fd5b919050565b80516001600160c01b0381168114620008b557600080fd5b80516001600160401b0381168114620008b557600080fd5b600082601f830112620008fc57600080fd5b81516020620009156200090f8362000877565b62000844565b82815260059290921b840181019181810190868411156200093557600080fd5b8286015b848110156200095b576200094d816200089d565b835291830191830162000939565b509695505050505050565b805163ffffffff81168114620008b557600080fd5b600080600080608085870312156200099257600080fd5b84516001600160401b0380821115620009aa57600080fd5b9086019060608289031215620009bf57600080fd5b620009c9620007f4565b825182811115620009d957600080fd5b8301601f81018a13620009eb57600080fd5b80516020620009fe6200090f8362000877565b82815260069290921b8301810191818101908d84111562000a1e57600080fd5b938201935b8385101562000a79576040858f03121562000a3e5760008081fd5b62000a486200081f565b62000a53866200089d565b815262000a62848701620008ba565b818501528252604094909401939082019062000a23565b85525062000a89868201620008d2565b8185015262000a9b60408701620008ba565b60408501528a015192985091935050508082111562000ab957600080fd5b62000ac788838901620008ea565b9450604087015191508082111562000ade57600080fd5b5062000aed87828801620008ea565b92505062000afe6060860162000966565b905092959194509250565b634e487b7160e01b600052603260045260246000fd5b634e487b7160e01b600052601160045260246000fd5b60006001820162000b4a5762000b4a62000b1f565b5060010190565b818103818111156200066b576200066b62000b1f565b634e487b7160e01b600052603160045260246000fd5b608051611a9862000bb560003960008181610285015281816107c90152818161083201528181610b0e0152610b830152611a986000f3fe608060405234801561001057600080fd5b50600436106100f45760003560e01c8063866548c911610097578063bfcd456611610066578063bfcd4566146102f3578063cdc73d5114610308578063d02641a014610310578063f2fde38b146103ae57600080fd5b8063866548c9146102405780638da5cb5b14610253578063a6c94a731461027b578063b10096c0146102af57600080fd5b8063514e8cff116100d3578063514e8cff1461017b57806352877af01461021057806379ba5097146102255780637afac3221461022d57600080fd5b806241e5be146100f957806345ac924d1461011f5780634ab35b0b1461013f575b600080fd5b61010c61010736600461141c565b6103c1565b6040519081526020015b60405180910390f35b61013261012d366004611458565b610425565b60405161011691906114cd565b61015261014d366004611548565b6104f9565b60405177ffffffffffffffffffffffffffffffffffffffffffffffff9091168152602001610116565b61020361018936600461157b565b6040805180820182526000808252602091820181905267ffffffffffffffff93841681526002825282902082518084019093525477ffffffffffffffffffffffffffffffffffffffffffffffff81168352780100000000000000000000000000000000000000000000000090049092169181019190915290565b6040516101169190611596565b61022361021e366004611731565b610504565b005b61022361051a565b61022361023b366004611731565b61061c565b61022361024e3660046117bd565b61062e565b60005460405173ffffffffffffffffffffffffffffffffffffffff9091168152602001610116565b60405163ffffffff7f0000000000000000000000000000000000000000000000000000000000000000168152602001610116565b6102c26102bd3660046118d4565b6106a1565b6040805177ffffffffffffffffffffffffffffffffffffffffffffffff938416815292909116602083015201610116565b6102fb61087e565b6040516101169190611907565b6102fb610938565b61020361031e366004611548565b60408051808201909152600080825260208201525073ffffffffffffffffffffffffffffffffffffffff1660009081526003602090815260409182902082518084019093525477ffffffffffffffffffffffffffffffffffffffffffffffff811683527801000000000000000000000000000000000000000000000000900467ffffffffffffffff169082015290565b6102236103bc366004611548565b6109ee565b60006103cc826109ff565b77ffffffffffffffffffffffffffffffffffffffffffffffff166103ef856109ff565b6104139077ffffffffffffffffffffffffffffffffffffffffffffffff1685611990565b61041d91906119a7565b949350505050565b60608160008167ffffffffffffffff811115610443576104436115d1565b60405190808252806020026020018201604052801561048857816020015b60408051808201909152600080825260208201528152602001906001900390816104615790505b50905060005b828110156104ee576104c08686838181106104ab576104ab6119e2565b905060200201602081019061031e9190611548565b8282815181106104d2576104d26119e2565b6020026020010181905250806104e790611a11565b905061048e565b509150505b92915050565b60006104f3826109ff565b61050c610bbf565b6105168282610c42565b5050565b60015473ffffffffffffffffffffffffffffffffffffffff1633146105a0576040517f08c379a000000000000000000000000000000000000000000000000000000000815260206004820152601660248201527f4d7573742062652070726f706f736564206f776e65720000000000000000000060448201526064015b60405180910390fd5b60008054337fffffffffffffffffffffffff00000000000000000000000000000000000000008083168217845560018054909116905560405173ffffffffffffffffffffffffffffffffffffffff90921692909183917f8be0079c531659141344cd1fd0a4f28419497f9722a3daafe3b4186f6b6457e091a350565b610624610bbf565b6105168282610d9e565b60005473ffffffffffffffffffffffffffffffffffffffff16331480159061065e575061065c600433610ef5565b155b15610695576040517f46f0815400000000000000000000000000000000000000000000000000000000815260040160405180910390fd5b61069e81610f27565b50565b6000806106af600685610ef5565b6106fd576040517fa7499d2000000000000000000000000000000000000000000000000000000000815273ffffffffffffffffffffffffffffffffffffffff85166004820152602401610597565b67ffffffffffffffff808416600090815260026020908152604080832081518083019092525477ffffffffffffffffffffffffffffffffffffffffffffffff811682527801000000000000000000000000000000000000000000000000900490931690830181905290036107a9576040517f2e59db3a00000000000000000000000000000000000000000000000000000000815267ffffffffffffffff85166004820152602401610597565b6000816020015167ffffffffffffffff16426107c59190611a49565b90507f000000000000000000000000000000000000000000000000000000000000000063ffffffff16811115610866576040517ff08bcb3e00000000000000000000000000000000000000000000000000000000815267ffffffffffffffff8616600482015263ffffffff7f000000000000000000000000000000000000000000000000000000000000000016602482015260448101829052606401610597565b61086f866109ff565b91519196919550909350505050565b606061088a6004611138565b67ffffffffffffffff8111156108a2576108a26115d1565b6040519080825280602002602001820160405280156108cb578160200160208202803683370190505b50905060005b6108db6004611138565b811015610934576108ed600482611142565b8282815181106108ff576108ff6119e2565b73ffffffffffffffffffffffffffffffffffffffff9092166020928302919091019091015261092d81611a11565b90506108d1565b5090565b60606109446006611138565b67ffffffffffffffff81111561095c5761095c6115d1565b604051908082528060200260200182016040528015610985578160200160208202803683370190505b50905060005b6109956006611138565b811015610934576109a7600682611142565b8282815181106109b9576109b96119e2565b73ffffffffffffffffffffffffffffffffffffffff909216602092830291909101909101526109e781611a11565b905061098b565b6109f6610bbf565b61069e8161114e565b73ffffffffffffffffffffffffffffffffffffffff8116600090815260036020908152604080832081518083019092525477ffffffffffffffffffffffffffffffffffffffffffffffff811682527801000000000000000000000000000000000000000000000000900467ffffffffffffffff16918101829052901580610a9f5750805177ffffffffffffffffffffffffffffffffffffffffffffffff16155b15610aee576040517f06439c6b00000000000000000000000000000000000000000000000000000000815273ffffffffffffffffffffffffffffffffffffffff84166004820152602401610597565b6000816020015167ffffffffffffffff1642610b0a9190611a49565b90507f000000000000000000000000000000000000000000000000000000000000000063ffffffff16811115610bb7576040517fc65fdfca00000000000000000000000000000000000000000000000000000000815273ffffffffffffffffffffffffffffffffffffffff8516600482015263ffffffff7f000000000000000000000000000000000000000000000000000000000000000016602482015260448101829052606401610597565b505192915050565b60005473ffffffffffffffffffffffffffffffffffffffff163314610c40576040517f08c379a000000000000000000000000000000000000000000000000000000000815260206004820152601660248201527f4f6e6c792063616c6c61626c65206279206f776e6572000000000000000000006044820152606401610597565b565b60005b8251811015610ced57610c7b838281518110610c6357610c636119e2565b6020026020010151600461124390919063ffffffff16565b15610cdd57828181518110610c9257610c926119e2565b602002602001015173ffffffffffffffffffffffffffffffffffffffff167f34a02290b7920078c19f58e94b78c77eb9cc10195b20676e19bd3b82085893b860405160405180910390a25b610ce681611a11565b9050610c45565b5060005b8151811015610d9957610d27828281518110610d0f57610d0f6119e2565b6020026020010151600461126590919063ffffffff16565b15610d8957818181518110610d3e57610d3e6119e2565b602002602001015173ffffffffffffffffffffffffffffffffffffffff167fff7dbb85c77ca68ca1f894d6498570e3d5095cd19466f07ee8d222b337e4068c60405160405180910390a25b610d9281611a11565b9050610cf1565b505050565b60005b8251811015610e4957610dd7838281518110610dbf57610dbf6119e2565b6020026020010151600661124390919063ffffffff16565b15610e3957828181518110610dee57610dee6119e2565b602002602001015173ffffffffffffffffffffffffffffffffffffffff167fdf1b1bd32a69711488d71554706bb130b1fc63a5fa1a2cd85e8440f84065ba2360405160405180910390a25b610e4281611a11565b9050610da1565b5060005b8151811015610d9957610e83828281518110610e6b57610e6b6119e2565b6020026020010151600661126590919063ffffffff16565b15610ee557818181518110610e9a57610e9a6119e2565b602002602001015173ffffffffffffffffffffffffffffffffffffffff167f1795838dc8ab2ffc5f431a1729a6afa0b587f982f7b2be0b9d7187a1ef547f9160405160405180910390a25b610eee81611a11565b9050610e4d565b73ffffffffffffffffffffffffffffffffffffffff8116600090815260018301602052604081205415155b9392505050565b80515160005b8181101561106257600083600001518281518110610f4d57610f4d6119e2565b602090810291909101810151604080518082018252828401805177ffffffffffffffffffffffffffffffffffffffffffffffff908116835267ffffffffffffffff42818116858901908152875173ffffffffffffffffffffffffffffffffffffffff90811660009081526003909a5298879020955190519092167801000000000000000000000000000000000000000000000000029190921617909255835190519251939550909316927f52f50aa6d1a95a4595361ecf953d095f125d442e4673716dede699e049de148a9261104992919077ffffffffffffffffffffffffffffffffffffffffffffffff929092168252602082015260400190565b60405180910390a25061105b81611a11565b9050610f2d565b50602082015167ffffffffffffffff161561051657604080518082018252838201805177ffffffffffffffffffffffffffffffffffffffffffffffff908116835267ffffffffffffffff428181166020808701918252808a018051851660009081526002835289902097519251851678010000000000000000000000000000000000000000000000000292861692909217909655519351865193168352938201939093529116917fdd84a3fa9ef9409f550d54d6affec7e9c480c878c6ab27b78912a03e1b371c6e910160405180910390a25050565b60006104f3825490565b6000610f208383611287565b3373ffffffffffffffffffffffffffffffffffffffff8216036111cd576040517f08c379a000000000000000000000000000000000000000000000000000000000815260206004820152601760248201527f43616e6e6f74207472616e7366657220746f2073656c660000000000000000006044820152606401610597565b600180547fffffffffffffffffffffffff00000000000000000000000000000000000000001673ffffffffffffffffffffffffffffffffffffffff83811691821790925560008054604051929316917fed8889f560326eb138920d842192f0eb3dd22b4f139c87a2c57538e05bae12789190a350565b6000610f208373ffffffffffffffffffffffffffffffffffffffff84166112b1565b6000610f208373ffffffffffffffffffffffffffffffffffffffff8416611300565b600082600001828154811061129e5761129e6119e2565b9060005260206000200154905092915050565b60008181526001830160205260408120546112f8575081546001818101845560008481526020808220909301849055845484825282860190935260409020919091556104f3565b5060006104f3565b600081815260018301602052604081205480156113e9576000611324600183611a49565b855490915060009061133890600190611a49565b905081811461139d576000866000018281548110611358576113586119e2565b906000526020600020015490508087600001848154811061137b5761137b6119e2565b6000918252602080832090910192909255918252600188019052604090208390555b85548690806113ae576113ae611a5c565b6001900381819060005260206000200160009055905585600101600086815260200190815260200160002060009055600193505050506104f3565b60009150506104f3565b803573ffffffffffffffffffffffffffffffffffffffff8116811461141757600080fd5b919050565b60008060006060848603121561143157600080fd5b61143a846113f3565b92506020840135915061144f604085016113f3565b90509250925092565b6000806020838503121561146b57600080fd5b823567ffffffffffffffff8082111561148357600080fd5b818501915085601f83011261149757600080fd5b8135818111156114a657600080fd5b8660208260051b85010111156114bb57600080fd5b60209290920196919550909350505050565b602080825282518282018190526000919060409081850190868401855b8281101561153b5761152b848351805177ffffffffffffffffffffffffffffffffffffffffffffffff16825260209081015167ffffffffffffffff16910152565b92840192908501906001016114ea565b5091979650505050505050565b60006020828403121561155a57600080fd5b610f20826113f3565b803567ffffffffffffffff8116811461141757600080fd5b60006020828403121561158d57600080fd5b610f2082611563565b815177ffffffffffffffffffffffffffffffffffffffffffffffff16815260208083015167ffffffffffffffff1690820152604081016104f3565b7f4e487b7100000000000000000000000000000000000000000000000000000000600052604160045260246000fd5b6040516060810167ffffffffffffffff81118282101715611623576116236115d1565b60405290565b6040805190810167ffffffffffffffff81118282101715611623576116236115d1565b604051601f82017fffffffffffffffffffffffffffffffffffffffffffffffffffffffffffffffe016810167ffffffffffffffff81118282101715611693576116936115d1565b604052919050565b600067ffffffffffffffff8211156116b5576116b56115d1565b5060051b60200190565b600082601f8301126116d057600080fd5b813560206116e56116e08361169b565b61164c565b82815260059290921b8401810191818101908684111561170457600080fd5b8286015b8481101561172657611719816113f3565b8352918301918301611708565b509695505050505050565b6000806040838503121561174457600080fd5b823567ffffffffffffffff8082111561175c57600080fd5b611768868387016116bf565b9350602085013591508082111561177e57600080fd5b5061178b858286016116bf565b9150509250929050565b803577ffffffffffffffffffffffffffffffffffffffffffffffff8116811461141757600080fd5b600060208083850312156117d057600080fd5b823567ffffffffffffffff808211156117e857600080fd5b90840190606082870312156117fc57600080fd5b611804611600565b82358281111561181357600080fd5b83019150601f8201871361182657600080fd5b81356118346116e08261169b565b81815260069190911b8301850190858101908983111561185357600080fd5b938601935b828510156118a5576040858b0312156118715760008081fd5b611879611629565b611882866113f3565b815261188f888701611795565b8189015282526040949094019390860190611858565b8352506118b59050838501611563565b848201526118c560408401611795565b60408201529695505050505050565b600080604083850312156118e757600080fd5b6118f0836113f3565b91506118fe60208401611563565b90509250929050565b6020808252825182820181905260009190848201906040850190845b8181101561195557835173ffffffffffffffffffffffffffffffffffffffff1683529284019291840191600101611923565b50909695505050505050565b7f4e487b7100000000000000000000000000000000000000000000000000000000600052601160045260246000fd5b80820281158282048414176104f3576104f3611961565b6000826119dd577f4e487b7100000000000000000000000000000000000000000000000000000000600052601260045260246000fd5b500490565b7f4e487b7100000000000000000000000000000000000000000000000000000000600052603260045260246000fd5b60007fffffffffffffffffffffffffffffffffffffffffffffffffffffffffffffffff8203611a4257611a42611961565b5060010190565b818103818111156104f3576104f3611961565b7f4e487b7100000000000000000000000000000000000000000000000000000000600052603160045260246000fdfea164736f6c6343000813000a",
    "linkReferences": {}
  },
  "methodIdentifiers": {
    "acceptOwnership()": "79ba5097",
    "applyFeeTokensUpdates(address[],address[])": "7afac322",
    "applyPriceUpdatersUpdates(address[],address[])": "52877af0",
    "convertTokenAmount(address,uint256,address)": "0041e5be",
    "getDestinationChainGasPrice(uint64)": "514e8cff",
    "getFeeTokenAndGasPrices(address,uint64)": "b10096c0",
    "getFeeTokens()": "cdc73d51",
    "getPriceUpdaters()": "bfcd4566",
    "getStalenessThreshold()": "a6c94a73",
    "getTokenPrice(address)": "d02641a0",
    "getTokenPrices(address[])": "45ac924d",
    "getValidatedTokenPrice(address)": "4ab35b0b",
    "owner()": "8da5cb5b",
    "transferOwnership(address)": "f2fde38b",
    "updatePrices(((address,uint192)[],uint64,uint192))": "866548c9"
  },
  "id": 4
}