{
  "abi": [
    {
      "inputs": [
        {
          "components": [
            {
              "internalType": "uint32",
              "name": "version",
              "type": "uint32"
            },
            {
              "internalType": "address",
              "name": "tokenMessenger",
              "type": "address"
            },
            {
              "internalType": "address",
              "name": "messageTransmitter",
              "type": "address"
            }
          ],
          "internalType": "struct USDCTokenPool.USDCConfig",
          "name": "config",
          "type": "tuple"
        },
        {
          "internalType": "contract IBurnMintERC20",
          "name": "token",
          "type": "address"
        },
        {
          "components": [
            {
              "internalType": "bool",
              "name": "isEnabled",
              "type": "bool"
            },
            {
              "internalType": "uint128",
              "name": "capacity",
              "type": "uint128"
            },
            {
              "internalType": "uint128",
              "name": "rate",
              "type": "uint128"
            }
          ],
          "internalType": "struct RateLimiter.Config",
          "name": "rateLimiterConfig",
          "type": "tuple"
        }
      ],
      "stateMutability": "nonpayable",
      "type": "constructor"
    },
    {
      "inputs": [],
      "name": "BucketOverfilled",
      "type": "error"
    },
    {
      "inputs": [
        {
          "internalType": "uint256",
          "name": "capacity",
          "type": "uint256"
        },
        {
          "internalType": "uint256",
          "name": "requested",
          "type": "uint256"
        }
      ],
      "name": "ConsumingMoreThanMaxCapacity",
      "type": "error"
    },
    {
      "inputs": [],
      "name": "InvalidConfig",
      "type": "error"
    },
    {
      "inputs": [],
      "name": "NullAddressNotAllowed",
      "type": "error"
    },
    {
      "inputs": [],
      "name": "PermissionsError",
      "type": "error"
    },
    {
      "inputs": [
        {
          "internalType": "uint256",
          "name": "waitInSeconds",
          "type": "uint256"
        }
      ],
      "name": "RateLimitReached",
      "type": "error"
    },
    {
      "inputs": [
        {
          "internalType": "uint64",
          "name": "domain",
          "type": "uint64"
        }
      ],
      "name": "UnknownDomain",
      "type": "error"
    },
    {
      "inputs": [],
      "name": "UnlockingUSDCFailed",
      "type": "error"
    },
    {
      "anonymous": false,
      "inputs": [
        {
          "indexed": true,
          "internalType": "address",
          "name": "sender",
          "type": "address"
        },
        {
          "indexed": false,
          "internalType": "uint256",
          "name": "amount",
          "type": "uint256"
        }
      ],
      "name": "Burned",
      "type": "event"
    },
    {
      "anonymous": false,
      "inputs": [
        {
          "components": [
            {
              "internalType": "uint32",
              "name": "version",
              "type": "uint32"
            },
            {
              "internalType": "address",
              "name": "tokenMessenger",
              "type": "address"
            },
            {
              "internalType": "address",
              "name": "messageTransmitter",
              "type": "address"
            }
          ],
          "indexed": false,
          "internalType": "struct USDCTokenPool.USDCConfig",
          "name": "",
          "type": "tuple"
        }
      ],
      "name": "ConfigSet",
      "type": "event"
    },
    {
      "anonymous": false,
      "inputs": [
        {
          "components": [
            {
              "internalType": "bytes32",
              "name": "allowedCaller",
              "type": "bytes32"
            },
            {
              "internalType": "uint32",
              "name": "domainIdentifier",
              "type": "uint32"
            },
            {
              "internalType": "uint64",
              "name": "destChainSelector",
              "type": "uint64"
            }
          ],
          "indexed": false,
          "internalType": "struct USDCTokenPool.DomainUpdate[]",
          "name": "",
          "type": "tuple[]"
        }
      ],
      "name": "DomainsSet",
      "type": "event"
    },
    {
      "anonymous": false,
      "inputs": [
        {
          "indexed": true,
          "internalType": "address",
          "name": "sender",
          "type": "address"
        },
        {
          "indexed": false,
          "internalType": "uint256",
          "name": "amount",
          "type": "uint256"
        }
      ],
      "name": "Locked",
      "type": "event"
    },
    {
      "anonymous": false,
      "inputs": [
        {
          "indexed": true,
          "internalType": "address",
          "name": "sender",
          "type": "address"
        },
        {
          "indexed": true,
          "internalType": "address",
          "name": "recipient",
          "type": "address"
        },
        {
          "indexed": false,
          "internalType": "uint256",
          "name": "amount",
          "type": "uint256"
        }
      ],
      "name": "Minted",
      "type": "event"
    },
    {
      "anonymous": false,
      "inputs": [
        {
          "indexed": false,
          "internalType": "address",
          "name": "onRamp",
          "type": "address"
        },
        {
          "indexed": false,
          "internalType": "bool",
          "name": "allowed",
          "type": "bool"
        }
      ],
      "name": "OffRampAllowanceSet",
      "type": "event"
    },
    {
      "anonymous": false,
      "inputs": [
        {
          "indexed": false,
          "internalType": "address",
          "name": "onRamp",
          "type": "address"
        },
        {
          "indexed": false,
          "internalType": "bool",
          "name": "allowed",
          "type": "bool"
        }
      ],
      "name": "OnRampAllowanceSet",
      "type": "event"
    },
    {
      "anonymous": false,
      "inputs": [
        {
          "indexed": true,
          "internalType": "address",
          "name": "from",
          "type": "address"
        },
        {
          "indexed": true,
          "internalType": "address",
          "name": "to",
          "type": "address"
        }
      ],
      "name": "OwnershipTransferRequested",
      "type": "event"
    },
    {
      "anonymous": false,
      "inputs": [
        {
          "indexed": true,
          "internalType": "address",
          "name": "from",
          "type": "address"
        },
        {
          "indexed": true,
          "internalType": "address",
          "name": "to",
          "type": "address"
        }
      ],
      "name": "OwnershipTransferred",
      "type": "event"
    },
    {
      "anonymous": false,
      "inputs": [
        {
          "indexed": false,
          "internalType": "address",
          "name": "account",
          "type": "address"
        }
      ],
      "name": "Paused",
      "type": "event"
    },
    {
      "anonymous": false,
      "inputs": [
        {
          "indexed": true,
          "internalType": "address",
          "name": "sender",
          "type": "address"
        },
        {
          "indexed": true,
          "internalType": "address",
          "name": "recipient",
          "type": "address"
        },
        {
          "indexed": false,
          "internalType": "uint256",
          "name": "amount",
          "type": "uint256"
        }
      ],
      "name": "Released",
      "type": "event"
    },
    {
      "anonymous": false,
      "inputs": [
        {
          "indexed": false,
          "internalType": "address",
          "name": "account",
          "type": "address"
        }
      ],
      "name": "Unpaused",
      "type": "event"
    },
    {
      "inputs": [],
      "name": "acceptOwnership",
      "outputs": [],
      "stateMutability": "nonpayable",
      "type": "function"
    },
    {
      "inputs": [
        {
          "components": [
            {
              "internalType": "address",
              "name": "ramp",
              "type": "address"
            },
            {
              "internalType": "bool",
              "name": "allowed",
              "type": "bool"
            }
          ],
          "internalType": "struct TokenPool.RampUpdate[]",
          "name": "onRamps",
          "type": "tuple[]"
        },
        {
          "components": [
            {
              "internalType": "address",
              "name": "ramp",
              "type": "address"
            },
            {
              "internalType": "bool",
              "name": "allowed",
              "type": "bool"
            }
          ],
          "internalType": "struct TokenPool.RampUpdate[]",
          "name": "offRamps",
          "type": "tuple[]"
        }
      ],
      "name": "applyRampUpdates",
      "outputs": [],
      "stateMutability": "nonpayable",
      "type": "function"
    },
    {
      "inputs": [],
      "name": "currentRateLimiterState",
      "outputs": [
        {
          "components": [
            {
              "internalType": "uint128",
              "name": "tokens",
              "type": "uint128"
            },
            {
              "internalType": "uint32",
              "name": "lastUpdated",
              "type": "uint32"
            },
            {
              "internalType": "bool",
              "name": "isEnabled",
              "type": "bool"
            },
            {
              "internalType": "uint128",
              "name": "capacity",
              "type": "uint128"
            },
            {
              "internalType": "uint128",
              "name": "rate",
              "type": "uint128"
            }
          ],
          "internalType": "struct RateLimiter.TokenBucket",
          "name": "",
          "type": "tuple"
        }
      ],
      "stateMutability": "view",
      "type": "function"
    },
    {
      "inputs": [],
      "name": "getConfig",
      "outputs": [
        {
          "components": [
            {
              "internalType": "uint32",
              "name": "version",
              "type": "uint32"
            },
            {
              "internalType": "address",
              "name": "tokenMessenger",
              "type": "address"
            },
            {
              "internalType": "address",
              "name": "messageTransmitter",
              "type": "address"
            }
          ],
          "internalType": "struct USDCTokenPool.USDCConfig",
          "name": "",
          "type": "tuple"
        }
      ],
      "stateMutability": "view",
      "type": "function"
    },
    {
      "inputs": [
        {
          "internalType": "uint64",
          "name": "chainSelector",
          "type": "uint64"
        }
      ],
      "name": "getDomain",
      "outputs": [
        {
          "components": [
            {
              "internalType": "bytes32",
              "name": "allowedCaller",
              "type": "bytes32"
            },
            {
              "internalType": "uint32",
              "name": "domainIdentifier",
              "type": "uint32"
            }
          ],
          "internalType": "struct USDCTokenPool.Domain",
          "name": "",
          "type": "tuple"
        }
      ],
      "stateMutability": "view",
      "type": "function"
    },
    {
      "inputs": [],
      "name": "getToken",
      "outputs": [
        {
          "internalType": "contract IERC20",
          "name": "token",
          "type": "address"
        }
      ],
      "stateMutability": "view",
      "type": "function"
    },
    {
      "inputs": [],
      "name": "getUSDCInterfaceId",
      "outputs": [
        {
          "internalType": "bytes4",
          "name": "",
          "type": "bytes4"
        }
      ],
      "stateMutability": "pure",
      "type": "function"
    },
    {
      "inputs": [
        {
          "internalType": "address",
          "name": "offRamp",
          "type": "address"
        }
      ],
      "name": "isOffRamp",
      "outputs": [
        {
          "internalType": "bool",
          "name": "",
          "type": "bool"
        }
      ],
      "stateMutability": "view",
      "type": "function"
    },
    {
      "inputs": [
        {
          "internalType": "address",
          "name": "onRamp",
          "type": "address"
        }
      ],
      "name": "isOnRamp",
      "outputs": [
        {
          "internalType": "bool",
          "name": "",
          "type": "bool"
        }
      ],
      "stateMutability": "view",
      "type": "function"
    },
    {
      "inputs": [
        {
          "internalType": "address",
          "name": "",
          "type": "address"
        },
        {
          "internalType": "bytes",
          "name": "destinationReceiver",
          "type": "bytes"
        },
        {
          "internalType": "uint256",
          "name": "amount",
          "type": "uint256"
        },
        {
          "internalType": "uint64",
          "name": "destChainSelector",
          "type": "uint64"
        },
        {
          "internalType": "bytes",
          "name": "",
          "type": "bytes"
        }
      ],
      "name": "lockOrBurn",
      "outputs": [],
      "stateMutability": "nonpayable",
      "type": "function"
    },
    {
      "inputs": [],
      "name": "owner",
      "outputs": [
        {
          "internalType": "address",
          "name": "",
          "type": "address"
        }
      ],
      "stateMutability": "view",
      "type": "function"
    },
    {
      "inputs": [],
      "name": "pause",
      "outputs": [],
      "stateMutability": "nonpayable",
      "type": "function"
    },
    {
      "inputs": [],
      "name": "paused",
      "outputs": [
        {
          "internalType": "bool",
          "name": "",
          "type": "bool"
        }
      ],
      "stateMutability": "view",
      "type": "function"
    },
    {
      "inputs": [
        {
          "internalType": "bytes",
          "name": "",
          "type": "bytes"
        },
        {
          "internalType": "address",
          "name": "receiver",
          "type": "address"
        },
        {
          "internalType": "uint256",
          "name": "amount",
          "type": "uint256"
        },
        {
          "internalType": "uint64",
          "name": "",
          "type": "uint64"
        },
        {
          "internalType": "bytes",
          "name": "extraData",
          "type": "bytes"
        }
      ],
      "name": "releaseOrMint",
      "outputs": [],
      "stateMutability": "nonpayable",
      "type": "function"
    },
    {
      "inputs": [
        {
          "components": [
            {
              "internalType": "uint32",
              "name": "version",
              "type": "uint32"
            },
            {
              "internalType": "address",
              "name": "tokenMessenger",
              "type": "address"
            },
            {
              "internalType": "address",
              "name": "messageTransmitter",
              "type": "address"
            }
          ],
          "internalType": "struct USDCTokenPool.USDCConfig",
          "name": "config",
          "type": "tuple"
        }
      ],
      "name": "setConfig",
      "outputs": [],
      "stateMutability": "nonpayable",
      "type": "function"
    },
    {
      "inputs": [
        {
          "components": [
            {
              "internalType": "bytes32",
              "name": "allowedCaller",
              "type": "bytes32"
            },
            {
              "internalType": "uint32",
              "name": "domainIdentifier",
              "type": "uint32"
            },
            {
              "internalType": "uint64",
              "name": "destChainSelector",
              "type": "uint64"
            }
          ],
          "internalType": "struct USDCTokenPool.DomainUpdate[]",
          "name": "domains",
          "type": "tuple[]"
        }
      ],
      "name": "setDomains",
      "outputs": [],
      "stateMutability": "nonpayable",
      "type": "function"
    },
    {
      "inputs": [
        {
          "components": [
            {
              "internalType": "bool",
              "name": "isEnabled",
              "type": "bool"
            },
            {
              "internalType": "uint128",
              "name": "capacity",
              "type": "uint128"
            },
            {
              "internalType": "uint128",
              "name": "rate",
              "type": "uint128"
            }
          ],
          "internalType": "struct RateLimiter.Config",
          "name": "config",
          "type": "tuple"
        }
      ],
      "name": "setRateLimiterConfig",
      "outputs": [],
      "stateMutability": "nonpayable",
      "type": "function"
    },
    {
      "inputs": [
        {
          "internalType": "bytes4",
          "name": "interfaceId",
          "type": "bytes4"
        }
      ],
      "name": "supportsInterface",
      "outputs": [
        {
          "internalType": "bool",
          "name": "",
          "type": "bool"
        }
      ],
      "stateMutability": "pure",
      "type": "function"
    },
    {
      "inputs": [
        {
          "internalType": "address",
          "name": "to",
          "type": "address"
        }
      ],
      "name": "transferOwnership",
      "outputs": [],
      "stateMutability": "nonpayable",
      "type": "function"
    },
    {
      "inputs": [],
      "name": "unpause",
      "outputs": [],
      "stateMutability": "nonpayable",
      "type": "function"
    }
  ],
  "bytecode": {
    "object": "0x60a06040523480156200001157600080fd5b50604051620029b7380380620029b7833981016040819052620000349162000430565b818133806000816200008d5760405162461bcd60e51b815260206004820152601860248201527f43616e6e6f7420736574206f776e657220746f207a65726f000000000000000060448201526064015b60405180910390fd5b600080546001600160a01b0319166001600160a01b0384811691909117909155811615620000c057620000c08162000222565b50506001805460ff60a01b19169055506001600160a01b038216620000f857604051634655efd160e11b815260040160405180910390fd5b6040805160a081018252602083810180516001600160801b039081168085524263ffffffff169385018490528651151585870181905292518216606086018190529690950151166080938401819052600680546001600160a01b031916909517600160801b9384021760ff60a01b1916600160a01b909202919091179093559091029091176007556001600160a01b039190911690526200019983620002cd565b608051602084015160405163095ea7b360e01b81526001600160a01b039182166004820152600019602482015291169063095ea7b3906044016020604051808303816000875af1158015620001f2573d6000803e3d6000fd5b505050506040513d601f19601f8201168201806040525081019062000218919062000515565b505050506200053a565b336001600160a01b038216036200027c5760405162461bcd60e51b815260206004820152601760248201527f43616e6e6f74207472616e7366657220746f2073656c66000000000000000000604482015260640162000084565b600180546001600160a01b0319166001600160a01b0383811691821790925560008054604051929316917fed8889f560326eb138920d842192f0eb3dd22b4f139c87a2c57538e05bae12789190a350565b60408101516001600160a01b03161580620002f3575060208101516001600160a01b0316155b1562000312576040516306b7c75960e31b815260040160405180910390fd5b8051600880546020808501805163ffffffff9095166001600160c01b031990931683176401000000006001600160a01b03968716021790935560408086018051600980546001600160a01b031916918816919091179055815193845293518516918301919091529151909216908201527f33a7d35707e0c8e46d6fa8dd98b73765c14247a559106927070b1cfd2933f4039060600160405180910390a150565b604051606081016001600160401b0381118282101715620003e357634e487b7160e01b600052604160045260246000fd5b60405290565b6001600160a01b0381168114620003ff57600080fd5b50565b805180151581146200041357600080fd5b919050565b80516001600160801b03811681146200041357600080fd5b600080600083850360e08112156200044757600080fd5b60608112156200045657600080fd5b62000460620003b2565b855163ffffffff811681146200047557600080fd5b815260208601516200048781620003e9565b602082015260408601516200049c81620003e9565b60408201526060860151909450620004b481620003e9565b92506060607f1982011215620004c957600080fd5b50620004d4620003b2565b620004e26080860162000402565b8152620004f260a0860162000418565b60208201526200050560c0860162000418565b6040820152809150509250925092565b6000602082840312156200052857600080fd5b620005338262000402565b9392505050565b60805161245a6200055d600039600081816101ae0152610ad9015261245a6000f3fe608060405234801561001057600080fd5b506004361061016c5760003560e01c806379ba5097116100cd578063af51911211610081578063c92b283211610066578063c92b283214610402578063dfadfa3514610415578063f2fde38b1461049257600080fd5b8063af5191121461033f578063c3f909d41461035257600080fd5b80638627fad6116100b25780638627fad6146102fb5780638da5cb5b1461030e578063968754451461032c57600080fd5b806379ba5097146102eb5780638456cb59146102f357600080fd5b8063493ed008116101245780635c975abb116101095780635c975abb146102875780636d108139146102aa5780636f32b872146102d857600080fd5b8063493ed00814610210578063546719cd1461022357600080fd5b806321df0da71161015557806321df0da7146101ac578063263a890a146101f35780633f4ba83a1461020857600080fd5b806301ffc9a7146101715780631d7a74a014610199575b600080fd5b61018461017f366004611a55565b6104a5565b60405190151581526020015b60405180910390f35b6101846101a7366004611ac0565b610501565b7f00000000000000000000000000000000000000000000000000000000000000005b60405173ffffffffffffffffffffffffffffffffffffffff9091168152602001610190565b610206610201366004611bb9565b61050e565b005b610206610522565b61020661021e366004611c07565b610534565b61022b610635565b604051610190919081516fffffffffffffffffffffffffffffffff908116825260208084015163ffffffff1690830152604080840151151590830152606080840151821690830152608092830151169181019190915260a00190565b60015474010000000000000000000000000000000000000000900460ff16610184565b6040517fd6aca1be000000000000000000000000000000000000000000000000000000008152602001610190565b6101846102e6366004611ac0565b6106ea565b6102066106f7565b6102066107f9565b610206610309366004611d2e565b610809565b60005473ffffffffffffffffffffffffffffffffffffffff166101ce565b61020661033a366004611e0a565b61099c565b61020661034d366004611f6b565b610ba4565b6103bc6040805160608101825260008082526020820181905291810191909152506040805160608101825260085463ffffffff8116825273ffffffffffffffffffffffffffffffffffffffff64010000000090910481166020830152600954169181019190915290565b60408051825163ffffffff16815260208084015173ffffffffffffffffffffffffffffffffffffffff908116918301919091529282015190921690820152606001610190565b610206610410366004611fef565b610db4565b610471610423366004612033565b60408051808201909152600080825260208201525067ffffffffffffffff166000908152600a60209081526040918290208251808401909352805483526001015463ffffffff169082015290565b604080518251815260209283015163ffffffff169281019290925201610190565b6102066104a0366004611ac0565b610dc7565b60007fffffffff0000000000000000000000000000000000000000000000000000000082167fd6aca1be0000000000000000000000000000000000000000000000000000000014806104fb57506104fb82610dd8565b92915050565b60006104fb600483610e70565b610516610ea2565b61051f81610f23565b50565b61052a610ea2565b610532611076565b565b61053c610ea2565b60005b818110156105f757600083838381811061055b5761055b612050565b905060600201803603810190610571919061207f565b6040805180820182528251815260208084015163ffffffff9081168284019081529484015167ffffffffffffffff166000908152600a909252929020905181559151600190920180547fffffffffffffffffffffffffffffffffffffffffffffffffffffffff000000001692909116919091179055506105f0816120eb565b905061053f565b507f3304f6809a670bdd78858cc878edbc7093ffc8a09c54cf26129f6e2a32c4301a8282604051610629929190612123565b60405180910390a15050565b6040805160a0810182526000808252602082018190529181018290526060810182905260808101919091526040805160a0810182526006546fffffffffffffffffffffffffffffffff808216835270010000000000000000000000000000000080830463ffffffff1660208501527401000000000000000000000000000000000000000090920460ff1615159383019390935260075480841660608401520490911660808201526106e5906110f3565b905090565b60006104fb600283610e70565b60015473ffffffffffffffffffffffffffffffffffffffff16331461077d576040517f08c379a000000000000000000000000000000000000000000000000000000000815260206004820152601660248201527f4d7573742062652070726f706f736564206f776e65720000000000000000000060448201526064015b60405180910390fd5b60008054337fffffffffffffffffffffffff00000000000000000000000000000000000000008083168217845560018054909116905560405173ffffffffffffffffffffffffffffffffffffffff90921692909183917f8be0079c531659141344cd1fd0a4f28419497f9722a3daafe3b4186f6b6457e091a350565b610801610ea2565b6105326111a5565b610811611214565b61081a33610501565b610850576040517f5307f5ab00000000000000000000000000000000000000000000000000000000815260040160405180910390fd5b61085983611299565b60008180602001905181019061086f9190612206565b600954815160208301516040517f57ecfd2800000000000000000000000000000000000000000000000000000000815293945073ffffffffffffffffffffffffffffffffffffffff909216926357ecfd28926108ce92916004016122e1565b6020604051808303816000875af11580156108ed573d6000803e3d6000fd5b505050506040513d601f19601f820116820180604052508101906109119190612306565b610947576040517fbf969f2200000000000000000000000000000000000000000000000000000000815260040160405180910390fd5b60405184815273ffffffffffffffffffffffffffffffffffffffff86169033907f9d228d69b5fdb8d273a2336f8fb8612d039631024ea9bf09c424a9503aa078f09060200160405180910390a3505050505050565b6109a4611214565b6109ad336106ea565b6109e3576040517f5307f5ab00000000000000000000000000000000000000000000000000000000815260040160405180910390fd5b67ffffffffffffffff83166000908152600a602090815260408083208151808301909252805482526001015463ffffffff169181018290529103610a5f576040517fd201c48a00000000000000000000000000000000000000000000000000000000815267ffffffffffffffff85166004820152602401610774565b6000610a6e602082898b612323565b610a779161234d565b600854602084015184516040517ff856ddb6000000000000000000000000000000000000000000000000000000008152600481018b905263ffffffff90921660248301526044820184905273ffffffffffffffffffffffffffffffffffffffff7f00000000000000000000000000000000000000000000000000000000000000008116606484015260848301919091529293506401000000009091049091169063f856ddb69060a4016020604051808303816000875af1158015610b3f573d6000803e3d6000fd5b505050506040513d601f19601f82011682018060405250810190610b639190612389565b5060405186815233907f696de425f79f4a40bc6d2122ca50507f0efbeabbff86a84871b7196ab8ea8df79060200160405180910390a2505050505050505050565b610bac610ea2565b60005b8251811015610cad576000838281518110610bcc57610bcc612050565b602002602001015190508060200151610bf2578051610bed906002906112a4565b610c00565b8051610c00906002906112c6565b15610c9c577fbceff8f229c6dfcbf8bdcfb18726b84b0fd249b4803deb3948ff34d904013662848381518110610c3857610c38612050565b602002602001015160000151858481518110610c5657610c56612050565b602002602001015160200151604051610c9392919073ffffffffffffffffffffffffffffffffffffffff9290921682521515602082015260400190565b60405180910390a15b50610ca6816120eb565b9050610baf565b5060005b8151811015610daf576000828281518110610cce57610cce612050565b602002602001015190508060200151610cf4578051610cef906004906112a4565b610d02565b8051610d02906004906112c6565b15610d9e577fd8c3333ded377884ced3869cd0bcb9be54ea664076df1f5d39c4689120313648838381518110610d3a57610d3a612050565b602002602001015160000151848481518110610d5857610d58612050565b602002602001015160200151604051610d9592919073ffffffffffffffffffffffffffffffffffffffff9290921682521515602082015260400190565b60405180910390a15b50610da8816120eb565b9050610cb1565b505050565b610dbc610ea2565b61051f6006826112e8565b610dcf610ea2565b61051f816114cd565b60007fffffffff0000000000000000000000000000000000000000000000000000000082167f317fa3340000000000000000000000000000000000000000000000000000000014806104fb57507fffffffff0000000000000000000000000000000000000000000000000000000082167f01ffc9a7000000000000000000000000000000000000000000000000000000001492915050565b73ffffffffffffffffffffffffffffffffffffffff8116600090815260018301602052604081205415155b9392505050565b60005473ffffffffffffffffffffffffffffffffffffffff163314610532576040517f08c379a000000000000000000000000000000000000000000000000000000000815260206004820152601660248201527f4f6e6c792063616c6c61626c65206279206f776e6572000000000000000000006044820152606401610774565b604081015173ffffffffffffffffffffffffffffffffffffffff161580610f625750602081015173ffffffffffffffffffffffffffffffffffffffff16155b15610f99576040517f35be3ac800000000000000000000000000000000000000000000000000000000815260040160405180910390fd5b8051600880546020808501805163ffffffff9095167fffffffffffffffff000000000000000000000000000000000000000000000000909316831764010000000073ffffffffffffffffffffffffffffffffffffffff968716021790935560408086018051600980547fffffffffffffffffffffffff000000000000000000000000000000000000000016918816919091179055815193845293518516918301919091529151909216908201527f33a7d35707e0c8e46d6fa8dd98b73765c14247a559106927070b1cfd2933f4039060600160405180910390a150565b61107e6115c2565b600180547fffffffffffffffffffffff00ffffffffffffffffffffffffffffffffffffffff1690557f5db9ee0a495bf2e6ff9c91a7834c1ba4fdd244a5e8aa4e537bd38aeae4b073aa335b60405173ffffffffffffffffffffffffffffffffffffffff909116815260200160405180910390a1565b6040805160a08101825260008082526020820181905291810182905260608101829052608081019190915261118182606001516fffffffffffffffffffffffffffffffff1683600001516fffffffffffffffffffffffffffffffff16846020015163ffffffff164261116591906123a6565b85608001516fffffffffffffffffffffffffffffffff16611646565b6fffffffffffffffffffffffffffffffff1682525063ffffffff4216602082015290565b6111ad611214565b600180547fffffffffffffffffffffff00ffffffffffffffffffffffffffffffffffffffff16740100000000000000000000000000000000000000001790557f62e78cea01bee320cd4e420270b5ea74000d11b0c9f74754ebdbfc544b05a2586110c93390565b60015474010000000000000000000000000000000000000000900460ff1615610532576040517f08c379a000000000000000000000000000000000000000000000000000000000815260206004820152601060248201527f5061757361626c653a20706175736564000000000000000000000000000000006044820152606401610774565b61051f60068261166e565b6000610e9b8373ffffffffffffffffffffffffffffffffffffffff84166118fd565b6000610e9b8373ffffffffffffffffffffffffffffffffffffffff84166119f0565b815460009061131190700100000000000000000000000000000000900463ffffffff16426123a6565b905080156113b35760018301548354611359916fffffffffffffffffffffffffffffffff80821692811691859170010000000000000000000000000000000090910416611646565b83546fffffffffffffffffffffffffffffffff919091167fffffffffffffffffffffffff0000000000000000000000000000000000000000909116177001000000000000000000000000000000004263ffffffff16021783555b602082015183546113d9916fffffffffffffffffffffffffffffffff9081169116611a3f565b83548351151574010000000000000000000000000000000000000000027fffffffffffffffffffffff00ffffffff000000000000000000000000000000009091166fffffffffffffffffffffffffffffffff92831617178455602083015160408085015183167001000000000000000000000000000000000291909216176001850155517f9ea3374b67bf275e6bb9c8ae68f9cae023e1c528b4b27e092f0bb209d3531c19906114c09084908151151581526020808301516fffffffffffffffffffffffffffffffff90811691830191909152604092830151169181019190915260600190565b60405180910390a1505050565b3373ffffffffffffffffffffffffffffffffffffffff82160361154c576040517f08c379a000000000000000000000000000000000000000000000000000000000815260206004820152601760248201527f43616e6e6f74207472616e7366657220746f2073656c660000000000000000006044820152606401610774565b600180547fffffffffffffffffffffffff00000000000000000000000000000000000000001673ffffffffffffffffffffffffffffffffffffffff83811691821790925560008054604051929316917fed8889f560326eb138920d842192f0eb3dd22b4f139c87a2c57538e05bae12789190a350565b60015474010000000000000000000000000000000000000000900460ff16610532576040517f08c379a000000000000000000000000000000000000000000000000000000000815260206004820152601460248201527f5061757361626c653a206e6f74207061757365640000000000000000000000006044820152606401610774565b60006116658561165684866123b9565b61166090876123d0565b611a3f565b95945050505050565b815474010000000000000000000000000000000000000000900460ff161580611695575080155b1561169e575050565b815460018301546fffffffffffffffffffffffffffffffff808316929116906000906116e490700100000000000000000000000000000000900463ffffffff16426123a6565b905080156117a45781831115611726576040517f9725942a00000000000000000000000000000000000000000000000000000000815260040160405180910390fd5b60018501546117609083908590849070010000000000000000000000000000000090046fffffffffffffffffffffffffffffffff16611646565b85547fffffffffffffffffffffffff00000000ffffffffffffffffffffffffffffffff167001000000000000000000000000000000004263ffffffff160217865592505b838210156117e8576040517f48369c430000000000000000000000000000000000000000000000000000000081526004810183905260248101859052604401610774565b8383101561187c5760018581015470010000000000000000000000000000000090046fffffffffffffffffffffffffffffffff1690819061182990826123a6565b61183386886123a6565b61183d91906123d0565b61184791906123e3565b6040517fdc96cefa00000000000000000000000000000000000000000000000000000000815260040161077491815260200190565b61188684846123a6565b85547fffffffffffffffffffffffffffffffff00000000000000000000000000000000166fffffffffffffffffffffffffffffffff82161786556040518581529093507f1871cdf8010e63f2eb8384381a68dfa7416dc571a5517e66e88b2d2d0c0a690a9060200160405180910390a15050505050565b600081815260018301602052604081205480156119e65760006119216001836123a6565b8554909150600090611935906001906123a6565b905081811461199a57600086600001828154811061195557611955612050565b906000526020600020015490508087600001848154811061197857611978612050565b6000918252602080832090910192909255918252600188019052604090208390555b85548690806119ab576119ab61241e565b6001900381819060005260206000200160009055905585600101600086815260200190815260200160002060009055600193505050506104fb565b60009150506104fb565b6000818152600183016020526040812054611a37575081546001818101845560008481526020808220909301849055845484825282860190935260409020919091556104fb565b5060006104fb565b6000818310611a4e5781610e9b565b5090919050565b600060208284031215611a6757600080fd5b81357fffffffff0000000000000000000000000000000000000000000000000000000081168114610e9b57600080fd5b803573ffffffffffffffffffffffffffffffffffffffff81168114611abb57600080fd5b919050565b600060208284031215611ad257600080fd5b610e9b82611a97565b7f4e487b7100000000000000000000000000000000000000000000000000000000600052604160045260246000fd5b6040516060810167ffffffffffffffff81118282101715611b2d57611b2d611adb565b60405290565b6040805190810167ffffffffffffffff81118282101715611b2d57611b2d611adb565b604051601f82017fffffffffffffffffffffffffffffffffffffffffffffffffffffffffffffffe016810167ffffffffffffffff81118282101715611b9d57611b9d611adb565b604052919050565b803563ffffffff81168114611abb57600080fd5b600060608284031215611bcb57600080fd5b611bd3611b0a565b611bdc83611ba5565b8152611bea60208401611a97565b6020820152611bfb60408401611a97565b60408201529392505050565b60008060208385031215611c1a57600080fd5b823567ffffffffffffffff80821115611c3257600080fd5b818501915085601f830112611c4657600080fd5b813581811115611c5557600080fd5b866020606083028501011115611c6a57600080fd5b60209290920196919550909350505050565b600067ffffffffffffffff821115611c9657611c96611adb565b50601f017fffffffffffffffffffffffffffffffffffffffffffffffffffffffffffffffe01660200190565b600082601f830112611cd357600080fd5b8135611ce6611ce182611c7c565b611b56565b818152846020838601011115611cfb57600080fd5b816020850160208301376000918101602001919091529392505050565b67ffffffffffffffff8116811461051f57600080fd5b600080600080600060a08688031215611d4657600080fd5b853567ffffffffffffffff80821115611d5e57600080fd5b611d6a89838a01611cc2565b9650611d7860208901611a97565b95506040880135945060608801359150611d9182611d18565b90925060808701359080821115611da757600080fd5b50611db488828901611cc2565b9150509295509295909350565b60008083601f840112611dd357600080fd5b50813567ffffffffffffffff811115611deb57600080fd5b602083019150836020828501011115611e0357600080fd5b9250929050565b600080600080600080600060a0888a031215611e2557600080fd5b611e2e88611a97565b9650602088013567ffffffffffffffff80821115611e4b57600080fd5b611e578b838c01611dc1565b909850965060408a0135955060608a01359150611e7382611d18565b90935060808901359080821115611e8957600080fd5b50611e968a828b01611dc1565b989b979a50959850939692959293505050565b801515811461051f57600080fd5b600082601f830112611ec857600080fd5b8135602067ffffffffffffffff821115611ee457611ee4611adb565b611ef2818360051b01611b56565b82815260069290921b84018101918181019086841115611f1157600080fd5b8286015b84811015611f605760408189031215611f2e5760008081fd5b611f36611b33565b611f3f82611a97565b815284820135611f4e81611ea9565b81860152835291830191604001611f15565b509695505050505050565b60008060408385031215611f7e57600080fd5b823567ffffffffffffffff80821115611f9657600080fd5b611fa286838701611eb7565b93506020850135915080821115611fb857600080fd5b50611fc585828601611eb7565b9150509250929050565b80356fffffffffffffffffffffffffffffffff81168114611abb57600080fd5b60006060828403121561200157600080fd5b612009611b0a565b823561201481611ea9565b815261202260208401611fcf565b6020820152611bfb60408401611fcf565b60006020828403121561204557600080fd5b8135610e9b81611d18565b7f4e487b7100000000000000000000000000000000000000000000000000000000600052603260045260246000fd5b60006060828403121561209157600080fd5b612099611b0a565b823581526120a960208401611ba5565b60208201526040830135611bfb81611d18565b7f4e487b7100000000000000000000000000000000000000000000000000000000600052601160045260246000fd5b60007fffffffffffffffffffffffffffffffffffffffffffffffffffffffffffffffff820361211c5761211c6120bc565b5060010190565b6020808252818101839052600090604080840186845b87811015612188578135835263ffffffff612155868401611ba5565b16858401528382013561216781611d18565b67ffffffffffffffff16838501526060928301929190910190600101612139565b5090979650505050505050565b60005b838110156121b0578181015183820152602001612198565b50506000910152565b600082601f8301126121ca57600080fd5b81516121d8611ce182611c7c565b8181528460208386010111156121ed57600080fd5b6121fe826020830160208701612195565b949350505050565b60006020828403121561221857600080fd5b815167ffffffffffffffff8082111561223057600080fd5b908301906040828603121561224457600080fd5b61224c611b33565b82518281111561225b57600080fd5b612267878286016121b9565b82525060208301518281111561227c57600080fd5b612288878286016121b9565b60208301525095945050505050565b600081518084526122af816020860160208601612195565b601f017fffffffffffffffffffffffffffffffffffffffffffffffffffffffffffffffe0169290920160200192915050565b6040815260006122f46040830185612297565b82810360208401526116658185612297565b60006020828403121561231857600080fd5b8151610e9b81611ea9565b6000808585111561233357600080fd5b8386111561234057600080fd5b5050820193919092039150565b803560208310156104fb577fffffffffffffffffffffffffffffffffffffffffffffffffffffffffffffffff602084900360031b1b1692915050565b60006020828403121561239b57600080fd5b8151610e9b81611d18565b818103818111156104fb576104fb6120bc565b80820281158282048414176104fb576104fb6120bc565b808201808211156104fb576104fb6120bc565b600082612419577f4e487b7100000000000000000000000000000000000000000000000000000000600052601260045260246000fd5b500490565b7f4e487b7100000000000000000000000000000000000000000000000000000000600052603160045260246000fdfea164736f6c6343000813000a",
    "linkReferences": {}
  },
  "methodIdentifiers": {
    "acceptOwnership()": "79ba5097",
    "applyRampUpdates((address,bool)[],(address,bool)[])": "af519112",
    "currentRateLimiterState()": "546719cd",
    "getConfig()": "c3f909d4",
    "getDomain(uint64)": "dfadfa35",
    "getToken()": "21df0da7",
    "getUSDCInterfaceId()": "6d108139",
    "isOffRamp(address)": "1d7a74a0",
    "isOnRamp(address)": "6f32b872",
    "lockOrBurn(address,bytes,uint256,uint64,bytes)": "96875445",
    "owner()": "8da5cb5b",
    "pause()": "8456cb59",
    "paused()": "5c975abb",
    "releaseOrMint(bytes,address,uint256,uint64,bytes)": "8627fad6",
    "setConfig((uint32,address,address))": "263a890a",
    "setDomains((bytes32,uint32,uint64)[])": "493ed008",
    "setRateLimiterConfig((bool,uint128,uint128))": "c92b2832",
    "supportsInterface(bytes4)": "01ffc9a7",
    "transferOwnership(address)": "f2fde38b",
    "unpause()": "3f4ba83a"
  },
  "id": 41
}