{
  "abi": [
    {
      "inputs": [
        {
          "components": [
            {
              "internalType": "uint64",
              "name": "chainSelector",
              "type": "uint64"
            },
            {
              "internalType": "uint64",
              "name": "sourceChainSelector",
              "type": "uint64"
            },
            {
              "internalType": "address",
              "name": "onRamp",
              "type": "address"
            }
          ],
          "internalType": "struct CommitStore.StaticConfig",
          "name": "staticConfig",
          "type": "tuple"
        }
      ],
      "stateMutability": "nonpayable",
      "type": "constructor"
    },
    {
      "inputs": [],
      "name": "BadARMSignal",
      "type": "error"
    },
    {
      "inputs": [
        {
          "internalType": "bytes32",
          "name": "expected",
          "type": "bytes32"
        },
        {
          "internalType": "bytes32",
          "name": "actual",
          "type": "bytes32"
        }
      ],
      "name": "ConfigDigestMismatch",
      "type": "error"
    },
    {
      "inputs": [],
      "name": "InvalidCommitStoreConfig",
      "type": "error"
    },
    {
      "inputs": [
        {
          "internalType": "string",
          "name": "message",
          "type": "string"
        }
      ],
      "name": "InvalidConfig",
      "type": "error"
    },
    {
      "inputs": [
        {
          "components": [
            {
              "internalType": "uint64",
              "name": "min",
              "type": "uint64"
            },
            {
              "internalType": "uint64",
              "name": "max",
              "type": "uint64"
            }
          ],
          "internalType": "struct CommitStore.Interval",
          "name": "interval",
          "type": "tuple"
        }
      ],
      "name": "InvalidInterval",
      "type": "error"
    },
    {
      "inputs": [],
      "name": "InvalidProof",
      "type": "error"
    },
    {
      "inputs": [],
      "name": "InvalidRoot",
      "type": "error"
    },
    {
      "inputs": [],
      "name": "NonUniqueSignatures",
      "type": "error"
    },
    {
      "inputs": [],
      "name": "PausedError",
      "type": "error"
    },
    {
      "inputs": [],
      "name": "SignaturesOutOfRegistration",
      "type": "error"
    },
    {
      "inputs": [],
      "name": "UnauthorizedSigner",
      "type": "error"
    },
    {
      "inputs": [],
      "name": "UnauthorizedTransmitter",
      "type": "error"
    },
    {
      "inputs": [
        {
          "internalType": "uint256",
          "name": "expected",
          "type": "uint256"
        },
        {
          "internalType": "uint256",
          "name": "actual",
          "type": "uint256"
        }
      ],
      "name": "WrongMessageLength",
      "type": "error"
    },
    {
      "inputs": [],
      "name": "WrongNumberOfSignatures",
      "type": "error"
    },
    {
      "anonymous": false,
      "inputs": [
        {
          "components": [
            {
              "internalType": "uint64",
              "name": "chainSelector",
              "type": "uint64"
            },
            {
              "internalType": "uint64",
              "name": "sourceChainSelector",
              "type": "uint64"
            },
            {
              "internalType": "address",
              "name": "onRamp",
              "type": "address"
            }
          ],
          "indexed": false,
          "internalType": "struct CommitStore.StaticConfig",
          "name": "staticConfig",
          "type": "tuple"
        },
        {
          "components": [
            {
              "internalType": "address",
              "name": "priceRegistry",
              "type": "address"
            },
            {
              "internalType": "address",
              "name": "ARM",
              "type": "address"
            }
          ],
          "indexed": false,
          "internalType": "struct CommitStore.DynamicConfig",
          "name": "dynamicConfig",
          "type": "tuple"
        }
      ],
      "name": "ConfigSet",
      "type": "event"
    },
    {
      "anonymous": false,
      "inputs": [
        {
          "indexed": false,
          "internalType": "uint32",
          "name": "previousConfigBlockNumber",
          "type": "uint32"
        },
        {
          "indexed": false,
          "internalType": "bytes32",
          "name": "configDigest",
          "type": "bytes32"
        },
        {
          "indexed": false,
          "internalType": "uint64",
          "name": "configCount",
          "type": "uint64"
        },
        {
          "indexed": false,
          "internalType": "address[]",
          "name": "signers",
          "type": "address[]"
        },
        {
          "indexed": false,
          "internalType": "address[]",
          "name": "transmitters",
          "type": "address[]"
        },
        {
          "indexed": false,
          "internalType": "uint8",
          "name": "f",
          "type": "uint8"
        },
        {
          "indexed": false,
          "internalType": "bytes",
          "name": "onchainConfig",
          "type": "bytes"
        },
        {
          "indexed": false,
          "internalType": "uint64",
          "name": "offchainConfigVersion",
          "type": "uint64"
        },
        {
          "indexed": false,
          "internalType": "bytes",
          "name": "offchainConfig",
          "type": "bytes"
        }
      ],
      "name": "ConfigSet",
      "type": "event"
    },
    {
      "anonymous": false,
      "inputs": [
        {
          "indexed": true,
          "internalType": "address",
          "name": "from",
          "type": "address"
        },
        {
          "indexed": true,
          "internalType": "address",
          "name": "to",
          "type": "address"
        }
      ],
      "name": "OwnershipTransferRequested",
      "type": "event"
    },
    {
      "anonymous": false,
      "inputs": [
        {
          "indexed": true,
          "internalType": "address",
          "name": "from",
          "type": "address"
        },
        {
          "indexed": true,
          "internalType": "address",
          "name": "to",
          "type": "address"
        }
      ],
      "name": "OwnershipTransferred",
      "type": "event"
    },
    {
      "anonymous": false,
      "inputs": [
        {
          "indexed": false,
          "internalType": "address",
          "name": "account",
          "type": "address"
        }
      ],
      "name": "Paused",
      "type": "event"
    },
    {
      "anonymous": false,
      "inputs": [
        {
          "components": [
            {
              "components": [
                {
                  "components": [
                    {
                      "internalType": "address",
                      "name": "sourceToken",
                      "type": "address"
                    },
                    {
                      "internalType": "uint192",
                      "name": "usdPerToken",
                      "type": "uint192"
                    }
                  ],
                  "internalType": "struct Internal.TokenPriceUpdate[]",
                  "name": "tokenPriceUpdates",
                  "type": "tuple[]"
                },
                {
                  "internalType": "uint64",
                  "name": "destChainSelector",
                  "type": "uint64"
                },
                {
                  "internalType": "uint192",
                  "name": "usdPerUnitGas",
                  "type": "uint192"
                }
              ],
              "internalType": "struct Internal.PriceUpdates",
              "name": "priceUpdates",
              "type": "tuple"
            },
            {
              "components": [
                {
                  "internalType": "uint64",
                  "name": "min",
                  "type": "uint64"
                },
                {
                  "internalType": "uint64",
                  "name": "max",
                  "type": "uint64"
                }
              ],
              "internalType": "struct CommitStore.Interval",
              "name": "interval",
              "type": "tuple"
            },
            {
              "internalType": "bytes32",
              "name": "merkleRoot",
              "type": "bytes32"
            }
          ],
          "indexed": false,
          "internalType": "struct CommitStore.CommitReport",
          "name": "report",
          "type": "tuple"
        }
      ],
      "name": "ReportAccepted",
      "type": "event"
    },
    {
      "anonymous": false,
      "inputs": [
        {
          "indexed": false,
          "internalType": "bytes32",
          "name": "root",
          "type": "bytes32"
        }
      ],
      "name": "RootRemoved",
      "type": "event"
    },
    {
      "anonymous": false,
      "inputs": [
        {
          "indexed": false,
          "internalType": "bytes32",
          "name": "configDigest",
          "type": "bytes32"
        },
        {
          "indexed": false,
          "internalType": "uint32",
          "name": "epoch",
          "type": "uint32"
        }
      ],
      "name": "Transmitted",
      "type": "event"
    },
    {
      "anonymous": false,
      "inputs": [
        {
          "indexed": false,
          "internalType": "address",
          "name": "account",
          "type": "address"
        }
      ],
      "name": "Unpaused",
      "type": "event"
    },
    {
      "inputs": [],
      "name": "acceptOwnership",
      "outputs": [],
      "stateMutability": "nonpayable",
      "type": "function"
    },
    {
      "inputs": [],
      "name": "getDynamicConfig",
      "outputs": [
        {
          "components": [
            {
              "internalType": "address",
              "name": "priceRegistry",
              "type": "address"
            },
            {
              "internalType": "address",
              "name": "ARM",
              "type": "address"
            }
          ],
          "internalType": "struct CommitStore.DynamicConfig",
          "name": "",
          "type": "tuple"
        }
      ],
      "stateMutability": "view",
      "type": "function"
    },
    {
      "inputs": [],
      "name": "getExpectedNextSequenceNumber",
      "outputs": [
        {
          "internalType": "uint64",
          "name": "",
          "type": "uint64"
        }
      ],
      "stateMutability": "view",
      "type": "function"
    },
    {
      "inputs": [
        {
          "internalType": "bytes32",
          "name": "root",
          "type": "bytes32"
        }
      ],
      "name": "getMerkleRoot",
      "outputs": [
        {
          "internalType": "uint256",
          "name": "",
          "type": "uint256"
        }
      ],
      "stateMutability": "view",
      "type": "function"
    },
    {
      "inputs": [],
      "name": "getStaticConfig",
      "outputs": [
        {
          "components": [
            {
              "internalType": "uint64",
              "name": "chainSelector",
              "type": "uint64"
            },
            {
              "internalType": "uint64",
              "name": "sourceChainSelector",
              "type": "uint64"
            },
            {
              "internalType": "address",
              "name": "onRamp",
              "type": "address"
            }
          ],
          "internalType": "struct CommitStore.StaticConfig",
          "name": "",
          "type": "tuple"
        }
      ],
      "stateMutability": "view",
      "type": "function"
    },
    {
      "inputs": [],
      "name": "getTransmitters",
      "outputs": [
        {
          "internalType": "address[]",
          "name": "",
          "type": "address[]"
        }
      ],
      "stateMutability": "view",
      "type": "function"
    },
    {
      "inputs": [],
      "name": "isARMHealthy",
      "outputs": [
        {
          "internalType": "bool",
          "name": "",
          "type": "bool"
        }
      ],
      "stateMutability": "view",
      "type": "function"
    },
    {
      "inputs": [
        {
          "internalType": "bytes32",
          "name": "root",
          "type": "bytes32"
        }
      ],
      "name": "isBlessed",
      "outputs": [
        {
          "internalType": "bool",
          "name": "",
          "type": "bool"
        }
      ],
      "stateMutability": "view",
      "type": "function"
    },
    {
      "inputs": [],
      "name": "latestConfigDetails",
      "outputs": [
        {
          "internalType": "uint32",
          "name": "configCount",
          "type": "uint32"
        },
        {
          "internalType": "uint32",
          "name": "blockNumber",
          "type": "uint32"
        },
        {
          "internalType": "bytes32",
          "name": "configDigest",
          "type": "bytes32"
        }
      ],
      "stateMutability": "view",
      "type": "function"
    },
    {
      "inputs": [],
      "name": "latestConfigDigestAndEpoch",
      "outputs": [
        {
          "internalType": "bool",
          "name": "scanLogs",
          "type": "bool"
        },
        {
          "internalType": "bytes32",
          "name": "configDigest",
          "type": "bytes32"
        },
        {
          "internalType": "uint32",
          "name": "epoch",
          "type": "uint32"
        }
      ],
      "stateMutability": "view",
      "type": "function"
    },
    {
      "inputs": [],
      "name": "owner",
      "outputs": [
        {
          "internalType": "address",
          "name": "",
          "type": "address"
        }
      ],
      "stateMutability": "view",
      "type": "function"
    },
    {
      "inputs": [],
      "name": "pause",
      "outputs": [],
      "stateMutability": "nonpayable",
      "type": "function"
    },
    {
      "inputs": [],
      "name": "paused",
      "outputs": [
        {
          "internalType": "bool",
          "name": "",
          "type": "bool"
        }
      ],
      "stateMutability": "view",
      "type": "function"
    },
    {
      "inputs": [
        {
          "internalType": "bytes32[]",
          "name": "rootToReset",
          "type": "bytes32[]"
        }
      ],
      "name": "resetUnblessedRoots",
      "outputs": [],
      "stateMutability": "nonpayable",
      "type": "function"
    },
    {
      "inputs": [
        {
          "internalType": "uint64",
          "name": "minSeqNr",
          "type": "uint64"
        }
      ],
      "name": "setMinSeqNr",
      "outputs": [],
      "stateMutability": "nonpayable",
      "type": "function"
    },
    {
      "inputs": [
        {
          "internalType": "address[]",
          "name": "signers",
          "type": "address[]"
        },
        {
          "internalType": "address[]",
          "name": "transmitters",
          "type": "address[]"
        },
        {
          "internalType": "uint8",
          "name": "f",
          "type": "uint8"
        },
        {
          "internalType": "bytes",
          "name": "onchainConfig",
          "type": "bytes"
        },
        {
          "internalType": "uint64",
          "name": "offchainConfigVersion",
          "type": "uint64"
        },
        {
          "internalType": "bytes",
          "name": "offchainConfig",
          "type": "bytes"
        }
      ],
      "name": "setOCR2Config",
      "outputs": [],
      "stateMutability": "nonpayable",
      "type": "function"
    },
    {
      "inputs": [
        {
          "internalType": "address",
          "name": "to",
          "type": "address"
        }
      ],
      "name": "transferOwnership",
      "outputs": [],
      "stateMutability": "nonpayable",
      "type": "function"
    },
    {
      "inputs": [
        {
          "internalType": "bytes32[3]",
          "name": "reportContext",
          "type": "bytes32[3]"
        },
        {
          "internalType": "bytes",
          "name": "report",
          "type": "bytes"
        },
        {
          "internalType": "bytes32[]",
          "name": "rs",
          "type": "bytes32[]"
        },
        {
          "internalType": "bytes32[]",
          "name": "ss",
          "type": "bytes32[]"
        },
        {
          "internalType": "bytes32",
          "name": "rawVs",
          "type": "bytes32"
        }
      ],
      "name": "transmit",
      "outputs": [],
      "stateMutability": "nonpayable",
      "type": "function"
    },
    {
      "inputs": [],
      "name": "typeAndVersion",
      "outputs": [
        {
          "internalType": "string",
          "name": "",
          "type": "string"
        }
      ],
      "stateMutability": "view",
      "type": "function"
    },
    {
      "inputs": [],
      "name": "unpause",
      "outputs": [],
      "stateMutability": "nonpayable",
      "type": "function"
    },
    {
      "inputs": [
        {
          "internalType": "bytes32[]",
          "name": "hashedLeaves",
          "type": "bytes32[]"
        },
        {
          "internalType": "bytes32[]",
          "name": "proofs",
          "type": "bytes32[]"
        },
        {
          "internalType": "uint256",
          "name": "proofFlagBits",
          "type": "uint256"
        }
      ],
      "name": "verify",
      "outputs": [
        {
          "internalType": "uint256",
          "name": "timestamp",
          "type": "uint256"
        }
      ],
      "stateMutability": "view",
      "type": "function"
    }
  ],
  "bytecode": {
    "object": "0x60e0604052600a80546001600160481b03191660011790553480156200002457600080fd5b50604051620031c3380380620031c3833981016040819052620000479162000224565b33806000816200009e5760405162461bcd60e51b815260206004820152601860248201527f43616e6e6f7420736574206f776e657220746f207a65726f000000000000000060448201526064015b60405180910390fd5b600080546001600160a01b0319166001600160a01b0384811691909117909155811615620000d157620000d1816200015c565b50505060408101516001600160a01b03161580620000f7575080516001600160401b0316155b806200010e575060208101516001600160401b0316155b156200012d57604051631fc5f15f60e11b815260040160405180910390fd5b80516001600160401b0390811660805260208201511660a052604001516001600160a01b031660c052620002b2565b336001600160a01b03821603620001b65760405162461bcd60e51b815260206004820152601760248201527f43616e6e6f74207472616e7366657220746f2073656c66000000000000000000604482015260640162000095565b600180546001600160a01b0319166001600160a01b0383811691821790925560008054604051929316917fed8889f560326eb138920d842192f0eb3dd22b4f139c87a2c57538e05bae12789190a350565b80516001600160401b03811681146200021f57600080fd5b919050565b6000606082840312156200023757600080fd5b604051606081016001600160401b03811182821017156200026857634e487b7160e01b600052604160045260246000fd5b604052620002768362000207565b8152620002866020840162000207565b602082015260408301516001600160a01b0381168114620002a657600080fd5b60408201529392505050565b60805160a05160c051612ecc620002f76000396000818161020901526119050152600081816101d901526118dc0152600081816101a901526118b70152612ecc6000f3fe608060405234801561001057600080fd5b50600436106101775760003560e01c806379ba5097116100d8578063ad7a22f81161008c578063f2fde38b11610066578063f2fde38b1461045f578063f47a869014610472578063ff888fb11461048557600080fd5b8063ad7a22f814610419578063afcb95d71461042c578063b1dc65a41461044c57600080fd5b80638456cb59116100bd5780638456cb59146103c95780638da5cb5b146103d1578063a7206cd6146103f957600080fd5b806379ba50971461039157806381ff70481461039957600080fd5b80633f4ba83a1161012f5780635c975abb116101145780635c975abb14610317578063666cab8d1461032e5780637437ff9f1461034357600080fd5b80633f4ba83a146102f35780634120fccd146102fb57600080fd5b8063181f5a7711610160578063181f5a77146102745780631ef38174146102bd57806332048875146102d257600080fd5b806306285c691461017c5780630a6cd30d1461025c575b600080fd5b610246604080516060810182526000808252602082018190529181019190915260405180606001604052807f000000000000000000000000000000000000000000000000000000000000000067ffffffffffffffff1681526020017f000000000000000000000000000000000000000000000000000000000000000067ffffffffffffffff1681526020017f000000000000000000000000000000000000000000000000000000000000000073ffffffffffffffffffffffffffffffffffffffff16815250905090565b604051610253919061213f565b60405180910390f35b610264610498565b6040519015158152602001610253565b6102b06040518060400160405280601181526020017f436f6d6d697453746f726520312e302e3000000000000000000000000000000081525081565b60405161025391906121e9565b6102d06102cb366004612445565b610532565b005b6102e56102e036600461255e565b610cb9565b604051908152602001610253565b6102d0610dc4565b600a5460405167ffffffffffffffff9091168152602001610253565b600a5468010000000000000000900460ff16610264565b610336610e2a565b6040516102539190612623565b6040805180820182526000808252602091820152815180830190925260085473ffffffffffffffffffffffffffffffffffffffff908116835260095416908201526040516102539190612636565b6102d0610e99565b6004546002546040805163ffffffff80851682526401000000009094049093166020840152820152606001610253565b6102d0610f96565b60005460405173ffffffffffffffffffffffffffffffffffffffff9091168152602001610253565b6102e5610407366004612667565b6000908152600b602052604090205490565b6102d0610427366004612680565b611001565b604080516001815260006020820181905291810191909152606001610253565b6102d061045a36600461269d565b611044565b6102d061046d366004612782565b6115cc565b6102d061048036600461279f565b6115e0565b610264610493366004612667565b61167f565b600954604080517f397796f7000000000000000000000000000000000000000000000000000000008152905160009273ffffffffffffffffffffffffffffffffffffffff169163397796f79160048083019260209291908290030181865afa158015610508573d6000803e3d6000fd5b505050506040513d601f19601f8201168201806040525081019061052c91906127e1565b15905090565b855185518560ff16601f8311156105aa576040517f89a6198900000000000000000000000000000000000000000000000000000000815260206004820152601060248201527f746f6f206d616e79207369676e6572730000000000000000000000000000000060448201526064015b60405180910390fd5b80600003610614576040517f89a6198900000000000000000000000000000000000000000000000000000000815260206004820152601260248201527f66206d75737420626520706f736974697665000000000000000000000000000060448201526064016105a1565b8183146106a2576040517f89a61989000000000000000000000000000000000000000000000000000000008152602060048201526024808201527f6f7261636c6520616464726573736573206f7574206f6620726567697374726160448201527f74696f6e0000000000000000000000000000000000000000000000000000000060648201526084016105a1565b6106ad816003612832565b8311610715576040517f89a6198900000000000000000000000000000000000000000000000000000000815260206004820152601860248201527f6661756c74792d6f7261636c65206620746f6f2068696768000000000000000060448201526064016105a1565b61071d611738565b610726866117bb565b60065460005b8181101561082257600560006006838154811061074b5761074b612849565b600091825260208083209091015473ffffffffffffffffffffffffffffffffffffffff168352820192909252604001812080547fffffffffffffffffffffffffffffffffffffffffffffffffffffffffffff0000169055600780546005929190849081106107bb576107bb612849565b600091825260208083209091015473ffffffffffffffffffffffffffffffffffffffff168352820192909252604001902080547fffffffffffffffffffffffffffffffffffffffffffffffffffffffffffff000016905561081b81612878565b905061072c565b50895160005b81811015610b615760008c828151811061084457610844612849565b6020026020010151905060006002811115610861576108616128b0565b73ffffffffffffffffffffffffffffffffffffffff8216600090815260056020526040902054610100900460ff1660028111156108a0576108a06128b0565b14610907576040517f89a6198900000000000000000000000000000000000000000000000000000000815260206004820152601760248201527f7265706561746564207369676e6572206164647265737300000000000000000060448201526064016105a1565b6040805180820190915260ff83168152602081016001905273ffffffffffffffffffffffffffffffffffffffff821660009081526005602090815260409091208251815460ff9091167fffffffffffffffffffffffffffffffffffffffffffffffffffffffffffffff0082168117835592840151919283917fffffffffffffffffffffffffffffffffffffffffffffffffffffffffffff000016176101008360028111156109b7576109b76128b0565b021790555090505060008c83815181106109d3576109d3612849565b60200260200101519050600060028111156109f0576109f06128b0565b73ffffffffffffffffffffffffffffffffffffffff8216600090815260056020526040902054610100900460ff166002811115610a2f57610a2f6128b0565b14610a96576040517f89a6198900000000000000000000000000000000000000000000000000000000815260206004820152601c60248201527f7265706561746564207472616e736d697474657220616464726573730000000060448201526064016105a1565b6040805180820190915260ff84168152602081016002905273ffffffffffffffffffffffffffffffffffffffff821660009081526005602090815260409091208251815460ff9091167fffffffffffffffffffffffffffffffffffffffffffffffffffffffffffffff0082168117835592840151919283917fffffffffffffffffffffffffffffffffffffffffffffffffffffffffffff00001617610100836002811115610b4657610b466128b0565b0217905550905050505080610b5a90612878565b9050610828565b508a51610b759060069060208e0190612081565b508951610b899060079060208d0190612081565b506003805460ff838116610100027fffffffffffffffffffffffffffffffffffffffffffffffffffffffffffff0000909216908c161717905560048054610c0f914691309190600090610be19063ffffffff166128df565b91906101000a81548163ffffffff021916908363ffffffff160217905563ffffffff168e8e8e8e8e8e611966565b600260000181905550600060048054906101000a900463ffffffff169050436004806101000a81548163ffffffff021916908363ffffffff1602179055507f1591690b8638f5fb2dbec82ac741805ac5da8b45dc5263f4875b0496fdce4e0581600260000154600460009054906101000a900463ffffffff168f8f8f8f8f8f604051610ca399989796959493929190612902565b60405180910390a1505050505050505050505050565b600a5460009068010000000000000000900460ff1615610d05576040517feced32bc00000000000000000000000000000000000000000000000000000000815260040160405180910390fd5b6000610d7687878080602002602001604051908101604052809392919081815260200183836020028082843760009201919091525050604080516020808b0282810182019093528a82529093508a925089918291850190849080828437600092019190915250889250611a11915050565b6000818152600b60205260409020549091501580610d9a5750610d988161167f565b155b15610da9576000915050610dbb565b6000908152600b602052604090205490505b95945050505050565b610dcc611738565b600a80547fffffffffffffffffffffffffffffffffffffffffffffff00ffffffffffffffff1690556040513381527f5db9ee0a495bf2e6ff9c91a7834c1ba4fdd244a5e8aa4e537bd38aeae4b073aa906020015b60405180910390a1565b60606007805480602002602001604051908101604052809291908181526020018280548015610e8f57602002820191906000526020600020905b815473ffffffffffffffffffffffffffffffffffffffff168152600190910190602001808311610e64575b5050505050905090565b60015473ffffffffffffffffffffffffffffffffffffffff163314610f1a576040517f08c379a000000000000000000000000000000000000000000000000000000000815260206004820152601660248201527f4d7573742062652070726f706f736564206f776e65720000000000000000000060448201526064016105a1565b60008054337fffffffffffffffffffffffff00000000000000000000000000000000000000008083168217845560018054909116905560405173ffffffffffffffffffffffffffffffffffffffff90921692909183917f8be0079c531659141344cd1fd0a4f28419497f9722a3daafe3b4186f6b6457e091a350565b610f9e611738565b600a80547fffffffffffffffffffffffffffffffffffffffffffffff00ffffffffffffffff16680100000000000000001790556040513381527f62e78cea01bee320cd4e420270b5ea74000d11b0c9f74754ebdbfc544b05a25890602001610e20565b611009611738565b600a80547fffffffffffffffffffffffffffffffffffffffffffffffff00000000000000001667ffffffffffffffff92909216919091179055565b61108387878080601f016020809104026020016040519081016040528093929190818152602001838380828437600092019190915250611be892505050565b6040805160608101825260025480825260035460ff8082166020850152610100909104169282019290925289359182146110f65780516040517f93df584c0000000000000000000000000000000000000000000000000000000081526004810191909152602481018390526044016105a1565b6040805183815260208c81013560081c63ffffffff16908201527fb04e63db38c49950639fa09d29872f21f5d49d614f3a969d8adf3d4b52e41a62910160405180910390a16002816020015182604001516111519190612998565b61115b91906129b1565b611166906001612998565b60ff1686146111a1576040517f71253a2500000000000000000000000000000000000000000000000000000000815260040160405180910390fd5b8584146111da576040517fa75d88af00000000000000000000000000000000000000000000000000000000815260040160405180910390fd5b3360009081526005602090815260408083208151808301909252805460ff8082168452929391929184019161010090910416600281111561121d5761121d6128b0565b600281111561122e5761122e6128b0565b905250905060028160200151600281111561124b5761124b6128b0565b14801561129257506007816000015160ff168154811061126d5761126d612849565b60009182526020909120015473ffffffffffffffffffffffffffffffffffffffff1633145b6112c8576040517fda0f08e800000000000000000000000000000000000000000000000000000000815260040160405180910390fd5b5060006112d6856020612832565b6112e1886020612832565b6112ed8b6101446129fa565b6112f791906129fa565b61130191906129fa565b9050368114611345576040517f8e1192e1000000000000000000000000000000000000000000000000000000008152600481018290523660248201526044016105a1565b5060008989604051611358929190612a0d565b60405190819003812061136f918d90602001612a1d565b60405160208183030381529060405280519060200120905061138f61210b565b8760005b818110156115bc5760006001858984602081106113b2576113b2612849565b6113bf91901a601b612998565b8e8e868181106113d1576113d1612849565b905060200201358d8d878181106113ea576113ea612849565b9050602002013560405160008152602001604052604051611427949392919093845260ff9290921660208401526040830152606082015260800190565b6020604051602081039080840390855afa158015611449573d6000803e3d6000fd5b5050604080517fffffffffffffffffffffffffffffffffffffffffffffffffffffffffffffffe081015173ffffffffffffffffffffffffffffffffffffffff8116600090815260056020908152848220848601909552845460ff80821686529397509195509293928401916101009091041660028111156114cc576114cc6128b0565b60028111156114dd576114dd6128b0565b90525090506001816020015160028111156114fa576114fa6128b0565b14611531576040517fca31867a00000000000000000000000000000000000000000000000000000000815260040160405180910390fd5b8051859060ff16601f811061154857611548612849565b602002015115611584576040517ff67bc7c400000000000000000000000000000000000000000000000000000000815260040160405180910390fd5b600185826000015160ff16601f811061159f5761159f612849565b91151560209092020152506115b5905081612878565b9050611393565b5050505050505050505050505050565b6115d4611738565b6115dd81611f11565b50565b6115e8611738565b60005b8181101561167a57600083838381811061160757611607612849565b9050602002013590506116198161167f565b611669576000818152600b602052604080822091909155517f202f1139a3e334b6056064c0e9b19fd07e44a88d8f6e5ded571b24cf8c371f12906116609083815260200190565b60405180910390a15b5061167381612878565b90506115eb565b505050565b6009546040805180820182523081526020810184815291517f4d616771000000000000000000000000000000000000000000000000000000008152905173ffffffffffffffffffffffffffffffffffffffff9081166004830152915160248201526000929190911690634d61677190604401602060405180830381865afa15801561170e573d6000803e3d6000fd5b505050506040513d601f19601f8201168201806040525081019061173291906127e1565b92915050565b60005473ffffffffffffffffffffffffffffffffffffffff1633146117b9576040517f08c379a000000000000000000000000000000000000000000000000000000000815260206004820152601660248201527f4f6e6c792063616c6c61626c65206279206f776e65720000000000000000000060448201526064016105a1565b565b6000818060200190518101906117d19190612a31565b602081015190915073ffffffffffffffffffffffffffffffffffffffff1615806118105750805173ffffffffffffffffffffffffffffffffffffffff16155b15611847576040517f3f8be2be00000000000000000000000000000000000000000000000000000000815260040160405180910390fd5b80516008805473ffffffffffffffffffffffffffffffffffffffff9283167fffffffffffffffffffffffff0000000000000000000000000000000000000000918216179091556020808401516009805491851691909316179091556040805160608101825267ffffffffffffffff7f0000000000000000000000000000000000000000000000000000000000000000811682527f000000000000000000000000000000000000000000000000000000000000000016928101929092527f00000000000000000000000000000000000000000000000000000000000000009092168183015290517f4b4b9b37763b78c5a0701b5980dbb19a9104b78dfd1fcaa85c6260f01244bd429161195a918490612a72565b60405180910390a15050565b6000808a8a8a8a8a8a8a8a8a60405160200161198a99989796959493929190612ae2565b604080517fffffffffffffffffffffffffffffffffffffffffffffffffffffffffffffffe081840301815291905280516020909101207dffffffffffffffffffffffffffffffffffffffffffffffffffffffffffff167e01000000000000000000000000000000000000000000000000000000000000179150509998505050505050505050565b60008084519050600060018551830103905080600003611a4f5785600081518110611a3e57611a3e612849565b602002602001015192505050611be1565b610100811115611a8b576040517f09bde33900000000000000000000000000000000000000000000000000000000815260040160405180910390fd5b60008167ffffffffffffffff811115611aa657611aa66121fc565b604051908082528060200260200182016040528015611acf578160200160208202803683370190505b50905060008080805b85811015611bba57611b956001828b901c16600114611b15578a5160018401938c918110611b0857611b08612849565b6020026020010151611b53565b878510611b33578551600185019487918110611b0857611b08612849565b8b5160018601958d918110611b4a57611b4a612849565b60200260200101515b888610611b7e578651600186019588918110611b7157611b71612849565b6020026020010151612006565b8c5160018701968e918110611b7157611b71612849565b858281518110611ba757611ba7612849565b6020908102919091010152600101611ad8565b50836001860381518110611bd057611bd0612849565b602002602001015196505050505050505b9392505050565b600a5468010000000000000000900460ff1615611c31576040517feced32bc00000000000000000000000000000000000000000000000000000000815260040160405180910390fd5b600954604080517f397796f7000000000000000000000000000000000000000000000000000000008152905173ffffffffffffffffffffffffffffffffffffffff9092169163397796f7916004808201926020929091908290030181865afa158015611ca1573d6000803e3d6000fd5b505050506040513d601f19601f82011682018060405250810190611cc591906127e1565b15611cfc576040517fc148371500000000000000000000000000000000000000000000000000000000815260040160405180910390fd5b600081806020019051810190611d129190612bec565b80515151909150151580611d34575080516020015167ffffffffffffffff1615155b15611dce5760085481516040517f866548c900000000000000000000000000000000000000000000000000000000815273ffffffffffffffffffffffffffffffffffffffff9092169163866548c991611d8f91600401612e03565b600060405180830381600087803b158015611da957600080fd5b505af1158015611dbd573d6000803e3d6000fd5b505050506040810151611dce575050565b602081015151600a5467ffffffffffffffff9081169116141580611e09575060208082015190810151905167ffffffffffffffff9182169116115b15611e465780602001516040517fbb1ae18d0000000000000000000000000000000000000000000000000000000081526004016105a19190612e16565b6040810151611e81576040517f504570e300000000000000000000000000000000000000000000000000000000815260040160405180910390fd5b6020808201510151611e94906001612e3b565b600a80547fffffffffffffffffffffffffffffffffffffffffffffffff00000000000000001667ffffffffffffffff929092169190911790556040818101516000908152600b602052819020429055517fe81b49e583122eb290c46fc255c962b9a2dec468816c00fb7a2e6ebc42dc92d49061195a908390612e63565b3373ffffffffffffffffffffffffffffffffffffffff821603611f90576040517f08c379a000000000000000000000000000000000000000000000000000000000815260206004820152601760248201527f43616e6e6f74207472616e7366657220746f2073656c6600000000000000000060448201526064016105a1565b600180547fffffffffffffffffffffffff00000000000000000000000000000000000000001673ffffffffffffffffffffffffffffffffffffffff83811691821790925560008054604051929316917fed8889f560326eb138920d842192f0eb3dd22b4f139c87a2c57538e05bae12789190a350565b60008183106120485760408051600160208083019190915281830185905260608083018790528351808403909101815260809092019092528051910120611be1565b60408051600160208083019190915281830186905260608083018690528351808403909101815260809092019092528051910120611be1565b8280548282559060005260206000209081019282156120fb579160200282015b828111156120fb57825182547fffffffffffffffffffffffff00000000000000000000000000000000000000001673ffffffffffffffffffffffffffffffffffffffff9091161782556020909201916001909101906120a1565b5061210792915061212a565b5090565b604051806103e00160405280601f906020820280368337509192915050565b5b80821115612107576000815560010161212b565b815167ffffffffffffffff90811682526020808401519091169082015260408083015173ffffffffffffffffffffffffffffffffffffffff169082015260608101611732565b6000815180845260005b818110156121ab5760208185018101518683018201520161218f565b5060006020828601015260207fffffffffffffffffffffffffffffffffffffffffffffffffffffffffffffffe0601f83011685010191505092915050565b602081526000611be16020830184612185565b7f4e487b7100000000000000000000000000000000000000000000000000000000600052604160045260246000fd5b6040805190810167ffffffffffffffff8111828210171561224e5761224e6121fc565b60405290565b6040516060810167ffffffffffffffff8111828210171561224e5761224e6121fc565b604051601f82017fffffffffffffffffffffffffffffffffffffffffffffffffffffffffffffffe016810167ffffffffffffffff811182821017156122be576122be6121fc565b604052919050565b600067ffffffffffffffff8211156122e0576122e06121fc565b5060051b60200190565b73ffffffffffffffffffffffffffffffffffffffff811681146115dd57600080fd5b600082601f83011261231d57600080fd5b8135602061233261232d836122c6565b612277565b82815260059290921b8401810191818101908684111561235157600080fd5b8286015b84811015612375578035612368816122ea565b8352918301918301612355565b509695505050505050565b803560ff8116811461239157600080fd5b919050565b600082601f8301126123a757600080fd5b813567ffffffffffffffff8111156123c1576123c16121fc565b6123f260207fffffffffffffffffffffffffffffffffffffffffffffffffffffffffffffffe0601f84011601612277565b81815284602083860101111561240757600080fd5b816020850160208301376000918101602001919091529392505050565b67ffffffffffffffff811681146115dd57600080fd5b803561239181612424565b60008060008060008060c0878903121561245e57600080fd5b863567ffffffffffffffff8082111561247657600080fd5b6124828a838b0161230c565b9750602089013591508082111561249857600080fd5b6124a48a838b0161230c565b96506124b260408a01612380565b955060608901359150808211156124c857600080fd5b6124d48a838b01612396565b94506124e260808a0161243a565b935060a08901359150808211156124f857600080fd5b5061250589828a01612396565b9150509295509295509295565b60008083601f84011261252457600080fd5b50813567ffffffffffffffff81111561253c57600080fd5b6020830191508360208260051b850101111561255757600080fd5b9250929050565b60008060008060006060868803121561257657600080fd5b853567ffffffffffffffff8082111561258e57600080fd5b61259a89838a01612512565b909750955060208801359150808211156125b357600080fd5b506125c088828901612512565b96999598509660400135949350505050565b600081518084526020808501945080840160005b8381101561261857815173ffffffffffffffffffffffffffffffffffffffff16875295820195908201906001016125e6565b509495945050505050565b602081526000611be160208301846125d2565b604081016117328284805173ffffffffffffffffffffffffffffffffffffffff908116835260209182015116910152565b60006020828403121561267957600080fd5b5035919050565b60006020828403121561269257600080fd5b8135611be181612424565b60008060008060008060008060e0898b0312156126b957600080fd5b606089018a8111156126ca57600080fd5b8998503567ffffffffffffffff808211156126e457600080fd5b818b0191508b601f8301126126f857600080fd5b81358181111561270757600080fd5b8c602082850101111561271957600080fd5b6020830199508098505060808b013591508082111561273757600080fd5b6127438c838d01612512565b909750955060a08b013591508082111561275c57600080fd5b506127698b828c01612512565b999c989b50969995989497949560c00135949350505050565b60006020828403121561279457600080fd5b8135611be1816122ea565b600080602083850312156127b257600080fd5b823567ffffffffffffffff8111156127c957600080fd5b6127d585828601612512565b90969095509350505050565b6000602082840312156127f357600080fd5b81518015158114611be157600080fd5b7f4e487b7100000000000000000000000000000000000000000000000000000000600052601160045260246000fd5b808202811582820484141761173257611732612803565b7f4e487b7100000000000000000000000000000000000000000000000000000000600052603260045260246000fd5b60007fffffffffffffffffffffffffffffffffffffffffffffffffffffffffffffffff82036128a9576128a9612803565b5060010190565b7f4e487b7100000000000000000000000000000000000000000000000000000000600052602160045260246000fd5b600063ffffffff8083168181036128f8576128f8612803565b6001019392505050565b600061012063ffffffff808d1684528b6020850152808b166040850152508060608401526129328184018a6125d2565b9050828103608084015261294681896125d2565b905060ff871660a084015282810360c08401526129638187612185565b905067ffffffffffffffff851660e08401528281036101008401526129888185612185565b9c9b505050505050505050505050565b60ff818116838216019081111561173257611732612803565b600060ff8316806129eb577f4e487b7100000000000000000000000000000000000000000000000000000000600052601260045260246000fd5b8060ff84160491505092915050565b8082018082111561173257611732612803565b8183823760009101908152919050565b828152606082602083013760800192915050565b600060408284031215612a4357600080fd5b612a4b61222b565b8251612a56816122ea565b81526020830151612a66816122ea565b60208201529392505050565b825167ffffffffffffffff90811682526020808501519091169082015260408084015173ffffffffffffffffffffffffffffffffffffffff169082015260a08101825173ffffffffffffffffffffffffffffffffffffffff90811660608401526020840151166080830152611be1565b60006101208b835273ffffffffffffffffffffffffffffffffffffffff8b16602084015267ffffffffffffffff808b166040850152816060850152612b298285018b6125d2565b91508382036080850152612b3d828a6125d2565b915060ff881660a085015283820360c0850152612b5a8288612185565b90861660e085015283810361010085015290506129888185612185565b805177ffffffffffffffffffffffffffffffffffffffffffffffff8116811461239157600080fd5b805161239181612424565b600060408284031215612bbc57600080fd5b612bc461222b565b90508151612bd181612424565b81526020820151612be181612424565b602082015292915050565b60006020808385031215612bff57600080fd5b825167ffffffffffffffff80821115612c1757600080fd5b9084019060808287031215612c2b57600080fd5b612c33612254565b825182811115612c4257600080fd5b830160608189031215612c5457600080fd5b612c5c612254565b815184811115612c6b57600080fd5b82019350601f84018913612c7e57600080fd5b8351612c8c61232d826122c6565b81815260069190911b8501870190878101908b831115612cab57600080fd5b958801955b82871015612cff576040878d031215612cc95760008081fd5b612cd161222b565b8751612cdc816122ea565b8152612ce9888b01612b77565b818b015282526040969096019590880190612cb0565b835250612d0f9050828701612b9f565b86820152612d1f60408301612b77565b6040820152825250612d3387848601612baa565b93810193909352506060015160408201529392505050565b805160608084528151908401819052600091602091908201906080860190845b81811015612dc2578351805173ffffffffffffffffffffffffffffffffffffffff16845285015177ffffffffffffffffffffffffffffffffffffffffffffffff168584015292840192604090920191600101612d6b565b505067ffffffffffffffff83860151168387015260408501519250610dbb604087018477ffffffffffffffffffffffffffffffffffffffffffffffff169052565b602081526000611be16020830184612d4b565b604081016117328284805167ffffffffffffffff908116835260209182015116910152565b67ffffffffffffffff818116838216019080821115612e5c57612e5c612803565b5092915050565b602081526000825160806020840152612e7f60a0840182612d4b565b90506020840151612eaa6040850182805167ffffffffffffffff908116835260209182015116910152565b5060408401516080840152809150509291505056fea164736f6c6343000813000a",
    "linkReferences": {}
  },
  "methodIdentifiers": {
    "acceptOwnership()": "79ba5097",
    "getDynamicConfig()": "7437ff9f",
    "getExpectedNextSequenceNumber()": "4120fccd",
    "getMerkleRoot(bytes32)": "a7206cd6",
    "getStaticConfig()": "06285c69",
    "getTransmitters()": "666cab8d",
    "isARMHealthy()": "0a6cd30d",
    "isBlessed(bytes32)": "ff888fb1",
    "latestConfigDetails()": "81ff7048",
    "latestConfigDigestAndEpoch()": "afcb95d7",
    "owner()": "8da5cb5b",
    "pause()": "8456cb59",
    "paused()": "5c975abb",
    "resetUnblessedRoots(bytes32[])": "f47a8690",
    "setMinSeqNr(uint64)": "ad7a22f8",
    "setOCR2Config(address[],address[],uint8,bytes,uint64,bytes)": "1ef38174",
    "transferOwnership(address)": "f2fde38b",
    "transmit(bytes32[3],bytes,bytes32[],bytes32[],bytes32)": "b1dc65a4",
    "typeAndVersion()": "181f5a77",
    "unpause()": "3f4ba83a",
    "verify(bytes32[],bytes32[],uint256)": "32048875"
  },
  "id": 2
}