{
  "abi": [
    {
      "inputs": [
        {
          "internalType": "address",
          "name": "router",
          "type": "address"
        }
      ],
      "stateMutability": "nonpayable",
      "type": "constructor"
    },
    {
      "inputs": [
        {
          "internalType": "address",
          "name": "router",
          "type": "address"
        }
      ],
      "name": "InvalidRouter",
      "type": "error"
    },
    {
      "inputs": [
        {
          "components": [
            {
              "internalType": "bytes32",
              "name": "messageId",
              "type": "bytes32"
            },
            {
              "internalType": "uint64",
              "name": "sourceChainSelector",
              "type": "uint64"
            },
            {
              "internalType": "bytes",
              "name": "sender",
              "type": "bytes"
            },
            {
              "internalType": "bytes",
              "name": "data",
              "type": "bytes"
            },
            {
              "components": [
                {
                  "internalType": "address",
                  "name": "token",
                  "type": "address"
                },
                {
                  "internalType": "uint256",
                  "name": "amount",
                  "type": "uint256"
                }
              ],
              "internalType": "struct Client.EVMTokenAmount[]",
              "name": "destTokenAmounts",
              "type": "tuple[]"
            }
          ],
          "internalType": "struct Client.Any2EVMMessage",
          "name": "message",
          "type": "tuple"
        }
      ],
      "name": "ccipReceive",
      "outputs": [],
      "stateMutability": "nonpayable",
      "type": "function"
    },
    {
      "inputs": [],
      "name": "getRouter",
      "outputs": [
        {
          "internalType": "address",
          "name": "",
          "type": "address"
        }
      ],
      "stateMutability": "view",
      "type": "function"
    },
    {
      "inputs": [
        {
          "internalType": "bytes4",
          "name": "interfaceId",
          "type": "bytes4"
        }
      ],
      "name": "supportsInterface",
      "outputs": [
        {
          "internalType": "bool",
          "name": "",
          "type": "bool"
        }
      ],
      "stateMutability": "pure",
      "type": "function"
    },
    {
      "inputs": [],
      "name": "typeAndVersion",
      "outputs": [
        {
          "internalType": "string",
          "name": "",
          "type": "string"
        }
      ],
      "stateMutability": "view",
      "type": "function"
    }
  ],
  "bytecode": {
    "object": "0x60a060405234801561001057600080fd5b5060405161093c38038061093c83398101604081905261002f91610070565b806001600160a01b03811661005e576040516335fdcccd60e21b81526000600482015260240160405180910390fd5b6001600160a01b0316608052506100a0565b60006020828403121561008257600080fd5b81516001600160a01b038116811461009957600080fd5b9392505050565b60805161087b6100c16000396000818160f101526101cc015261087b6000f3fe608060405234801561001057600080fd5b506004361061004c5760003560e01c806301ffc9a714610051578063181f5a771461007957806385572ffb146100c2578063b0f479a1146100d7575b600080fd5b61006461005f3660046103a3565b61011b565b60405190151581526020015b60405180910390f35b6100b56040518060400160405280601281526020017f52656365697665724461707020322e302e30000000000000000000000000000081525081565b60405161007091906103ec565b6100d56100d0366004610458565b6101b4565b005b60405173ffffffffffffffffffffffffffffffffffffffff7f0000000000000000000000000000000000000000000000000000000000000000168152602001610070565b60007fffffffff0000000000000000000000000000000000000000000000000000000082167f85572ffb0000000000000000000000000000000000000000000000000000000014806101ae57507fffffffff0000000000000000000000000000000000000000000000000000000082167f01ffc9a700000000000000000000000000000000000000000000000000000000145b92915050565b3373ffffffffffffffffffffffffffffffffffffffff7f00000000000000000000000000000000000000000000000000000000000000001614610229576040517fd7f7333400000000000000000000000000000000000000000000000000000000815233600482015260240160405180910390fd5b61023a610235826106d7565b61023d565b50565b61023a816060015182608001516000828060200190518101906102609190610784565b91505060005b825181101561039d576000838281518110610283576102836107be565b6020026020010151602001519050600073ffffffffffffffffffffffffffffffffffffffff168373ffffffffffffffffffffffffffffffffffffffff16141580156102cd57508015155b1561038c578382815181106102e4576102e46107be565b6020908102919091010151516040517fa9059cbb00000000000000000000000000000000000000000000000000000000815273ffffffffffffffffffffffffffffffffffffffff8581166004830152602482018490529091169063a9059cbb906044016020604051808303816000875af1158015610366573d6000803e3d6000fd5b505050506040513d601f19601f8201168201806040525081019061038a91906107ed565b505b506103968161080f565b9050610266565b50505050565b6000602082840312156103b557600080fd5b81357fffffffff00000000000000000000000000000000000000000000000000000000811681146103e557600080fd5b9392505050565b600060208083528351808285015260005b81811015610419578581018301518582016040015282016103fd565b5060006040828601015260407fffffffffffffffffffffffffffffffffffffffffffffffffffffffffffffffe0601f8301168501019250505092915050565b60006020828403121561046a57600080fd5b813567ffffffffffffffff81111561048157600080fd5b820160a081850312156103e557600080fd5b7f4e487b7100000000000000000000000000000000000000000000000000000000600052604160045260246000fd5b6040805190810167ffffffffffffffff811182821017156104e5576104e5610493565b60405290565b60405160a0810167ffffffffffffffff811182821017156104e5576104e5610493565b604051601f82017fffffffffffffffffffffffffffffffffffffffffffffffffffffffffffffffe016810167ffffffffffffffff8111828210171561055557610555610493565b604052919050565b803567ffffffffffffffff8116811461057557600080fd5b919050565b600082601f83011261058b57600080fd5b813567ffffffffffffffff8111156105a5576105a5610493565b6105d660207fffffffffffffffffffffffffffffffffffffffffffffffffffffffffffffffe0601f8401160161050e565b8181528460208386010111156105eb57600080fd5b816020850160208301376000918101602001919091529392505050565b73ffffffffffffffffffffffffffffffffffffffff8116811461023a57600080fd5b600082601f83011261063b57600080fd5b8135602067ffffffffffffffff82111561065757610657610493565b610665818360051b0161050e565b82815260069290921b8401810191818101908684111561068457600080fd5b8286015b848110156106cc57604081890312156106a15760008081fd5b6106a96104c2565b81356106b481610608565b81528185013585820152835291830191604001610688565b509695505050505050565b600060a082360312156106e957600080fd5b6106f16104eb565b823581526107016020840161055d565b6020820152604083013567ffffffffffffffff8082111561072157600080fd5b61072d3683870161057a565b6040840152606085013591508082111561074657600080fd5b6107523683870161057a565b6060840152608085013591508082111561076b57600080fd5b506107783682860161062a565b60808301525092915050565b6000806040838503121561079757600080fd5b82516107a281610608565b60208401519092506107b381610608565b809150509250929050565b7f4e487b7100000000000000000000000000000000000000000000000000000000600052603260045260246000fd5b6000602082840312156107ff57600080fd5b815180151581146103e557600080fd5b60007fffffffffffffffffffffffffffffffffffffffffffffffffffffffffffffffff8203610867577f4e487b7100000000000000000000000000000000000000000000000000000000600052601160045260246000fd5b506001019056fea164736f6c6343000813000a",
    "linkReferences": {}
  },
  "methodIdentifiers": {
    "ccipReceive((bytes32,uint64,bytes,bytes,(address,uint256)[]))": "85572ffb",
    "getRouter()": "b0f479a1",
    "supportsInterface(bytes4)": "01ffc9a7",
    "typeAndVersion()": "181f5a77"
  },
  "id": 9
}